:100000000C942A000C9447000C9447000C94470071
:100010000C9447000C9447000C947B100C94470000
:100020000C9447000C9450100C9447000C9447001B
:100030000C9447000C9447000C9447000C94470024
:100040000C9447000C9447000C9447000C94470014
:100050000C94470011241FBECFE5D8E0DEBFCDBF12
:1000600011E0A0E6B0E0E0E5F3E202C005900D92F9
:10007000A837B107D9F711E0A8E7B1E001C01D9298
:10008000AC38B107E1F70E94780F0C94A6110C94DC
:100090000000EF92FF920F931F937B018C0120E0F1
:1000A00030E040E05FE40E94F50388238CF0C80153
:1000B000B70120E030E040E05FE40E94C1010E940F
:1000C00055049B01AC01205030404040504806C0D0
:1000D000C801B7010E9455049B01AC01B901CA01D6
:1000E0001F910F91FF90EF900895A0E0B0E0EBE733
:1000F000F0E00C946F11DC012B01FA019C9192301D
:1001000008F439C1EB018881823008F433C194309E
:1001100069F4843009F02FC111969C91119789815F
:10012000981709F428C1AEE6B0E025C1843009F47F
:1001300021C18230A9F4923009F01DC19A01AD01AC
:1001400088E0EA010990AE01E90109929E0181501F
:10015000C1F7E201898111969C918923818308C1AD
:10016000923009F407C112962D903C901397EB0141
:100170008A819B811496AD90BD90CD90DC901797AD
:10018000EC80FD800E811F819101281B390BB90184
:1001900037FF04C066277727621B730B6032710537
:1001A0000CF061C0121613066CF537014801062EDB
:1001B00004C096948794779467940A94D2F721E0C8
:1001C00030E040E050E004C0220F331F441F551FB1
:1001D0006A95D2F721503040404050402E213F21B7
:1001E00040235123211531054105510521F021E01E
:1001F00030E040E050E079018A01E628F72808293C
:1002000019293CC0232BD1F1260E371E350146019A
:10021000062E04C096948794779467940A94D2F734
:1002200021E030E040E050E004C0220F331F441FC3
:10023000551F6A95D2F721503040404050402A2146
:100240003B214C215D21211531054105510521F04E
:1002500021E030E040E050E059016A01A628B728CB
:10026000C828D9280BC0821593052CF01C01AA249C
:10027000BB24650103C0EE24FF24870111969C91E5
:10028000D20111968C91981709F445C0992339F041
:10029000A80197012A193B094C095D0906C0A6016E
:1002A00095012E193F09400B510B57FD08C01182D3
:1002B0003382228224833583468357831DC081E0A5
:1002C00081833382228288279927DC01821B930B4A
:1002D000A40BB50B84839583A683B7830DC0220F2F
:1002E000331F441F551F24833583468357838281E0
:1002F000938101979383828324813581468157813D
:10030000DA01C9010197A109B1098F5F9F4FAF4F72
:10031000BF4328F30BC0918333822282EA0CFB1C7B
:100320000C1D1D1DE482F5820683178383E0808304
:10033000248135814681578157FF1AC0C901AA27F8
:1003400097FDA095BA2F81709070A070B0705695EF
:10035000479537952795822B932BA42BB52B848318
:100360009583A683B7838281938101969383828349
:10037000DF0101C0D201CD01CDB7DEB7E2E10C94BF
:100380008B11A0E2B0E0E7ECF1E00C947B11698303
:100390007A838B839C832D833E834F835887E9E048
:1003A000EE2EF12CEC0EFD1ECE010196B7010E943F
:1003B00046068E010F5E1F4FCE010596B8010E94C2
:1003C00046068A8991E089278A8BC701B801AE0168
:1003D000475E5F4F0E9475000E947105A096E6E09F
:1003E0000C949711A0E2B0E0E8EFF1E00C947B11DF
:1003F00069837A838B839C832D833E834F835887C5
:10040000F9E0EF2EF12CEC0EFD1ECE010196B701A6
:100410000E9446068E010F5E1F4FCE010596B80161
:100420000E944606C701B801AE01475E5F4F0E94B9
:1004300075000E947105A096E6E00C949711A0E269
:10044000B0E0E5E2F2E00C946F1169837A838B836C
:100450009C832D833E834F835887CE010196BE0136
:10046000675F7F4F0E944606CE010596BE016F5E14
:100470007F4F0E9446069985923088F089898230A4
:10048000C8F0943019F4823051F404C0843029F457
:10049000923081F48EE690E0C6C0923049F420E0BC
:1004A0009A858A89981321E02A87CE010996BBC0D4
:1004B000823049F420E09A858A89981321E02A8BBA
:1004C000CE014196B0C02D843E844F8458886D88FB
:1004D0007E888F88988CEE24FF248701AA24BB2471
:1004E000650140E050E060E070E0E0E0F0E0C10174
:1004F00081709070892BE9F0E60CF71C081D191D1E
:100500009A01AB012A0D3B1D4C1D5D1D80E090E062
:10051000A0E0B0E0E614F7040805190520F481E036
:1005200090E0A0E0B0E0BA01A901480F591F6A1F8E
:100530007B1FAA0CBB1CCC1CDD1C97FE08C081E0F5
:1005400090E0A0E0B0E0A82AB92ACA2ADB2A3196B6
:10055000E032F10549F0660C771C881C991C569412
:10056000479437942794C3CFFA85EA892B893C892D
:100570008B859C85280F391F2E5F3F4F17C0CA01FE
:1005800081709070892B61F016950795F794E79428
:1005900080E090E0A0E0B0E8E82AF92A0A2B1B2BC3
:1005A00076956795579547952F5F3F4F77FDE7CF36
:1005B0000CC0440F551F661F771F17FD4160EE0CDE
:1005C000FF1C001F111F21503040403090E05907A0
:1005D00090E0690790E4790760F32B8F3C8FDB0193
:1005E000CA018F779070A070B07080349105A1051A
:1005F000B10561F447FD0AC0E114F10401051105DC
:1006000029F0405C5F4F6F4F7F4F40781A8EFE1786
:1006100011F081E08A8F4D8F5E8F6F8F78A383E01A
:10062000898FCE0149960E947105A096E2E10C9453
:100630008B11A8E1B0E0EFE1F3E00C94771169834E
:100640007A838B839C832D833E834F835887B9E0C5
:10065000EB2EF12CEC0EFD1ECE010196B7010E948F
:1006600046068E010F5E1F4FCE010596B8010E940F
:1006700046062985223008F47EC03989323010F4CC
:10068000B8017CC08A859A8989278A87243011F02D
:10069000223031F4231709F06EC06EE670E06EC0B0
:1006A000343039F41D861E861F86188A1C861B86E8
:1006B00004C0323021F484E08987B7015FC02B8504
:1006C0003C858B899C89281B390B3C872B87ED84C3
:1006D000FE840F851889AD88BE88CF88D88CEA142F
:1006E000FB040C051D0540F4EE0CFF1C001F111F40
:1006F000215030403C872B8720E030E040E050E044
:1007000080E090E0A0E0B0E460E070E0EA14FB0478
:100710000C051D0540F0282B392B4A2B5B2BEA18C2
:10072000FB080C091D09B695A79597958795EE0CC2
:10073000FF1C001F111F6F5F7F4F6F31710531F775
:10074000DA01C9018F779070A070B0708034910584
:10075000A105B10561F427FD0AC0E114F10401050A
:10076000110529F0205C3F4F4F4F5F4F20782D87B8
:100770003E874F87588BBE01675F7F4FCB010E943A
:1007800071056896EAE00C949311A8E1B0E0EBECF7
:10079000F3E00C947B1169837A838B839C832D8394
:1007A0003E834F83588789E0E82EF12CEC0EFD1E26
:1007B000CE010196B7010E9446068E010F5E1F4FC3
:1007C000CE010596B8010E9446068985823040F028
:1007D0008989823028F0C701B8010E94BE0601C095
:1007E0008FEF6896E6E00C949711A8E1B0E0EBEF8C
:1007F000F3E00C947B1169837A838B839C832D8334
:100800003E834F83588789E0E82EF12CEC0EFD1EC5
:10081000CE010196B7010E9446068E010F5E1F4F62
:10082000CE010596B8010E9446068985823040F0C7
:100830008989823028F0C701B8010E94BE0601C034
:100840008FEF6896E6E00C949711A8E1B0E0EBE238
:10085000F4E00C947B1169837A838B839C832D83D2
:100860003E834F83588789E0E82EF12CEC0EFD1E65
:10087000CE010196B7010E9446068E010F5E1F4F02
:10088000CE010596B8010E9446068985823040F067
:100890008989823028F0C701B8010E94BE0601C0D4
:1008A00081E06896E6E00C949711ACE0B0E0EBE5EF
:1008B000F4E00C947F1169837A838B839C83CE014F
:1008C0000196BE016B5F7F4F0E9446068D8182308C
:1008D00061F1823050F1843021F48E81882351F10E
:1008E0002EC02F81388537FD20C06E812F31310514
:1008F0001CF06623F9F023C08EE190E0821B930B7D
:1009000029853A854B855C8504C056954795379572
:1009100027958A95D2F76623B1F05095409530958A
:1009200021953F4F4F4F5F4F0EC020E030E040E039
:1009300050E009C02FEF3FEF4FEF5FE704C020E02A
:1009400030E040E050E8B901CA012C96E2E00C9496
:100950009B11A8E0B0E0EFEAF4E00C9477117B0182
:100960008C01611571058105910519F482E0898377
:1009700060C083E089838EE1C82ED12CDC82CB82DB
:10098000ED82FE820F831887C801B7010E942205FD
:10099000FC013197F7FF3BC0222733272E1B3F0B6B
:1009A00057016801022E04C0D694C794B794A79447
:1009B0000A94D2F740E050E060E070E081E090E01F
:1009C000A0E0B0E004C0880F991FAA1FBB1F2A95A2
:1009D000D2F70197A109B1098E219F21A023B1234C
:1009E0000097A105B10521F041E050E060E070E022
:1009F0004A295B296C297D294D835E836F83788723
:100A00008EE190E08E1B9F0B9C838B8312C03097EE
:100A100081F00E2E04C0EE0CFF1C001F111F0A9463
:100A2000D2F7ED82FE820F831887CE1ADF0ADC82AE
:100A3000CB821A82CE0101960E9471052896EAE0C7
:100A40000C949311EF92FF920F931F937B018C01F3
:100A500080E0E81680E0F80681E0080780E01807EB
:100A600088F48FEFE816F1040105110531F028F044
:100A700088E090E0A0E0B0E017C080E090E0A0E067
:100A8000B0E012C080E0E81680E0F80680E00807D9
:100A900081E0180728F088E190E0A0E0B0E004C011
:100AA00080E190E0A0E0B0E020E230E040E050E003
:100AB000281B390B4A0B5B0B04C016950795F7945E
:100AC000E7948A95D2F7F701EA58FF4F8081281BF7
:100AD000310941095109C9011F910F91FF90EF9010
:100AE0000895DF92EF92FF920F931F93FC01E48031
:100AF000F58006811781D1808081823048F480E0C2
:100B000090E0A0E1B0E0E82AF92A0A2B1B2BA5C04F
:100B1000843009F49FC0823021F4EE24FF24870141
:100B200005C0E114F1040105110519F4E0E0F0E05D
:100B300096C0628173819FEF623879070CF05BC0C9
:100B400022E83FEF261B370B2A3131052CF020E03D
:100B500030E040E050E02AC0B801A701022E04C0F6
:100B600076956795579547950A94D2F781E090E07E
:100B7000A0E0B0E004C0880F991FAA1FBB1F2A95F0
:100B8000D2F70197A109B1098E219F21A023B1239A
:100B90000097A105B10521F081E090E0A0E0B0E070
:100BA0009A01AB01282B392B4A2B5B2BDA01C901A7
:100BB0008F779070A070B07080349105A105B10559
:100BC00039F427FF09C0205C3F4F4F4F5F4F04C0EF
:100BD000215C3F4F4F4F5F4FE0E0F0E02030A0E05E
:100BE0003A07A0E04A07A0E45A0710F0E1E0F0E07D
:100BF00079018A0127C06038710564F5FB01E1586D
:100C0000FF4FD801C7018F779070A070B07080340B
:100C10009105A105B10539F4E7FE0DC080E490E02F
:100C2000A0E0B0E004C08FE390E0A0E0B0E0E80E08
:100C3000F91E0A1F1B1F17FF05C016950795F7948D
:100C4000E794319687E016950795F794E7948A958F
:100C5000D1F705C0EE24FF248701EFEFF0E06E2FFF
:100C6000679566276795902F9F77D794DD24D79453
:100C70008E2F8695492F462B582F5D29B701CA0123
:100C80001F910F91FF90EF90DF900895FC01DB0121
:100C9000408151812281622F6F7770E0221F2227CD
:100CA000221F9381892F880F822B282F30E0991FD4
:100CB0009927991F11969C93119721153105A9F534
:100CC000411551056105710511F482E037C082E8D4
:100CD0009FEF13969C938E9312979A01AB0167E056
:100CE000220F331F441F551F6A95D1F783E08C9361
:100CF0000DC0220F331F441F551F12968D919C91DA
:100D00001397019713969C938E931297203080E04F
:100D1000380780E0480780E4580758F314962D936D
:100D20003D934D935C93179708952F3F310579F4C8
:100D3000411551056105710519F484E08C930895FE
:100D400064FF03C081E08C9312C01C9210C02F5727
:100D5000304013963C932E93129783E08C9387E058
:100D6000440F551F661F771F8A95D1F7706414963C
:100D70004D935D936D937C93179708951F93DC01BA
:100D8000FB019C91923008F447C08081823008F4C6
:100D900043C0943051F411961C91843099F58181AF
:100DA000682F70E0611B71093FC0843021F09230E0
:100DB00031F48230B9F18181882389F12DC01196F7
:100DC0001C9111978230F1F081811817D9F4129695
:100DD0002D913C911397828193818217930794F010
:100DE00028173907BCF014968D919D910D90BC91F8
:100DF000A02D2481358146815781281739074A075C
:100E00005B0718F4112341F00AC082179307A40767
:100E1000B50740F4112319F061E070E005C06FEFF1
:100E20007FEF02C060E070E0CB011F910895DF9377
:100E3000CF9300D000D00F92CDB7DEB789836A83FD
:100E40004B838981282F30E03D832C838C819D81C9
:100E50008130910509F443C02C813D812230310558
:100E60002CF48C819D81009771F0BCC02C813D8158
:100E70002230310509F45FC08C819D81833091055A
:100E800009F485C0AFC08B818823A9F4AAE3B0E040
:100E9000EAE3F0E08081482F8A81282F30E081E06A
:100EA00090E0022E02C0880F991F0A94E2F7809505
:100EB00084238C9397C0AAE3B0E0EAE3F0E080815A
:100EC000482F8A81282F30E081E090E0022E02C076
:100ED000880F991F0A94E2F7842B8C9383C08B812F
:100EE0008823A9F4A7E3B0E0E7E3F0E08081482F8E
:100EF0008A81282F30E081E090E0022E02C0880F26
:100F0000991F0A94E2F7809584238C936BC0A7E322
:100F1000B0E0E7E3F0E08081482F8A81282F30E0BD
:100F200081E090E0022E02C0880F991F0A94E2F738
:100F3000842B8C9357C08B818823A9F4A4E3B0E061
:100F4000E4E3F0E08081482F8A81282F30E081E0BF
:100F500090E0022E02C0880F991F0A94E2F7809554
:100F600084238C933FC0A4E3B0E0E4E3F0E080810D
:100F7000482F8A81282F30E081E090E0022E02C0C5
:100F8000880F991F0A94E2F7842B8C932BC08B81D6
:100F90008823A9F4A1E3B0E0E1E3F0E08081482FE9
:100FA0008A81282F30E081E090E0022E02C0880F75
:100FB000991F0A94E2F7809584238C9313C0A1E3D0
:100FC000B0E0E1E3F0E08081482F8A81282F30E013
:100FD00081E090E0022E02C0880F991F0A94E2F788
:100FE000842B8C930F900F900F900F900F90CF91B8
:100FF000DF910895DF93CF9300D000D00F92CDB74B
:10100000DEB789836A834B838981282F30E03D8353
:101010002C838C819D818130910509F443C02C8102
:101020003D81223031052CF48C819D81009771F037
:10103000BCC02C813D812230310509F45FC08C8118
:101040009D818330910509F485C0AFC08B818823D1
:10105000A9F4ABE3B0E0EBE3F0E08081482F8A81B4
:10106000282F30E081E090E0022E02C0880F991F07
:101070000A94E2F7809584238C9397C0ABE3B0E0A9
:10108000EBE3F0E08081482F8A81282F30E081E077
:1010900090E0022E02C0880F991F0A94E2F7842B79
:1010A0008C9383C08B818823A9F4A8E3B0E0E8E3A4
:1010B000F0E08081482F8A81282F30E081E090E0A5
:1010C000022E02C0880F991F0A94E2F780958423AC
:1010D0008C936BC0A8E3B0E0E8E3F0E08081482F98
:1010E0008A81282F30E081E090E0022E02C0880F34
:1010F000991F0A94E2F7842B8C9357C08B81882325
:10110000A9F4A5E3B0E0E5E3F0E08081482F8A810F
:10111000282F30E081E090E0022E02C0880F991F56
:101120000A94E2F7809584238C933FC0A5E3B0E056
:10113000E5E3F0E08081482F8A81282F30E081E0CC
:1011400090E0022E02C0880F991F0A94E2F7842BC8
:101150008C932BC08B818823A9F4A2E3B0E0E2E357
:10116000F0E08081482F8A81282F30E081E090E0F4
:10117000022E02C0880F991F0A94E2F780958423FB
:101180008C9313C0A2E3B0E0E2E3F0E08081482F4B
:101190008A81282F30E081E090E0022E02C0880F83
:1011A000991F0A94E2F7842B8C930F900F900F9065
:1011B0000F900F90CF91DF910895DF93CF9300D0E0
:1011C00000D0CDB7DEB789836A838981282F30E0CC
:1011D0003C832B838B819C818130910549F12B814C
:1011E0003C81223031052CF48B819C81009761F089
:1011F0005AC02B813C812230310571F18B819C8159
:1012000083309105E9F14FC0ABE3B0E0EBE3F0E0F0
:101210008081482F8A81282F30E081E090E0022EE3
:1012200002C0880F991F0A94E2F784278C933BC071
:10123000A8E3B0E0E8E3F0E08081482F8A81282F1E
:1012400030E081E090E0022E02C0880F991F0A94DE
:10125000E2F784278C9327C0A5E3B0E0E5E3F0E054
:101260008081482F8A81282F30E081E090E0022E93
:1012700002C0880F991F0A94E2F784278C9313C049
:10128000A2E3B0E0E2E3F0E08081482F8A81282FDA
:1012900030E081E090E0022E02C0880F991F0A948E
:1012A000E2F784278C930F900F900F900F90CF91BF
:1012B000DF910895DF93CF93CDB7DEB7AA970FB62E
:1012C000F894DEBF0FBECDBF82E060E041E00E9437
:1012D000170782E061E041E00E94170782E062E0C8
:1012E00041E00E94170782E063E041E00E94170797
:1012F00082E064E041E00E94170782E065E041E09F
:101300000E94170782E066E041E00E94170782E032
:1013100067E041E00E94170781E060E041E00E9441
:10132000170781E061E041E00E94170781E062E079
:1013300041E00E94170788E30E94EE0B80E090E0F6
:10134000A0EAB0E48FA398A7A9A7BAA76FA178A530
:1013500089A59AA520E030E84BE355E40E941F02DE
:10136000DC01CB018BA39CA3ADA3BEA36BA17CA18D
:101370008DA19EA120E030E040E85FE30E942504BB
:1013800088232CF481E090E09AA389A33FC06BA14D
:101390007CA18DA19EA120E03FEF4FE757E40E9482
:1013A000C50318164CF56FA178A589A59AA520E06C
:1013B00030E040E251E40E941F02DC01CB01BC019D
:1013C000CD010E944900DC01CB019AA389A30FC083
:1013D0008CE291E098A38F8F8F8D98A10197F1F700
:1013E00098A38F8F89A19AA101979AA389A389A114
:1013F0009AA1009769F714C06BA17CA18DA19EA151
:101400000E944900DC01CB019AA389A389A19AA17A
:101410009E8F8D8F8D8D9E8D0197F1F79E8F8D8F75
:101420008CE00E94EE0B80E090E0A0EAB0E4898FAF
:101430009A8FAB8FBC8F698D7A8D8B8D9C8D20E0C0
:1014400030E84BE355E40E941F02DC01CB018D8B99
:101450009E8BAF8BB88F6D897E898F89988D20E0A8
:1014600030E040E85FE30E94250488232CF481E00B
:1014700090E09C8B8B8B3FC06D897E898F89988D86
:1014800020E03FEF4FE757E40E94C50318164CF5E4
:10149000698D7A8D8B8D9C8D20E030E040E251E4A7
:1014A0000E941F02DC01CB01BC01CD010E9449005A
:1014B000DC01CB019C8B8B8B0FC08CE291E09A8B73
:1014C000898B89899A890197F1F79A8B898B8B8906
:1014D0009C8901979C8B8B8B8B899C89009769F7E2
:1014E00014C06D897E898F89988D0E944900DC0126
:1014F000CB019C8B8B8B8B899C89988B8F878F855D
:1015000098890197F1F7988B8F8781E00E94EE0B05
:1015100080E090E0A0EAB0E48B879C87AD87BE872F
:101520006B857C858D859E8520E030E84BE355E416
:101530000E941F02DC01CB018F839887A987BA879D
:101540006F81788589859A8520E030E040E85FE307
:101550000E94250488232CF481E090E09E838D83F3
:101560003FC06F81788589859A8520E03FEF4FE7FE
:1015700057E40E94C50318164CF56B857C858D8554
:101580009E8520E030E040E251E40E941F02DC0131
:10159000CB01BC01CD010E944900DC01CB019E833F
:1015A0008D830FC08CE291E09C838B838B819C8127
:1015B0000197F1F79C838B838D819E8101979E8398
:1015C0008D838D819E81009769F714C06F81788526
:1015D00089859A850E944900DC01CB019E838D8319
:1015E0008D819E819A83898389819A810197F1F700
:1015F0009A838983AA960FB6F894DEBF0FBECDBF3B
:10160000CF91DF910895DF93CF93CDB7DEB72F97BA
:101610000FB6F894DEBF0FBECDBF8F8781E060E0CC
:1016200041E00E94FA0781E061E040E00E94FA0791
:101630008F85982F917082E060E0492F0E94FA0711
:101640008F858695982F917082E061E0492F0E94E6
:10165000FA078F8586958695982F917082E062E0D3
:10166000492F0E94FA078F85869586958695982F33
:10167000917082E063E0492F0E94FA078F8582957E
:101680008F70982F917082E064E0492F0E94FA07D2
:101690008F85829586958770982F917082E065E09E
:1016A000492F0E94FA078F858295869586958370CB
:1016B000982F917082E066E0492F0E94FA078F858B
:1016C000982F991F9927991F82E067E0492F0E9460
:1016D000FA0781E062E041E00E94FA0780E090E0D2
:1016E000A0E0B0E48B879C87AD87BE876B857C8547
:1016F0008D859E8520E030E84BE355E40E941F0273
:10170000DC01CB018F839887A987BA876F817885A1
:1017100089859A8520E030E040E85FE30E94250457
:1017200088232CF481E090E09E838D833FC06F81FD
:10173000788589859A8520E03FEF4FE757E40E943E
:10174000C50318164CF56B857C858D859E8520E03C
:1017500030E040E251E40E941F02DC01CB01BC01F9
:10176000CD010E944900DC01CB019E838D830FC017
:101770008CE291E09C838B838B819C810197F1F7B4
:101780009C838B838D819E8101979E838D838D8128
:101790009E81009769F714C06F81788589859A8545
:1017A0000E944900DC01CB019E838D838D819E8147
:1017B0009A83898389819A810197F1F79A83898332
:1017C00081E062E040E00E94FA072F960FB6F8949D
:1017D000DEBF0FBECDBFCF91DF910895DF93CF93D2
:1017E000CDB7DEB72F970FB6F894DEBF0FBECDBFD3
:1017F0008F8781E060E040E00E94FA0781E061E0CD
:1018000040E00E94FA078F85982F917082E060E097
:10181000492F0E94FA078F858695982F917082E054
:1018200061E0492F0E94FA078F8586958695982F4B
:10183000917082E062E0492F0E94FA078F858695B9
:1018400086958695982F917082E063E0492F0E94DB
:10185000FA078F8582958F70982F917082E064E0EF
:10186000492F0E94FA078F85829586958770982F59
:10187000917082E065E0492F0E94FA078F8582957A
:10188000869586958370982F917082E066E0492F47
:101890000E94FA078F85982F991F9927991F82E038
:1018A00067E0492F0E94FA0781E062E041E00E9470
:1018B000FA0780E090E0A0E0B0E48B879C87AD87DA
:1018C000BE876B857C858D859E8520E030E84BE367
:1018D00055E40E941F02DC01CB018F839887A98702
:1018E000BA876F81788589859A8520E030E040E865
:1018F0005FE30E94250488232CF481E090E09E831E
:101900008D833FC06F81788589859A8520E03FEF80
:101910004FE757E40E94C50318164CF56B857C858C
:101920008D859E8520E030E040E251E40E941F0258
:10193000DC01CB01BC01CD010E944900DC01CB01DF
:101940009E838D830FC08CE291E09C838B838B817F
:101950009C810197F1F79C838B838D819E810197F8
:101960009E838D838D819E81009769F714C06F815E
:10197000788589859A850E944900DC01CB019E8388
:101980008D838D819E819A83898389819A81019734
:10199000F1F79A83898381E062E040E00E94FA07D0
:1019A0002F960FB6F894DEBF0FBECDBFCF91DF915B
:1019B0000895DF93CF9300D0CDB7DEB79A838983A4
:1019C0000AC0E981FA8180810E94030B89819A8192
:1019D00001969A838983E981FA818081882389F736
:1019E0000F900F90CF91DF910895DF93CF9300D0A8
:1019F000CDB7DEB789836A838981813029F48A81F2
:101A000080580E94EE0B07C08981823021F48A81C0
:101A100080540E94EE0B0F900F90CF91DF910895AC
:101A2000DF93CF93CDB7DEB781E00E94EE0BCF916D
:101A3000DF910895DF93CF93CDB7DEB78CE10E949D
:101A4000EE0BCF91DF910895DF93CF93CDB7DEB743
:101A500088E10E94EE0BCF91DF910895DF93CF9341
:101A600000D00F92CDB7DEB789838981282F30E06F
:101A70003B832A838A819B818730910509F47AC050
:101A80002A813B812830310554F58A819B8183303E
:101A9000910509F45FC02A813B812430310594F41B
:101AA0008A819B818130910509F44CC02A813B8158
:101AB000223031050CF04AC08A819B81009709F4DD
:101AC0003DC077C02A813B812530310509F44AC0E9
:101AD0008A819B81863091050CF048C03FC02A81E5
:101AE0003B812B32310509F451C08A819B818C32B4
:101AF000910594F42A813B812930310509F442C0D3
:101B00008A819B8189309105CCF12A813B812A32DF
:101B1000310509F443C04DC08A819B818F32910504
:101B200009F440C02A813B812D33310509F43EC0C0
:101B30008A819B818D32910569F13BC080E30E94CF
:101B4000030B37C081E30E94030B33C082E30E9482
:101B5000030B2FC083E30E94030B2BC084E30E947E
:101B6000030B27C085E30E94030B23C086E30E947A
:101B7000030B1FC087E30E94030B1BC088E30E9476
:101B8000030B17C089E30E94030B13C08BE20E9472
:101B9000030B0FC08DE20E94030B0BC08AE20E9470
:101BA000030B07C08FE20E94030B03C08DE30E946A
:101BB000030B0F900F900F90CF91DF910895DF935B
:101BC000CF93CDB7DEB7E6970FB6F894DEBF0FBE62
:101BD000CDBF69AB7AAB8BAB9CAB4DAB2EAB89A9C0
:101BE0009AA9ABA9BCA98A309105A105B10540F419
:101BF0008DA96EA90E94F50C89A90E942E0D6FC1B6
:101C000089A99AA9ABA9BCA98A309105A105B105FA
:101C100008F43FC089A99AA9ABA9BCA9843691054B
:101C2000A105B105B0F589A99AA9ABA9BCA92AE07B
:101C300030E040E050E0BC01CD010E944D11DA01DE
:101C4000C9018DA79EA7AFA7B8AB8DA96EA90E94A9
:101C5000F50C8DA50E942E0D89A99AA9ABA9BCA946
:101C60002AE030E040E050E0BC01CD010E944D117F
:101C7000DC01CB0189A79AA7ABA7BCA78EA9982F97
:101C80009F5F8DA9692F0E94F50C89A50E942E0DDA
:101C900026C189A99AA9ABA9BCA984369105A10539
:101CA000B10508F471C089A99AA9ABA9BCA9883E5D
:101CB00023E0920720E0A20720E0B20708F064C00A
:101CC00089A99AA9ABA9BCA924E630E040E050E07C
:101CD000BC01CD010E944D11DA01C9018DA79EA75B
:101CE000AFA7B8AB8DA96EA90E94F50C8DA50E9477
:101CF0002E0D89A99AA9ABA9BCA924E630E040E041
:101D000050E0BC01CD010E944D11DC01CB0189A73F
:101D10009AA7ABA7BCA789A59AA5ABA5BCA52AE0A5
:101D200030E040E050E0BC01CD010E944D11DA01ED
:101D3000C9018DA39EA3AFA3B8A78EA9982F9F5FBB
:101D40008DA9692F0E94F50C8DA10E942E0D89A5E9
:101D50009AA5ABA5BCA52AE030E040E050E0BC016C
:101D6000CD010E944D11DC01CB0189A39AA3ABA345
:101D7000BCA38EA9982F9E5F8DA9692F0E94F50C98
:101D800089A10E942E0DABC089A99AA9ABA9BCA9B3
:101D9000883E23E0920720E0A20720E0B20708F483
:101DA0009EC089A99AA9ABA9BCA9803127E2920754
:101DB00020E0A20720E0B20708F091C089A99AA903
:101DC000ABA9BCA928EE33E040E050E0BC01CD0156
:101DD0000E944D11DA01C9018DA79EA7AFA7B8AB2C
:101DE0008DA96EA90E94F50C8DA50E942E0D89A9C2
:101DF0009AA9ABA9BCA928EE33E040E050E0BC01B1
:101E0000CD010E944D11DC01CB0189A79AA7ABA798
:101E1000BCA789A59AA5ABA5BCA524E630E040E007
:101E200050E0BC01CD010E944D11DA01C9018DA322
:101E30009EA3AFA3B8A78EA9982F9F5F8DA9692FE6
:101E40000E94F50C8DA10E942E0D89A59AA5ABA527
:101E5000BCA524E630E040E050E0BC01CD010E948A
:101E60004D11DC01CB018D8F9E8FAF8FB8A38D8D6F
:101E70009E8DAF8DB8A12AE030E040E050E0BC017B
:101E8000CD010E944D11DA01C90189A39AA3ABA328
:101E9000BCA38EA9982F9E5F8DA9692F0E94F50C77
:101EA00089A10E942E0D8D8D9E8DAF8DB8A12AE047
:101EB00030E040E050E0BC01CD010E944D11DC015A
:101EC000CB018D8B9E8BAF8BB88F8EA9982F9D5F8A
:101ED0008DA9692F0E94F50C8D890E942E0DE69622
:101EE0000FB6F894DEBF0FBECDBFCF91DF9108953E
:101EF000DF93CF93CDB7DEB70E945A0983E066E047
:101F000040E00E94170780E060E041E00E94170770
:101F1000EFE4F0E01082AEE4B0E0EEE4F0E08081C7
:101F20008F7E8C93AEE4B0E0EEE4F0E08081877FBA
:101F30008C93AEE4B0E0EEE4F0E0808180648C93BA
:101F4000AEE4B0E0EEE4F0E080818B7F8C93AEE411
:101F5000B0E0EEE4F0E080818D7F8C93AEE4B0E001
:101F6000EEE4F0E0808181608C93A9E5B0E0E9E5E2
:101F7000F0E0808180628C93A9E5B0E0E9E5F0E0D3
:101F8000808184608C93AFE5B0E0EFE5F0E0808184
:101F900080688C9380E690E00E94D90C82E060E03B
:101FA0000E94F50C87E690E00E94D90C80917B019D
:101FB00090917C01A0917D01B0917E0120918301DF
:101FC000309184014091850150918601BC01CD0181
:101FD0000E94F201DC01CB0180937F01909380018C
:101FE000A0938101B093820120917F013091800103
:101FF000409181015091820160E070E080E89FE3B0
:102000000E941903DC01CB01BC01CD010E944900F3
:10201000DC01CB01909379018093780180917B0161
:1020200090917C01A0917D01B0917E01BC01CD0118
:1020300020E030E048EC52E40E941F02DC01CB01BA
:1020400020917F0130918001409181015091820166
:10205000BC01CD010E941903DC01CB01BC01CD0103
:102060000E944900DC01CB0180937A0180917801C4
:1020700090917901CC01A0E0B0E0BC01CD0141E03C
:1020800026E00E94DF0D80917A01882F90E0A0E089
:10209000B0E0BC01CD0142E026E00E94DF0D86CF1A
:1020A0001F920F920FB60F9211248F939F93AF93AD
:1020B000BF93DF93CF93CDB7DEB780918801909126
:1020C0008901A0918A01B0918B010196A11DB11DDA
:1020D0008093880190938901A0938A01B0938B012A
:1020E000CF91DF91BF91AF919F918F910F900FBED4
:1020F0000F901F9018951F920F920FB60F921124F8
:102100002F933F934F935F936F937F938F939F93FF
:10211000AF93BF93EF93FF93DF93CF93CDB7DEB72A
:10212000809176018130C9F4ECE4F0E011821082F4
:10213000AEE4B0E0EEE4F0E080818F7B8C9310920F
:1021400088011092890110928A0110928B0181E01E
:1021500080938701109276018DC080918701813034
:1021600009F044C0ECE4F0E011821082AEE4B0E08B
:10217000EEE4F0E0808180648C93E6E4F0E080811E
:1021800091819C0140E050E080918801909189010B
:10219000A0918A01B0918B01DC0199278827820FD9
:1021A000931FA41FB51FBC01CD010E94A904DC012F
:1021B000CB01BC01CD012CEF34EF42EB53E30E9485
:1021C0001F02DC01CB0180937B0190937C01A093E3
:1021D0007D01B0937E0110928801109289011092C6
:1021E0008A0110928B011092870144C0ECE4F0E068
:1021F00011821082AEE4B0E0EEE4F0E080818F7BEB
:102200008C93E6E4F0E0808191819C0140E050E015
:102210008091880190918901A0918A01B0918B01F0
:10222000DC0199278827820F931FA41FB51FBC01CB
:10223000CD010E94A904DC01CB01BC01CD012CEF32
:1022400034EF42EB53E30E941F02DC01CB01809389
:10225000830190938401A0938501B093860110922D
:1022600088011092890110928A0110928B0181E0FD
:1022700080938701CF91DF91FF91EF91BF91AF9153
:102280009F918F917F916F915F914F913F912F918E
:102290000F900FBE0F901F901895A1E21A2EAA1B47
:1022A000BB1BFD010DC0AA1FBB1FEE1FFF1FA21706
:1022B000B307E407F50720F0A21BB30BE40BF50B03
:1022C000661F771F881F991F1A9469F7609570958C
:1022D000809590959B01AC01BD01CF0108952F928F
:1022E0003F924F925F926F927F928F929F92AF92A6
:1022F000BF92CF92DF92EF92FF920F931F93CF93F3
:10230000DF93CDB7DEB7CA1BDB0B0FB6F894DEBF89
:102310000FBECDBF09942A88398848885F846E84AF
:102320007D848C849B84AA84B984C884DF80EE80F9
:10233000FD800C811B81AA81B981CE0FD11D0FB602
:10234000F894DEBF0FBECDBFED010895F894FFCF26
:10235000667265713D2000647574793D200000004F
:102360000000000000000001020203030303040454
:102370000404040404040505050505050505050513
:1023800005050505050506060606060606060606F3
:1023900006060606060606060606060606060606DD
:1023A00006060606060607070707070707070707C3
:1023B00007070707070707070707070707070707AD
:1023C000070707070707070707070707070707079D
:1023D000070707070707070707070707070707078D
:1023E0000707070707070808080808080808080873
:1023F000080808080808080808080808080808085D
:10240000080808080808080808080808080808084C
:10241000080808080808080808080808080808083C
:10242000080808080808080808080808080808082C
:10243000080808080808080808080808080808081C
:10244000080808080808080808080808080808080C
:1024500008080808080808080808080808080808FC
:08246000080808080808010043
:00000001FF
