:100000000C942A000C943C000C943C000C943C0092
:100010000C943C000C943C000C943C000C943C0070
:100020000C943C000C943C000C943C000C943C0060
:100030000C943C000C943C000C943C000C943C0050
:100040000C94E6000C943C000C943C000C943C0096
:100050000C943C0011241FBECFE5D8E0DEBFCDBF1D
:1000600010E0A0E6B0E001C01D92A236B107E1F7B2
:100070000E94F7030C9432040C940000DF93CF939A
:10008000CDB7DEB7A6E2B0E0E6E2F0E080818860BE
:100090008C93AFE5B0E0EFE5F0E0808180688C9371
:1000A000A7E2B0E0E7E2F0E080818F778C93A7E2EF
:1000B000B0E0E7E2F0E0808180648C93A7E2B0E0FA
:1000C000E7E2F0E080818F7D8C93A6E2B0E0E6E28B
:1000D000F0E0808180688C93A6E2B0E0E6E2F0E098
:1000E00080818B7F8C93A6E2B0E0E6E2F0E0808135
:1000F00082608C93A6E2B0E0E6E2F0E080818E7F41
:100100008C93CF91DF910895DF93CF9300D00F921E
:10011000CDB7DEB78B83A7E2B0E0E7E2F0E09081F5
:100120008B8189238C93A6E2B0E0E6E2F0E0808147
:1001300080648C93E6E2F0E0808182958F70882F56
:1001400090E0817090700097A9F3A6E2B0E0E6E23B
:10015000F0E0808180618C931A821982E4E2F0E001
:100160008081882F90E09A838983E5E2F0E08081A6
:10017000882F90E0982F88279C0189819A81822B73
:10018000932B9A83898389819A810F900F900F9086
:10019000CF91DF910895DF93CF93CDB7DEB7E6E23D
:1001A000F0E080818295869586958370882F90E017
:1001B00081709070009739F4A6E2B0E0E6E2F0E0DA
:1001C000808180618C93CF91DF9108951F920F926F
:1001D0000FB60F9211242F933F938F939F93EF931A
:1001E000FF93DF93CF93CDB7DEB7109261001092EB
:1001F0006000E4E2F0E08081282F30E08091600030
:1002000090916100822B932B90936100809360000A
:10021000E5E2F0E08081882F90E0982F88279C010C
:100220008091600090916100822B932B90936100EC
:1002300080936000CF91DF91FF91EF919F918F911B
:100240003F912F910F900FBE0F901F901895DF9345
:10025000CF93CDB7DEB78091600090916100CF91D0
:10026000DF910895DF93CF9300D000D00F92CDB7E8
:10027000DEB789836A834B838981282F30E03D83F1
:100280002C838C819D818130910509F443C02C81A0
:100290003D81223031052CF48C819D81009771F0D5
:1002A000BCC02C813D812230310509F45FC08C81B6
:1002B0009D818330910509F485C0AFC08B8188236F
:1002C000A9F4AAE3B0E0EAE3F0E08081482F8A8154
:1002D000282F30E081E090E0022E02C0880F991FA5
:1002E0000A94E2F7809584238C9397C0AAE3B0E048
:1002F000EAE3F0E08081482F8A81282F30E081E016
:1003000090E0022E02C0880F991F0A94E2F7842B16
:100310008C9383C08B818823A9F4A7E3B0E0E7E343
:10032000F0E08081482F8A81282F30E081E090E042
:10033000022E02C0880F991F0A94E2F78095842349
:100340008C936BC0A7E3B0E0E7E3F0E08081482F37
:100350008A81282F30E081E090E0022E02C0880FD1
:10036000991F0A94E2F7842B8C9357C08B818823C2
:10037000A9F4A4E3B0E0E4E3F0E08081482F8A81AF
:10038000282F30E081E090E0022E02C0880F991FF4
:100390000A94E2F7809584238C933FC0A4E3B0E0F5
:1003A000E4E3F0E08081482F8A81282F30E081E06B
:1003B00090E0022E02C0880F991F0A94E2F7842B66
:1003C0008C932BC08B818823A9F4A1E3B0E0E1E3F7
:1003D000F0E08081482F8A81282F30E081E090E092
:1003E000022E02C0880F991F0A94E2F78095842399
:1003F0008C9313C0A1E3B0E0E1E3F0E08081482FEB
:100400008A81282F30E081E090E0022E02C0880F20
:10041000991F0A94E2F7842B8C930F900F900F9002
:100420000F900F90CF91DF910895DF93CF9300D07D
:1004300000D00F92CDB7DEB789836A834B83898161
:10044000282F30E03D832C838C819D818130910564
:1004500009F443C02C813D81223031052CF48C817C
:100460009D81009771F0BCC02C813D812230310507
:1004700009F45FC08C819D818330910509F485C0AA
:10048000AFC08B818823A9F4ABE3B0E0EBE3F0E0ED
:100490008081482F8A81282F30E081E090E0022E71
:1004A00002C0880F991F0A94E2F7809584238C93E9
:1004B00097C0ABE3B0E0EBE3F0E08081482F8A81A6
:1004C000282F30E081E090E0022E02C0880F991FB3
:1004D0000A94E2F7842B8C9383C08B818823A9F440
:1004E000A8E3B0E0E8E3F0E08081482F8A81282F7C
:1004F00030E081E090E0022E02C0880F991F0A943C
:10050000E2F7809584238C936BC0A8E3B0E0E8E326
:10051000F0E08081482F8A81282F30E081E090E050
:10052000022E02C0880F991F0A94E2F7842B8C9345
:1005300057C08B818823A9F4A5E3B0E0E5E3F0E0A0
:100540008081482F8A81282F30E081E090E0022EC0
:1005500002C0880F991F0A94E2F7809584238C9338
:100560003FC0A5E3B0E0E5E3F0E08081482F8A8159
:10057000282F30E081E090E0022E02C0880F991F02
:100580000A94E2F7842B8C932BC08B818823A9F4E7
:10059000A2E3B0E0E2E3F0E08081482F8A81282FD7
:1005A00030E081E090E0022E02C0880F991F0A948B
:1005B000E2F7809584238C9313C0A2E3B0E0E2E3DA
:1005C000F0E08081482F8A81282F30E081E090E0A0
:1005D000022E02C0880F991F0A94E2F7842B8C9395
:1005E0000F900F900F900F900F90CF91DF91089583
:1005F000DF93CF9300D000D0CDB7DEB789836A8375
:100600008981282F30E03C832B838B819C81813032
:10061000910549F12B813C81223031052CF48B81ED
:100620009C81009761F05AC02B813C8122303105BA
:1006300071F18B819C8183309105E9F14FC0ABE36F
:10064000B0E0EBE3F0E08081482F8A81282F30E092
:1006500081E090E0022E02C0880F991F0A94E2F711
:1006600084278C933BC0A8E3B0E0E8E3F0E080810E
:10067000482F8A81282F30E081E090E0022E02C0CE
:10068000880F991F0A94E2F784278C9327C0A5E36B
:10069000B0E0E5E3F0E08081482F8A81282F30E048
:1006A00081E090E0022E02C0880F991F0A94E2F7C1
:1006B00084278C9313C0A2E3B0E0E2E3F0E08081F2
:1006C000482F8A81282F30E081E090E0022E02C07E
:1006D000880F991F0A94E2F784278C930F900F904C
:1006E0000F900F90CF91DF910895DF93CF9300D0BB
:1006F00000D000D0CDB7DEB789836A838981282FE7
:1007000030E03D832C834C815D814130510549F1BE
:100710008C819D818230910534F42C813D8121159D
:10072000310561F057C04C815D814230510561F166
:100730008C819D8183309105D1F14CC0E9E3F0E0DB
:100740008081282F30E08A81882F90E0A90102C0A3
:10075000559547958A95E2F7CA01582F51705B83EA
:100760003AC0E6E3F0E08081282F30E08A81882FCC
:1007700090E0A90102C0559547958A95E2F7CA0114
:10078000582F51705B8327C0E3E3F0E08081282F6E
:1007900030E08A81882F90E0A90102C055954795E5
:1007A0008A95E2F7CA01582F51705B8314C0E0E3C9
:1007B000F0E08081282F30E08A81882F90E0A90125
:1007C00002C0559547958A95E2F7CA01582F517096
:1007D0005B8301C002C08B818E838E8126960FB60B
:1007E000F894DEBF0FBECDBFCF91DF910895DF93A8
:1007F000CF9300D000D0CDB7DEB70E943E0080EE90
:100800000E9484000E94CB000E9427019C838B835E
:100810002B813C81C901880F991F880F991F820F76
:10082000931F892F9927869586959A838983898135
:100830009A818330910558F083E060E041E00E94A6
:10084000150283E061E040E00E941502D8CF83E00A
:1008500060E040E00E94150283E061E041E00E9418
:080860001502CDCFF894FFCF83
:00000001FF
