:100000000C942A000C943F000C943F000C943F0089
:100010000C943F000C943F000C943F000C943F0064
:100020000C943F000C943F000C943F000C943F0054
:100030000C943F000C943F000C943F000C943F0044
:100040000C943F000C943F000C943F000C943F0034
:100050000C943F0011241FBECFE5D8E0DEBFCDBF1A
:1000600010E0A0E6B0E0E2EDF9E402C005900D92E8
:10007000A038B107D9F70E945E0C0C94E7240C94C9
:100080000000EF92FF920F931F937B018C0120E001
:1000900030E040E05FE40E94ED0388238CF0C8016B
:1000A000B70120E030E040E05FE40E94B9010E9427
:1000B0004D049B01AC01205030404040504806C0E8
:1000C000C801B7010E944D049B01AC01B901CA01EE
:1000D0001F910F91FF90EF900895A0E0B0E0E3E74B
:1000E000F0E00C94B024DC012B01FA019C919230D9
:1000F00008F439C1EB018881823008F433C19430AF
:1001000069F4843009F02FC111969C91119789816F
:10011000981709F428C1A7E7B0E025C1843009F495
:1001200021C18230A9F4923009F01DC19A01AD01BC
:1001300088E0EA010990AE01E90109929E0181502F
:10014000C1F7E201898111969C918923818308C1BD
:10015000923009F407C112962D903C901397EB0151
:100160008A819B811496AD90BD90CD90DC901797BD
:10017000EC80FD800E811F819101281B390BB90194
:1001800037FF04C066277727621B730B6032710547
:100190000CF061C0121613066CF537014801062EEB
:1001A00004C096948794779467940A94D2F721E0D8
:1001B00030E040E050E004C0220F331F441F551FC1
:1001C0006A95D2F721503040404050402E213F21C7
:1001D00040235123211531054105510521F021E02E
:1001E00030E040E050E079018A01E628F72808294C
:1001F00019293CC0232BD1F1260E371E35014601AB
:10020000062E04C096948794779467940A94D2F744
:1002100021E030E040E050E004C0220F331F441FD3
:10022000551F6A95D2F721503040404050402A2156
:100230003B214C215D21211531054105510521F05E
:1002400021E030E040E050E059016A01A628B728DB
:10025000C828D9280BC0821593052CF01C01AA24AC
:10026000BB24650103C0EE24FF24870111969C91F5
:10027000D20111968C91981709F445C0992339F051
:10028000A80197012A193B094C095D0906C0A6017E
:1002900095012E193F09400B510B57FD08C01182E3
:1002A0003382228224833583468357831DC081E0B5
:1002B00081833382228288279927DC01821B930B5A
:1002C000A40BB50B84839583A683B7830DC0220F3F
:1002D000331F441F551F24833583468357838281F0
:1002E000938101979383828324813581468157814D
:1002F000DA01C9010197A109B1098F5F9F4FAF4F83
:10030000BF4328F30BC0918333822282EA0CFB1C8B
:100310000C1D1D1DE482F5820683178383E0808314
:10032000248135814681578157FF1AC0C901AA2708
:1003300097FDA095BA2F81709070A070B0705695FF
:10034000479537952795822B932BA42BB52B848328
:100350009583A683B7838281938101969383828359
:10036000DF0101C0D201CD01CDB7DEB7E2E10C94CF
:10037000CC24A0E2B0E0EFEBF1E00C94BC24698364
:100380007A838B839C832D833E834F835887E9E058
:10039000EE2EF12CEC0EFD1ECE010196B7010E944F
:1003A00076058E010F5E1F4FCE010596B8010E94A3
:1003B00076058A8991E089278A8BC701B801AE0149
:1003C000475E5F4F0E946D000E94A104A096E6E088
:1003D0000C94D824A0E2B0E0E0EFF1E00C94BC244F
:1003E00069837A838B839C832D833E834F835887D5
:1003F000F9E0EF2EF12CEC0EFD1ECE010196B701B7
:100400000E9476058E010F5E1F4FCE010596B80142
:100410000E947605C701B801AE01475E5F4F0E949A
:100420006D000E94A104A096E6E00C94D824A0E2FE
:10043000B0E0EDE1F2E00C94B02469837A838B8321
:100440009C832D833E834F835887CE010196BE0146
:10045000675F7F4F0E947605CE010596BE016F5EF5
:100460007F4F0E9476059985923088F08989823085
:10047000C8F0943019F4823051F404C0843029F467
:10048000923081F487E790E0C6C0923049F420E0D2
:100490009A858A89981321E02A87CE010996BBC0E4
:1004A000823049F420E09A858A89981321E02A8BCA
:1004B000CE014196B0C02D843E844F8458886D880B
:1004C0007E888F88988CEE24FF248701AA24BB2481
:1004D000650140E050E060E070E0E0E0F0E0C10184
:1004E00081709070892BE9F0E60CF71C081D191D2E
:1004F0009A01AB012A0D3B1D4C1D5D1D80E090E073
:10050000A0E0B0E0E614F7040805190520F481E046
:1005100090E0A0E0B0E0BA01A901480F591F6A1F9E
:100520007B1FAA0CBB1CCC1CDD1C97FE08C081E005
:1005300090E0A0E0B0E0A82AB92ACA2ADB2A3196C6
:10054000E032F10549F0660C771C881C991C569422
:10055000479437942794C3CFFA85EA892B893C893D
:100560008B859C85280F391F2E5F3F4F17C0CA010E
:1005700081709070892B61F016950795F794E79438
:1005800080E090E0A0E0B0E8E82AF92A0A2B1B2BD3
:1005900076956795579547952F5F3F4F77FDE7CF46
:1005A0000CC0440F551F661F771F17FD4160EE0CEE
:1005B000FF1C001F111F21503040403090E05907B0
:1005C00090E0690790E4790760F32B8F3C8FDB01A3
:1005D000CA018F779070A070B07080349105A1052A
:1005E000B10561F447FD0AC0E114F10401051105EC
:1005F00029F0405C5F4F6F4F7F4F40781A8EFE1797
:1006000011F081E08A8F4D8F5E8F6F8F78A383E02A
:10061000898FCE0149960E94A104A096E2E10C9434
:10062000CC24A8E1B0E0E7E1F3E00C94B8246983BE
:100630007A838B839C832D833E834F835887B9E0D5
:10064000EB2EF12CEC0EFD1ECE010196B7010E949F
:1006500076058E010F5E1F4FCE010596B8010E94F0
:1006600076052985223008F47EC03989323010F4AD
:10067000B8017CC08A859A8989278A87243011F03D
:10068000223031F4231709F06EC067E770E06EC0C6
:10069000343039F41D861E861F86188A1C861B86F8
:1006A00004C0323021F484E08987B7015FC02B8514
:1006B0003C858B899C89281B390B3C872B87ED84D3
:1006C000FE840F851889AD88BE88CF88D88CEA143F
:1006D000FB040C051D0540F4EE0CFF1C001F111F50
:1006E000215030403C872B8720E030E040E050E054
:1006F00080E090E0A0E0B0E460E070E0EA14FB0489
:100700000C051D0540F0282B392B4A2B5B2BEA18D2
:10071000FB080C091D09B695A79597958795EE0CD2
:10072000FF1C001F111F6F5F7F4F6F31710531F785
:10073000DA01C9018F779070A070B0708034910594
:10074000A105B10561F427FD0AC0E114F10401051A
:10075000110529F0205C3F4F4F4F5F4F20782D87C8
:100760003E874F87588BBE01675F7F4FCB010E944A
:10077000A1046896EAE00C94D424A8E1B0E0E3EC8C
:10078000F3E00C94BC2469837A838B839C832D8350
:100790003E834F83588789E0E82EF12CEC0EFD1E36
:1007A000CE010196B7010E9476058E010F5E1F4FA4
:1007B000CE010596B8010E9476058985823040F009
:1007C0008989823028F0C701B8010E94EE0501C076
:1007D0008FEF6896E6E00C94D824A8E1B0E0E3EF50
:1007E000F3E00C94BC2469837A838B839C832D83F0
:1007F0003E834F83588789E0E82EF12CEC0EFD1ED6
:10080000CE010196B7010E9476058E010F5E1F4F43
:10081000CE010596B8010E9476058985823040F0A8
:100820008989823028F0C701B8010E94EE0501C015
:100830008FEF6896E6E00C94D824A8E1B0E0E3E2FC
:10084000F4E00C94BC2469837A838B839C832D838E
:100850003E834F83588789E0E82EF12CEC0EFD1E75
:10086000CE010196B7010E9476058E010F5E1F4FE3
:10087000CE010596B8010E9476058985823040F048
:100880008989823028F0C701B8010E94EE0501C0B5
:1008900081E06896E6E00C94D824ACE0B0E0E3E5B3
:1008A000F4E00C94C02469837A838B839C83CE010B
:1008B0000196BE016B5F7F4F0E9476058D8182306D
:1008C00061F1823050F1843021F48E81882351F11E
:1008D0002EC02F81388537FD20C06E812F31310524
:1008E0001CF06623F9F023C08EE190E0821B930B8D
:1008F00029853A854B855C8504C056954795379583
:1009000027958A95D2F76623B1F05095409530959A
:1009100021953F4F4F4F5F4F0EC020E030E040E049
:1009200050E009C02FEF3FEF4FEF5FE704C020E03A
:1009300030E040E050E8B901CA012C96E2E00C94A6
:10094000DC24DF92EF92FF920F931F93FC01E4806F
:10095000F58006811781D1808081823048F480E063
:1009600090E0A0E1B0E0E82AF92A0A2B1B2BA5C0F1
:10097000843009F49FC0823021F4EE24FF248701E3
:1009800005C0E114F1040105110519F4E0E0F0E0FF
:1009900096C0628173819FEF623879070CF05BC06B
:1009A00022E83FEF261B370B2A3131052CF020E0DF
:1009B00030E040E050E02AC0B801A701022E04C098
:1009C00076956795579547950A94D2F781E090E020
:1009D000A0E0B0E004C0880F991FAA1FBB1F2A9592
:1009E000D2F70197A109B1098E219F21A023B1233C
:1009F0000097A105B10521F081E090E0A0E0B0E012
:100A00009A01AB01282B392B4A2B5B2BDA01C90148
:100A10008F779070A070B07080349105A105B105FA
:100A200039F427FF09C0205C3F4F4F4F5F4F04C090
:100A3000215C3F4F4F4F5F4FE0E0F0E02030A0E0FF
:100A40003A07A0E04A07A0E45A0710F0E1E0F0E01E
:100A500079018A0127C06038710564F5FB01E1580E
:100A6000FF4FD801C7018F779070A070B0708034AD
:100A70009105A105B10539F4E7FE0DC080E490E0D1
:100A8000A0E0B0E004C08FE390E0A0E0B0E0E80EAA
:100A9000F91E0A1F1B1F17FF05C016950795F7942F
:100AA000E794319687E016950795F794E7948A9531
:100AB000D1F705C0EE24FF248701EFEFF0E06E2FA1
:100AC000679566276795902F9F77D794DD24D794F5
:100AD0008E2F8695492F462B582F5D29B701CA01C5
:100AE0001F910F91FF90EF90DF900895FC01DB01C3
:100AF000408151812281622F6F7770E0221F22276F
:100B0000221F9381892F880F822B282F30E0991F75
:100B10009927991F11969C93119721153105A9F5D5
:100B2000411551056105710511F482E037C082E875
:100B30009FEF13969C938E9312979A01AB0167E0F7
:100B4000220F331F441F551F6A95D1F783E08C9302
:100B50000DC0220F331F441F551F12968D919C917B
:100B60001397019713969C938E931297203080E0F1
:100B7000380780E0480780E4580758F314962D930F
:100B80003D934D935C93179708952F3F310579F46A
:100B9000411551056105710519F484E08C930895A0
:100BA00064FF03C081E08C9312C01C9210C02F57C9
:100BB000304013963C932E93129783E08C9387E0FA
:100BC000440F551F661F771F8A95D1F770641496DE
:100BD0004D935D936D937C93179708951F93DC015C
:100BE000FB019C91923008F447C08081823008F468
:100BF00043C0943051F411961C91843099F5818151
:100C0000682F70E0611B71093FC0843021F0923081
:100C100031F48230B9F18181882389F12DC0119698
:100C20001C9111978230F1F081811817D9F4129636
:100C30002D913C911397828193818217930794F0B1
:100C400028173907BCF014968D919D910D90BC9199
:100C5000A02D2481358146815781281739074A07FD
:100C60005B0718F4112341F00AC082179307A40709
:100C7000B50740F4112319F061E070E005C06FEF93
:100C80007FEF02C060E070E0CB011F910895DF9319
:100C9000CF9300D000D00F92CDB7DEB789836A839F
:100CA0004B838981282F30E03D832C838C819D816B
:100CB0008130910509F443C02C813D8122303105FA
:100CC0002CF48C819D81009771F0BCC02C813D81FA
:100CD0002230310509F45FC08C819D8183309105FC
:100CE00009F485C0AFC08B818823A9F4AAE3B0E0E2
:100CF000EAE3F0E08081482F8A81282F30E081E00C
:100D000090E0022E02C0880F991F0A94E2F78095A6
:100D100084238C9397C0AAE3B0E0EAE3F0E08081FB
:100D2000482F8A81282F30E081E090E0022E02C017
:100D3000880F991F0A94E2F7842B8C9383C08B81D0
:100D40008823A9F4A7E3B0E0E7E3F0E08081482F2F
:100D50008A81282F30E081E090E0022E02C0880FC7
:100D6000991F0A94E2F7809584238C936BC0A7E3C4
:100D7000B0E0E7E3F0E08081482F8A81282F30E05F
:100D800081E090E0022E02C0880F991F0A94E2F7DA
:100D9000842B8C9357C08B818823A9F4A4E3B0E003
:100DA000E4E3F0E08081482F8A81282F30E081E061
:100DB00090E0022E02C0880F991F0A94E2F78095F6
:100DC00084238C933FC0A4E3B0E0E4E3F0E08081AF
:100DD000482F8A81282F30E081E090E0022E02C067
:100DE000880F991F0A94E2F7842B8C932BC08B8178
:100DF0008823A9F4A1E3B0E0E1E3F0E08081482F8B
:100E00008A81282F30E081E090E0022E02C0880F16
:100E1000991F0A94E2F7809584238C9313C0A1E371
:100E2000B0E0E1E3F0E08081482F8A81282F30E0B4
:100E300081E090E0022E02C0880F991F0A94E2F729
:100E4000842B8C930F900F900F900F900F90CF9159
:100E5000DF910895DF93CF9300D000D00F92CDB7EC
:100E6000DEB789836A834B838981282F30E03D83F5
:100E70002C838C819D818130910509F443C02C81A4
:100E80003D81223031052CF48C819D81009771F0D9
:100E9000BCC02C813D812230310509F45FC08C81BA
:100EA0009D818330910509F485C0AFC08B81882373
:100EB000A9F4ABE3B0E0EBE3F0E08081482F8A8156
:100EC000282F30E081E090E0022E02C0880F991FA9
:100ED0000A94E2F7809584238C9397C0ABE3B0E04B
:100EE000EBE3F0E08081482F8A81282F30E081E019
:100EF00090E0022E02C0880F991F0A94E2F7842B1B
:100F00008C9383C08B818823A9F4A8E3B0E0E8E345
:100F1000F0E08081482F8A81282F30E081E090E046
:100F2000022E02C0880F991F0A94E2F7809584234D
:100F30008C936BC0A8E3B0E0E8E3F0E08081482F39
:100F40008A81282F30E081E090E0022E02C0880FD5
:100F5000991F0A94E2F7842B8C9357C08B818823C6
:100F6000A9F4A5E3B0E0E5E3F0E08081482F8A81B1
:100F7000282F30E081E090E0022E02C0880F991FF8
:100F80000A94E2F7809584238C933FC0A5E3B0E0F8
:100F9000E5E3F0E08081482F8A81282F30E081E06E
:100FA00090E0022E02C0880F991F0A94E2F7842B6A
:100FB0008C932BC08B818823A9F4A2E3B0E0E2E3F9
:100FC000F0E08081482F8A81282F30E081E090E096
:100FD000022E02C0880F991F0A94E2F7809584239D
:100FE0008C9313C0A2E3B0E0E2E3F0E08081482FED
:100FF0008A81282F30E081E090E0022E02C0880F25
:10100000991F0A94E2F7842B8C930F900F900F9006
:101010000F900F90CF91DF910895DF93CF9300D081
:1010200000D0CDB7DEB789836A838981282F30E06D
:101030003C832B838B819C818130910549F12B81ED
:101040003C81223031052CF48B819C81009761F02A
:101050005AC02B813C812230310571F18B819C81FA
:1010600083309105E9F14FC0ABE3B0E0EBE3F0E092
:101070008081482F8A81282F30E081E090E0022E85
:1010800002C0880F991F0A94E2F784278C933BC013
:10109000A8E3B0E0E8E3F0E08081482F8A81282FC0
:1010A00030E081E090E0022E02C0880F991F0A9480
:1010B000E2F784278C9327C0A5E3B0E0E5E3F0E0F6
:1010C0008081482F8A81282F30E081E090E0022E35
:1010D00002C0880F991F0A94E2F784278C9313C0EB
:1010E000A2E3B0E0E2E3F0E08081482F8A81282F7C
:1010F00030E081E090E0022E02C0880F991F0A9430
:10110000E2F784278C930F900F900F900F90CF9160
:10111000DF910895DF93CF93CDB7DEB7AA970FB6CF
:10112000F894DEBF0FBECDBF83E060E041E00E94D7
:10113000470683E061E041E00E94470683E062E009
:1011400041E00E94470683E063E041E00E944706D9
:1011500083E064E041E00E94470683E065E041E00F
:101160000E94470683E066E041E00E94470683E074
:1011700067E041E00E94470681E060E041E00E94B4
:10118000470681E061E041E00E94470681E062E0BD
:1011900041E00E94470688E30E941E0B80E090E039
:1011A000A0EAB0E48FA398A7A9A7BAA76FA178A5D2
:1011B00089A59AA520E030E84BE355E40E94170288
:1011C000DC01CB018BA39CA3ADA3BEA36BA17CA12F
:1011D0008DA19EA120E030E040E85FE30E941D0465
:1011E00088232CF481E090E09AA389A33FC06BA1EF
:1011F0007CA18DA19EA120E03FEF4FE757E40E9424
:10120000BD0318164CF56FA178A589A59AA520E015
:1012100030E040E251E40E941702DC01CB01BC0146
:10122000CD010E944100DC01CB019AA389A30FC02C
:101230008CE291E098A38F8F8F8D98A10197F1F7A1
:1012400098A38F8F89A19AA101979AA389A389A1B5
:101250009AA1009769F714C06BA17CA18DA19EA1F2
:101260000E944100DC01CB019AA389A389A19AA124
:101270009E8F8D8F8D8D9E8D0197F1F79E8F8D8F17
:101280008CE00E941E0B80E090E0A0EAB0E4898F21
:101290009A8FAB8FBC8F698D7A8D8B8D9C8D20E062
:1012A00030E84BE355E40E941702DC01CB018D8B43
:1012B0009E8BAF8BB88F6D897E898F89988D20E04A
:1012C00030E040E85FE30E941D0488232CF481E0B5
:1012D00090E09C8B8B8B3FC06D897E898F89988D28
:1012E00020E03FEF4FE757E40E94BD0318164CF58E
:1012F000698D7A8D8B8D9C8D20E030E040E251E449
:101300000E941702DC01CB01BC01CD010E9441000B
:10131000DC01CB019C8B8B8B0FC08CE291E09A8B14
:10132000898B89899A890197F1F79A8B898B8B89A7
:101330009C8901979C8B8B8B8B899C89009769F783
:1013400014C06D897E898F89988D0E944100DC01CF
:10135000CB019C8B8B8B8B899C89988B8F878F85FE
:1013600098890197F1F7988B8F8781E00E941E0B77
:1013700080E090E0A0EAB0E48B879C87AD87BE87D1
:101380006B857C858D859E8520E030E84BE355E4B8
:101390000E941702DC01CB018F839887A987BA8747
:1013A0006F81788589859A8520E030E040E85FE3A9
:1013B0000E941D0488232CF481E090E09E838D839D
:1013C0003FC06F81788589859A8520E03FEF4FE7A0
:1013D00057E40E94BD0318164CF56B857C858D85FE
:1013E0009E8520E030E040E251E40E941702DC01DB
:1013F000CB01BC01CD010E944100DC01CB019E83E9
:101400008D830FC08CE291E09C838B838B819C81C8
:101410000197F1F79C838B838D819E8101979E8339
:101420008D838D819E81009769F714C06F817885C7
:1014300089859A850E944100DC01CB019E838D83C2
:101440008D819E819A83898389819A810197F1F7A1
:101450009A838983AA960FB6F894DEBF0FBECDBFDC
:10146000CF91DF910895DF93CF93CDB7DEB72F975C
:101470000FB6F894DEBF0FBECDBF8F8781E060E06E
:1014800041E00E942A0781E061E040E00E942A07D3
:101490008F85982F917083E060E0492F0E942A0782
:1014A0008F858695982F917083E061E0492F0E9487
:1014B0002A078F8586958695982F917083E062E044
:1014C000492F0E942A078F85869586958695982FA5
:1014D000917083E063E0492F0E942A078F858295EF
:1014E0008F70982F917083E064E0492F0E942A0743
:1014F0008F85829586958770982F917083E065E03F
:10150000492F0E942A078F8582958695869583703C
:10151000982F917083E066E0492F0E942A078F85FB
:10152000982F991F9927991F83E067E0492F0E9400
:101530002A0781E062E041E00E942A0780E090E013
:10154000A0E0B0E48B879C87AD87BE876B857C85E8
:101550008D859E8520E030E84BE355E40E9417021C
:10156000DC01CB018F839887A987BA876F81788543
:1015700089859A8520E030E040E85FE30E941D0401
:1015800088232CF481E090E09E838D833FC06F819F
:10159000788589859A8520E03FEF4FE757E40E94E0
:1015A000BD0318164CF56B857C858D859E8520E0E6
:1015B00030E040E251E40E941702DC01CB01BC01A3
:1015C000CD010E944100DC01CB019E838D830FC0C1
:1015D0008CE291E09C838B838B819C810197F1F756
:1015E0009C838B838D819E8101979E838D838D81CA
:1015F0009E81009769F714C06F81788589859A85E7
:101600000E944100DC01CB019E838D838D819E81F0
:101610009A83898389819A810197F1F79A838983D3
:1016200081E062E040E00E942A072F960FB6F8940E
:10163000DEBF0FBECDBFCF91DF910895DF93CF9373
:10164000CDB7DEB72F970FB6F894DEBF0FBECDBF74
:101650008F8781E060E040E00E942A0781E061E03E
:1016600040E00E942A078F85982F917083E060E008
:10167000492F0E942A078F858695982F917083E0C5
:1016800061E0492F0E942A078F8586958695982FBD
:10169000917083E062E0492F0E942A078F8586952A
:1016A00086958695982F917083E063E0492F0E947C
:1016B0002A078F8582958F70982F917083E064E060
:1016C000492F0E942A078F85829586958770982FCB
:1016D000917083E065E0492F0E942A078F858295EB
:1016E000869586958370982F917083E066E0492FE8
:1016F0000E942A078F85982F991F9927991F83E0A9
:1017000067E0492F0E942A0781E062E041E00E94E1
:101710002A0780E090E0A0E0B0E48B879C87AD874B
:10172000BE876B857C858D859E8520E030E84BE308
:1017300055E40E941702DC01CB018F839887A987AB
:10174000BA876F81788589859A8520E030E040E806
:101750005FE30E941D0488232CF481E090E09E83C7
:101760008D833FC06F81788589859A8520E03FEF22
:101770004FE757E40E94BD0318164CF56B857C8536
:101780008D859E8520E030E040E251E40E94170202
:10179000DC01CB01BC01CD010E944100DC01CB0189
:1017A0009E838D830FC08CE291E09C838B838B8121
:1017B0009C810197F1F79C838B838D819E8101979A
:1017C0009E838D838D819E81009769F714C06F8100
:1017D000788589859A850E944100DC01CB019E8332
:1017E0008D838D819E819A83898389819A810197D6
:1017F000F1F79A83898381E062E040E00E942A0742
:101800002F960FB6F894DEBF0FBECDBFCF91DF91FC
:101810000895DF93CF9300D0CDB7DEB79A83898345
:101820000AC0E981FA8180810E94330A89819A8104
:1018300001969A838983E981FA818081882389F7D7
:101840000F900F90CF91DF910895DF93CF9300D049
:10185000CDB7DEB789836A838981813029F48A8193
:1018600080580E941E0B07C08981823021F48A8132
:1018700080540E941E0B0F900F90CF91DF9108951E
:10188000DF93CF93CDB7DEB781E00E941E0BCF91DF
:10189000DF910895DF93CF93CDB7DEB78CE10E943F
:1018A0001E0BCF91DF910895DF93CF93CDB7DEB7B5
:1018B00088E10E941E0BCF91DF9108950F931F9333
:1018C000DF93CF93CDB7DEB7C45ED1400FB6F894A7
:1018D000DEBF0FBECDBF82E060E040E00E94470661
:1018E00082E061E040E00E94470682E060E041E083
:1018F0000E942A0782E061E041E00E942A0782E01C
:1019000062E041E00E94470682E067E041E00E9419
:1019100047060E948A0880E690E00E94090CE3E3F3
:10192000F0E08081FE01EE51FE4F81708083E3E3A1
:10193000F0E080818695FE01EF51FE4F817080833B
:10194000FE01EE51FE4F8081882311F00C94331973
:10195000FE01ED51FE4F1182108270C282E062E002
:1019600041E00E942A07FE01E352FE4F80E090E032
:10197000A0E7B2E480839183A283B3838E010752F0
:101980001E4FFE01E352FE4F60817181828193817F
:1019900020E030E040E850E40E941702DC01CB0177
:1019A000F80180839183A283B383FE01E752FE4F47
:1019B000608171818281938120E030E040E85FE3C3
:1019C0000E941D04882334F4FE01E852FE4F81E09A
:1019D0008083E0C0FE01E752FE4F60817181828109
:1019E000938120E030E04FE753E40E94BD031816D6
:1019F0000CF0C0C0FE01E352FE4F60817181828114
:101A0000938120E030E04AE754E40E941103DC01B6
:101A1000CB01FE01EC52FE4F80839183A283B383FE
:101A20008E0100531E4FFE01EC52FE4F608171810A
:101A30008281938120E030E84BE355E40E94170255
:101A4000DC01CB01F80180839183A283B383FE0183
:101A5000E053FE4F608171818281938120E030E00C
:101A600040E85FE30E941D04882344F4FE01E25332
:101A7000FE4F81E090E09183808364C0FE01E053DB
:101A8000FE4F608171818281938120E03FEF4FE7BB
:101A900057E40E94BD0318160CF043C0FE01EC523F
:101AA000FE4F608171818281938120E030E040E2CD
:101AB00051E40E941702DC01CB018E0102531E4F3C
:101AC000BC01CD010E944100DC01CB01F8019183F2
:101AD00080831FC0FE01E453FE4F8CE291E09183AE
:101AE0008083FE01E453FE4F808191810197F1F7DD
:101AF000FE01E453FE4F91838083DE01A253BE4F6B
:101B0000FE01E253FE4F80819181019711969C93D3
:101B10008E93FE01E253FE4F808191810097D1F6B2
:101B20004BC08E0102531E4FFE01E053FE4F6081F9
:101B30007181828193810E944100DC01CB01F80117
:101B400091838083DE01A653BE4FFE01E253FE4F18
:101B50008081918111969C938E93FE01E653FE4FF6
:101B6000808191810197F1F7FE01E653FE4F918349
:101B7000808322C08E0108521E4FFE01E752FE4FA5
:101B800060817181828193810E944100DC01CB01DF
:101B9000F8018083DE01A753BE4FFE01E852FE4FDD
:101BA00080818C93FE01E753FE4F80818A95F1F787
:101BB000FE01E753FE4F808382E062E040E00E9436
:101BC0002A07FE01EB53FE4F80E098ECABE9B6E448
:101BD00080839183A283B3838E010F531E4FFE0136
:101BE000EB53FE4F608171818281938120E030E070
:101BF00040E850E40E941702DC01CB01F801808329
:101C00009183A283B383FE01EF53FE4F6081718104
:101C10008281938120E030E040E85FE30E941D0470
:101C2000882334F4FE01E054FE4F81E08083E0C05D
:101C3000FE01EF53FE4F608171818281938120E02C
:101C400030E04FE753E40E94BD0318160CF0C0C00B
:101C5000FE01EB53FE4F608171818281938120E010
:101C600030E04AE754E40E941103DC01CB01FE019D
:101C7000E454FE4F80839183A283B3838E01085482
:101C80001E4FFE01E454FE4F608171818281938179
:101C900020E030E84BE355E40E941702DC01CB0161
:101CA000F80180839183A283B383FE01E854FE4F41
:101CB000608171818281938120E030E040E85FE3C0
:101CC0000E941D04882344F4FE01EA54FE4F81E083
:101CD00090E09183808364C0FE01E854FE4F6081F0
:101CE00071818281938120E03FEF4FE757E40E94AA
:101CF000BD0318160CF043C0FE01E454FE4F608192
:101D000071818281938120E030E040E251E40E94C1
:101D10001702DC01CB018E010A541E4FBC01CD011C
:101D20000E944100DC01CB01F801918380831FC038
:101D3000FE01EC54FE4F8CE291E091838083FE0122
:101D4000EC54FE4F808191810197F1F7FE01EC5434
:101D5000FE4F91838083DE01AA54BE4FFE01EA54F8
:101D6000FE4F80819181019711969C938E93FE0185
:101D7000EA54FE4F808191810097D1F64BC08E01CD
:101D80000A541E4FFE01E854FE4F6081718182812A
:101D900093810E944100DC01CB01F8019183808393
:101DA000DE01AE54BE4FFE01EA54FE4F80819181A8
:101DB00011969C938E93FE01EE54FE4F808191818B
:101DC0000197F1F7FE01EE54FE4F9183808322C00C
:101DD0008E0100541E4FFE01EF53FE4F6081718152
:101DE000828193810E944100DC01CB01F801808354
:101DF000DE01AF54BE4FFE01E054FE4F80818C9354
:101E0000FE01EF54FE4F80818A95F1F7FE01EF54F9
:101E1000FE4F808382E061E00E94250C87E690E01F
:101E20000E94090CDE01AD51BE4FFE01ED51FE4F87
:101E300080819181019611969C938E93FE01ED51C4
:101E4000FE4F808191818233910508F487CDFE0198
:101E5000ED51FE4F1182108270C282E062E041E0DB
:101E60000E942A07FE01E355FE4F80E090E0A8ECB7
:101E7000B2E480839183A283B3838E0107551E4F02
:101E8000FE01E355FE4F608171818281938120E0E4
:101E900030E040E850E40E941702DC01CB01F80179
:101EA00080839183A283B383FE01E755FE4F608157
:101EB00071818281938120E030E040E85FE30E94FD
:101EC0001D04882334F4FE01E855FE4F81E0808331
:101ED000E0C0FE01E755FE4F6081718182819381F0
:101EE00020E030E04FE753E40E94BD0318160CF0E9
:101EF000C0C0FE01E355FE4F6081718182819381F4
:101F000020E030E04AE754E40E941103DC01CB01F9
:101F1000FE01EC55FE4F80839183A283B3838E0133
:101F200000561E4FFE01EC55FE4F6081718182818B
:101F3000938120E030E84BE355E40E941702DC0176
:101F4000CB01F80180839183A283B383FE01E05625
:101F5000FE4F608171818281938120E030E040E812
:101F60005FE30E941D04882344F4FE01E256FE4F05
:101F700081E090E09183808364C0FE01E056FE4FD3
:101F8000608171818281938120E03FEF4FE757E4C8
:101F90000E94BD0318160CF043C0FE01EC55FE4F25
:101FA000608171818281938120E030E040E251E4E0
:101FB0000E941702DC01CB018E0102561E4FBC01AC
:101FC000CD010E944100DC01CB01F80191838083A7
:101FD0001FC0FE01E456FE4F8CE291E091838083A6
:101FE000FE01E456FE4F808191810197F1F7FE01D9
:101FF000E456FE4F91838083DE01A256BE4FFE0160
:10200000E256FE4F80819181019711969C938E93A9
:10201000FE01E256FE4F808191810097D1F64BC0C0
:102020008E0102561E4FFE01E056FE4F6081718107
:10203000828193810E944100DC01CB01F8019183F0
:102040008083DE01A656BE4FFE01E256FE4F808120
:10205000918111969C938E93FE01E656FE4F8081EE
:1020600091810197F1F7FE01E656FE4F918380833F
:1020700022C08E0108551E4FFE01E755FE4F6081BC
:102080007181828193810E944100DC01CB01F801C2
:102090008083DE01A756BE4FFE01E855FE4F8081CA
:1020A0008C93FE01E756FE4F80818A95F1F7FE0181
:1020B000E756FE4F808382E062E040E00E942A07FC
:1020C000FE01EB56FE4F80E098E7ABE9B6E4808373
:1020D0009183A283B3838E010F561E4FFE01EB56F0
:1020E000FE4F608171818281938120E030E040E881
:1020F00050E40E941702DC01CB01F8018083918338
:10210000A283B383FE01EF56FE4F6081718182810D
:10211000938120E030E040E85FE30E941D048823C3
:1021200034F4FE01E057FE4F81E08083E0C0FE0101
:10213000EF56FE4F608171818281938120E030E013
:102140004FE753E40E94BD0318160CF0C0C0FE0117
:10215000EB56FE4F608171818281938120E030E0F7
:102160004AE754E40E941103DC01CB01FE01E4576D
:10217000FE4F80839183A283B3838E0108571E4F45
:10218000FE01E457FE4F608171818281938120E0DE
:1021900030E84BE355E40E941702DC01CB01F80163
:1021A00080839183A283B383FE01E857FE4F608151
:1021B00071818281938120E030E040E85FE30E94FA
:1021C0001D04882344F4FE01EA57FE4F81E090E0AD
:1021D0009183808364C0FE01E857FE4F6081718166
:1021E0008281938120E03FEF4FE757E40E94BD03D7
:1021F00018160CF043C0FE01E457FE4F6081718158
:102200008281938120E030E040E251E40E94170295
:10221000DC01CB018E010A571E4FBC01CD010E948B
:102220004100DC01CB01F801918380831FC0FE01D6
:10223000EC57FE4F8CE291E091838083FE01EC57D6
:10224000FE4F808191810197F1F7FE01EC57FE4F1F
:1022500091838083DE01AA57BE4FFE01EA57FE4FED
:1022600080819181019711969C938E93FE01EA578C
:10227000FE4F808191810097D1F64BC08E010A57A5
:102280001E4FFE01E857FE4F60817181828193816C
:102290000E944100DC01CB01F80191838083DE01C3
:1022A000AE57BE4FFE01EA57FE4F808191811196D5
:1022B0009C938E93FE01EE57FE4F80819181019792
:1022C000F1F7FE01EE57FE4F9183808322C08E010D
:1022D00000571E4FFE01EF56FE4F608171818281D3
:1022E00093810E944100DC01CB01F8018083DE0173
:1022F000AF57BE4FFE01E057FE4F80818C93FE0129
:10230000EF57FE4F80818A95F1F7FE01EF57FE4FA0
:10231000808382E061E00E94250C89E690E00E94C3
:10232000090CDE01AD51BE4FFE01ED51FE4F808123
:102330009181019611969C938E93FE01ED51FE4F73
:10234000808191818233910508F487CDFE01ED51A2
:10235000FE4F1182108270C282E062E041E00E9472
:102360002A07FE01E358FE4F80E090E0AAE7B4E4BC
:1023700080839183A283B3838E0107581E4FFE0191
:10238000E358FE4F608171818281938120E030E0CB
:1023900040E850E40E941702DC01CB01F801808381
:1023A0009183A283B383FE01E758FE4F6081718160
:1023B0008281938120E030E040E85FE30E941D04C9
:1023C000882334F4FE01E858FE4F81E08083E0C0AA
:1023D000FE01E758FE4F608171818281938120E088
:1023E00030E04FE753E40E94BD0318160CF0C0C064
:1023F000FE01E358FE4F608171818281938120E06C
:1024000030E04AE754E40E941103DC01CB01FE01F5
:10241000EC58FE4F80839183A283B3838E010059D1
:102420001E4FFE01EC58FE4F6081718182819381C5
:1024300020E030E84BE355E40E941702DC01CB01B9
:10244000F80180839183A283B383FE01E059FE4F9C
:10245000608171818281938120E030E040E85FE318
:102460000E941D04882344F4FE01E259FE4F81E0DE
:1024700090E09183808364C0FE01E059FE4F60814B
:1024800071818281938120E03FEF4FE757E40E9402
:10249000BD0318160CF043C0FE01EC58FE4F6081DE
:1024A00071818281938120E030E040E251E40E941A
:1024B0001702DC01CB018E0102591E4FBC01CD0178
:1024C0000E944100DC01CB01F801918380831FC091
:1024D000FE01E459FE4F8CE291E091838083FE017E
:1024E000E459FE4F808191810197F1F7FE01E45993
:1024F000FE4F91838083DE01A259BE4FFE01E25957
:10250000FE4F80819181019711969C938E93FE01DD
:10251000E259FE4F808191810097D1F64BC08E0128
:1025200002591E4FFE01E059FE4F60817181828188
:1025300093810E944100DC01CB01F80191838083EB
:10254000DE01A659BE4FFE01E259FE4F8081918106
:1025500011969C938E93FE01E659FE4F80819181E6
:102560000197F1F7FE01E659FE4F9183808322C067
:102570008E0108581E4FFE01E758FE4F60817181A1
:10258000828193810E944100DC01CB01F8018083AC
:10259000DE01A759BE4FFE01E858FE4F80818C93A3
:1025A000FE01E759FE4F80818A95F1F7FE01E75958
:1025B000FE4F808382E062E040E00E942A07FE0135
:1025C000EB59FE4F80E090E7A4E9B6E48083918365
:1025D000A283B3838E010F591E4FFE01EB59FE4FAC
:1025E000608171818281938120E030E040E850E495
:1025F0000E941702DC01CB01F80180839183A28342
:10260000B383FE01EF59FE4F608171818281938116
:1026100020E030E040E85FE30E941D04882334F4AA
:10262000FE01E05AFE4F81E08083E0C0FE01EF59D9
:10263000FE4F608171818281938120E030E04FE71D
:1026400053E40E94BD0318160CF0C0C0FE01EB5904
:10265000FE4F608171818281938120E030E04AE702
:1026600054E40E941103DC01CB01FE01E45AFE4F49
:1026700080839183A283B3838E01085A1E4FFE018B
:10268000E45AFE4F608171818281938120E030E8BD
:102690004BE355E40E941702DC01CB01F801808373
:1026A0009183A283B383FE01E85AFE4F608171815A
:1026B0008281938120E030E040E85FE30E941D04C6
:1026C000882344F4FE01EA5AFE4F81E090E09183B2
:1026D000808364C0FE01E85AFE4F6081718182816F
:1026E000938120E03FEF4FE757E40E94BD031816A7
:1026F0000CF043C0FE01E45AFE4F6081718182817B
:10270000938120E030E040E251E40E941702DC01B6
:10271000CB018E010A5A1E4FBC01CD010E9441001F
:10272000DC01CB01F801918380831FC0FE01EC5ACC
:10273000FE4F8CE291E091838083FE01EC5AFE4FC4
:10274000808191810197F1F7FE01EC5AFE4F918350
:102750008083DE01AA5ABE4FFE01EA5AFE4F8081F5
:102760009181019711969C938E93FE01EA5AFE4F38
:10277000808191810097D1F64BC08E010A5A1E4F7D
:10278000FE01E85AFE4F60817181828193810E942F
:102790004100DC01CB01F80191838083DE01AE5A58
:1027A000BE4FFE01EA5AFE4F8081918111969C93A3
:1027B0008E93FE01EE5AFE4F808191810197F1F7D1
:1027C000FE01EE5AFE4F9183808322C08E01005A93
:1027D0001E4FFE01EF59FE4F60817181828193810E
:1027E0000E944100DC01CB01F8018083DE01AF5A79
:1027F000BE4FFE01E05AFE4F80818C93FE01EF5ADE
:10280000FE4F80818A95F1F7FE01EF5AFE4F8083DB
:1028100082E061E00E94250C8CE690E00E94090CA9
:10282000DE01AD51BE4FFE01ED51FE4F8081918121
:10283000019611969C938E93FE01ED51FE4F80817F
:1028400091818233910508F487CDFE01ED51FE4F51
:102850001182108270C282E062E041E00E942A0789
:10286000FE01E35BFE4F80E090E8ABEBB4E48083D5
:102870009183A283B3838E01075B1E4FFE01E35B4E
:10288000FE4F608171818281938120E030E040E8D9
:1028900050E40E941702DC01CB01F8018083918390
:1028A000A283B383FE01E75BFE4F60817181828169
:1028B000938120E030E040E85FE30E941D0488231C
:1028C00034F4FE01E85BFE4F81E08083E0C0FE014E
:1028D000E75BFE4F608171818281938120E030E06F
:1028E0004FE753E40E94BD0318160CF0C0C0FE0170
:1028F000E35BFE4F608171818281938120E030E053
:102900004AE754E40E941103DC01CB01FE01EC5BB9
:10291000FE4F80839183A283B3838E01005C1E4FA0
:10292000FE01EC5BFE4F608171818281938120E02A
:1029300030E84BE355E40E941702DC01CB01F801BB
:1029400080839183A283B383FE01E05CFE4F6081AC
:1029500071818281938120E030E040E85FE30E9452
:102960001D04882344F4FE01E25CFE4F81E090E008
:102970009183808364C0FE01E05CFE4F60817181C1
:102980008281938120E03FEF4FE757E40E94BD032F
:1029900018160CF043C0FE01EC5BFE4F60817181A4
:1029A0008281938120E030E040E251E40E941702EE
:1029B000DC01CB018E01025C1E4FBC01CD010E94E7
:1029C0004100DC01CB01F801918380831FC0FE012F
:1029D000E45CFE4F8CE291E091838083FE01E45C35
:1029E000FE4F808191810197F1F7FE01E45CFE4F7B
:1029F00091838083DE01A25CBE4FFE01E25CFE4F4C
:102A000080819181019711969C938E93FE01E25CE7
:102A1000FE4F808191810097D1F64BC08E01025C00
:102A20001E4FFE01E05CFE4F6081718182819381C7
:102A30000E944100DC01CB01F80191838083DE011B
:102A4000A65CBE4FFE01E25CFE4F80819181119633
:102A50009C938E93FE01E65CFE4F808191810197ED
:102A6000F1F7FE01E65CFE4F9183808322C08E0168
:102A7000085B1E4FFE01E75BFE4F60817181828122
:102A800093810E944100DC01CB01F8018083DE01CB
:102A9000A75CBE4FFE01E85BFE4F80818C93FE0178
:102AA000E75CFE4F80818A95F1F7FE01E75CFE4FFF
:102AB000808382E062E040E00E942A07FE01EB5C36
:102AC000FE4F80E098E8A0E9B6E480839183A2837A
:102AD000B3838E010F5C1E4FFE01EB5CFE4F6081E5
:102AE00071818281938120E030E040E850E40E94CF
:102AF0001702DC01CB01F80180839183A283B383A9
:102B0000FE01EF5CFE4F608171818281938120E044
:102B100030E040E85FE30E941D04882334F4FE01A6
:102B2000E05DFE4F81E08083E0C0FE01EF5CFE4F80
:102B3000608171818281938120E030E04FE753E42E
:102B40000E94BD0318160CF0C0C0FE01EB5CFE4FE6
:102B5000608171818281938120E030E04AE754E412
:102B60000E941103DC01CB01FE01E45DFE4F808376
:102B70009183A283B3838E01085D1E4FFE01E45D45
:102B8000FE4F608171818281938120E030E84BE3C8
:102B900055E40E941702DC01CB01F8018083918388
:102BA000A283B383FE01E85DFE4F60817181828163
:102BB000938120E030E040E85FE30E941D04882319
:102BC00044F4FE01EA5DFE4F81E090E09183808352
:102BD00064C0FE01E85DFE4F608171818281938156
:102BE00020E03FEF4FE757E40E94BD0318160CF0BA
:102BF00043C0FE01E45DFE4F60817181828193815B
:102C000020E030E040E251E40E941702DC01CB01F9
:102C10008E010A5D1E4FBC01CD010E944100DC0106
:102C2000CB01F801918380831FC0FE01EC5DFE4F54
:102C30008CE291E091838083FE01EC5DFE4F808108
:102C400091810197F1F7FE01EC5DFE4F9183808346
:102C5000DE01AA5DBE4FFE01EA5DFE4F80819181DB
:102C6000019711969C938E93FE01EA5DFE4F808141
:102C700091810097D1F64BC08E010A5D1E4FFE0177
:102C8000E85DFE4F60817181828193810E944100E5
:102C9000DC01CB01F80191838083DE01AE5DBE4F84
:102CA000FE01EA5DFE4F8081918111969C938E9387
:102CB000FE01EE5DFE4F808191810197F1F7FE01EB
:102CC000EE5DFE4F9183808322C08E01005D1E4F1A
:102CD000FE01EF5CFE4F60817181828193810E94D1
:102CE0004100DC01CB01F8018083DE01AF5DBE4F06
:102CF000FE01E05DFE4F80818C93FE01EF5DFE4F93
:102D000080818A95F1F7FE01EF5DFE4F808382E0BE
:102D100061E00E94250C8FE690E00E94090CDE0124
:102D2000AD51BE4FFE01ED51FE4F80819181019664
:102D300011969C938E93FE01ED51FE4F80819181FF
:102D40008233910508F487CDFE01ED51FE4F1182CB
:102D5000108270C282E062E041E00E942A07FE0118
:102D6000E35EFE4F80E090E0AAEFB4E480839183BD
:102D7000A283B3838E01075E1E4FFE01E35EFE4F0A
:102D8000608171818281938120E030E040E850E4ED
:102D90000E941702DC01CB01F80180839183A2839A
:102DA000B383FE01E75EFE4F608171818281938172
:102DB00020E030E040E85FE30E941D04882334F403
:102DC000FE01E85EFE4F81E08083E0C0FE01E75E29
:102DD000FE4F608171818281938120E030E04FE776
:102DE00053E40E94BD0318160CF0C0C0FE01E35E60
:102DF000FE4F608171818281938120E030E04AE75B
:102E000054E40E941103DC01CB01FE01EC5EFE4F95
:102E100080839183A283B3838E01005F1E4FFE01E6
:102E2000EC5EFE4F608171818281938120E030E809
:102E30004BE355E40E941702DC01CB01F8018083CB
:102E40009183A283B383FE01E05FFE4F60817181B5
:102E50008281938120E030E040E85FE30E941D041E
:102E6000882344F4FE01E25FFE4F81E090E091830D
:102E7000808364C0FE01E05FFE4F608171818281CA
:102E8000938120E03FEF4FE757E40E94BD031816FF
:102E90000CF043C0FE01EC5EFE4F608171818281C7
:102EA000938120E030E040E251E40E941702DC010F
:102EB000CB018E01025F1E4FBC01CD010E9441007B
:102EC000DC01CB01F801918380831FC0FE01E45F28
:102ED000FE4F8CE291E091838083FE01E45FFE4F20
:102EE000808191810197F1F7FE01E45FFE4F9183AC
:102EF0008083DE01A25FBE4FFE01E25FFE4F808154
:102F00009181019711969C938E93FE01E25FFE4F93
:102F1000808191810097D1F64BC08E01025F1E4FD8
:102F2000FE01E05FFE4F60817181828193810E948A
:102F30004100DC01CB01F80191838083DE01A65FB3
:102F4000BE4FFE01E25FFE4F8081918111969C93FE
:102F50008E93FE01E65FFE4F808191810197F1F72C
:102F6000FE01E65FFE4F9183808322C08E01085EE2
:102F70001E4FFE01E75EFE4F608171818281938169
:102F80000E944100DC01CB01F8018083DE01A75FD4
:102F9000BE4FFE01E85EFE4F80818C93FE01E75F2D
:102FA000FE4F80818A95F1F7FE01E75FFE4F808337
:102FB00082E062E040E00E942A07FE01EB5FFE4FE4
:102FC00080E090EAACE8B6E480839183A283B38387
:102FD0008E010F5F1E4FFE01EB5FFE4F608171811E
:102FE0008281938120E030E040E850E40E941702A3
:102FF000DC01CB01F80180839183A283B383FE01BE
:10300000EF5FFE4F608171818281938120E030E02B
:1030100040E85FE30E941D04882334F4FE01E05081
:10302000FF4F81E08083E0C0FE01EF5FFE4F6081D3
:1030300071818281938120E030E04FE753E40E9468
:10304000BD0318160CF0C0C0FE01EB5FFE4F60819F
:1030500071818281938120E030E04AE754E40E944C
:103060001103DC01CB01FE01E450FF4F808391830B
:10307000A283B3838E0108501F4FFE01E450FF4F1F
:10308000608171818281938120E030E84BE355E4D7
:103090000E941702DC01CB01F80180839183A28397
:1030A000B383FE01E850FF4F60817181828193817B
:1030B00020E030E040E85FE30E941D04882344F4F0
:1030C000FE01EA50FF4F81E090E09183808364C06D
:1030D000FE01E850FF4F608171818281938120E081
:1030E0003FEF4FE757E40E94BD0318160CF043C0B2
:1030F000FE01E450FF4F608171818281938120E065
:1031000030E040E251E40E941702DC01CB018E0165
:103110000A501F4FBC01CD010E944100DC01CB01D0
:10312000F801918380831FC0FE01EC50FF4F8CE2B9
:1031300091E091838083FE01EC50FF4F808191816B
:103140000197F1F7FE01EC50FF4F91838083DE0180
:10315000AA50BF4FFE01EA50FF4F80819181019735
:1031600011969C938E93FE01EA50FF4F80819181CE
:103170000097D1F64BC08E010A501F4FFE01E85058
:10318000FF4F60817181828193810E944100DC0147
:10319000CB01F80191838083DE01AE50BF4FFE0169
:1031A000EA50FF4F8081918111969C938E93FE018E
:1031B000EE50FF4F808191810197F1F7FE01EE50B3
:1031C000FF4F9183808322C08E0100501F4FFE016C
:1031D000EF5FFE4F60817181828193810E94410087
:1031E000DC01CB01F8018083DE01AF50BF4FFE014F
:1031F000E050FF4F80818C93FE01EF50FF4F8081A4
:103200008A95F1F7FE01EF50FF4F808382E061E085
:103210000E94250C83E790E00E94090CDE01AD516D
:10322000BE4FFE01ED51FE4F8081918101961196B6
:103230009C938E93FE01ED51FE4F808191818233EC
:10324000910508F487CD0E94400C80E690E00E9432
:10325000090C82E061E00E94250C83E790E00E9467
:10326000090C0C948F0CFE01EF51FE4F80818823D6
:1032700011F00C94A924FE01ED51FE4F1182108231
:1032800077C282E062E041E00E942A07FE01E3513A
:10329000FF4F80E090E0AAEFB4E480839183A283A3
:1032A000B3838E0107511F4FFE01E351FF4F608131
:1032B00071818281938120E030E040E850E40E94F7
:1032C0001702DC01CB01F80180839183A283B383D1
:1032D000FE01E751FF4F608171818281938120E07F
:1032E00030E040E85FE30E941D04882334F4FE01CF
:1032F000E851FF4F81E08083E0C0FE01E751FF4FBE
:10330000608171818281938120E030E04FE753E456
:103310000E94BD0318160CF0C0C0FE01E351FF4F20
:10332000608171818281938120E030E04AE754E43A
:103330000E941103DC01CB01FE01EC51FF4F8083A1
:103340009183A283B3838E0100521F4FFE01EC5183
:10335000FF4F608171818281938120E030E84BE3EF
:1033600055E40E941702DC01CB01F80180839183B0
:10337000A283B383FE01E052FF4F6081718182819D
:10338000938120E030E040E85FE30E941D04882341
:1033900044F4FE01E252FF4F81E090E0918380838C
:1033A00064C0FE01E052FF4F608171818281938190
:1033B00020E03FEF4FE757E40E94BD0318160CF0E2
:1033C00043C0FE01EC51FF4F608171818281938186
:1033D00020E030E040E251E40E941702DC01CB0122
:1033E0008E0102521F4FBC01CD010E944100DC0141
:1033F000CB01F801918380831FC0FE01E452FF4F8F
:103400008CE291E091838083FE01E452FF4F808142
:1034100091810197F1F7FE01E452FF4F9183808380
:10342000DE01A252BF4FFE01E252FF4F8081918127
:10343000019711969C938E93FE01E252FF4F80817B
:1034400091810097D1F64BC08E0102521F4FFE01B1
:10345000E052FF4F60817181828193810E9441001F
:10346000DC01CB01F80191838083DE01A652BF4FBE
:10347000FE01E252FF4F8081918111969C938E93C1
:10348000FE01E652FF4F808191810197F1F7FE0125
:10349000E652FF4F9183808322C08E0108511F4F57
:1034A000FE01E751FF4F60817181828193810E940B
:1034B0004100DC01CB01F8018083DE01A752BF4F40
:1034C000FE01E851FF4F80818C93FE01E752FF4FD0
:1034D00080818A95F1F7FE01E752FF4F808382E0F9
:1034E00062E040E00E942A07FE01EB52FF4F80E0BD
:1034F00090EAACE8B6E480839183A283B3838E0123
:103500000F521F4FFE01EB52FF4F6081718182818C
:10351000938120E030E040E850E40E941702DC0193
:10352000CB01F80180839183A283B383FE01EF5224
:10353000FF4F608171818281938120E030E040E81B
:103540005FE30E941D04882334F4FE01E053FF4F23
:1035500081E08083E0C0FE01EF52FF4F6081718106
:103560008281938120E030E04FE753E40E94BD0365
:1035700018160CF0C0C0FE01EB52FF4F6081718144
:103580008281938120E030E04AE754E40E941103F5
:10359000DC01CB01FE01E453FF4F80839183A283C2
:1035A000B3838E0108531F4FFE01E453FF4F608128
:1035B00071818281938120E030E84BE355E40E94E1
:1035C0001702DC01CB01F80180839183A283B383CE
:1035D000FE01E853FF4F608171818281938120E079
:1035E00030E040E85FE30E941D04882344F4FE01BC
:1035F000EA53FF4F81E090E09183808364C0FE0135
:10360000E853FF4F608171818281938120E03FEF19
:103610004FE757E40E94BD0318160CF043C0FE01AB
:10362000E453FF4F608171818281938120E030E01B
:1036300040E251E40E941702DC01CB018E010A53E3
:103640001F4FBC01CD010E944100DC01CB01F801FC
:10365000918380831FC0FE01EC53FF4F8CE291E009
:1036600091838083FE01EC53FF4F8081918101970C
:10367000F1F7FE01EC53FF4F91838083DE01AA53E3
:10368000BF4FFE01EA53FF4F808191810197119650
:103690009C938E93FE01EA53FF4F808191810097A6
:1036A000D1F64BC08E010A531F4FFE01E853FF4F66
:1036B00060817181828193810E944100DC01CB0194
:1036C000F80191838083DE01AE53BF4FFE01EA53C0
:1036D000FF4F8081918111969C938E93FE01EE5352
:1036E000FF4F808191810197F1F7FE01EE53FF4F6B
:1036F0009183808322C08E0100531F4FFE01EF5241
:10370000FF4F60817181828193810E944100DC01C1
:10371000CB01F8018083DE01AF53BF4FFE01E053C0
:10372000FF4F80818C93FE01EF53FF4F80818A957C
:10373000F1F7FE01EF53FF4F808382E061E00E94CA
:10374000250C83E790E00E94090CA5E3B0E0E5E3D7
:10375000F0E0808182608C93DE01AD51BE4FFE01AE
:10376000ED51FE4F80819181019611969C938E932D
:10377000FE01ED51FE4F808191818233910508F465
:1037800080CDFE01ED51FE4F1182108270C282E0A9
:1037900062E041E00E942A07FE01E354FF4F80E00F
:1037A00090E8ABEBB4E480839183A283B3838E0172
:1037B00007541F4FFE01E354FF4F608171818281E6
:1037C000938120E030E040E850E40E941702DC01E1
:1037D000CB01F80180839183A283B383FE01E75478
:1037E000FF4F608171818281938120E030E040E869
:1037F0005FE30E941D04882334F4FE01E854FF4F68
:1038000081E08083E0C0FE01E754FF4F6081718159
:103810008281938120E030E04FE753E40E94BD03B2
:1038200018160CF0C0C0FE01E354FF4F6081718197
:103830008281938120E030E04AE754E40E94110342
:10384000DC01CB01FE01EC54FF4F80839183A28306
:10385000B3838E0100551F4FFE01EC54FF4F608172
:1038600071818281938120E030E84BE355E40E942E
:103870001702DC01CB01F80180839183A283B3831B
:10388000FE01E055FF4F608171818281938120E0CC
:1038900030E040E85FE30E941D04882344F4FE0109
:1038A000E255FF4F81E090E09183808364C0FE0188
:1038B000E055FF4F608171818281938120E03FEF6D
:1038C0004FE757E40E94BD0318160CF043C0FE01F9
:1038D000EC54FF4F608171818281938120E030E060
:1038E00040E251E40E941702DC01CB018E01025537
:1038F0001F4FBC01CD010E944100DC01CB01F8014A
:10390000918380831FC0FE01E455FF4F8CE291E05C
:1039100091838083FE01E455FF4F8081918101975F
:10392000F1F7FE01E455FF4F91838083DE01A2553C
:10393000BF4FFE01E255FF4F8081918101971196A3
:103940009C938E93FE01E255FF4F808191810097F9
:10395000D1F64BC08E0102551F4FFE01E055FF4FBF
:1039600060817181828193810E944100DC01CB01E1
:10397000F80191838083DE01A655BF4FFE01E25519
:10398000FF4F8081918111969C938E93FE01E655A5
:10399000FF4F808191810197F1F7FE01E655FF4FBE
:1039A0009183808322C08E0108541F4FFE01E7548B
:1039B000FF4F60817181828193810E944100DC010F
:1039C000CB01F8018083DE01A755BF4FFE01E8540B
:1039D000FF4F80818C93FE01E755FF4F80818A95D0
:1039E000F1F7FE01E755FF4F808382E062E040E09F
:1039F0000E942A07FE01EB55FF4F80E098E8A0E9FE
:103A0000B6E480839183A283B3838E010F551F4F49
:103A1000FE01EB55FF4F608171818281938120E02F
:103A200030E040E850E40E941702DC01CB01F801CD
:103A300080839183A283B383FE01EF55FF4F6081A2
:103A400071818281938120E030E040E85FE30E9451
:103A50001D04882334F4FE01E056FF4F81E080838B
:103A6000E0C0FE01EF55FF4F60817181828193813B
:103A700020E030E04FE753E40E94BD0318160CF03D
:103A8000C0C0FE01EB55FF4F60817181828193813F
:103A900020E030E04AE754E40E941103DC01CB014E
:103AA000FE01E456FF4F80839183A283B3838E018E
:103AB00008561F4FFE01E456FF4F608171818281DD
:103AC000938120E030E84BE355E40E941702DC01CB
:103AD000CB01F80180839183A283B383FE01E85672
:103AE000FF4F608171818281938120E030E040E866
:103AF0005FE30E941D04882344F4FE01EA56FF4F51
:103B000081E090E09183808364C0FE01E856FF4F1E
:103B1000608171818281938120E03FEF4FE757E41C
:103B20000E94BD0318160CF043C0FE01E456FF4F7F
:103B3000608171818281938120E030E040E251E434
:103B40000E941702DC01CB018E010A561F4FBC01F7
:103B5000CD010E944100DC01CB01F80191838083FB
:103B60001FC0FE01EC56FF4F8CE291E091838083F1
:103B7000FE01EC56FF4F808191810197F1F7FE0124
:103B8000EC56FF4F91838083DE01AA56BF4FFE01A2
:103B9000EA56FF4F80819181019711969C938E93F5
:103BA000FE01EA56FF4F808191810097D1F64BC00C
:103BB0008E010A561F4FFE01E856FF4F608171814A
:103BC000828193810E944100DC01CB01F801918345
:103BD0008083DE01AE56BF4FFE01EA56FF4F808163
:103BE000918111969C938E93FE01EE56FF4F80813A
:103BF00091810197F1F7FE01EE56FF4F918380838B
:103C000022C08E0100561F4FFE01EF55FF4F60810D
:103C10007181828193810E944100DC01CB01F80116
:103C20008083DE01AF56BF4FFE01E056FF4F80811B
:103C30008C93FE01EF56FF4F80818A95F1F7FE01CC
:103C4000EF56FF4F808382E061E00E94250C8FE6F3
:103C500090E00E94090CDE01AD51BE4FFE01ED5116
:103C6000FE4F80819181019611969C938E93FE0167
:103C7000ED51FE4F808191818233910508F487CD0B
:103C80000E94400C80E690E00E94090CFE01ED517C
:103C9000FE4F1182108270C282E062E041E00E9419
:103CA0002A07FE01E357FF4F80E090E0AAE7B4E463
:103CB00080839183A283B3838E0107571F4FFE0138
:103CC000E357FF4F608171818281938120E030E072
:103CD00040E850E40E941702DC01CB01F801808328
:103CE0009183A283B383FE01E757FF4F6081718107
:103CF0008281938120E030E040E85FE30E941D0470
:103D0000882334F4FE01E857FF4F81E08083E0C050
:103D1000FE01E757FF4F608171818281938120E02E
:103D200030E04FE753E40E94BD0318160CF0C0C00A
:103D3000FE01E357FF4F608171818281938120E012
:103D400030E04AE754E40E941103DC01CB01FE019C
:103D5000EC57FF4F80839183A283B3838E01005879
:103D60001F4FFE01EC57FF4F60817181828193816B
:103D700020E030E84BE355E40E941702DC01CB0160
:103D8000F80180839183A283B383FE01E058FF4F43
:103D9000608171818281938120E030E040E85FE3BF
:103DA0000E941D04882344F4FE01E258FF4F81E085
:103DB00090E09183808364C0FE01E058FF4F6081F2
:103DC00071818281938120E03FEF4FE757E40E94A9
:103DD000BD0318160CF043C0FE01EC57FF4F608185
:103DE00071818281938120E030E040E251E40E94C1
:103DF0001702DC01CB018E0102581F4FBC01CD011F
:103E00000E944100DC01CB01F801918380831FC037
:103E1000FE01E458FF4F8CE291E091838083FE0124
:103E2000E458FF4F808191810197F1F7FE01E4583A
:103E3000FF4F91838083DE01A258BF4FFE01E258FD
:103E4000FF4F80819181019711969C938E93FE0183
:103E5000E258FF4F808191810097D1F64BC08E01CF
:103E600002581F4FFE01E058FF4F6081718182812F
:103E700093810E944100DC01CB01F8019183808392
:103E8000DE01A658BF4FFE01E258FF4F80819181AD
:103E900011969C938E93FE01E658FF4F808191818D
:103EA0000197F1F7FE01E658FF4F9183808322C00E
:103EB0008E0108571F4FFE01E757FF4F6081718148
:103EC000828193810E944100DC01CB01F801808353
:103ED000DE01A758BF4FFE01E857FF4F80818C934A
:103EE000FE01E758FF4F80818A95F1F7FE01E75800
:103EF000FF4F808382E062E040E00E942A07FE01DB
:103F0000EB58FF4F80E090E7A4E9B6E4808391830B
:103F1000A283B3838E010F581F4FFE01EB58FF4F52
:103F2000608171818281938120E030E040E850E43B
:103F30000E941702DC01CB01F80180839183A283E8
:103F4000B383FE01EF58FF4F6081718182819381BD
:103F500020E030E040E85FE30E941D04882334F451
:103F6000FE01E059FF4F81E08083E0C0FE01EF5881
:103F7000FF4F608171818281938120E030E04FE7C3
:103F800053E40E94BD0318160CF0C0C0FE01EB58AC
:103F9000FF4F608171818281938120E030E04AE7A8
:103FA00054E40E941103DC01CB01FE01E459FF4FF0
:103FB00080839183A283B3838E0108591F4FFE0132
:103FC000E459FF4F608171818281938120E030E864
:103FD0004BE355E40E941702DC01CB01F80180831A
:103FE0009183A283B383FE01E859FF4F6081718101
:103FF0008281938120E030E040E85FE30E941D046D
:10400000882344F4FE01EA59FF4F81E090E0918358
:10401000808364C0FE01E859FF4F60817181828115
:10402000938120E03FEF4FE757E40E94BD0318164D
:104030000CF043C0FE01E459FF4F60817181828121
:10404000938120E030E040E251E40E941702DC015D
:10405000CB018E010A591F4FBC01CD010E944100C6
:10406000DC01CB01F801918380831FC0FE01EC5974
:10407000FF4F8CE291E091838083FE01EC59FF4F6A
:10408000808191810197F1F7FE01EC59FF4F9183F7
:104090008083DE01AA59BF4FFE01EA59FF4F80819C
:1040A0009181019711969C938E93FE01EA59FF4FDF
:1040B000808191810097D1F64BC08E010A591F4F24
:1040C000FE01E859FF4F60817181828193810E94D6
:1040D0004100DC01CB01F80191838083DE01AE5900
:1040E000BF4FFE01EA59FF4F8081918111969C9349
:1040F0008E93FE01EE59FF4F808191810197F1F778
:10410000FE01EE59FF4F9183808322C08E0100593A
:104110001F4FFE01EF58FF4F6081718182819381B3
:104120000E944100DC01CB01F8018083DE01AF5920
:10413000BF4FFE01E059FF4F80818C93FE01EF5984
:10414000FF4F80818A95F1F7FE01EF59FF4F808381
:1041500082E061E00E94250C8CE690E00E94090C50
:10416000DE01AD51BE4FFE01ED51FE4F80819181C8
:10417000019611969C938E93FE01ED51FE4F808126
:1041800091818233910508F487CDFE01ED51FE4FF8
:104190001182108224C282E062E041E00E942A077C
:1041A000FE01E35AFF4F80E090E0A8ECB2E4808388
:1041B0009183A283B3838E01075A1F4FFE01E35AF6
:1041C000FF4F608171818281938120E030E040E87F
:1041D00050E40E941702DC01CB01F8018083918337
:1041E000A283B383FE01E75AFF4F60817181828110
:1041F000938120E030E040E85FE30E941D048823C3
:1042000034F4FE01E85AFF4F81E08083E0C0FE01F4
:10421000E75AFF4F608171818281938120E030E015
:104220004FE753E40E94BD0318160CF0C0C0FE0116
:10423000E35AFF4F608171818281938120E030E0F9
:104240004AE754E40E941103DC01CB01FE01EC5A61
:10425000FF4F80839183A283B3838E01005B1F4F46
:10426000FE01EC5AFF4F608171818281938120E0D1
:1042700030E84BE355E40E941702DC01CB01F80162
:1042800080839183A283B383FE01E05BFF4F608153
:1042900071818281938120E030E040E85FE30E94F9
:1042A0001D04882344F4FE01E25BFF4F81E090E0AF
:1042B0009183808364C0FE01E05BFF4F6081718168
:1042C0008281938120E03FEF4FE757E40E94BD03D6
:1042D00018160CF043C0FE01EC5AFF4F608171814B
:1042E0008281938120E030E040E251E40E94170295
:1042F000DC01CB018E01025B1F4FBC01CD010E948E
:104300004100DC01CB01F801918380831FC0FE01D5
:10431000E45BFF4F8CE291E091838083FE01E45BDC
:10432000FF4F808191810197F1F7FE01E45BFF4F20
:1043300091838083DE01A25BBF4FFE01E25BFF4FF2
:1043400080819181019711969C938E93FE01E25B8F
:10435000FF4F808191810097D1F64BC08E01025BA7
:104360001F4FFE01E05BFF4F60817181828193816D
:104370000E944100DC01CB01F80191838083DE01C2
:10438000A65BBF4FFE01E25BFF4F808191811196DA
:104390009C938E93FE01E65BFF4F80819181019794
:1043A000F1F7FE01E65BFF4F9183808322C08E010F
:1043B000085A1F4FFE01E75AFF4F608171818281C9
:1043C00093810E944100DC01CB01F8018083DE0172
:1043D000A75BBF4FFE01E85AFF4F80818C93FE011F
:1043E000E75BFF4F80818A95F1F7FE01E75BFF4FA6
:1043F000808382E062E040E00E942A07FE01EB5BDE
:10440000FF4F80E098E7ABE9B6E480839183A28315
:10441000B3838E010F5B1F4FFE01EB5BFF4F60818B
:1044200071818281938120E030E040E850E40E9475
:104430001702DC01CB01F80180839183A283B3834F
:10444000FE01EF5BFF4F608171818281938120E0EB
:1044500030E040E85FE30E941D04882334F481E0EB
:10446000FE01E05CFF4F80839DC0FE01EF5BFF4FCC
:10447000608171818281938120E030E04FE753E4D5
:104480000E94BD0318160CF07EC0FE01EB5BFF4FCF
:10449000608171818281938120E030E04AE754E4B9
:1044A0000E941103DC01CB018CAF9DAFAEAFBFAF5B
:1044B0006CAD7DAD8EAD9FAD20E030E84BE355E4B3
:1044C0000E941702DC01CB0188AF99AFAAAFBBAF46
:1044D00068AD79AD8AAD9BAD20E030E040E85FE3A8
:1044E0000E941D0488232CF481E090E09FAB8EABEA
:1044F0003FC068AD79AD8AAD9BAD20E03FEF4FE79F
:1045000057E40E94BD0318164CF56CAD7DAD8EAD21
:104510009FAD20E030E040E251E40E941702DC0150
:10452000CB01BC01CD010E944100DC01CB019FAB5E
:104530008EAB0FC08CE291E09DAB8CAB8CA99DA99A
:104540000197F1F79DAB8CAB8EA99FA901979FAB0B
:104550008EAB8EA99FA9009769F72DC068AD79AD84
:104560008AAD9BAD0E944100DC01CB019FAB8EABBD
:104570008EA99FA99BAB8AAB8AA99BA90197F1F74A
:104580009BAB8AAB18C0FE01EF5BFF4F608171816E
:10459000828193810E944100DC01CB01FE01E05C3D
:1045A000FF4F8083FE01E05CFF4F808189AB89A9CA
:1045B0008A95F1F789AB82E061E00E94250C89E6DB
:1045C00090E00E94090CDE01AD51BE4FFE01ED519D
:1045D000FE4F80819181019611969C938E93FE01EE
:1045E000ED51FE4F808191818233910508F4D3CD46
:1045F0000E94400C80E690E00E94090CFE01ED5103
:10460000FE4F118210829AC182E062E041E00E9476
:104610002A0780E090E0A0E7B2E48DA79EA7AFA7AD
:10462000B8AB6DA57EA58FA598A920E030E040E845
:1046300050E40E941702DC01CB0189A79AA7ABA71F
:10464000BCA769A57AA58BA59CA520E030E040E831
:104650005FE30E941D0488231CF481E088A791C0B9
:1046600069A57AA58BA59CA520E030E04FE753E42F
:104670000E94BD0318160CF07BC06DA57EA58FA50A
:1046800098A920E030E04AE754E40E941103DC01DD
:10469000CB018CA39DA3AEA3BFA36CA17DA18EA1D2
:1046A0009FA120E030E84BE355E40E941702DC01B3
:1046B000CB0188A399A3AAA3BBA368A179A18AA1CE
:1046C0009BA120E030E040E85FE30E941D048823C6
:1046D0002CF481E090E09F8F8E8F3FC068A179A17C
:1046E0008AA19BA120E03FEF4FE757E40E94BD0362
:1046F00018164CF56CA17DA18EA19FA120E030E0A1
:1047000040E251E40E941702DC01CB01BC01CD0163
:104710000E944100DC01CB019F8F8E8F0FC08CE285
:1047200091E09D8F8C8F8C8D9D8D0197F1F79D8FE2
:104730008C8F8E8D9F8D01979F8F8E8F8E8D9F8DED
:10474000009769F724C068A179A18AA19BA10E9462
:104750004100DC01CB019F8F8E8F8E8D9F8D9B8FB3
:104760008A8F8A8D9B8D0197F1F79B8F8A8F0FC05F
:1047700069A57AA58BA59CA50E944100DC01CB010F
:1047800088A788A5898F898D8A95F1F7898F82E01E
:1047900062E040E00E942A0780E098ECABE9B6E4D2
:1047A0008D8B9E8BAF8BB88F6D897E898F89988D0D
:1047B00020E030E040E850E40E941702DC01CB0129
:1047C000898B9A8BAB8BBC8B69897A898B899C8905
:1047D00020E030E040E85FE30E941D0488231CF4E1
:1047E00081E0888B91C069897A898B899C8920E0D6
:1047F00030E04FE753E40E94BD0318160CF07BC075
:104800006D897E898F89988D20E030E04AE754E4F5
:104810000E941103DC01CB018C879D87AE87BF8787
:104820006C857D858E859F8520E030E84BE355E4DF
:104830000E941702DC01CB0188879987AA87BB8772
:10484000688579858A859B8520E030E040E85FE3D4
:104850000E941D0488232CF481E090E09F838E83C6
:104860003FC0688579858A859B8520E03FEF4FE7CB
:1048700057E40E94BD0318164CF56C857D858E8526
:104880009F8520E030E040E251E40E941702DC0105
:10489000CB01BC01CD010E944100DC01CB019F8313
:1048A0008E830FC08CE291E09D838C838C819D81EF
:1048B0000197F1F79D838C838E819F8101979F8360
:1048C0008E838E819F81009769F724C068857985E2
:1048D0008A859B850E944100DC01CB019F838E83EA
:1048E0008E819F819B838A838A819B810197F1F7C7
:1048F0009B838A830FC069897A898B899C890E94EE
:104900004100DC01CB01888B8889898389818A9564
:10491000F1F7898382E061E00E94250C87E690E050
:104920000E94090CDE01AD51BE4FFE01ED51FE4F5C
:1049300080819181019611969C938E93FE01ED5199
:10494000FE4F808191818233910508F45DCE0C94F5
:104950008F0C82E062E040E00E942A070C948F0CEA
:104960002F923F924F925F926F927F928F929F927F
:10497000AF92BF92CF92DF92EF92FF920F931F936D
:10498000CF93DF93CDB7DEB7CA1BDB0B0FB6F8941E
:10499000DEBF0FBECDBF09942A88398848885F845E
:1049A0006E847D848C849B84AA84B984C884DF80CF
:1049B000EE80FD800C811B81AA81B981CE0FD11DB3
:1049C0000FB6F894DEBF0FBECDBFED010895F89489
:0249D000FFCF17
:1049D200416E676C653A0030003435003930003181
:1049E20033350031383000000000000000000000C4
:00000001FF
