:100000000C942A000C9434000C9434000C943400AA
:100010000C9434000C9434000C9434000C94340090
:100020000C9434000C9434000C9434000C94340080
:100030000C9434000C9434000C9434000C94340070
:100040000C9434000C9434000C9434000C94340060
:100050000C94340011241FBECFE5D8E0DEBFCDBF25
:100060000E9481030C94E4030C940000DF93CF936F
:10007000CDB7DEB7A7E2B0E0E7E2F0E080818F77AE
:100080008C93A7E2B0E0E7E2F0E0808180648C939B
:10009000A7E2B0E0E7E2F0E080818F7D8C93A6E2FA
:1000A000B0E0E6E2F0E0808180688C93A6E2B0E008
:1000B000E6E2F0E080818B7F8C93A6E2B0E0E6E29E
:1000C000F0E0808182608C93A6E2B0E0E6E2F0E0AE
:1000D00080818E7F8C93CF91DF910895DF93CF93B2
:1000E00000D00F92CDB7DEB78B83A7E2B0E0E7E296
:1000F000F0E08081807E8C93A7E2B0E0E7E2F0E060
:1001000090818B81892B8C93A6E2B0E0E6E2F0E04F
:10011000808180648C93E6E2F0E0808182958F702C
:10012000882F90E0817090700097A9F3A6E2B0E06C
:10013000E6E2F0E0808180618C931A821982E4E229
:10014000F0E08081882F90E09A838983E5E2F0E0F7
:100150008081882F90E0982F88279C0189819A813F
:10016000822B932B9A83898389819A810F900F9098
:100170000F90CF91DF910895DF93CF9300D000D0FF
:100180000F92CDB7DEB789836A834B838981282F8D
:1001900030E03D832C838C819D818130910509F471
:1001A00043C02C813D81223031052CF48C819D810E
:1001B000009771F0BCC02C813D812230310509F4DB
:1001C0005FC08C819D818330910509F485C0AFC0EB
:1001D0008B818823A9F4AAE3B0E0EAE3F0E0808110
:1001E000482F8A81282F30E081E090E0022E02C063
:1001F000880F991F0A94E2F7809584238C9397C007
:10020000AAE3B0E0EAE3F0E08081482F8A81282F5A
:1002100030E081E090E0022E02C0880F991F0A941E
:10022000E2F7842B8C9383C08B818823A9F4A7E306
:10023000B0E0E7E3F0E08081482F8A81282F30E0AA
:1002400081E090E0022E02C0880F991F0A94E2F725
:10025000809584238C936BC0A7E3B0E0E7E3F0E0E4
:100260008081482F8A81282F30E081E090E0022EA3
:1002700002C0880F991F0A94E2F7842B8C9357C011
:100280008B818823A9F4A4E3B0E0E4E3F0E080816B
:10029000482F8A81282F30E081E090E0022E02C0B2
:1002A000880F991F0A94E2F7809584238C933FC0AE
:1002B000A4E3B0E0E4E3F0E08081482F8A81282FB6
:1002C00030E081E090E0022E02C0880F991F0A946E
:1002D000E2F7842B8C932BC08B818823A9F4A1E3B4
:1002E000B0E0E1E3F0E08081482F8A81282F30E000
:1002F00081E090E0022E02C0880F991F0A94E2F775
:10030000809584238C9313C0A1E3B0E0E1E3F0E097
:100310008081482F8A81282F30E081E090E0022EF2
:1003200002C0880F991F0A94E2F7842B8C930F90D8
:100330000F900F900F900F90CF91DF910895DF9362
:10034000CF9300D000D00F92CDB7DEB789836A83F8
:100350004B838981282F30E03D832C838C819D81C4
:100360008130910509F443C02C813D812230310553
:100370002CF48C819D81009771F0BCC02C813D8153
:100380002230310509F45FC08C819D818330910555
:1003900009F485C0AFC08B818823A9F4ABE3B0E03A
:1003A000EBE3F0E08081482F8A81282F30E081E064
:1003B00090E0022E02C0880F991F0A94E2F7809500
:1003C00084238C9397C0ABE3B0E0EBE3F0E0808153
:1003D000482F8A81282F30E081E090E0022E02C071
:1003E000880F991F0A94E2F7842B8C9383C08B812A
:1003F0008823A9F4A8E3B0E0E8E3F0E08081482F87
:100400008A81282F30E081E090E0022E02C0880F20
:10041000991F0A94E2F7809584238C936BC0A8E31C
:10042000B0E0E8E3F0E08081482F8A81282F30E0B7
:1004300081E090E0022E02C0880F991F0A94E2F733
:10044000842B8C9357C08B818823A9F4A5E3B0E05B
:10045000E5E3F0E08081482F8A81282F30E081E0B9
:1004600090E0022E02C0880F991F0A94E2F780954F
:1004700084238C933FC0A5E3B0E0E5E3F0E0808106
:10048000482F8A81282F30E081E090E0022E02C0C0
:10049000880F991F0A94E2F7842B8C932BC08B81D1
:1004A0008823A9F4A2E3B0E0E2E3F0E08081482FE2
:1004B0008A81282F30E081E090E0022E02C0880F70
:1004C000991F0A94E2F7809584238C9313C0A2E3CA
:1004D000B0E0E2E3F0E08081482F8A81282F30E00D
:1004E00081E090E0022E02C0880F991F0A94E2F783
:1004F000842B8C930F900F900F900F900F90CF91B3
:10050000DF910895DF93CF9300D000D0CDB7DEB751
:1005100089836A838981282F30E03C832B838B81F8
:100520009C818130910549F12B813C81223031053C
:100530002CF48B819C81009761F05AC02B813C8107
:100540002230310571F18B819C8183309105E9F175
:100550004FC0ABE3B0E0EBE3F0E08081482F8A814D
:10056000282F30E081E090E0022E02C0880F991F12
:100570000A94E2F784278C933BC0A8E3B0E0E8E359
:10058000F0E08081482F8A81282F30E081E090E0E0
:10059000022E02C0880F991F0A94E2F784278C93D9
:1005A00027C0A5E3B0E0E5E3F0E08081482F8A8131
:1005B000282F30E081E090E0022E02C0880F991FC2
:1005C0000A94E2F784278C9313C0A2E3B0E0E2E33D
:1005D000F0E08081482F8A81282F30E081E090E090
:1005E000022E02C0880F991F0A94E2F784278C9389
:1005F0000F900F900F900F90CF91DF910895DF93A0
:10060000CF9300D000D000D0CDB7DEB789836A8306
:100610008981282F30E03D832C834C815D814130DE
:10062000510549F18C819D818230910534F42C81F2
:100630003D812115310561F057C04C815D8142300B
:10064000510561F18C819D8183309105D1F14CC0C0
:10065000E9E3F0E08081282F30E08A81882F90E064
:10066000A90102C0559547958A95E2F7CA01582F0E
:1006700051705B833AC0E6E3F0E08081282F30E0E0
:100680008A81882F90E0A90102C0559547958A95E7
:10069000E2F7CA01582F51705B8327C0E3E3F0E013
:1006A0008081282F30E08A81882F90E0A90102C044
:1006B000559547958A95E2F7CA01582F51705B838B
:1006C00014C0E0E3F0E08081282F30E08A81882F99
:1006D00090E0A90102C0559547958A95E2F7CA01B5
:1006E000582F51705B8301C002C08B818E838E8135
:1006F00026960FB6F894DEBF0FBECDBFCF91DF9127
:100700000895DF93CF9300D000D0CDB7DEB70E941D
:10071000360081E063E041E00E94BC00A3E5B0E068
:10072000E3E5F0E0808180648C93A3E5B0E0E3E54D
:10073000F0E08081877F8C93A3E5B0E0E3E5F0E013
:1007400080818F7E8C93A3E5B0E0E3E5F0E08081CB
:1007500080628C93A3E5B0E0E3E5F0E08081816006
:100760008C93A3E5B0E0E3E5F0E080818D7F8C938E
:10077000A3E5B0E0E3E5F0E080818B7F8C9380E03F
:100780000E946E009C838B83ECE5F0E08B819C8162
:1007900025E030E0B9010E94D003CB018083EFCF88
:1007A000AA1BBB1B51E107C0AA1FBB1FA617B70797
:1007B00010F0A61BB70B881F991F5A95A9F78095B3
:0C07C0009095BC01CD010895F894FFCF86
:00000001FF
