:100000000C94A7000C945F100C94C4000C94C400D2
:100010000C94C4000C94C4000C94C4000C94C40050
:100020000C94C4000C94C4000C94C4000C94C40040
:100030000C94C4000C94C4000C94C4000C94C40030
:100040000C9466080C94C4000C94C4000C94C40076
:100050000C94C40000407A10F35A00A0724E1809A4
:100060000010A5D4E80000E87648170000E40B541F
:10007000020000CA9A3B000000E1F50500008096EE
:100080009800000040420F000000A0860100000020
:10009000102700000000E8030000000064000000DA
:1000A00000000A00000000000100000000002C76A3
:1000B000D888DC674F0823DFC1DFAE59E1B1B796BE
:1000C000E5E3E453C63AE651997696E8E6C284261B
:1000D000EB898C9B62ED407C6FFCEFBC9C9F40F2F7
:1000E000BAA56FA5F490055A2AF75C936B6CF96773
:1000F0006DC11BFCE0E40D47FEF520E6B500D0ED38
:10010000902E0300943577050080841E080000209F
:100110004E0A000000C80C333333330F986E12833D
:100120001141EF8D2114893BE65516CFFEE6DB1811
:10013000D1844B381BF77C1D901DA4BBE4242032D6
:1001400084725E228100C9F124ECA1E53D271124CF
:100150001FBECFE5D8E0DEBFCDBF11E0A0E6B0E026
:10016000E6E0F6E202C005900D92A437B107D9F798
:1001700011E0A4E7B1E001C01D92AA38B107E1F790
:100180000E94400F0C9401130C940000EF92FF9218
:100190000F931F937B018C0120E030E040E05FE48F
:1001A0000E94720488238CF0C801B70120E030E07F
:1001B00040E05FE40E943E020E94D2049B01AC0139
:1001C000205030404040504806C0C801B7010E944E
:1001D000D2049B01AC01B901CA011F910F91FF909C
:1001E000EF900895A0E0B0E0E8EFF0E00C946F101D
:1001F000DC012B01FA019C91923008F439C1EB012A
:100200008881823008F433C1943069F4843009F075
:100210002FC111969C9111978981981709F428C1D3
:10022000ABE6B0E025C1843009F421C18230A9F4E5
:10023000923009F01DC19A01AD0188E0EA010990F0
:10024000AE01E90109929E018150C1F7E201898165
:1002500011969C918923818308C1923009F407C1CA
:1002600012962D903C901397EB018A819B811496F6
:10027000AD90BD90CD90DC901797EC80FD800E8105
:100280001F819101281B390BB90137FF04C0662774
:100290007727621B730B603271050CF061C0121678
:1002A00013066CF537014801062E04C09694879416
:1002B000779467940A94D2F721E030E040E050E070
:1002C00004C0220F331F441F551F6A95D2F72150D7
:1002D0003040404050402E213F21402351232115E2
:1002E00031054105510521F021E030E040E050E0CA
:1002F00079018A01E628F728082919293CC0232B0F
:10030000D1F1260E371E35014601062E04C0969403
:100310008794779467940A94D2F721E030E040E024
:1003200050E004C0220F331F441F551F6A95D2F7B7
:1003300021503040404050402A213B214C215D213A
:10034000211531054105510521F021E030E040E063
:1003500050E059016A01A628B728C828D9280BC03F
:10036000821593052CF01C01AA24BB24650103C04F
:10037000EE24FF24870111969C91D20111968C9155
:10038000981709F445C0992339F0A80197012A1953
:100390003B094C095D0906C0A60195012E193F09CC
:1003A000400B510B57FD08C01182338222822483F7
:1003B0003583468357831DC081E081833382228247
:1003C00088279927DC01821B930BA40BB50B848330
:1003D0009583A683B7830DC0220F331F441F551F7B
:1003E0002483358346835783828193810197938346
:1003F00082832481358146815781DA01C9010197C1
:10040000A109B1098F5F9F4FAF4FBF4328F30BC0C6
:10041000918333822282EA0CFB1C0C1D1D1DE48299
:10042000F5820683178383E08083248135814681AA
:10043000578157FF1AC0C901AA2797FDA095BA2F67
:1004400081709070A070B07056954795379527953C
:10045000822B932BA42BB52B84839583A683B78300
:1004600082819381019693838283DF0101C0D2014F
:10047000CD01CDB7DEB7E2E10C948B10A0E2B0E085
:10048000E4E4F2E00C947B1069837A838B839C8391
:100490002D833E834F835887E9E0EE2EF12CEC0E3E
:1004A000FD1ECE010196B7010E94C3068E010F5EAC
:1004B0001F4FCE010596B8010E94C3068A8991E0BC
:1004C00089278A8BC701B801AE01475E5F4F0E9442
:1004D000F2000E94EE05A096E6E00C949710A0E2D0
:1004E000B0E0E5E7F2E00C947B1069837A838B83BC
:1004F0009C832D833E834F835887F9E0EF2EF12CA8
:10050000EC0EFD1ECE010196B7010E94C3068E01BE
:100510000F5E1F4FCE010596B8010E94C306C701AA
:10052000B801AE01475E5F4F0E94F2000E94EE05E7
:10053000A096E6E00C949710A0E2B0E0E2EAF2E0C8
:100540000C946F1069837A838B839C832D833E8305
:100550004F835887CE010196BE01675F7F4F0E948F
:10056000C306CE010596BE016F5E7F4F0E94C30693
:100570009985923088F089898230C8F0943019F4D6
:10058000823051F404C0843029F4923081F48BE637
:1005900090E0C6C0923049F420E09A858A89981389
:1005A00021E02A87CE010996BBC0823049F420E0C1
:1005B0009A858A89981321E02A8BCE014196B0C092
:1005C0002D843E844F8458886D887E888F88988CCF
:1005D000EE24FF248701AA24BB24650140E050E0FB
:1005E00060E070E0E0E0F0E0C10181709070892B84
:1005F000E9F0E60CF71C081D191D9A01AB012A0D44
:100600003B1D4C1D5D1D80E090E0A0E0B0E0E614D5
:10061000F7040805190520F481E090E0A0E0B0E0BF
:10062000BA01A901480F591F6A1F7B1FAA0CBB1CE6
:10063000CC1CDD1C97FE08C081E090E0A0E0B0E09B
:10064000A82AB92ACA2ADB2A3196E032F10549F0F4
:10065000660C771C881C991C5694479437942794F1
:10066000C3CFFA85EA892B893C898B859C85280F25
:10067000391F2E5F3F4F17C0CA0181709070892BC0
:1006800061F016950795F794E79480E090E0A0E07C
:10069000B0E8E82AF92A0A2B1B2B7695679557951F
:1006A00047952F5F3F4F77FDE7CF0CC0440F551F95
:1006B000661F771F17FD4160EE0CFF1C001F111F06
:1006C00021503040403090E0590790E0690790E4B5
:1006D000790760F32B8F3C8FDB01CA018F77907015
:1006E000A070B07080349105A105B10561F447FD9B
:1006F0000AC0E114F1040105110529F0405C5F4FC7
:100700006F4F7F4F40781A8EFE1711F081E08A8F6D
:100710004D8F5E8F6F8F78A383E0898FCE014996CE
:100720000E94EE05A096E2E10C948B10A8E1B0E0E7
:10073000ECE9F3E00C94771069837A838B839C83D4
:100740002D833E834F835887B9E0EB2EF12CEC0EBE
:10075000FD1ECE010196B7010E94C3068E010F5EF9
:100760001F4FCE010596B8010E94C306298522308D
:1007700008F47EC03989323010F4B8017CC08A8513
:100780009A8989278A87243011F0223031F423177F
:1007900009F06EC06BE670E06EC0343039F41D862F
:1007A0001E861F86188A1C861B8604C0323021F4E0
:1007B00084E08987B7015FC02B853C858B899C8944
:1007C000281B390B3C872B87ED84FE840F85188905
:1007D000AD88BE88CF88D88CEA14FB040C051D05B3
:1007E00040F4EE0CFF1C001F111F215030403C87CD
:1007F0002B8720E030E040E050E080E090E0A0E097
:10080000B0E460E070E0EA14FB040C051D0540F064
:10081000282B392B4A2B5B2BEA18FB080C091D09E6
:10082000B695A79597958795EE0CFF1C001F111F95
:100830006F5F7F4F6F31710531F7DA01C9018F7733
:100840009070A070B07080349105A105B10561F47D
:1008500027FD0AC0E114F1040105110529F0205C0F
:100860003F4F4F4F5F4F20782D873E874F87588BE4
:10087000BE01675F7F4FCB010E94EE056896EAE0FC
:100880000C949310A8E1B0E0E8E4F4E00C947B1041
:1008900069837A838B839C832D833E834F83588720
:1008A00089E0E82EF12CEC0EFD1ECE010196B70179
:1008B0000E94C3068E010F5E1F4FCE010596B80140
:1008C0000E94C3068985823040F08989823028F0F1
:1008D000C701B8010E943B0701C08FEF6896E6E0B0
:1008E0000C949710A8E1B0E0E8E7F4E00C947B10DA
:1008F00069837A838B839C832D833E834F835887C0
:1009000089E0E82EF12CEC0EFD1ECE010196B70118
:100910000E94C3068E010F5E1F4FCE010596B801DF
:100920000E94C3068985823040F08989823028F090
:10093000C701B8010E943B0701C08FEF6896E6E04F
:100940000C949710A8E1B0E0E8EAF4E00C947B1076
:1009500069837A838B839C832D833E834F8358875F
:1009600089E0E82EF12CEC0EFD1ECE010196B701B8
:100970000E94C3068E010F5E1F4FCE010596B8017F
:100980000E94C3068985823040F08989823028F030
:10099000C701B8010E943B0701C081E06896E6E00C
:1009A0000C949710ACE0B0E0E8EDF4E00C947F100C
:1009B00069837A838B839C83CE010196BE016B5F32
:1009C0007F4F0E94C3068D81823061F1823050F1E9
:1009D000843021F48E81882351F12EC02F813885F7
:1009E00037FD20C06E812F3131051CF06623F9F0F0
:1009F00023C08EE190E0821B930B29853A854B85BD
:100A00005C8504C056954795379527958A95D2F70A
:100A10006623B1F050954095309521953F4F4F4F4B
:100A20005F4F0EC020E030E040E050E009C02FEF03
:100A30003FEF4FEF5FE704C020E030E040E050E8D8
:100A4000B901CA012C96E2E00C949B10A8E0B0E03A
:100A5000ECE2F5E00C9477107B018C0161157105D7
:100A60008105910519F482E0898360C083E0898360
:100A70008EE1C82ED12CDC82CB82ED82FE820F83E8
:100A80001887C801B7010E949F05FC013197F7FF45
:100A90003BC0222733272E1B3F0B57016801022E34
:100AA00004C0D694C794B794A7940A94D2F740E0B0
:100AB00050E060E070E081E090E0A0E0B0E004C0D1
:100AC000880F991FAA1FBB1F2A95D2F70197A1096A
:100AD000B1098E219F21A023B1230097A105B10563
:100AE00021F041E050E060E070E04A295B296C2988
:100AF0007D294D835E836F8378878EE190E08E1B26
:100B00009F0B9C838B8312C0309781F00E2E04C004
:100B1000EE0CFF1C001F111F0A94D2F7ED82FE821B
:100B20000F831887CE1ADF0ADC82CB821A82CE01AD
:100B300001960E94EE052896EAE00C949310EF923D
:100B4000FF920F931F937B018C0180E0E81680E0F9
:100B5000F80681E0080780E0180788F48FEFE816B0
:100B6000F1040105110531F028F088E090E0A0E0E3
:100B7000B0E017C080E090E0A0E0B0E012C080E0FC
:100B8000E81680E0F80680E0080781E0180728F002
:100B900088E190E0A0E0B0E004C080E190E0A0E057
:100BA000B0E020E230E040E050E0281B390B4A0B77
:100BB0005B0B04C016950795F794E7948A95D2F7D6
:100BC000F701ED58FF4F8081281B31094109510978
:100BD000C9011F910F91FF90EF900895DF92EF925E
:100BE000FF920F931F93FC01E480F580068117812B
:100BF000D1808081823048F480E090E0A0E1B0E0D4
:100C0000E82AF92A0A2B1B2BA5C0843009F49FC0BF
:100C1000823021F4EE24FF24870105C0E114F104A1
:100C20000105110519F4E0E0F0E096C062817381DE
:100C30009FEF623879070CF05BC022E83FEF261B7C
:100C4000370B2A3131052CF020E030E040E050E055
:100C50002AC0B801A701022E04C076956795579562
:100C600047950A94D2F781E090E0A0E0B0E004C09C
:100C7000880F991FAA1FBB1F2A95D2F70197A109B8
:100C8000B1098E219F21A023B1230097A105B105B1
:100C900021F081E090E0A0E0B0E09A01AB01282BC8
:100CA000392B4A2B5B2BDA01C9018F779070A0702A
:100CB000B07080349105A105B10539F427FF09C052
:100CC000205C3F4F4F4F5F4F04C0215C3F4F4F4F61
:100CD0005F4FE0E0F0E02030A0E03A07A0E04A07F4
:100CE000A0E45A0710F0E1E0F0E079018A0127C0A2
:100CF0006038710564F5FB01E158FF4FD801C70169
:100D00008F779070A070B07080349105A105B10507
:100D100039F4E7FE0DC080E490E0A0E0B0E004C04C
:100D20008FE390E0A0E0B0E0E80EF91E0A1F1B1F61
:100D300017FF05C016950795F794E794319687E05D
:100D400016950795F794E7948A95D1F705C0EE2498
:100D5000FF248701EFEFF0E06E2F67956627679518
:100D6000902F9F77D794DD24D7948E2F8695492F87
:100D7000462B582F5D29B701CA011F910F91FF9093
:100D8000EF90DF900895FC01DB01408151812281C9
:100D9000622F6F7770E0221F2227221F9381892FF5
:100DA000880F822B282F30E0991F9927991F1196C1
:100DB0009C93119721153105A9F541155105610540
:100DC000710511F482E037C082E89FEF13969C937F
:100DD0008E9312979A01AB0167E0220F331F441FD5
:100DE000551F6A95D1F783E08C930DC0220F331FF6
:100DF000441F551F12968D919C911397019713963E
:100E00009C938E931297203080E0380780E048074B
:100E100080E4580758F314962D933D934D935C93BB
:100E2000179708952F3F310579F441155105610554
:100E3000710519F484E08C93089564FF03C081E088
:100E40008C9312C01C9210C02F57304013963C93C5
:100E50002E93129783E08C9387E0440F551F661FF3
:100E6000771F8A95D1F7706414964D935D936D93B7
:100E70007C93179708951F93DC01FB019C9192309E
:100E800008F447C08081823008F443C0943051F4A4
:100E900011961C91843099F58181682F70E0611B57
:100EA00071093FC0843021F0923031F48230B9F1C1
:100EB0008181882389F12DC011961C911197823070
:100EC000F1F081811817D9F412962D913C91139766
:100ED000828193818217930794F028173907BCF019
:100EE00014968D919D910D90BC91A02D24813581FA
:100EF00046815781281739074A075B0718F41123E1
:100F000041F00AC082179307A407B50740F41123E4
:100F100019F061E070E005C06FEF7FEF02C060E0A4
:100F200070E0CB011F910895DF93CF93CDB7DEB76B
:100F30008091740190917501CF91DF910895DF93B5
:100F4000CF93CDB7DEB7A6E2B0E0E6E2F0E0808175
:100F500088608C93AFE5B0E0EFE5F0E080818068D9
:100F60008C93A7E2B0E0E7E2F0E080818F778C938A
:100F7000A7E2B0E0E7E2F0E0808180648C93A7E232
:100F8000B0E0E7E2F0E080818F7D8C93A6E2B0E0F4
:100F9000E6E2F0E0808180688C93A6E2B0E0E6E2D1
:100FA000F0E080818B7F8C93A6E2B0E0E6E2F0E097
:100FB000808182608C93A6E2B0E0E6E2F0E080817E
:100FC0008E7F8C93A6E2B0E0E6E2F0E08081806262
:100FD0008C93CF91DF910895DF93CF9300D00F9240
:100FE000CDB7DEB78B83A7E2B0E0E7E2F0E0808127
:100FF000807E8C93A7E2B0E0E7E2F0E090818B8105
:10100000892B8C93A6E2B0E0E6E2F0E08081806478
:101010008C93E6E2F0E0808182958F70882F90E0DB
:10102000817090700097A9F3A6E2B0E0E6E2F0E0EC
:10103000808180618C931A821982E4E2F0E08081E1
:10104000882F90E09A838983E5E2F0E08081882F01
:1010500090E0982F88279C0189819A81822B932B7D
:101060009A83898389819A810F900F900F90CF91F5
:10107000DF910895DF93CF930F92CDB7DEB78983C9
:10108000A6E2B0E0E6E2F0E0808180648C930F900D
:10109000CF91DF910895DF93CF93CDB7DEB7E6E22E
:1010A000F0E080818295869586958370882F90E008
:1010B00081709070009739F4A6E2B0E0E6E2F0E0CB
:1010C000808180618C93CF91DF9108951F920F9260
:1010D0000FB60F9211242F933F938F939F93EF930B
:1010E000FF93DF93CF93CDB7DEB7109275011092C7
:1010F0007401E4E2F0E08081282F30E080917401F7
:1011000090917501822B932B9093750180937401BC
:10111000E5E2F0E08081882F90E0982F88279C01FD
:101120008091740190917501822B932B909375019E
:1011300080937401CF91DF91FF91EF919F918F91F7
:101140003F912F910F900FBE0F901F901895DF9336
:10115000CF9300D000D00F92CDB7DEB789836A83DA
:101160004B838981282F30E03D832C838C819D81A6
:101170008130910509F443C02C813D812230310535
:101180002CF48C819D81009771F0BCC02C813D8135
:101190002230310509F45FC08C819D818330910537
:1011A00009F485C0AFC08B818823A9F4AAE3B0E01D
:1011B000EAE3F0E08081482F8A81282F30E081E047
:1011C00090E0022E02C0880F991F0A94E2F78095E2
:1011D00084238C9397C0AAE3B0E0EAE3F0E0808137
:1011E000482F8A81282F30E081E090E0022E02C053
:1011F000880F991F0A94E2F7842B8C9383C08B810C
:101200008823A9F4A7E3B0E0E7E3F0E08081482F6A
:101210008A81282F30E081E090E0022E02C0880F02
:10122000991F0A94E2F7809584238C936BC0A7E3FF
:10123000B0E0E7E3F0E08081482F8A81282F30E09A
:1012400081E090E0022E02C0880F991F0A94E2F715
:10125000842B8C9357C08B818823A9F4A4E3B0E03E
:10126000E4E3F0E08081482F8A81282F30E081E09C
:1012700090E0022E02C0880F991F0A94E2F7809531
:1012800084238C933FC0A4E3B0E0E4E3F0E08081EA
:10129000482F8A81282F30E081E090E0022E02C0A2
:1012A000880F991F0A94E2F7842B8C932BC08B81B3
:1012B0008823A9F4A1E3B0E0E1E3F0E08081482FC6
:1012C0008A81282F30E081E090E0022E02C0880F52
:1012D000991F0A94E2F7809584238C9313C0A1E3AD
:1012E000B0E0E1E3F0E08081482F8A81282F30E0F0
:1012F00081E090E0022E02C0880F991F0A94E2F765
:10130000842B8C930F900F900F900F900F90CF9194
:10131000DF910895DF93CF9300D000D00F92CDB727
:10132000DEB789836A834B838981282F30E03D8330
:101330002C838C819D818130910509F443C02C81DF
:101340003D81223031052CF48C819D81009771F014
:10135000BCC02C813D812230310509F45FC08C81F5
:101360009D818330910509F485C0AFC08B818823AE
:10137000A9F4ABE3B0E0EBE3F0E08081482F8A8191
:10138000282F30E081E090E0022E02C0880F991FE4
:101390000A94E2F7809584238C9397C0ABE3B0E086
:1013A000EBE3F0E08081482F8A81282F30E081E054
:1013B00090E0022E02C0880F991F0A94E2F7842B56
:1013C0008C9383C08B818823A9F4A8E3B0E0E8E381
:1013D000F0E08081482F8A81282F30E081E090E082
:1013E000022E02C0880F991F0A94E2F78095842389
:1013F0008C936BC0A8E3B0E0E8E3F0E08081482F75
:101400008A81282F30E081E090E0022E02C0880F10
:10141000991F0A94E2F7842B8C9357C08B81882301
:10142000A9F4A5E3B0E0E5E3F0E08081482F8A81EC
:10143000282F30E081E090E0022E02C0880F991F33
:101440000A94E2F7809584238C933FC0A5E3B0E033
:10145000E5E3F0E08081482F8A81282F30E081E0A9
:1014600090E0022E02C0880F991F0A94E2F7842BA5
:101470008C932BC08B818823A9F4A2E3B0E0E2E334
:10148000F0E08081482F8A81282F30E081E090E0D1
:10149000022E02C0880F991F0A94E2F780958423D8
:1014A0008C9313C0A2E3B0E0E2E3F0E08081482F28
:1014B0008A81282F30E081E090E0022E02C0880F60
:1014C000991F0A94E2F7842B8C930F900F900F9042
:1014D0000F900F90CF91DF910895DF93CF9300D0BD
:1014E00000D0CDB7DEB789836A838981282F30E0A9
:1014F0003C832B838B819C818130910549F12B8129
:101500003C81223031052CF48B819C81009761F065
:101510005AC02B813C812230310571F18B819C8135
:1015200083309105E9F14FC0ABE3B0E0EBE3F0E0CD
:101530008081482F8A81282F30E081E090E0022EC0
:1015400002C0880F991F0A94E2F784278C933BC04E
:10155000A8E3B0E0E8E3F0E08081482F8A81282FFB
:1015600030E081E090E0022E02C0880F991F0A94BB
:10157000E2F784278C9327C0A5E3B0E0E5E3F0E031
:101580008081482F8A81282F30E081E090E0022E70
:1015900002C0880F991F0A94E2F784278C9313C026
:1015A000A2E3B0E0E2E3F0E08081482F8A81282FB7
:1015B00030E081E090E0022E02C0880F991F0A946B
:1015C000E2F784278C930F900F900F900F90CF919C
:1015D000DF910895DF93CF9300D000D000D0CDB736
:1015E000DEB789836A838981282F30E03D832C838D
:1015F0004C815D814130510549F18C819D81823062
:10160000910534F42C813D812115310561F057C0DD
:101610004C815D814230510561F18C819D81833027
:101620009105D1F14CC0E9E3F0E08081282F30E052
:101630008A81882F90E0A90102C0559547958A9527
:10164000E2F7CA01582F51705B833AC0E6E3F0E03D
:101650008081282F30E08A81882F90E0A90102C084
:10166000559547958A95E2F7CA01582F51705B83CB
:1016700027C0E3E3F0E08081282F30E08A81882FC3
:1016800090E0A90102C0559547958A95E2F7CA01F5
:10169000582F51705B8314C0E0E3F0E08081282F65
:1016A00030E08A81882F90E0A90102C055954795C6
:1016B0008A95E2F7CA01582F51705B8301C002C0BE
:1016C0008B818E838E8126960FB6F894DEBF0FBE77
:1016D000CDBFCF91DF910895DF93CF93CDB7DEB724
:1016E000AA970FB6F894DEBF0FBECDBF82E060E0D0
:1016F00041E00E94A70882E061E041E00E94A70863
:1017000082E062E041E00E94A70882E063E041E0FD
:101710000E94A70882E064E041E00E94A70882E0FE
:1017200065E041E00E94A70882E066E041E00E9497
:10173000A70882E067E041E00E94A70883E065E037
:1017400041E00E94A70883E066E041E00E94A7080C
:1017500083E067E041E00E94A70888E30E94000E52
:1017600080E090E0A0EAB0E48FA398A7A9A7BAA769
:101770006FA178A589A59AA520E030E84BE355E450
:101780000E949C02DC01CB018BA39CA3ADA3BEA352
:101790006BA17CA18DA19EA120E030E040E85FE339
:1017A0000E94A20488232CF481E090E09AA389A3EC
:1017B0003FC06BA17CA18DA19EA120E03FEF4FE730
:1017C00057E40E94420418164CF56FA178A589A52C
:1017D0009AA520E030E040E251E40E949C02DC0146
:1017E000CB01BC01CD010E94C600DC01CB019AA354
:1017F00089A30FC08CE291E098A38F8F8F8D98A161
:101800000197F1F798A38F8F89A19AA101979AA3C5
:1018100089A389A19AA1009769F714C06BA17CA143
:101820008DA19EA10E94C600DC01CB019AA389A3D1
:1018300089A19AA19E8F8D8F8D8D9E8D0197F1F735
:101840009E8F8D8F8CE00E94000E80E090E0A0EAD9
:10185000B0E4898F9A8FAB8FBC8F698D7A8D8B8D19
:101860009C8D20E030E84BE355E40E949C02DC01B3
:10187000CB018D8B9E8BAF8BB88F6D897E898F89C5
:10188000988D20E030E040E85FE30E94A2048823C6
:101890002CF481E090E09C8B8B8B3FC06D897E891E
:1018A0008F89988D20E03FEF4FE757E40E94420474
:1018B00018164CF5698D7A8D8B8D9C8D20E030E06B
:1018C00040E251E40E949C02DC01CB01BC01CD014D
:1018D0000E94C600DC01CB019C8B8B8B0FC08CE27D
:1018E00091E09A8B898B89899A890197F1F79A8B74
:1018F000898B8B899C8901979C8B8B8B8B899C898D
:10190000009769F714C06D897E898F89988D0E9430
:10191000C600DC01CB019C8B8B8B8B899C89988BBF
:101920008F878F8598890197F1F7988B8F8781E052
:101930000E94000E80E090E0A0EAB0E48B879C87D4
:10194000AD87BE876B857C858D859E8520E030E8E0
:101950004BE355E40E949C02DC01CB018F83988706
:10196000A987BA876F81788589859A8520E030E0DC
:1019700040E85FE30E94A20488232CF481E090E019
:101980009E838D833FC06F81788589859A8520E00D
:101990003FEF4FE757E40E94420418164CF56B8561
:1019A0007C858D859E8520E030E040E251E40E94F8
:1019B0009C02DC01CB01BC01CD010E94C600DC0110
:1019C000CB019E838D830FC08CE291E09C838B833F
:1019D0008B819C810197F1F79C838B838D819E8104
:1019E00001979E838D838D819E81009769F714C036
:1019F0006F81788589859A850E94C600DC01CB01BC
:101A00009E838D838D819E819A83898389819A812A
:101A10000197F1F79A838983AA960FB6F894DEBFEF
:101A20000FBECDBFCF91DF910895DF93CF93CDB798
:101A3000DEB72F970FB6F894DEBF0FBECDBF8F87EE
:101A400083E065E041E00E948A0983E066E040E0CF
:101A50000E948A098F85982F917082E060E0492F5B
:101A60000E948A098F858695982F917082E061E0A7
:101A7000492F0E948A098F8586958695982F9170A7
:101A800082E062E0492F0E948A098F8586958695BB
:101A90008695982F917082E063E0492F0E948A0911
:101AA0008F8582958F70982F917082E064E0492F26
:101AB0000E948A098F85829586958770982F9170EC
:101AC00082E065E0492F0E948A098F85829586957C
:101AD00086958370982F917082E066E0492F0E946E
:101AE0008A098F85982F991F9927991F82E067E0AF
:101AF000492F0E948A0983E067E041E00E948A0939
:101B000080E090E0A0E0B0E48B879C87AD87BE8743
:101B10006B857C858D859E8520E030E84BE355E420
:101B20000E949C02DC01CB018F839887A987BA872A
:101B30006F81788589859A8520E030E040E85FE311
:101B40000E94A20488232CF481E090E09E838D8380
:101B50003FC06F81788589859A8520E03FEF4FE708
:101B600057E40E94420418164CF56B857C858D85E0
:101B70009E8520E030E040E251E40E949C02DC01BE
:101B8000CB01BC01CD010E94C600DC01CB019E83CC
:101B90008D830FC08CE291E09C838B838B819C8131
:101BA0000197F1F79C838B838D819E8101979E83A2
:101BB0008D838D819E81009769F714C06F81788530
:101BC00089859A850E94C600DC01CB019E838D83A6
:101BD0008D819E819A83898389819A810197F1F70A
:101BE0009A83898383E067E040E00E948A092F9608
:101BF0000FB6F894DEBF0FBECDBFCF91DF91089531
:101C0000DF93CF93CDB7DEB72F970FB6F894DEBF33
:101C10000FBECDBF8F8783E065E040E00E948A0958
:101C200083E066E040E00E948A098F85982F9170DA
:101C300082E060E0492F0E948A098F858695982F5F
:101C4000917082E061E0492F0E948A098F85869514
:101C50008695982F917082E062E0492F0E948A0950
:101C60008F85869586958695982F917082E063E0A2
:101C7000492F0E948A098F8582958F70982F9170C5
:101C800082E064E0492F0E948A098F8582958695BB
:101C90008770982F917082E065E0492F0E948A0931
:101CA0008F858295869586958370982F917082E0B6
:101CB00066E0492F0E948A098F85982F991F9927DE
:101CC000991F82E067E0492F0E948A0983E067E05C
:101CD00041E00E948A0980E090E0A0E0B0E48B87B8
:101CE0009C87AD87BE876B857C858D859E8520E032
:101CF00030E84BE355E40E949C02DC01CB018F836A
:101D00009887A987BA876F81788589859A8520E029
:101D100030E040E85FE30E94A20488232CF481E0D5
:101D200090E09E838D833FC06F81788589859A85F9
:101D300020E03FEF4FE757E40E94420418164CF5AD
:101D40006B857C858D859E8520E030E040E251E406
:101D50000E949C02DC01CB01BC01CD010E94C600A7
:101D6000DC01CB019E838D830FC08CE291E09C83CC
:101D70008B838B819C810197F1F79C838B838D8171
:101D80009E8101979E838D838D819E81009769F747
:101D900014C06F81788589859A850E94C600DC0110
:101DA000CB019E838D838D819E819A8389838981D6
:101DB0009A810197F1F79A83898383E067E040E095
:101DC0000E948A092F960FB6F894DEBF0FBECDBFD2
:101DD000CF91DF910895DF93CF9300D0CDB7DEB7D9
:101DE0009A8389830AC0E981FA8180810E94150D56
:101DF00089819A8101969A838983E981FA81808118
:101E0000882389F70F900F90CF91DF910895DF938A
:101E1000CF9300D0CDB7DEB789836A8389818130C3
:101E200029F48A8180580E94000E07C0898182307F
:101E300021F48A8180540E94000E0F900F90CF9160
:101E4000DF910895DF93CF93CDB7DEB781E00E9495
:101E5000000ECF91DF910895DF93CF93CDB7DEB71A
:101E60008CE10E94000ECF91DF910895DF93CF9314
:101E7000CDB7DEB788E10E94000ECF91DF910895C3
:101E80000F931F93DF93CF93CDB7DEB7ABE5B0E0F1
:101E9000EBE5F0E0808180648C93AFE5B0E0EFE5A6
:101EA000F0E0808180688C93A5E5B0E0E5E5F0E0A6
:101EB000808181608C93A5E5B0E0E5E5F0E080816C
:101EC00082608C93A0E5B0E0E0E5F0E08081806482
:101ED0008C93A0E5B0E0E0E5F0E080818F7D8C930D
:101EE000A0E5B0E0E0E5F0E080818F778C9383E0BF
:101EF00062E040E00E94A70883E062E041E00E94C7
:101F00008A0981E060E040E00E94A70881E060E08B
:101F100041E00E948A090E946C0B0E949F0780E0AA
:101F20000E943A080E944B080E949407CC01A0E04E
:101F3000B0E0BC01CD010E942605DC01CB018093FD
:101F4000860190938701A0938801B09389018091C5
:101F5000860190918701A0918801B0918901BC010F
:101F6000CD0120E030E040EA50E40E949C02DC0118
:101F7000CB01BC01CD0120E030E040E854E40E94F8
:101F80009603DC01CB018093760190937701A093B7
:101F90007801B09379018091860190918701A09199
:101FA0008801B0918901BC01CD0120E030E44CE909
:101FB00055E40E949C02DC01CB01BC01CD0120E074
:101FC00030E040E854E40E949603DC01CB018093AA
:101FD0007A0190937B01A0937C01B0937D01E6E3AD
:101FE000F0E08081817080937E0180917E0181305C
:101FF00091F581E060E00E94070F80E690E00E948A
:10200000EB0E8091760190917701A0917801B091CB
:102010007901EFE7F1E0BC01CD0146E050E021E0BD
:1020200030E08F010E94A61086E80E94000E81E039
:1020300067E00E94070F8FE791E00E94EB0E81E0BE
:102040006FE00E94070F86E690E00E94EB0E81E0B1
:1020500067E00E94070F80917E01882309F064CF1A
:1020600081E060E00E94070F80E690E00E94EB0EA6
:1020700080917A0190917B01A0917C01B0917D01CA
:10208000EFE7F1E0BC01CD0146E050E021E030E0B7
:102090008F010E94A61086E80E94000E81E067E092
:1020A0000E94070F8FE791E00E94EB0E81E06EE047
:1020B0000E94070F88E690E00E94EB0E35CF1F923A
:1020C0000F920FB60F921124DF93CF93CDB7DEB7E7
:1020D000CF91DF910F900FBE0F901F9018952F9208
:1020E0003F924F925F926F927F928F929F92AF92A8
:1020F000BF92CF92DF92EF92FF920F931F93CF93F5
:10210000DF93CDB7DEB7CA1BDB0B0FB6F894DEBF8B
:102110000FBECDBF09942A88398848885F846E84B1
:102120007D848C849B84AA84B984C884DF80EE80FB
:10213000FD800C811B81AA81B981CE0FD11D0FB604
:10214000F894DEBF0FBECDBFED010895EF92FF9270
:102150000F931F93F22FF02E47FD02C0E4E001C061
:10216000E4E1242F332727FD309537FF03C0309556
:1021700021953F4F4F2D512F0F2FEE2E0E94C7104C
:102180008F2D912F1F910F91FF90EF900895A9E04F
:10219000B0E0EDECF0E10C9473106A01122FA02E68
:1021A000BE2C2BE3201718F42CE3922E02C0902EA5
:1021B0009394AE014F5F5F4F27E0092D0E942912D3
:1021C000BC018981E82EFF24C701897090700197B6
:1021D00011F4ADE209C0B1FE02C0ABE205C0B0FC33
:1021E00002C0A0E001C0A0E2E3FE3BC0AA2311F4BC
:1021F00023E001C024E0211710F020E002C0121BF0
:10220000212FEB2CB4FE02C0322F0AC0F601322F70
:1022100080E202C0819331503323E1F7C20ED11C1A
:10222000AA2319F0F601A1936F01F6013196E2FE9F
:1022300005C09EE4D6019C9381E404C09EE6D601CD
:102240009C9381E611968C9391833296DF01832FC4
:1022500090E202C09D9381508823E1F7E30FF11DC6
:1022600040C0E2FE42C0AA2311F423E001C024E0F2
:10227000211710F020E002C0121B212FEB2CB4FE1E
:1022800002C0922F0AC0F601922F80E202C0819311
:1022900091509923E1F7C20ED11CAA2319F0F6013F
:1022A000A1936F01F6013196E2FE08C089E4D601E0
:1022B0008C938EE411968C9386E407C089E6D60150
:1022C0008C938EE611968C9386E681833296DF019D
:1022D000892F20E202C02D9381508823E1F7E90F76
:1022E000F11D10822EEF3FEFAFC0161617061CF03F
:1022F00041E050E003C0AB014F5F5F4FAA2019F4EB
:1023000080E090E003C08A2D90E0019620E030E06C
:10231000AA2311F021E030E0240F351F280F391FC8
:10232000812F90E02817390714F020E002C0121B1B
:10233000212F4B2D50E0CA0180719070B4FC0DC06C
:10234000B3FC0BC0F601322F40E202C04193315082
:102350003323E1F7C20ED11C01C0322FAA2319F09A
:10236000F601A1936F01892B11F0132F0AC0F6011A
:10237000132F80E302C0819311501123E1F7C30EA4
:10238000D11C092D060FBA8090E1892E912C8E2048
:102390009F20E4FE04C0F1E3BF1609F401501016BB
:1023A00014F001E003C0093008F008E09B0177FF5A
:1023B00002C020E030E0CB010196821B930BFE01AE
:1023C0003196E80FF91F8EE2F82E3B01601A710872
:1023D0008A2D90E044275527481B590B8FEF2F3F3C
:1023E000380719F4D601FD926D01621773072CF0BE
:1023F0006216730614F4808101C080E321503040DE
:1024000031962417350724F0D6018D936D01E6CF60
:102410002617370749F4B5E3BB1528F0BB1621F49E
:102420008114910409F481E3F6018193D601812F8F
:1024300090E202C09C93815011968823D9F7E10F56
:10244000F11D108220E030E0C9012996EEE00C94E5
:102450008F10283008F027E03327DA01990F311D5B
:1024600087FD916000966105710539F432602E5F39
:102470003D9330E32A95E1F708959F3F30F080388F
:102480007105610509F03C5F3C5F3D93913008F0B8
:102490008068911DDF93CF931F930F93FF92EF926C
:1024A000192F987F9695E92F96959695E90FFF2716
:1024B000E255FF4F99273327EE24FF24A701E701B8
:1024C00005900894079428F4360FE71EF81E491F5C
:1024D000511D660F771F881F991F0694A1F705905D
:1024E000079428F4E70EF81E491F561FC11D770FE9
:1024F000881F991F661F0694A1F70590079428F47A
:10250000F80E491F561FC71FD11D880F991F661F40
:10251000771F0694A1F70590079420F4490F561FE2
:10252000C71FD81F990F661F771F881F0694A9F72A
:1025300084911095177041F0D695C795579547959A
:10254000F794E7941A95C1F7E4E5F0E068941590E4
:10255000159135916591959105907FE27395E118FC
:10256000F10A430B560BC90BD009C0F7E10CF11E61
:10257000431F561FC91FD01D7EF4703311F48A9576
:10258000E6CFE894015030F0080F0AF40027021754
:1025900008F4202F2395022F7A3328F079E37D93D6
:1025A0002A95E9F710C07D932A9589F606949795A8
:1025B0006795379517951794E118F10A430B560B59
:1025C000C90BD00998F023957E9173957A3308F062
:1025D00070E37C932013B8F77E9170617D9330F0A7
:1025E000839571E37D9370E32A95E1F71124EF90D1
:1025F000FF900F911F91CF91DF91992787FD9095C3
:062600000895F894FFCFDD
:10260600566F6C743A0076006D760000000000008C
:10261600000000000102020303030304040404048F
:102626000404040505050505050505050505050557
:102636000505050606060606060606060606060637
:102646000606060606060606060606060606060624
:102656000606060707070707070707070707070707
:1026660007070707070707070707070707070707F4
:1026760007070707070707070707070707070707E4
:1026860007070707070707070707070707070707D4
:1026960007070708080808080808080808080808B7
:1026A60008080808080808080808080808080808A4
:1026B6000808080808080808080808080808080894
:1026C6000808080808080808080808080808080884
:1026D6000808080808080808080808080808080874
:1026E6000808080808080808080808080808080864
:1026F6000808080808080808080808080808080854
:102706000808080808080808080808080808080843
:0427160008080800A7
:00000001FF
