:100000000C942A000C946F130C9447000C94470036
:100010000C9447000C9447000C9447000C94470044
:100020000C9447000C9447000C9447000C94470034
:100030000C9447000C9447000C9447000C94470024
:100040000C9447000C9447000C9447000C94470014
:100050000C94470011241FBECFE5D8E0DEBFCDBF12
:1000600011E0A0E6B0E0E6E2F8E202C005900D92F1
:10007000A637B107D9F711E0A6E7B1E001C01D929C
:10008000A238B107E1F70E945A110C9411140C9494
:100090000000EF92FF920F931F937B018C0120E0F1
:1000A00030E040E05FE40E94F50388238CF0C80153
:1000B000B70120E030E040E05FE40E94C1010E940F
:1000C000B3049B01AC01205030404040504806C072
:1000D000C801B7010E94B3049B01AC01B901CA0178
:1000E0001F910F91FF90EF900895A0E0B0E0EBE733
:1000F000F0E00C94DA13DC012B01FA019C919230B0
:1001000008F439C1EB018881823008F433C194309E
:1001100069F4843009F02FC111969C91119789815F
:10012000981709F428C1ADE6B0E025C1843009F480
:1001300021C18230A9F4923009F01DC19A01AD01AC
:1001400088E0EA010990AE01E90109929E0181501F
:10015000C1F7E201898111969C918923818308C1AD
:10016000923009F407C112962D903C901397EB0141
:100170008A819B811496AD90BD90CD90DC901797AD
:10018000EC80FD800E811F819101281B390BB90184
:1001900037FF04C066277727621B730B6032710537
:1001A0000CF061C0121613066CF537014801062EDB
:1001B00004C096948794779467940A94D2F721E0C8
:1001C00030E040E050E004C0220F331F441F551FB1
:1001D0006A95D2F721503040404050402E213F21B7
:1001E00040235123211531054105510521F021E01E
:1001F00030E040E050E079018A01E628F72808293C
:1002000019293CC0232BD1F1260E371E350146019A
:10021000062E04C096948794779467940A94D2F734
:1002200021E030E040E050E004C0220F331F441FC3
:10023000551F6A95D2F721503040404050402A2146
:100240003B214C215D21211531054105510521F04E
:1002500021E030E040E050E059016A01A628B728CB
:10026000C828D9280BC0821593052CF01C01AA249C
:10027000BB24650103C0EE24FF24870111969C91E5
:10028000D20111968C91981709F445C0992339F041
:10029000A80197012A193B094C095D0906C0A6016E
:1002A00095012E193F09400B510B57FD08C01182D3
:1002B0003382228224833583468357831DC081E0A5
:1002C00081833382228288279927DC01821B930B4A
:1002D000A40BB50B84839583A683B7830DC0220F2F
:1002E000331F441F551F24833583468357838281E0
:1002F000938101979383828324813581468157813D
:10030000DA01C9010197A109B1098F5F9F4FAF4F72
:10031000BF4328F30BC0918333822282EA0CFB1C7B
:100320000C1D1D1DE482F5820683178383E0808304
:10033000248135814681578157FF1AC0C901AA27F8
:1003400097FDA095BA2F81709070A070B0705695EF
:10035000479537952795822B932BA42BB52B848318
:100360009583A683B7838281938101969383828349
:10037000DF0101C0D201CD01CDB7DEB7E2E10C94BF
:10038000F613A0E2B0E0E7ECF1E00C94E613698329
:100390007A838B839C832D833E834F835887E9E048
:1003A000EE2EF12CEC0EFD1ECE010196B7010E943F
:1003B0002B068E010F5E1F4FCE010596B8010E94DD
:1003C0002B068A8991E089278A8BC701B801AE0183
:1003D000475E5F4F0E9475000E945605A096E6E0BA
:1003E0000C940214A0E2B0E0E8EFF1E00C94E61304
:1003F00069837A838B839C832D833E834F835887C5
:10040000F9E0EF2EF12CEC0EFD1ECE010196B701A6
:100410000E942B068E010F5E1F4FCE010596B8017C
:100420000E942B06C701B801AE01475E5F4F0E94D4
:1004300075000E945605A096E6E00C940214A0E216
:10044000B0E0E5E2F2E00C94DA1369837A838B83FF
:100450009C832D833E834F835887CE010196BE0136
:10046000675F7F4F0E942B06CE010596BE016F5E2F
:100470007F4F0E942B069985923088F089898230BF
:10048000C8F0943019F4823051F404C0843029F457
:10049000923081F48DE690E0C6C0923049F420E0BD
:1004A0009A858A89981321E02A87CE010996BBC0D4
:1004B000823049F420E09A858A89981321E02A8BBA
:1004C000CE014196B0C02D843E844F8458886D88FB
:1004D0007E888F88988CEE24FF248701AA24BB2471
:1004E000650140E050E060E070E0E0E0F0E0C10174
:1004F00081709070892BE9F0E60CF71C081D191D1E
:100500009A01AB012A0D3B1D4C1D5D1D80E090E062
:10051000A0E0B0E0E614F7040805190520F481E036
:1005200090E0A0E0B0E0BA01A901480F591F6A1F8E
:100530007B1FAA0CBB1CCC1CDD1C97FE08C081E0F5
:1005400090E0A0E0B0E0A82AB92ACA2ADB2A3196B6
:10055000E032F10549F0660C771C881C991C569412
:10056000479437942794C3CFFA85EA892B893C892D
:100570008B859C85280F391F2E5F3F4F17C0CA01FE
:1005800081709070892B61F016950795F794E79428
:1005900080E090E0A0E0B0E8E82AF92A0A2B1B2BC3
:1005A00076956795579547952F5F3F4F77FDE7CF36
:1005B0000CC0440F551F661F771F17FD4160EE0CDE
:1005C000FF1C001F111F21503040403090E05907A0
:1005D00090E0690790E4790760F32B8F3C8FDB0193
:1005E000CA018F779070A070B07080349105A1051A
:1005F000B10561F447FD0AC0E114F10401051105DC
:1006000029F0405C5F4F6F4F7F4F40781A8EFE1786
:1006100011F081E08A8F4D8F5E8F6F8F78A383E01A
:10062000898FCE0149960E945605A096E2E10C946E
:10063000F613A8E1B0E0EFE1F3E00C94E213698374
:100640007A838B839C832D833E834F835887B9E0C5
:10065000EB2EF12CEC0EFD1ECE010196B7010E948F
:100660002B068E010F5E1F4FCE010596B8010E942A
:100670002B062985223008F47EC03989323010F4E7
:10068000B8017CC08A859A8989278A87243011F02D
:10069000223031F4231709F06EC06DE670E06EC0B1
:1006A000343039F41D861E861F86188A1C861B86E8
:1006B00004C0323021F484E08987B7015FC02B8504
:1006C0003C858B899C89281B390B3C872B87ED84C3
:1006D000FE840F851889AD88BE88CF88D88CEA142F
:1006E000FB040C051D0540F4EE0CFF1C001F111F40
:1006F000215030403C872B8720E030E040E050E044
:1007000080E090E0A0E0B0E460E070E0EA14FB0478
:100710000C051D0540F0282B392B4A2B5B2BEA18C2
:10072000FB080C091D09B695A79597958795EE0CC2
:10073000FF1C001F111F6F5F7F4F6F31710531F775
:10074000DA01C9018F779070A070B0708034910584
:10075000A105B10561F427FD0AC0E114F10401050A
:10076000110529F0205C3F4F4F4F5F4F20782D87B8
:100770003E874F87588BBE01675F7F4FCB010E943A
:1007800056056896EAE00C94FE13A8E1B0E0EBECA5
:10079000F3E00C94E61369837A838B839C832D8327
:1007A0003E834F83588789E0E82EF12CEC0EFD1E26
:1007B000CE010196B7010E942B068E010F5E1F4FDE
:1007C000CE010596B8010E942B068985823040F043
:1007D0008989823028F0C701B8010E94A30601C0B0
:1007E0008FEF6896E6E00C940214A8E1B0E0EBEF1E
:1007F000F3E00C94E61369837A838B839C832D83C7
:100800003E834F83588789E0E82EF12CEC0EFD1EC5
:10081000CE010196B7010E942B068E010F5E1F4F7D
:10082000CE010596B8010E942B068985823040F0E2
:100830008989823028F0C701B8010E94A30601C04F
:100840008FEF6896E6E00C940214A8E1B0E0EBE2CA
:10085000F4E00C94E61369837A838B839C832D8365
:100860003E834F83588789E0E82EF12CEC0EFD1E65
:10087000CE010196B7010E942B068E010F5E1F4F1D
:10088000CE010596B8010E942B068985823040F082
:100890008989823028F0C701B8010E94A30601C0EF
:1008A00081E06896E6E00C940214A8E0B0E0EBE585
:1008B000F4E00C94E3139B01AC0183E08983DA013B
:1008C000C9018827B7FD83959927AA27BB27B82E8A
:1008D000211531054105510519F482E089833AC09B
:1008E0008823A9F0203080E0380780E0480780E8BE
:1008F000580729F460E070E080E09FEC30C0EE24FF
:10090000FF248701E21AF30A040B150B02C07901D8
:100910008A018EE1C82ED12CDC82CB82ED82FE8250
:100920000F831887C801B7010E94070501971816A1
:10093000190684F4082E04C0EE0CFF1C001F111FC2
:100940000A94D2F7ED82FE820F831887C81AD90A5B
:10095000DC82CB82BA82CE0101960E94560528968F
:10096000E9E00C94FF13ACE0B0E0E9EBF4E00C94A8
:10097000EA1369837A838B839C83CE010196BE013F
:100980006B5F7F4F0E942B068D81823061F1823038
:1009900050F1843021F48E81882351F12EC02F81B3
:1009A000388537FD20C06E812F3131051CF066235C
:1009B000F9F023C08EE190E0821B930B29853A85E4
:1009C0004B855C8504C056954795379527958A9544
:1009D000D2F76623B1F050954095309521953F4F61
:1009E0004F4F5F4F0EC020E030E040E050E009C0C4
:1009F0002FEF3FEF4FEF5FE704C020E030E040E033
:100A000050E8B901CA012C96E2E00C940614EF926A
:100A1000FF920F931F937B018C0180E0E81680E02A
:100A2000F80681E0080780E0180788F48FEFE816E1
:100A3000F1040105110531F028F088E090E0A0E014
:100A4000B0E017C080E090E0A0E0B0E012C080E02D
:100A5000E81680E0F80680E0080781E0180728F033
:100A600088E190E0A0E0B0E004C080E190E0A0E088
:100A7000B0E020E230E040E050E0281B390B4A0BA8
:100A80005B0B04C016950795F794E7948A95D2F707
:100A9000F701EB58FF4F8081281B310941095109AB
:100AA000C9011F910F91FF90EF900895DF92EF928F
:100AB000FF920F931F93FC01E480F580068117815C
:100AC000D1808081823048F480E090E0A0E1B0E005
:100AD000E82AF92A0A2B1B2BA5C0843009F49FC0F1
:100AE000823021F4EE24FF24870105C0E114F104D3
:100AF0000105110519F4E0E0F0E096C06281738110
:100B00009FEF623879070CF05BC022E83FEF261BAD
:100B1000370B2A3131052CF020E030E040E050E086
:100B20002AC0B801A701022E04C076956795579593
:100B300047950A94D2F781E090E0A0E0B0E004C0CD
:100B4000880F991FAA1FBB1F2A95D2F70197A109E9
:100B5000B1098E219F21A023B1230097A105B105E2
:100B600021F081E090E0A0E0B0E09A01AB01282BF9
:100B7000392B4A2B5B2BDA01C9018F779070A0705B
:100B8000B07080349105A105B10539F427FF09C083
:100B9000205C3F4F4F4F5F4F04C0215C3F4F4F4F92
:100BA0005F4FE0E0F0E02030A0E03A07A0E04A0725
:100BB000A0E45A0710F0E1E0F0E079018A0127C0D3
:100BC0006038710564F5FB01E158FF4FD801C7019A
:100BD0008F779070A070B07080349105A105B10539
:100BE00039F4E7FE0DC080E490E0A0E0B0E004C07E
:100BF0008FE390E0A0E0B0E0E80EF91E0A1F1B1F93
:100C000017FF05C016950795F794E794319687E08E
:100C100016950795F794E7948A95D1F705C0EE24C9
:100C2000FF248701EFEFF0E06E2F67956627679549
:100C3000902F9F77D794DD24D7948E2F8695492FB8
:100C4000462B582F5D29B701CA011F910F91FF90C4
:100C5000EF90DF900895FC01DB01408151812281FA
:100C6000622F6F7770E0221F2227221F9381892F26
:100C7000880F822B282F30E0991F9927991F1196F2
:100C80009C93119721153105A9F541155105610571
:100C9000710511F482E037C082E89FEF13969C93B0
:100CA0008E9312979A01AB0167E0220F331F441F06
:100CB000551F6A95D1F783E08C930DC0220F331F27
:100CC000441F551F12968D919C911397019713966F
:100CD0009C938E931297203080E0380780E048077D
:100CE00080E4580758F314962D933D934D935C93ED
:100CF000179708952F3F310579F441155105610586
:100D0000710519F484E08C93089564FF03C081E0B9
:100D10008C9312C01C9210C02F57304013963C93F6
:100D20002E93129783E08C9387E0440F551F661F24
:100D3000771F8A95D1F7706414964D935D936D93E8
:100D40007C93179708951F93DC01FB019C919230CF
:100D500008F447C08081823008F443C0943051F4D5
:100D600011961C91843099F58181682F70E0611B88
:100D700071093FC0843021F0923031F48230B9F1F2
:100D80008181882389F12DC011961C9111978230A1
:100D9000F1F081811817D9F412962D913C91139797
:100DA000828193818217930794F028173907BCF04A
:100DB00014968D919D910D90BC91A02D248135812B
:100DC00046815781281739074A075B0718F4112312
:100DD00041F00AC082179307A407B50740F4112316
:100DE00019F061E070E005C06FEF7FEF02C060E0D6
:100DF00070E0CB011F910895DF93CF9300D000D016
:100E00000F92CDB7DEB789836A834B838981282F00
:100E100030E03D832C838C819D818130910509F4E4
:100E200043C02C813D81223031052CF48C819D8181
:100E3000009771F0BCC02C813D812230310509F44E
:100E40005FC08C819D818330910509F485C0AFC05E
:100E50008B818823A9F4AAE3B0E0EAE3F0E0808183
:100E6000482F8A81282F30E081E090E0022E02C0D6
:100E7000880F991F0A94E2F7809584238C9397C07A
:100E8000AAE3B0E0EAE3F0E08081482F8A81282FCE
:100E900030E081E090E0022E02C0880F991F0A9492
:100EA000E2F7842B8C9383C08B818823A9F4A7E37A
:100EB000B0E0E7E3F0E08081482F8A81282F30E01E
:100EC00081E090E0022E02C0880F991F0A94E2F799
:100ED000809584238C936BC0A7E3B0E0E7E3F0E058
:100EE0008081482F8A81282F30E081E090E0022E17
:100EF00002C0880F991F0A94E2F7842B8C9357C085
:100F00008B818823A9F4A4E3B0E0E4E3F0E08081DE
:100F1000482F8A81282F30E081E090E0022E02C025
:100F2000880F991F0A94E2F7809584238C933FC021
:100F3000A4E3B0E0E4E3F0E08081482F8A81282F29
:100F400030E081E090E0022E02C0880F991F0A94E1
:100F5000E2F7842B8C932BC08B818823A9F4A1E327
:100F6000B0E0E1E3F0E08081482F8A81282F30E073
:100F700081E090E0022E02C0880F991F0A94E2F7E8
:100F8000809584238C9313C0A1E3B0E0E1E3F0E00B
:100F90008081482F8A81282F30E081E090E0022E66
:100FA00002C0880F991F0A94E2F7842B8C930F904C
:100FB0000F900F900F900F90CF91DF910895DF93D6
:100FC000CF9300D000D00F92CDB7DEB789836A836C
:100FD0004B838981282F30E03D832C838C819D8138
:100FE0008130910509F443C02C813D8122303105C7
:100FF0002CF48C819D81009771F0BCC02C813D81C7
:101000002230310509F45FC08C819D8183309105C8
:1010100009F485C0AFC08B818823A9F4ABE3B0E0AD
:10102000EBE3F0E08081482F8A81282F30E081E0D7
:1010300090E0022E02C0880F991F0A94E2F7809573
:1010400084238C9397C0ABE3B0E0EBE3F0E08081C6
:10105000482F8A81282F30E081E090E0022E02C0E4
:10106000880F991F0A94E2F7842B8C9383C08B819D
:101070008823A9F4A8E3B0E0E8E3F0E08081482FFA
:101080008A81282F30E081E090E0022E02C0880F94
:10109000991F0A94E2F7809584238C936BC0A8E390
:1010A000B0E0E8E3F0E08081482F8A81282F30E02B
:1010B00081E090E0022E02C0880F991F0A94E2F7A7
:1010C000842B8C9357C08B818823A9F4A5E3B0E0CF
:1010D000E5E3F0E08081482F8A81282F30E081E02D
:1010E00090E0022E02C0880F991F0A94E2F78095C3
:1010F00084238C933FC0A5E3B0E0E5E3F0E080817A
:10110000482F8A81282F30E081E090E0022E02C033
:10111000880F991F0A94E2F7842B8C932BC08B8144
:101120008823A9F4A2E3B0E0E2E3F0E08081482F55
:101130008A81282F30E081E090E0022E02C0880FE3
:10114000991F0A94E2F7809584238C9313C0A2E33D
:10115000B0E0E2E3F0E08081482F8A81282F30E080
:1011600081E090E0022E02C0880F991F0A94E2F7F6
:10117000842B8C930F900F900F900F900F90CF9126
:10118000DF910895DF93CF9300D000D0CDB7DEB7C5
:1011900089836A838981282F30E03C832B838B816C
:1011A0009C818130910549F12B813C8122303105B0
:1011B0002CF48B819C81009761F05AC02B813C817B
:1011C0002230310571F18B819C8183309105E9F1E9
:1011D0004FC0ABE3B0E0EBE3F0E08081482F8A81C1
:1011E000282F30E081E090E0022E02C0880F991F86
:1011F0000A94E2F784278C933BC0A8E3B0E0E8E3CD
:10120000F0E08081482F8A81282F30E081E090E053
:10121000022E02C0880F991F0A94E2F784278C934C
:1012200027C0A5E3B0E0E5E3F0E08081482F8A81A4
:10123000282F30E081E090E0022E02C0880F991F35
:101240000A94E2F784278C9313C0A2E3B0E0E2E3B0
:10125000F0E08081482F8A81282F30E081E090E003
:10126000022E02C0880F991F0A94E2F784278C93FC
:101270000F900F900F900F90CF91DF910895DF9313
:10128000CF9300D000D000D0CDB7DEB789836A837A
:101290008981282F30E03D832C834C815D81413052
:1012A000510549F18C819D818230910534F42C8166
:1012B0003D812115310561F057C04C815D8142307F
:1012C000510561F18C819D8183309105D1F14CC034
:1012D000E9E3F0E08081282F30E08A81882F90E0D8
:1012E000A90102C0559547958A95E2F7CA01582F82
:1012F00051705B833AC0E6E3F0E08081282F30E054
:101300008A81882F90E0A90102C0559547958A955A
:10131000E2F7CA01582F51705B8327C0E3E3F0E086
:101320008081282F30E08A81882F90E0A90102C0B7
:10133000559547958A95E2F7CA01582F51705B83FE
:1013400014C0E0E3F0E08081282F30E08A81882F0C
:1013500090E0A90102C0559547958A95E2F7CA0128
:10136000582F51705B8301C002C08B818E838E81A8
:1013700026960FB6F894DEBF0FBECDBFCF91DF919A
:101380000895DF93CF93CDB7DEB7AA970FB6F89441
:10139000DEBF0FBECDBF80E060E041E00E94FC06F2
:1013A00080E061E041E00E94FC0680E062E041E014
:1013B0000E94FC0680E063E041E00E94FC0680E0C1
:1013C00064E041E00E94FC0680E065E041E00E94AC
:1013D000FC0680E066E041E00E94FC0680E067E0F9
:1013E00041E00E94FC0683E063E041E00E94FC06CD
:1013F00083E064E041E00E94FC0683E065E041E0B8
:101400000E94FC0688E30E94550C80E090E0A0EA70
:10141000B0E48FA398A7A9A7BAA76FA178A589A5BB
:101420009AA520E030E84BE355E40E941F02DC015E
:10143000CB018BA39CA3ADA3BEA36BA17CA18DA16B
:101440009EA120E030E040E85FE30E94250488236D
:101450002CF481E090E09AA389A33FC06BA17CA10A
:101460008DA19EA120E03FEF4FE757E40E94C50306
:1014700018164CF56FA178A589A59AA520E030E053
:1014800040E251E40E941F02DC01CB01BC01CD010E
:101490000E944900DC01CB019AA389A30FC08CE212
:1014A00091E098A38F8F8F8D98A10197F1F798A362
:1014B0008F8F89A19AA101979AA389A389A19AA143
:1014C000009769F714C06BA17CA18DA19EA10E9419
:1014D0004900DC01CB019AA389A389A19AA19E8F1F
:1014E0008D8F8D8D9E8D0197F1F79E8F8D8F8CE066
:1014F0000E94550C80E090E0A0EAB0E4898F9A8FBA
:10150000AB8FBC8F698D7A8D8B8D9C8D20E030E800
:101510004BE355E40E941F02DC01CB018D8B9E8BB7
:10152000AF8BB88F6D897E898F89988D20E030E0F0
:1015300040E85FE30E94250488232CF481E090E0DA
:101540009C8B8B8B3FC06D897E898F89988D20E025
:101550003FEF4FE757E40E94C50318164CF5698D1D
:101560007A8D8B8D9C8D20E030E040E251E40E942A
:101570001F02DC01CB01BC01CD010E944900DC014E
:10158000CB019C8B8B8B0FC08CE291E09A8B898B6B
:1015900089899A890197F1F79A8B898B8B899C8924
:1015A00001979C8B8B8B8B899C89009769F714C062
:1015B0006D897E898F89988D0E944900DC01CB015D
:1015C0009C8B8B8B8B899C89988B8F878F85988937
:1015D0000197F1F7988B8F8781E00E94550C80E08E
:1015E00090E0A0EAB0E48B879C87AD87BE876B85CF
:1015F0007C858D859E8520E030E84BE355E40E9494
:101600001F02DC01CB018F839887A987BA876F817E
:10161000788589859A8520E030E040E85FE30E9484
:10162000250488232CF481E090E09E838D833FC0C5
:101630006F81788589859A8520E03FEF4FE757E4F1
:101640000E94C50318164CF56B857C858D859E859B
:1016500020E030E040E251E40E941F02DC01CB01B7
:10166000BC01CD010E944900DC01CB019E838D832A
:101670000FC08CE291E09C838B838B819C810197CE
:10168000F1F79C838B838D819E8101979E838D834F
:101690008D819E81009769F714C06F817885898557
:1016A0009A850E944900DC01CB019E838D838D8148
:1016B0009E819A83898389819A810197F1F79A8320
:1016C0008983AA960FB6F894DEBF0FBECDBFCF9127
:1016D000DF910895DF93CF93CDB7DEB72F970FB685
:1016E000F894DEBF0FBECDBF8F8783E063E041E09B
:1016F0000E94DF0783E064E040E00E94DF078F85FF
:10170000982F917080E060E0492F0E94DF078F855D
:101710008695982F917080E061E0492F0E94DF0745
:101720008F8586958695982F917080E062E0492F8D
:101730000E94DF078F85869586958695982F9170F4
:1017400080E063E0492F0E94DF078F8582958F70CC
:10175000982F917080E064E0492F0E94DF078F8509
:10176000829586958770982F917080E065E0492F6B
:101770000E94DF078F858295869586958370982FC6
:10178000917080E066E0492F0E94DF078F85982FD7
:10179000991F9927991F80E067E0492F0E94DF0772
:1017A00083E065E041E00E94DF0780E090E0A0E098
:1017B000B0E48B879C87AD87BE876B857C858D85E4
:1017C0009E8520E030E84BE355E40E941F02DC01D7
:1017D000CB018F839887A987BA876F8178858985A0
:1017E0009A8520E030E040E85FE30E9425048823EA
:1017F0002CF481E090E09E838D833FC06F817885DB
:1018000089859A8520E03FEF4FE757E40E94C503A2
:1018100018164CF56B857C858D859E8520E030E023
:1018200040E251E40E941F02DC01CB01BC01CD016A
:101830000E944900DC01CB019E838D830FC08CE2A6
:1018400091E09C838B838B819C810197F1F79C8332
:101850008B838D819E8101979E838D838D819E8157
:10186000009769F714C06F81788589859A850E94F1
:101870004900DC01CB019E838D838D819E819A83FB
:10188000898389819A810197F1F79A83898383E01B
:1018900065E040E00E94DF072F960FB6F894DEBFA8
:1018A0000FBECDBFCF91DF910895DF93CF93CDB71A
:1018B000DEB72F970FB6F894DEBF0FBECDBF8F8770
:1018C00083E063E040E00E94DF0783E064E040E003
:1018D0000E94DF078F85982F917080E060E0492F8C
:1018E0000E94DF078F858695982F917080E061E0D8
:1018F000492F0E94DF078F8586958695982F9170D6
:1019000080E062E0492F0E94DF078F8586958695EB
:101910008695982F917080E063E0492F0E94DF0741
:101920008F8582958F70982F917080E064E0492FA9
:101930000E94DF078F85829586958770982F91701A
:1019400080E065E0492F0E94DF078F8582958695AC
:1019500086958370982F917080E066E0492F0E94F1
:10196000DF078F85982F991F9927991F80E067E0DF
:10197000492F0E94DF0783E065E041E00E94DF0716
:1019800080E090E0A0E0B0E48B879C87AD87BE87C5
:101990006B857C858D859E8520E030E84BE355E4A2
:1019A0000E941F02DC01CB018F839887A987BA8729
:1019B0006F81788589859A8520E030E040E85FE393
:1019C0000E94250488232CF481E090E09E838D837F
:1019D0003FC06F81788589859A8520E03FEF4FE78A
:1019E00057E40E94C50318164CF56B857C858D85E0
:1019F0009E8520E030E040E251E40E941F02DC01BD
:101A0000CB01BC01CD010E944900DC01CB019E83CA
:101A10008D830FC08CE291E09C838B838B819C81B2
:101A20000197F1F79C838B838D819E8101979E8323
:101A30008D838D819E81009769F714C06F817885B1
:101A400089859A850E944900DC01CB019E838D83A4
:101A50008D819E819A83898389819A810197F1F78B
:101A60009A83898383E065E040E00E94DF072F9638
:101A70000FB6F894DEBF0FBECDBFCF91DF910895B2
:101A8000DF93CF9300D0CDB7DEB79A8389830AC0A6
:101A9000E981FA8180810E946A0B89819A8101968D
:101AA0009A838983E981FA818081882389F70F905D
:101AB0000F90CF91DF910895DF93CF9300D0CDB7F2
:101AC000DEB789836A838981882339F48A818823F0
:101AD00021F480E80E94550C39C18981882339F4AA
:101AE0008A81813021F481E80E94550C2FC18981BF
:101AF000882339F48A81823021F482E80E94550CCF
:101B000025C18981882339F48A81833021F483E8CF
:101B10000E94550C1BC18981882339F48A81843045
:101B200021F484E80E94550C11C18981882339F47D
:101B30008A81853021F485E80E94550C07C189818E
:101B4000882339F48A81863021F486E80E94550C76
:101B5000FDC08981882339F48A81873021F487E8A0
:101B60000E94550CF3C08981882339F48A8188301A
:101B700021F488E80E94550CE9C08981882339F452
:101B80008A81893021F489E80E94550CDFC089815F
:101B9000882339F48A818A3021F48AE80E94550C1E
:101BA000D5C08981882339F48A818B3021F48BE870
:101BB0000E94550CCBC08981882339F48A818C30EE
:101BC00021F48CE80E94550CC1C08981882339F426
:101BD0008A818D3021F48DE80E94550CB7C089812F
:101BE000882339F48A818E3021F48EE80E94550CC6
:101BF000ADC08981882339F48A818F3021F48FE840
:101C00000E94550CA3C08981813039F48A818823D0
:101C100021F480EC0E94550C99C08981813039F4FF
:101C20008A81813021F481EC0E94550C8FC089811A
:101C3000813039F48A81823021F482EC0E94550C83
:101C400085C08981813039F48A81833021F483EC25
:101C50000E94550C7BC08981813039F48A8184309F
:101C600021F484EC0E94550C71C08981813039F4D3
:101C70008A81853021F485EC0E94550C67C08981EA
:101C8000813039F48A81863021F486EC0E94550C2B
:101C90005DC08981813039F48A81873021F487ECF5
:101CA0000E94550C53C08981813039F48A81883073
:101CB00021F488EC0E94550C49C08981823039F4A6
:101CC0008A81893021F489EC0E94550C3FC08981BA
:101CD000813039F48A818A3021F48AEC0E94550CD3
:101CE00035C08981813039F48A818B3021F48BECC5
:101CF0000E94550C2BC08981813039F48A818C3047
:101D000021F48CEC0E94550C21C08981813039F47A
:101D10008A818D3021F48DEC0E94550C17C0898189
:101D2000813039F48A818E3021F48EEC0E94550C7A
:101D30000DC08981813039F48A818F3021F48FEC94
:101D40000E94550C03C080E80E94550C0F900F9024
:101D5000CF91DF910895DF93CF9300D00F92CDB74D
:101D6000DEB789838981282F30E03B832A838A81EB
:101D70009B818730910509F47AC02A813B81283004
:101D8000310554F58A819B818330910509F45FC048
:101D90002A813B812430310594F48A819B818130F2
:101DA000910509F44CC02A813B81223031050CF0A9
:101DB0004AC08A819B81009709F43DC077C02A817F
:101DC0003B812530310509F44AC08A819B818630E8
:101DD00091050CF048C03FC02A813B812B32310570
:101DE00009F451C08A819B818C32910594F42A8137
:101DF0003B812930310509F442C08A819B818930B9
:101E00009105CCF12A813B812A32310509F443C086
:101E10004DC08A819B818F32910509F440C02A818F
:101E20003B812D33310509F43EC08A819B818D327F
:101E3000910569F13BC080E30E946A0B37C081E3E2
:101E40000E946A0B33C082E30E946A0B2FC083E3B7
:101E50000E946A0B2BC084E30E946A0B27C085E3B3
:101E60000E946A0B23C086E30E946A0B1FC087E3AF
:101E70000E946A0B1BC088E30E946A0B17C089E3AB
:101E80000E946A0B13C08BE20E946A0B0FC08DE2A6
:101E90000E946A0B0BC08AE20E946A0B07C08FE2A5
:101EA0000E946A0B03C08DE30E946A0B0F900F9093
:101EB0000F90CF91DF910895DF93CF93CDB7DEB729
:101EC000E6970FB6F894DEBF0FBECDBF69AB7AAB15
:101ED0008BAB9CAB4DAB2EAB89A99AA9ABA9BCA986
:101EE0008A309105A105B10540F48DA96EA90E9423
:101EF0005C0D89A90E94AB0E6FC189A99AA9ABA9F3
:101F0000BCA98A309105A105B10508F43FC089A993
:101F10009AA9ABA9BCA984369105A105B105B0F574
:101F200089A99AA9ABA9BCA92AE030E040E050E019
:101F3000BC01CD010E94B813DA01C9018DA79EA78B
:101F4000AFA7B8AB8DA96EA90E945C0D8DA50E94AC
:101F5000AB0E89A99AA9ABA9BCA92AE030E040E060
:101F600050E0BC01CD010E94B813DC01CB0189A770
:101F70009AA7ABA7BCA78EA9982F9F5F8DA9692FA1
:101F80000E945C0D89A50E94AB0E26C189A99AA961
:101F9000ABA9BCA984369105A105B10508F471C0AF
:101FA00089A99AA9ABA9BCA9883E23E0920720E0A1
:101FB000A20720E0B20708F064C089A99AA9ABA9DA
:101FC000BCA924E630E040E050E0BC01CD010E9415
:101FD000B813DA01C9018DA79EA7AFA7B8AB8DA929
:101FE0006EA90E945C0D8DA50E94AB0E89A99AA9CD
:101FF000ABA9BCA924E630E040E050E0BC01CD0133
:102000000E94B813DC01CB0189A79AA7ABA7BCA794
:1020100089A59AA5ABA5BCA52AE030E040E050E038
:10202000BC01CD010E94B813DA01C9018DA39EA3A2
:10203000AFA3B8A78EA9982F9F5F8DA9692F0E9483
:102040005C0D8DA10E94AB0E89A59AA5ABA5BCA580
:102050002AE030E040E050E0BC01CD010E94B8131E
:10206000DC01CB0189A39AA3ABA3BCA38EA9982FB3
:102070009E5F8DA9692F0E945C0D89A10E94AB0E05
:10208000ABC089A99AA9ABA9BCA9883E23E0920755
:1020900020E0A20720E0B20708F49EC089A99AA90F
:1020A000ABA9BCA9803127E2920720E0A20720E07B
:1020B000B20708F091C089A99AA9ABA9BCA928EEDA
:1020C00033E040E050E0BC01CD010E94B813DA01DA
:1020D000C9018DA79EA7AFA7B8AB8DA96EA90E9415
:1020E0005C0D8DA50E94AB0E89A99AA9ABA9BCA9CC
:1020F00028EE33E040E050E0BC01CD010E94B8136F
:10210000DC01CB0189A79AA7ABA7BCA789A59AA593
:10211000ABA5BCA524E630E040E050E0BC01CD0119
:102120000E94B813DA01C9018DA39EA3AFA3B8A77B
:102130008EA9982F9F5F8DA9692F0E945C0D8DA19C
:102140000E94AB0E89A59AA5ABA5BCA524E630E0FC
:1021500040E050E0BC01CD010E94B813DC01CB018E
:102160008D8F9E8FAF8FB8A38D8D9E8DAF8DB8A1B3
:102170002AE030E040E050E0BC01CD010E94B813FD
:10218000DA01C90189A39AA3ABA3BCA38EA9982F96
:102190009E5F8DA9692F0E945C0D89A10E94AB0EE4
:1021A0008D8D9E8DAF8DB8A12AE030E040E050E0EB
:1021B000BC01CD010E94B813DC01CB018D8B9E8B3D
:1021C000AF8BB88F8EA9982F9D5F8DA9692F0E9424
:1021D0005C0D8D890E94AB0EE6960FB6F894DEBFBB
:1021E0000FBECDBFCF91DF910895DF93CF9300D085
:1021F000CDB7DEB79A838983A3E5B0E0E3E5F0E0ED
:10220000808180648C93A3E5B0E0E3E5F0E0808119
:1022100088608C93A3E5B0E0E3E5F0E080818F7EF9
:102220008C93A3E5B0E0E3E5F0E0808180628C93DD
:10223000A3E5B0E0E3E5F0E080818B7F8C93A3E53C
:10224000B0E0E3E5F0E080818D7F8C93A3E5B0E022
:10225000E3E5F0E0808181608C93E2E5F0E0898144
:102260008083AFE5B0E0EFE5F0E0808180688C939B
:102270000F900F90CF91DF910895DF93CF9300D00F
:1022800000D0CDB7DEB769837A838B839C83898145
:102290009A81AB81BC8180937A0190937B01A0935A
:1022A0007C01B0937D010F900F900F900F90CF9114
:1022B000DF910895DF93CF93CDB7DEB7E1970FB6E7
:1022C000F894DEBF0FBECDBF81E060E041E00E9428
:1022D000FC0619AAA2E3B0E0E2E3F0E080818E7F81
:1022E0008C9380E090E0A0E0B0E48DA79EA7AFA71C
:1022F000B8AB6DA57EA58FA598A920E030E040E899
:1023000050E40E941F02DC01CB0189A79AA7ABA76A
:10231000BCA769A57AA58BA59CA520E030E040E884
:102320005FE30E94250488231CF481E088A791C004
:1023300069A57AA58BA59CA520E030E04FE753E482
:102340000E94C50318160CF07BC06DA57EA58FA555
:1023500098A920E030E04AE754E40E941903DC0128
:10236000CB018CA39DA3AEA3BFA36CA17DA18EA125
:102370009FA120E030E84BE355E40E941F02DC01FE
:10238000CB0188A399A3AAA3BBA368A179A18AA121
:102390009BA120E030E040E85FE30E942504882311
:1023A0002CF481E090E09F8F8E8F3FC068A179A1CF
:1023B0008AA19BA120E03FEF4FE757E40E94C503AD
:1023C00018164CF56CA17DA18EA19FA120E030E0F4
:1023D00040E251E40E941F02DC01CB01BC01CD01AF
:1023E0000E944900DC01CB019F8F8E8F0FC08CE2D1
:1023F00091E09D8F8C8F8C8D9D8D0197F1F79D8F36
:102400008C8F8E8D9F8D01979F8F8E8F8E8D9F8D40
:10241000009769F724C068A179A18AA19BA10E94B5
:102420004900DC01CB019F8F8E8F8E8D9F8D9B8FFE
:102430008A8F8A8D9B8D0197F1F79B8F8A8F0FC0B2
:1024400069A57AA58BA59CA50E944900DC01CB015A
:1024500088A788A5898F898D8A95F1F7898F0E9431
:10246000C10983E060E041E00E94FC0683E062E095
:1024700040E00E94FC06ABE5B0E0EBE5F0E08081D7
:1024800080648C93A5E5B0E0E5E5F0E080818160B3
:102490008C93AFE5B0E0EFE5F0E0808180688C934D
:1024A000A2E3B0E0E2E3F0E0808181608C9380E021
:1024B00090E0A0E2B1E48D8B9E8BAF8BB88F6D89DD
:1024C0007E898F89988D20E030E040E850E40E94BA
:1024D0001F02DC01CB01898B9A8BAB8BBC8B69898A
:1024E0007A898B899C8920E030E040E85FE30E9494
:1024F000250488231CF481E0888B91C069897A893E
:102500008B899C8920E030E04FE753E40E94C503AB
:1025100018160CF07BC06D897E898F89988D20E01C
:1025200030E04AE754E40E941903DC01CB018C87B8
:102530009D87AE87BF876C857D858E859F8520E0D2
:1025400030E84BE355E40E941F02DC01CB01888791
:102550009987AA87BB87688579858A859B8520E0CE
:1025600030E040E85FE30E94250488232CF481E0FA
:1025700090E09F838E833FC0688579858A859B859F
:1025800020E03FEF4FE757E40E94C50318164CF5D3
:102590006C857D858E859F8520E030E040E251E4AA
:1025A0000E941F02DC01CB01BC01CD010E94490049
:1025B000DC01CB019F838E830FC08CE291E09D8371
:1025C0008C838C819D810197F1F79D838C838E8113
:1025D0009F8101979F838E838E819F81009769F7EA
:1025E00024C0688579858A859B850E944900DC0125
:1025F000CB019F838E838E819F819B838A838A8177
:102600009B810197F1F79B838A830FC069897A893F
:102610008B899C890E944900DC01CB01888B8889C9
:10262000898389818A95F1F78983A2E3B0E0E2E3A7
:10263000F0E080818E7F8C9380917E0190917F016C
:10264000AA2797FDA095BA2FBC01CD010E94550481
:10265000DC01CB01BC01CD0122EB3DE94FEA5EE399
:102660000E941F02DC01CB01BC01CD0120E030E063
:1026700040E050E40E941903DC01CB01BC01CD0114
:102680000E944900DC01CB0189AB80E060E00E9440
:102690005C0D80E690E00E94400D89A9882F90E0B3
:1026A000A0E0B0E0BC01CD0141E022E00E945C0F5F
:1026B00081E06CE00E945C0D8AE690E00E94400D93
:1026C00089A9863030F081E060E041E00E94DF07B8
:1026D000E7CE81E060E040E00E94DF07E1CE1F929C
:1026E0000F920FB60F9211248F939F93AF93BF93C6
:1026F000EF93FF93DF93CF93CDB7DEB78091800147
:10270000909181018130910599F4EEE4F0E010821E
:10271000ECE4F0E08081918190937F0180937E01D1
:10272000ECE4F0E01182108210928101109280019D
:102730008091800190918101009769F4AEE4B0E04E
:10274000EEE4F0E0808181608C9381E090E09093F2
:10275000810180938001CF91DF91FF91EF91BF9133
:10276000AF919F918F910F900FBE0F901F90189572
:10277000A1E21A2EAA1BBB1BFD010DC0AA1FBB1F85
:10278000EE1FFF1FA217B307E407F50720F0A21BF7
:10279000B30BE40BF50B661F771F881F991F1A9464
:1027A00069F760957095809590959B01AC01BD018E
:1027B000CF0108952F923F924F925F926F927F9236
:1027C0008F929F92AF92BF92CF92DF92EF92FF9241
:1027D0000F931F93CF93DF93CDB7DEB7CA1BDB0BED
:1027E0000FB6F894DEBF0FBECDBF09942A88398892
:1027F00048885F846E847D848C849B84AA84B98499
:10280000C884DF80EE80FD800C811B81AA81B981A4
:10281000CE0FD11D0FB6F894DEBF0FBECDBFED01B8
:062820000895F894FFCFBB
:1028260044495354414E43453A00636D000000004D
:102836000000000000000102020303030304040475
:102846000404040404050505050505050505050537
:102856000505050505060606060606060606060617
:102866000606060606060606060606060606060602
:1028760006060606060707070707070707070707E7
:1028860007070707070707070707070707070707D2
:1028960007070707070707070707070707070707C2
:1028A60007070707070707070707070707070707B2
:1028B6000707070707080808080808080808080897
:1028C6000808080808080808080808080808080882
:1028D6000808080808080808080808080808080872
:1028E6000808080808080808080808080808080862
:1028F6000808080808080808080808080808080852
:102906000808080808080808080808080808080841
:102916000808080808080808080808080808080831
:102926000808080808080808080808080808080821
:0629360008080808080073
:00000001FF
