:100000000C942A000C9447000C9447000C94470071
:100010000C9447000C9447000C9447000C94470044
:100020000C9447000C9447000C9447000C94470034
:100030000C9447000C9447000C9447000C94470024
:100040000C9447000C9447000C9447000C94470014
:100050000C94470011241FBECFE5D8E0DEBFCDBF12
:1000600011E0A0E6B0E0E6EFF9E202C005900D92E3
:10007000A63AB107D9F711E0A6EAB1E001C01D9296
:10008000AB3CB107E1F70E94B30F0C94F9140C9448
:100090000000EF92FF920F931F937B018C0120E0F1
:1000A00030E040E05FE40E94F50388238CF0C80153
:1000B000B70120E030E040E05FE40E94C1010E940F
:1000C00055049B01AC01205030404040504806C0D0
:1000D000C801B7010E9455049B01AC01B901CA01D6
:1000E0001F910F91FF90EF900895A0E0B0E0EBE733
:1000F000F0E00C942112DC012B01FA019C9192306A
:1001000008F439C1EB018881823008F433C194309E
:1001100069F4843009F02FC111969C91119789815F
:10012000981709F428C1ADE9B0E025C1843009F47D
:1001300021C18230A9F4923009F01DC19A01AD01AC
:1001400088E0EA010990AE01E90109929E0181501F
:10015000C1F7E201898111969C918923818308C1AD
:10016000923009F407C112962D903C901397EB0141
:100170008A819B811496AD90BD90CD90DC901797AD
:10018000EC80FD800E811F819101281B390BB90184
:1001900037FF04C066277727621B730B6032710537
:1001A0000CF061C0121613066CF537014801062EDB
:1001B00004C096948794779467940A94D2F721E0C8
:1001C00030E040E050E004C0220F331F441F551FB1
:1001D0006A95D2F721503040404050402E213F21B7
:1001E00040235123211531054105510521F021E01E
:1001F00030E040E050E079018A01E628F72808293C
:1002000019293CC0232BD1F1260E371E350146019A
:10021000062E04C096948794779467940A94D2F734
:1002200021E030E040E050E004C0220F331F441FC3
:10023000551F6A95D2F721503040404050402A2146
:100240003B214C215D21211531054105510521F04E
:1002500021E030E040E050E059016A01A628B728CB
:10026000C828D9280BC0821593052CF01C01AA249C
:10027000BB24650103C0EE24FF24870111969C91E5
:10028000D20111968C91981709F445C0992339F041
:10029000A80197012A193B094C095D0906C0A6016E
:1002A00095012E193F09400B510B57FD08C01182D3
:1002B0003382228224833583468357831DC081E0A5
:1002C00081833382228288279927DC01821B930B4A
:1002D000A40BB50B84839583A683B7830DC0220F2F
:1002E000331F441F551F24833583468357838281E0
:1002F000938101979383828324813581468157813D
:10030000DA01C9010197A109B1098F5F9F4FAF4F72
:10031000BF4328F30BC0918333822282EA0CFB1C7B
:100320000C1D1D1DE482F5820683178383E0808304
:10033000248135814681578157FF1AC0C901AA27F8
:1003400097FDA095BA2F81709070A070B0705695EF
:10035000479537952795822B932BA42BB52B848318
:100360009583A683B7838281938101969383828349
:10037000DF0101C0D201CD01CDB7DEB7E2E10C94BF
:100380003D12A0E2B0E0E7ECF1E00C942D1269839D
:100390007A838B839C832D833E834F835887E9E048
:1003A000EE2EF12CEC0EFD1ECE010196B7010E943F
:1003B00046068E010F5E1F4FCE010596B8010E94C2
:1003C00046068A8991E089278A8BC701B801AE0168
:1003D000475E5F4F0E9475000E947105A096E6E09F
:1003E0000C944912A0E2B0E0E8EFF1E00C942D1279
:1003F00069837A838B839C832D833E834F835887C5
:10040000F9E0EF2EF12CEC0EFD1ECE010196B701A6
:100410000E9446068E010F5E1F4FCE010596B80161
:100420000E944606C701B801AE01475E5F4F0E94B9
:1004300075000E947105A096E6E00C944912A0E2B6
:10044000B0E0E5E2F2E00C94211269837A838B83B9
:100450009C832D833E834F835887CE010196BE0136
:10046000675F7F4F0E944606CE010596BE016F5E14
:100470007F4F0E9446069985923088F089898230A4
:10048000C8F0943019F4823051F404C0843029F457
:10049000923081F48DE990E0C6C0923049F420E0BA
:1004A0009A858A89981321E02A87CE010996BBC0D4
:1004B000823049F420E09A858A89981321E02A8BBA
:1004C000CE014196B0C02D843E844F8458886D88FB
:1004D0007E888F88988CEE24FF248701AA24BB2471
:1004E000650140E050E060E070E0E0E0F0E0C10174
:1004F00081709070892BE9F0E60CF71C081D191D1E
:100500009A01AB012A0D3B1D4C1D5D1D80E090E062
:10051000A0E0B0E0E614F7040805190520F481E036
:1005200090E0A0E0B0E0BA01A901480F591F6A1F8E
:100530007B1FAA0CBB1CCC1CDD1C97FE08C081E0F5
:1005400090E0A0E0B0E0A82AB92ACA2ADB2A3196B6
:10055000E032F10549F0660C771C881C991C569412
:10056000479437942794C3CFFA85EA892B893C892D
:100570008B859C85280F391F2E5F3F4F17C0CA01FE
:1005800081709070892B61F016950795F794E79428
:1005900080E090E0A0E0B0E8E82AF92A0A2B1B2BC3
:1005A00076956795579547952F5F3F4F77FDE7CF36
:1005B0000CC0440F551F661F771F17FD4160EE0CDE
:1005C000FF1C001F111F21503040403090E05907A0
:1005D00090E0690790E4790760F32B8F3C8FDB0193
:1005E000CA018F779070A070B07080349105A1051A
:1005F000B10561F447FD0AC0E114F10401051105DC
:1006000029F0405C5F4F6F4F7F4F40781A8EFE1786
:1006100011F081E08A8F4D8F5E8F6F8F78A383E01A
:10062000898FCE0149960E947105A096E2E10C9453
:100630003D12A8E1B0E0EFE1F3E00C9429126983E8
:100640007A838B839C832D833E834F835887B9E0C5
:10065000EB2EF12CEC0EFD1ECE010196B7010E948F
:1006600046068E010F5E1F4FCE010596B8010E940F
:1006700046062985223008F47EC03989323010F4CC
:10068000B8017CC08A859A8989278A87243011F02D
:10069000223031F4231709F06EC06DE970E06EC0AE
:1006A000343039F41D861E861F86188A1C861B86E8
:1006B00004C0323021F484E08987B7015FC02B8504
:1006C0003C858B899C89281B390B3C872B87ED84C3
:1006D000FE840F851889AD88BE88CF88D88CEA142F
:1006E000FB040C051D0540F4EE0CFF1C001F111F40
:1006F000215030403C872B8720E030E040E050E044
:1007000080E090E0A0E0B0E460E070E0EA14FB0478
:100710000C051D0540F0282B392B4A2B5B2BEA18C2
:10072000FB080C091D09B695A79597958795EE0CC2
:10073000FF1C001F111F6F5F7F4F6F31710531F775
:10074000DA01C9018F779070A070B0708034910584
:10075000A105B10561F427FD0AC0E114F10401050A
:10076000110529F0205C3F4F4F4F5F4F20782D87B8
:100770003E874F87588BBE01675F7F4FCB010E943A
:1007800071056896EAE00C944512A8E1B0E0EBEC44
:10079000F3E00C942D1269837A838B839C832D83E1
:1007A0003E834F83588789E0E82EF12CEC0EFD1E26
:1007B000CE010196B7010E9446068E010F5E1F4FC3
:1007C000CE010596B8010E9446068985823040F028
:1007D0008989823028F0C701B8010E94BE0601C095
:1007E0008FEF6896E6E00C944912A8E1B0E0EBEFD9
:1007F000F3E00C942D1269837A838B839C832D8381
:100800003E834F83588789E0E82EF12CEC0EFD1EC5
:10081000CE010196B7010E9446068E010F5E1F4F62
:10082000CE010596B8010E9446068985823040F0C7
:100830008989823028F0C701B8010E94BE0601C034
:100840008FEF6896E6E00C944912A8E1B0E0EBE285
:10085000F4E00C942D1269837A838B839C832D831F
:100860003E834F83588789E0E82EF12CEC0EFD1E65
:10087000CE010196B7010E9446068E010F5E1F4F02
:10088000CE010596B8010E9446068985823040F067
:100890008989823028F0C701B8010E94BE0601C0D4
:1008A00081E06896E6E00C944912ACE0B0E0EBE53C
:1008B000F4E00C94311269837A838B839C83CE019C
:1008C0000196BE016B5F7F4F0E9446068D8182308C
:1008D00061F1823050F1843021F48E81882351F10E
:1008E0002EC02F81388537FD20C06E812F31310514
:1008F0001CF06623F9F023C08EE190E0821B930B7D
:1009000029853A854B855C8504C056954795379572
:1009100027958A95D2F76623B1F05095409530958A
:1009200021953F4F4F4F5F4F0EC020E030E040E039
:1009300050E009C02FEF3FEF4FEF5FE704C020E02A
:1009400030E040E050E8B901CA012C96E2E00C9496
:100950004D12A8E0B0E0EFEAF4E00C9429127B011C
:100960008C01611571058105910519F482E0898377
:1009700060C083E089838EE1C82ED12CDC82CB82DB
:10098000ED82FE820F831887C801B7010E942205FD
:10099000FC013197F7FF3BC0222733272E1B3F0B6B
:1009A00057016801022E04C0D694C794B794A79447
:1009B0000A94D2F740E050E060E070E081E090E01F
:1009C000A0E0B0E004C0880F991FAA1FBB1F2A95A2
:1009D000D2F70197A109B1098E219F21A023B1234C
:1009E0000097A105B10521F041E050E060E070E022
:1009F0004A295B296C297D294D835E836F83788723
:100A00008EE190E08E1B9F0B9C838B8312C03097EE
:100A100081F00E2E04C0EE0CFF1C001F111F0A9463
:100A2000D2F7ED82FE820F831887CE1ADF0ADC82AE
:100A3000CB821A82CE0101960E9471052896EAE0C7
:100A40000C944512EF92FF920F931F937B018C0140
:100A500080E0E81680E0F80681E0080780E01807EB
:100A600088F48FEFE816F1040105110531F028F044
:100A700088E090E0A0E0B0E017C080E090E0A0E067
:100A8000B0E012C080E0E81680E0F80680E00807D9
:100A900081E0180728F088E190E0A0E0B0E004C011
:100AA00080E190E0A0E0B0E020E230E040E050E003
:100AB000281B390B4A0B5B0B04C016950795F7945E
:100AC000E7948A95D2F7F701EB55FF4F8081281BF9
:100AD000310941095109C9011F910F91FF90EF9010
:100AE0000895DF92EF92FF920F931F93FC01E48031
:100AF000F58006811781D1808081823048F480E0C2
:100B000090E0A0E1B0E0E82AF92A0A2B1B2BA5C04F
:100B1000843009F49FC0823021F4EE24FF24870141
:100B200005C0E114F1040105110519F4E0E0F0E05D
:100B300096C0628173819FEF623879070CF05BC0C9
:100B400022E83FEF261B370B2A3131052CF020E03D
:100B500030E040E050E02AC0B801A701022E04C0F6
:100B600076956795579547950A94D2F781E090E07E
:100B7000A0E0B0E004C0880F991FAA1FBB1F2A95F0
:100B8000D2F70197A109B1098E219F21A023B1239A
:100B90000097A105B10521F081E090E0A0E0B0E070
:100BA0009A01AB01282B392B4A2B5B2BDA01C901A7
:100BB0008F779070A070B07080349105A105B10559
:100BC00039F427FF09C0205C3F4F4F4F5F4F04C0EF
:100BD000215C3F4F4F4F5F4FE0E0F0E02030A0E05E
:100BE0003A07A0E04A07A0E45A0710F0E1E0F0E07D
:100BF00079018A0127C06038710564F5FB01E1586D
:100C0000FF4FD801C7018F779070A070B07080340B
:100C10009105A105B10539F4E7FE0DC080E490E02F
:100C2000A0E0B0E004C08FE390E0A0E0B0E0E80E08
:100C3000F91E0A1F1B1F17FF05C016950795F7948D
:100C4000E794319687E016950795F794E7948A958F
:100C5000D1F705C0EE24FF248701EFEFF0E06E2FFF
:100C6000679566276795902F9F77D794DD24D79453
:100C70008E2F8695492F462B582F5D29B701CA0123
:100C80001F910F91FF90EF90DF900895FC01DB0121
:100C9000408151812281622F6F7770E0221F2227CD
:100CA000221F9381892F880F822B282F30E0991FD4
:100CB0009927991F11969C93119721153105A9F534
:100CC000411551056105710511F482E037C082E8D4
:100CD0009FEF13969C938E9312979A01AB0167E056
:100CE000220F331F441F551F6A95D1F783E08C9361
:100CF0000DC0220F331F441F551F12968D919C91DA
:100D00001397019713969C938E931297203080E04F
:100D1000380780E0480780E4580758F314962D936D
:100D20003D934D935C93179708952F3F310579F4C8
:100D3000411551056105710519F484E08C930895FE
:100D400064FF03C081E08C9312C01C9210C02F5727
:100D5000304013963C932E93129783E08C9387E058
:100D6000440F551F661F771F8A95D1F7706414963C
:100D70004D935D936D937C93179708951F93DC01BA
:100D8000FB019C91923008F447C08081823008F4C6
:100D900043C0943051F411961C91843099F58181AF
:100DA000682F70E0611B71093FC0843021F09230E0
:100DB00031F48230B9F18181882389F12DC01196F7
:100DC0001C9111978230F1F081811817D9F4129695
:100DD0002D913C911397828193818217930794F010
:100DE00028173907BCF014968D919D910D90BC91F8
:100DF000A02D2481358146815781281739074A075C
:100E00005B0718F4112341F00AC082179307A40767
:100E1000B50740F4112319F061E070E005C06FEFF1
:100E20007FEF02C060E070E0CB011F910895DF9377
:100E3000CF9300D000D00F92CDB7DEB789836A83FD
:100E40004B838981282F30E03D832C838C819D81C9
:100E50008130910509F443C02C813D812230310558
:100E60002CF48C819D81009771F0BCC02C813D8158
:100E70002230310509F45FC08C819D81833091055A
:100E800009F485C0AFC08B818823A9F4AAE3B0E040
:100E9000EAE3F0E08081482F8A81282F30E081E06A
:100EA00090E0022E02C0880F991F0A94E2F7809505
:100EB00084238C9397C0AAE3B0E0EAE3F0E080815A
:100EC000482F8A81282F30E081E090E0022E02C076
:100ED000880F991F0A94E2F7842B8C9383C08B812F
:100EE0008823A9F4A7E3B0E0E7E3F0E08081482F8E
:100EF0008A81282F30E081E090E0022E02C0880F26
:100F0000991F0A94E2F7809584238C936BC0A7E322
:100F1000B0E0E7E3F0E08081482F8A81282F30E0BD
:100F200081E090E0022E02C0880F991F0A94E2F738
:100F3000842B8C9357C08B818823A9F4A4E3B0E061
:100F4000E4E3F0E08081482F8A81282F30E081E0BF
:100F500090E0022E02C0880F991F0A94E2F7809554
:100F600084238C933FC0A4E3B0E0E4E3F0E080810D
:100F7000482F8A81282F30E081E090E0022E02C0C5
:100F8000880F991F0A94E2F7842B8C932BC08B81D6
:100F90008823A9F4A1E3B0E0E1E3F0E08081482FE9
:100FA0008A81282F30E081E090E0022E02C0880F75
:100FB000991F0A94E2F7809584238C9313C0A1E3D0
:100FC000B0E0E1E3F0E08081482F8A81282F30E013
:100FD00081E090E0022E02C0880F991F0A94E2F788
:100FE000842B8C930F900F900F900F900F90CF91B8
:100FF000DF910895DF93CF9300D000D00F92CDB74B
:10100000DEB789836A834B838981282F30E03D8353
:101010002C838C819D818130910509F443C02C8102
:101020003D81223031052CF48C819D81009771F037
:10103000BCC02C813D812230310509F45FC08C8118
:101040009D818330910509F485C0AFC08B818823D1
:10105000A9F4ABE3B0E0EBE3F0E08081482F8A81B4
:10106000282F30E081E090E0022E02C0880F991F07
:101070000A94E2F7809584238C9397C0ABE3B0E0A9
:10108000EBE3F0E08081482F8A81282F30E081E077
:1010900090E0022E02C0880F991F0A94E2F7842B79
:1010A0008C9383C08B818823A9F4A8E3B0E0E8E3A4
:1010B000F0E08081482F8A81282F30E081E090E0A5
:1010C000022E02C0880F991F0A94E2F780958423AC
:1010D0008C936BC0A8E3B0E0E8E3F0E08081482F98
:1010E0008A81282F30E081E090E0022E02C0880F34
:1010F000991F0A94E2F7842B8C9357C08B81882325
:10110000A9F4A5E3B0E0E5E3F0E08081482F8A810F
:10111000282F30E081E090E0022E02C0880F991F56
:101120000A94E2F7809584238C933FC0A5E3B0E056
:10113000E5E3F0E08081482F8A81282F30E081E0CC
:1011400090E0022E02C0880F991F0A94E2F7842BC8
:101150008C932BC08B818823A9F4A2E3B0E0E2E357
:10116000F0E08081482F8A81282F30E081E090E0F4
:10117000022E02C0880F991F0A94E2F780958423FB
:101180008C9313C0A2E3B0E0E2E3F0E08081482F4B
:101190008A81282F30E081E090E0022E02C0880F83
:1011A000991F0A94E2F7842B8C930F900F900F9065
:1011B0000F900F90CF91DF910895DF93CF9300D0E0
:1011C00000D0CDB7DEB789836A838981282F30E0CC
:1011D0003C832B838B819C818130910549F12B814C
:1011E0003C81223031052CF48B819C81009761F089
:1011F0005AC02B813C812230310571F18B819C8159
:1012000083309105E9F14FC0ABE3B0E0EBE3F0E0F0
:101210008081482F8A81282F30E081E090E0022EE3
:1012200002C0880F991F0A94E2F784278C933BC071
:10123000A8E3B0E0E8E3F0E08081482F8A81282F1E
:1012400030E081E090E0022E02C0880F991F0A94DE
:10125000E2F784278C9327C0A5E3B0E0E5E3F0E054
:101260008081482F8A81282F30E081E090E0022E93
:1012700002C0880F991F0A94E2F784278C9313C049
:10128000A2E3B0E0E2E3F0E08081482F8A81282FDA
:1012900030E081E090E0022E02C0880F991F0A948E
:1012A000E2F784278C930F900F900F900F90CF91BF
:1012B000DF910895DF93CF930F92CDB7DEB7898387
:1012C0008981882F90E081709070882341F0A8E395
:1012D000B0E0E8E3F0E0808181608C9307C0A8E390
:1012E000B0E0E8E3F0E080818E7F8C938981882FE5
:1012F00090E082709070009741F0A8E3B0E0E8E3DE
:10130000F0E0808182608C9307C0A8E3B0E0E8E35E
:10131000F0E080818D7F8C938981882F90E08470AC
:101320009070009741F0A8E3B0E0E8E3F0E080813E
:1013300084608C9307C0A8E3B0E0E8E3F0E080812C
:101340008B7F8C938981882F90E0887090700097B4
:1013500041F0A8E3B0E0E8E3F0E0808188608C939E
:1013600007C0A8E3B0E0E8E3F0E08081877F8C93DA
:101370000F90CF91DF910895DF93CF930F92CDB768
:10138000DEB789838981882339F4A8E3B0E0E8E3F4
:10139000F0E080818F7D8C938981813039F4A8E3DE
:1013A000B0E0E8E3F0E0808180628C930F90CF9111
:1013B000DF910895DF93CF93CDB7DEB7E0970FB6F7
:1013C000F894DEBF0FBECDBFA8E3B0E0E8E3F0E0E5
:1013D000808180618C9380E090E0A8E4B2E48DA7E6
:1013E0009EA7AFA7B8AB6DA57EA58FA598A920E055
:1013F00030E040E850E40E941F02DC01CB0189A7E5
:101400009AA7ABA7BCA769A57AA58BA59CA520E048
:1014100030E040E85FE30E94250488231CF481E06B
:1014200088A791C069A57AA58BA59CA520E030E08E
:101430004FE753E40E94C50318160CF07BC06DA55E
:101440007EA58FA598A920E030E04AE754E40E94E9
:101450001903DC01CB018CA39DA3AEA3BFA36CA198
:101460007DA18EA19FA120E030E84BE355E40E94CE
:101470001F02DC01CB0188A399A3AAA3BBA368A187
:1014800079A18AA19BA120E030E040E85FE30E94BF
:10149000250488232CF481E090E09F8F8E8F3FC03D
:1014A00068A179A18AA19BA120E03FEF4FE757E413
:1014B0000E94C50318164CF56CA17DA18EA19FA1B9
:1014C00020E030E040E251E40E941F02DC01CB0149
:1014D000BC01CD010E944900DC01CB019F8F8E8FA2
:1014E0000FC08CE291E09D8F8C8F8C8D9D8D01972C
:1014F000F1F79D8F8C8F8E8D9F8D01979F8F8E8F93
:101500008E8D9F8D009769F724C068A179A18AA16B
:101510009BA10E944900DC01CB019F8F8E8F8E8D95
:101520009F8D9B8F8A8F8A8D9B8D0197F1F79B8F63
:101530008A8F0FC069A57AA58BA59CA50E9449003A
:10154000DC01CB0188A788A5898F898D8A95F1F761
:10155000898FA8E3B0E0E8E3F0E080818F7E8C9390
:1015600080E090E0AAEFB3E48D8B9E8BAF8BB88FB9
:101570006D897E898F89988D20E030E040E850E4C5
:101580000E941F02DC01CB01898B9A8BAB8BBC8B39
:1015900069897A898B899C8920E030E040E85FE3A3
:1015A0000E94250488231CF481E0888B91C06989FE
:1015B0007A898B899C8920E030E04FE753E40E94D0
:1015C000C50318160CF07BC06D897E898F89988DB4
:1015D00020E030E04AE754E40E941903DC01CB012B
:1015E0008C879D87AE87BF876C857D858E859F851F
:1015F00020E030E84BE355E40E941F02DC01CB0100
:1016000088879987AA87BB87688579858A859B851E
:1016100020E030E040E85FE30E94250488232CF4BA
:1016200081E090E09F838E833FC0688579858A85BD
:101630009B8520E03FEF4FE757E40E94C503181653
:101640004CF56C857D858E859F8520E030E040E2FD
:1016500051E40E941F02DC01CB01BC01CD010E94BC
:101660004900DC01CB019F838E830FC08CE291E0A7
:101670009D838C838C819D810197F1F79D838C8361
:101680008E819F8101979F838E838E819F8100979A
:1016900069F724C0688579858A859B850E94490001
:1016A000DC01CB019F838E838E819F819B838A8304
:1016B0008A819B810197F1F79B838A830FC0698997
:1016C0007A898B899C890E944900DC01CB01888B37
:1016D0008889898389818A95F1F78983E0960FB695
:1016E000F894DEBF0FBECDBFCF91DF910895DF9399
:1016F000CF93CDB7DEB7A7E3B0E0E7E3F0E08081BA
:101700008F638C93CF91DF910895DF93CF930F92E6
:10171000CDB7DEB7898380E00E94BC0989810E9431
:101720005A090E94DA090F90CF91DF910895DF9353
:10173000CF93CDB7DEB70E94770B80E00E94850B78
:1017400082E00E94850B82E00E94850B88E00E9467
:10175000850B80E00E94850B8CE00E94850B80E069
:101760000E94850B86E00E94850BCF91DF91089542
:10177000DF93CF9300D00F92CDB7DEB78B838B81F1
:10178000807F8A838B818F70898381E00E94BC096E
:101790008A8182958F700E945A090E94DA09898194
:1017A0000E945A090E94DA090F900F900F90CF9172
:1017B000DF910895DF93CF9300D0CDB7DEB7898353
:1017C0006A838981882339F488E00E94850B8A81A5
:1017D0000E94850B09C08981813031F48CE00E9420
:1017E000850B8A810E94850B0F900F90CF91DF911E
:1017F0000895DF93CF93CDB7DEB780E00E94850BCD
:1018000081E00E94850B80E00E94850B82E00E94AF
:10181000850BCF91DF910895DF93CF9300D000D057
:10182000CDB7DEB789836A835C834B8389816A8104
:101830000E94DA0B0AC0EB81FC8180810E94B80B08
:101840008B819C8101969C838B83EB81FC818081C1
:10185000882389F70F900F900F900F90CF91DF9111
:101860000895DF93CF930F92CDB7DEB78983898137
:10187000823539F481E00E94850B88E00E94850B57
:1018800009C089818C3431F481E00E94850B8CE0A1
:101890000E94850B0F90CF91DF910895DF93CF9336
:1018A000CDB7DEB70E94C5100E94970BCF91DF9194
:1018B0000895DF93CF93CDB7DEB78091A6019091C5
:1018C000A701A091A801B091A9018D309105A105B2
:1018D000B105C1F41092A6011092A7011092A801BF
:1018E0001092A90181E090E0A0E0B0E08093AA010D
:1018F0009093AB01A093AC01B093AD018BE28093C8
:10190000AE01E2C08091A6019091A701A091A8012B
:10191000B091A9018C309105A105B105C1F41092D7
:10192000A6011092A7011092A8011092A90182E0CD
:1019300090E0A0E0B0E08093AA019093AB01A09367
:10194000AC01B093AD018DE28093AE01BDC080913A
:10195000A6019091A701A091A801B091A9018B3097
:101960009105A105B105C1F41092A6011092A7013D
:101970001092A8011092A90183E090E0A0E0B0E0ED
:101980008093AA019093AB01A093AC01B093AD01F9
:1019900088E78093AE0198C08091A6019091A7013D
:1019A000A091A801B091A9018A309105A105B105C6
:1019B000C1F41092A6011092A7011092A8011092F2
:1019C000A90184E090E0A0E0B0E08093AA019093A8
:1019D000AB01A093AC01B093AD018FE28093AE0157
:1019E00073C08091A6019091A701A091A801B09128
:1019F000A9018E309105A105B105A9F41092A601A7
:101A00001092A7011092A8011092A90185E090E020
:101A1000A0E0B0E08093AA019093AB01A093AC0149
:101A2000B093AD0151C08091A6019091A701A09102
:101A3000A801B091A90180339105A105B10549F430
:101A40001092A6011092A7011092A8011092A9016C
:101A50003BC08091A6019091A701A091A801B091EF
:101A6000A9018F309105A105B10571F51092C7014B
:101A70001092C8011092C9011092CA011092C301BC
:101A80001092C4011092C5011092C60180E090E04E
:101A9000A0E0B0E08093AF019093B001A093B101BA
:101AA000B093B2011092AA011092AB011092AC0156
:101AB0001092AD011092A6011092A7011092A801F8
:101AC0001092A9010E94F90BCF91DF910895EF9236
:101AD000FF920F931F93DF93CF93CDB7DEB7809123
:101AE000AA019091AB01A091AC01B091AD0100971A
:101AF000A105B10509F058C08091C7019091C801B6
:101B0000A091C901B091CA012AE030E040E050E064
:101B1000BC01CD010E9402129B01AC018091A60183
:101B20009091A701A091A801B091A901820F931FE4
:101B3000A41FB51F8093C7019093C801A093C9014A
:101B4000B093CA012091C7013091C8014091C901E9
:101B50005091CA010DB71EB7085010400FB6F89447
:101B60001EBF0FBE0DBFEDB7FEB7319683EB91E000
:101B70009183808380E690E09383828324833583FE
:101B8000468357830E9458128DB79EB708960FB6AA
:101B9000F8949EBF0FBE8DBF23EB31E080E060E084
:101BA000A9010E940C0CABC18091AA019091AB01DC
:101BB000A091AC01B091AD0181309105A105B105B5
:101BC00041F18091AA019091AB01A091AC01B0913B
:101BD000AD0182309105A105B105D9F08091AA012E
:101BE0009091AB01A091AC01B091AD018330910512
:101BF000A105B10571F08091AA019091AB01A0916E
:101C0000AC01B091AD0184309105A105B10509F099
:101C10006AC08091C3019091C401A091C501B091A7
:101C2000C6012AE030E040E050E0BC01CD010E9456
:101C300002129B01AC018091A6019091A701A09195
:101C4000A801B091A901820F931FA41FB51F809313
:101C5000C3019093C401A093C501B093C601209124
:101C6000C7013091C8014091C9015091CA018091CA
:101C7000AE01682F70E0E090C301F090C4010091C4
:101C8000C5011091C6018DB79EB70E970FB6F89497
:101C90009EBF0FBE8DBFEDB7FEB7319683EB91E0CF
:101CA0009183808385E690E09383828324833583C8
:101CB0004683578371876087E286F386048715879A
:101CC0000E9458120DB71EB7025F1F4F0FB6F8944F
:101CD0001EBF0FBE0DBF23EB31E080E060E0A90125
:101CE0000E940C0C0CC18091AA019091AB01A091B3
:101CF000AC01B091AD0185309105A105B10509F0A8
:101D0000FEC08091AE018B3219F52091C701309150
:101D1000C8014091C9015091CA018091C3019091BD
:101D2000C401A091C501B091C601820F931FA41FE9
:101D3000B51FBC01CD010E94A904DC01CB01809339
:101D4000AF019093B001A093B101B093B20182C0F2
:101D50008091AE018D3239F52091C7013091C801D3
:101D60004091C9015091CA018091C3019091C40171
:101D7000A091C501B091C60179018A01E81AF90A5A
:101D80000A0B1B0BD801C701BC01CD010E94A9049D
:101D9000DC01CB018093AF019093B001A093B1011E
:101DA000B093B20157C08091AE01883729F5809178
:101DB000C7019091C801A091C901B091CA012091B9
:101DC000C3013091C4014091C5015091C601BC01CD
:101DD000CD010E940212DC01CB01BC01CD010E94A9
:101DE000A904DC01CB018093AF019093B001A093D3
:101DF000B101B093B2012EC08091AE018F3251F586
:101E00008091C7019091C801A091C901B091CA0108
:101E1000BC01CD010E94A9047B018C018091C3010A
:101E20009091C401A091C501B091C601BC01CD0142
:101E30000E94A9049B01AC01C801B7010E941903CB
:101E4000DC01CB018093AF019093B001A093B1016D
:101E5000B093B2012091AF013091B0014091B10136
:101E60005091B2010DB71EB7085010400FB6F8944C
:101E70001EBF0FBE0DBFEDB7FEB7319683EB91E0ED
:101E80009183808380E790E09383828324833583EA
:101E9000468357830E9458128DB79EB708960FB697
:101EA000F8949EBF0FBE8DBF23EB31E081E060E070
:101EB000A9010E940C0C1092C7011092C801109247
:101EC000C9011092CA011092C3011092C40110926C
:101ED000C5011092C60180E090E0A0E0B0E08093E0
:101EE000AF019093B001A093B101B093B2011092F1
:101EF000AA011092AB011092AC011092AD01CF91EA
:101F0000DF911F910F91FF90EF900895DF93CF9392
:101F1000CDB7DEB70E94D010882F90E0A0E0B0E0EF
:101F20008093A6019093A701A093A801B093A90163
:101F30008091A6019091A701A091A801B091A9015B
:101F40000097A105B10561F00E94590C0E94670D30
:101F50001092A6011092A7011092A8011092A90157
:101F6000CF91DF910895DF93CF93CDB7DEB76E9712
:101F70000FB6F894DEBF0FBECDBF0E944E0C26E711
:101F800030E080E060E0A9010E940C0C2BE830E01A
:101F900081E064E0A9010E940C0C80E090E0A8E4DC
:101FA000B2E4898F9A8FAB8FBC8F698D7A8D8B8DC0
:101FB0009C8D20E030E84BE355E40E941F02DC01D9
:101FC000CB018D8B9E8BAF8BB88F6D897E898F896E
:101FD000988D20E030E040E85FE30E9425048823EC
:101FE0002CF481E090E09C8B8B8B3FC06D897E89C7
:101FF0008F89988D20E03FEF4FE757E40E94C5039B
:1020000018164CF5698D7A8D8B8D9C8D20E030E013
:1020100040E251E40E941F02DC01CB01BC01CD0172
:102020000E944900DC01CB019C8B8B8B0FC08CE2A2
:1020300091E09A8B898B89899A890197F1F79A8B1C
:10204000898B8B899C8901979C8B8B8B8B899C8935
:10205000009769F714C06D897E898F89988D0E94D9
:102060004900DC01CB019C8B8B8B8B899C89988BE5
:102070008F878F8598890197F1F7988B8F871E8EB0
:102080001D8E7AC080E090E0A0EAB0E48B879C8748
:10209000AD87BE876B857C858D859E8520E030E889
:1020A0004BE355E40E941F02DC01CB018F8398872C
:1020B000A987BA876F81788589859A8520E030E085
:1020C00040E85FE30E94250488232CF481E090E03F
:1020D0009E838D833FC06F81788589859A8520E0B6
:1020E0003FEF4FE757E40E94C50318164CF56B8588
:1020F0007C858D859E8520E030E040E251E40E94A1
:102100001F02DC01CB01BC01CD010E944900DC01B2
:10211000CB019E838D830FC08CE291E09C838B83E7
:102120008B819C810197F1F79C838B838D819E81AC
:1021300001979E838D838D819E81009769F714C0DE
:102140006F81788589859A850E944900DC01CB01E1
:102150009E838D838D819E819A83898389819A81D3
:102160000197F1F79A8389838CE40E94310C8D8D5D
:102170009E8D01969E8F8D8F8D8D9E8D89319105BF
:102180000CF480CF0E94860FFDCFDF93CF93CDB7A5
:10219000DEB7EAE3F0E08FE08083CF91DF9108952E
:1021A000DF93CF93CDB7DEB72D970FB6F894DEBF90
:1021B0000FBECDBF1A8242C0EBE3F0E08FEF808309
:1021C0008A81882339F4ABE3B0E0EBE3F0E080816F
:1021D0008E7F8C938A81813039F4ABE3B0E0EBE3FE
:1021E000F0E080818D7F8C938A81823039F4ABE37B
:1021F000B0E0EBE3F0E080818B7F8C938A818330C9
:1022000039F4ABE3B0E0EBE3F0E08081877F8C93BF
:10221000E9E3F0E08081807F89838981803F59F004
:10222000E9E3F0E08081882F90E0807F9070803F2C
:102230009105B1F707C08A818F5F8A838A818430D4
:1022400008F4BACF8A81843011F41D86D1C08A8106
:10225000282F30E03C872B878B859C85813091052A
:1022600009F443C02B853C85223031052CF48B8545
:102270009C85009771F0BBC02B853C8522303105D1
:1022800009F45FC08B859C858330910509F484C077
:10229000AEC08981282F30E03A87298789859A85C1
:1022A000803B9105E1F029853A85213B310534F4E5
:1022B00089859A8580379105A9F099C029853A8545
:1022C000203D310549F089859A85803E910509F0C8
:1022D0008EC097E09D878CC028E02D8789C039E0AB
:1022E0003D8786C08AE08D8783C08981282F30E0B2
:1022F00038872F838F819885803B9105E1F02F816E
:102300003885213B310534F48F81988580379105DC
:10231000A9F06DC02F813885203D310549F08F81AE
:102320009885803E910509F062C094E09D8760C069
:1023300025E02D875DC036E03D875AC08BE08D8754
:1023400057C08981282F30E03E832D838D819E8167
:10235000803B9105D9F02D813E81213B310534F43C
:102360008D819E8180379105A1F041C02D813E81F4
:10237000203D310541F08D819E81803E9105B9F56A
:1023800091E09D8735C022E02D8732C033E03D8744
:102390002FC08CE08D872CC08981282F30E03C83B2
:1023A0002B838B819C81803B9105D9F02B813C81D3
:1023B000213B310534F48B819C8180379105A1F05C
:1023C00016C02B813C81203D310541F08B819C81E1
:1023D000803E910561F49FE09D870AC020E32D8730
:1023E00007C03EE03D8704C08DE08D8701C01D869B
:1023F0008D852D960FB6F894DEBF0FBECDBFCF9161
:10240000DF910895629FD001739FF001829FE00DDC
:10241000F11D649FE00DF11D929FF00D839FF00D63
:10242000749FF00D659FF00D9927729FB00DE11D0F
:10243000F91F639FB00DE11DF91FBD01CF011124EC
:1024400008952F923F924F925F926F927F928F9258
:102450009F92AF92BF92CF92DF92EF92FF920F9333
:102460001F93CF93DF93CDB7DEB7CA1BDB0B0FB63D
:10247000F894DEBF0FBECDBF09942A8839884888FA
:102480005F846E847D848C849B84AA84B984C88490
:10249000DF80EE80FD800C811B81AA81B981CE0F87
:1024A000D11D0FB6F894DEBF0FBECDBFED0108956C
:1024B000AEE0B0E0EEE5F2E10C942F120D891E893A
:1024C00086E08C831A8309838FEF9FE79E838D8339
:1024D0009E01275E3F4FCE0101966F89788DA9013D
:1024E0000E947C122F813885020F131FF801108281
:1024F0002E96E4E00C944B12ABE0B0E0E2E8F2E19F
:102500000C9421123C012B015A01FC011782168206
:10251000838181FD03C06FEF7FEFC6C19AE0892EF2
:102520001E010894211C311CF3012381F20123FDBB
:10253000859123FF81912F01882309F4B2C185324F
:1025400039F423FD859123FF81912F01853229F4F0
:1025500090E0B3010E946F14E7CF982FFF24EE2480
:102560009924FFE1FF15D0F09B3269F09C3228F4EA
:10257000903259F0933291F40EC09D3249F090336D
:1025800069F441E024C052E0F52A84E0F82A28C02A
:1025900098E0F92A25C0E0E1FE2A22C0F7FC29C014
:1025A000892F80538A3070F4F6FE05C0989C902CD9
:1025B0001124980E15C0E89CE02C1124E80EF0E2DE
:1025C000FF2A0EC09E3229F4F6FC6BC140E4F42AC7
:1025D00007C09C3619F450E8F52A02C0983649F431
:1025E000F20123FD959123FF91912F01992309F089
:1025F000B8CF892F8554833018F08052833038F457
:1026000044E050E0A40EB51E5FE359830FC093363B
:1026100031F0933779F0933509F056C020C0F501B9
:102620008081898342E050E0A40EB51E610101E083
:1026300010E012C0F501C080D180F6FC03C06FEF3E
:102640007FEF02C0692D70E042E050E0A40EB51E9D
:10265000C6010E9464148C015FE7F52214C0F501E5
:10266000C080D180F6FC03C06FEF7FEF02C0692D00
:1026700070E042E050E0A40EB51EC6010E9459145D
:102680008C0150E8F52AF3FE07C01AC080E290E002
:10269000B3010E946F14EA948E2D90E00817190779
:1026A000A8F30EC0F601F7FC8591F7FE81916F014A
:1026B00090E0B3010E946F14E110EA9401501040C1
:1026C0000115110579F7EAC0943611F0993669F5CC
:1026D000F7FE08C0F501208131814281538184E0F9
:1026E00090E00AC0F501808191819C01442737FD6B
:1026F0004095542F82E090E0A80EB91E9FE6F92283
:1027000057FF09C050954095309521953F4F4F4F49
:102710005F4FE0E8FE2ACA01B901A1012AE030E0DA
:102720000E949B14D82ED21840C0953729F41F2D33
:102730001F7E2AE030E01DC01F2D197F9F3661F0FB
:10274000903720F4983509F0ACC00FC0903739F0BD
:10275000983709F0A6C004C028E030E00AC0106134
:1027600014FD146020E130E004C014FD166020E187
:1027700032E017FF08C0F501608171818281938189
:1027800044E050E008C0F50180819181BC0180E007
:1027900090E042E050E0A40EB51EA1010E949B14FF
:1027A000D82ED2188FE7F82EF122F6FE0BC05EEF7E
:1027B000F522D91438F4F4FE07C0F2FC05C08FEE00
:1027C000F82202C01D2D01C0192DF4FE0DC0FE011E
:1027D000ED0DF11D8081803319F499EEF92208C0C6
:1027E0001F5FF2FE05C003C08F2D867809F01F5FC2
:1027F0000F2DF3FC14C0F0FE0FC01E1510F09D2C21
:102800000BC09D2C9E0C911A1E2D06C080E290E0FC
:10281000B3010E946F141F5F1E15C0F304C01E1584
:1028200010F4E11A01C0EE2404FF0FC080E390E031
:10283000B3010E946F1402FF1DC001FD03C088E7B1
:1028400090E00EC088E590E00BC0802F867891F074
:1028500001FF02C08BE201C080E2F7FC8DE290E054
:10286000B3010E946F1406C080E390E0B3010E94A0
:102870006F149A94D914C0F3DA94F101ED0DF11D9F
:10288000808190E0B3010E946F14DD20A9F706C09B
:1028900080E290E0B3010E946F14EA94EE20C1F749
:1028A00043CEF30166817781CB012B96E2E10C9454
:1028B0003D12FC010590615070400110D8F78095E1
:1028C00090958E0F9F1F0895FC01615070400190FC
:1028D0000110D8F7809590958E0F9F1F08950F9344
:1028E0001F93CF93DF938C01EB018B8181FF1BC082
:1028F00082FF0DC02E813F818C819D812817390771
:1029000064F4E881F9810193F983E88306C0E885DE
:10291000F985802F0995892B31F48E819F8101964D
:102920009F838E8302C00FEF1FEFC801DF91CF910D
:102930001F910F910895FA01AA27283051F12031F3
:1029400081F1E8946F936E7F6E5F7F4F8F4F9F4F43
:10295000AF4FB1E03ED0B4E03CD0670F781F891F85
:102960009A1FA11D680F791F8A1F911DA11D6A0F53
:10297000711D811D911DA11D20D009F468943F9106
:102980002AE0269F11243019305D3193DEF6CF0105
:102990000895462F4770405D4193B3E00FD0C9F7CB
:1029A000F6CF462F4F70405D4A3318F0495D31FD38
:1029B0004052419302D0A9F7EACFB4E0A69597958B
:1029C000879577956795BA95C9F700976105710561
:1029D00008959B01AC010A2E0694579547953795AB
:1029E0002795BA95C9F7620F731F841F951FA01D05
:0629F0000895F894FFCFEA
:1029F60025316C690025316C69256325316C6900C8
:102A06003D252E3266005768656E20202020202046
:102A1600436F6D65202020203B2900447265616D5F
:102A2600732020202054727565203B290000000089
:102A36000000000000000102020303030304040473
:102A46000404040404050505050505050505050535
:102A56000505050505060606060606060606060615
:102A66000606060606060606060606060606060600
:102A760006060606060707070707070707070707E5
:102A860007070707070707070707070707070707D0
:102A960007070707070707070707070707070707C0
:102AA60007070707070707070707070707070707B0
:102AB6000707070707080808080808080808080895
:102AC6000808080808080808080808080808080880
:102AD6000808080808080808080808080808080870
:102AE6000808080808080808080808080808080860
:102AF6000808080808080808080808080808080850
:102B0600080808080808080808080808080808083F
:102B1600080808080808080808080808080808082F
:102B2600080808080808080808080808080808081F
:062B360008080808080071
:00000001FF
