:100000000C942A000C943C000C943C000C943C0092
:100010000C943C000C943C000C943C000C943C0070
:100020000C943C000C943C000C943C000C94D203C7
:100030000C943C000C943C000C943C000C943C0050
:100040000C943C000C943C000C943C000C943C0040
:100050000C943C0011241FBECFE5D8E0DEBFCDBF1D
:1000600010E0A0E6B0E001C01D92A836B107E1F7AC
:100070000E9403030C947A040C940000DF93CF9346
:1000800000D000D00F92CDB7DEB789836A834B834F
:100090008981282F30E03D832C838C819D818130A4
:1000A000910509F443C02C813D81223031052CF4A7
:1000B0008C819D81009771F0BCC02C813D812230E4
:1000C000310509F45FC08C819D818330910509F46D
:1000D00085C0AFC08B818823A9F4AAE3B0E0EAE32E
:1000E000F0E08081482F8A81282F30E081E090E085
:1000F000022E02C0880F991F0A94E2F7809584238C
:100100008C9397C0AAE3B0E0EAE3F0E08081482F47
:100110008A81282F30E081E090E0022E02C0880F13
:10012000991F0A94E2F7842B8C9383C08B818823D8
:10013000A9F4A7E3B0E0E7E3F0E08081482F8A81EB
:10014000282F30E081E090E0022E02C0880F991F36
:100150000A94E2F7809584238C936BC0A7E3B0E008
:10016000E7E3F0E08081482F8A81282F30E081E0AA
:1001700090E0022E02C0880F991F0A94E2F7842BA8
:100180008C9357C08B818823A9F4A4E3B0E0E4E307
:10019000F0E08081482F8A81282F30E081E090E0D4
:1001A000022E02C0880F991F0A94E2F780958423DB
:1001B0008C933FC0A4E3B0E0E4E3F0E08081482FFB
:1001C0008A81282F30E081E090E0022E02C0880F63
:1001D000991F0A94E2F7842B8C932BC08B81882380
:1001E000A9F4A1E3B0E0E1E3F0E08081482F8A8147
:1001F000282F30E081E090E0022E02C0880F991F86
:100200000A94E2F7809584238C9313C0A1E3B0E0B5
:10021000E1E3F0E08081482F8A81282F30E081E0FF
:1002200090E0022E02C0880F991F0A94E2F7842BF7
:100230008C930F900F900F900F900F90CF91DF91B4
:100240000895DF93CF9300D000D00F92CDB7DEB7E3
:1002500089836A834B838981282F30E03D832C83F7
:100260008C819D818130910509F443C02C813D81B1
:10027000223031052CF48C819D81009771F0BCC037
:100280002C813D812230310509F45FC08C819D8134
:100290008330910509F485C0AFC08B818823A9F410
:1002A000ABE3B0E0EBE3F0E08081482F8A81282FB8
:1002B00030E081E090E0022E02C0880F991F0A947E
:1002C000E2F7809584238C9397C0ABE3B0E0EBE337
:1002D000F0E08081482F8A81282F30E081E090E093
:1002E000022E02C0880F991F0A94E2F7842B8C9388
:1002F00083C08B818823A9F4A8E3B0E0E8E3F0E0B1
:100300008081482F8A81282F30E081E090E0022E02
:1003100002C0880F991F0A94E2F7809584238C937A
:100320006BC0A8E3B0E0E8E3F0E08081482F8A8169
:10033000282F30E081E090E0022E02C0880F991F44
:100340000A94E2F7842B8C9357C08B818823A9F4FD
:10035000A5E3B0E0E5E3F0E08081482F8A81282F13
:1003600030E081E090E0022E02C0880F991F0A94CD
:10037000E2F7809584238C933FC0A5E3B0E0E5E3EA
:10038000F0E08081482F8A81282F30E081E090E0E2
:10039000022E02C0880F991F0A94E2F7842B8C93D7
:1003A0002BC08B818823A9F4A2E3B0E0E2E3F0E064
:1003B0008081482F8A81282F30E081E090E0022E52
:1003C00002C0880F991F0A94E2F7809584238C93CA
:1003D00013C0A2E3B0E0E2E3F0E08081482F8A811D
:1003E000282F30E081E090E0022E02C0880F991F94
:1003F0000A94E2F7842B8C930F900F900F900F903C
:100400000F90CF91DF910895DF93CF9300D000D06C
:10041000CDB7DEB789836A838981282F30E03C839A
:100420002B838B819C818130910549F12B813C810B
:10043000223031052CF48B819C81009761F05AC0E9
:100440002B813C812230310571F18B819C8183307D
:100450009105E9F14FC0ABE3B0E0EBE3F0E0808160
:10046000482F8A81282F30E081E090E0022E02C0E0
:10047000880F991F0A94E2F784278C933BC0A8E366
:10048000B0E0E8E3F0E08081482F8A81282F30E057
:1004900081E090E0022E02C0880F991F0A94E2F7D3
:1004A00084278C9327C0A5E3B0E0E5E3F0E08081EA
:1004B000482F8A81282F30E081E090E0022E02C090
:1004C000880F991F0A94E2F784278C9313C0A2E344
:1004D000B0E0E2E3F0E08081482F8A81282F30E00D
:1004E00081E090E0022E02C0880F991F0A94E2F783
:1004F00084278C930F900F900F900F90CF91DF91E6
:100500000895DF93CF9300D000D000D0CDB7DEB7F1
:1005100089836A838981282F30E03D832C834C8135
:100520005D814130510549F18C819D818230910579
:1005300034F42C813D812115310561F057C04C8187
:100540005D814230510561F18C819D81833091053F
:10055000D1F14CC0E9E3F0E08081282F30E08A81BE
:10056000882F90E0A90102C0559547958A95E2F73A
:10057000CA01582F51705B833AC0E6E3F0E08081F6
:10058000282F30E08A81882F90E0A90102C055957C
:1005900047958A95E2F7CA01582F51705B8327C0AF
:1005A000E3E3F0E08081282F30E08A81882F90E01B
:1005B000A90102C0559547958A95E2F7CA01582FBF
:1005C00051705B8314C0E0E3F0E08081282F30E0BD
:1005D0008A81882F90E0A90102C0559547958A9598
:1005E000E2F7CA01582F51705B8301C002C08B81B2
:1005F0008E838E8126960FB6F894DEBF0FBECDBFD8
:10060000CF91DF910895DF93CF93CDB7DEB7669793
:100610000FB6F894DEBF0FBECDBF83E067E041E0C8
:100620000E943E0083E066E041E00E943E001982A5
:100630001A821B821C8284EF91E0A0E0B0E08D83DF
:100640009E83AF83B88784E694E09A87898781E0A8
:100650008B871C861D861E861F8688EE93E0A0E091
:10066000B0E0888B998BAA8BBB8B8FE694E09D8B37
:100670008C8B81E08E8BCE010196909361008093EC
:100680006000CE010C9690936300809362000E94FC
:100690002804FFCFDF93CF930F92CDB7DEB7198237
:1006A00079C08981882F90E0880F991FFC01E05A5A
:1006B000FF4F80819181009709F469C08981882F5B
:1006C00090E0880F991FFC01E05AFF4F0190F081E4
:1006D000E02D8285813009F05AC08981882F90E011
:1006E000880F991FFC01E05AFF4F0190F081E02D27
:1006F00080819181A281B3810097A105B10589F51F
:100700008981882F90E0880F991FFC01E05AFF4FE4
:100710000190F081E02D0084F185E02D099589811B
:10072000882F90E0880F991FFC01E05AFF4F20812D
:1007300031818981882F90E0880F991FFC01E05A50
:10074000FF4F0190F081E02D84819581A681B781D2
:100750000197A109B109F90180839183A283B38331
:1007600016C08981882F90E0880F991FFC01E05AFC
:10077000FF4F0190F081E02D80819181A281B381B2
:100780000197A109B10980839183A283B3838981F1
:100790008F5F89838981823008F483CF0F90CF9156
:1007A000DF9108951F920F920FB60F9211242F938D
:1007B0003F934F935F936F937F938F939F93AF93E9
:1007C000BF93EF93FF93DF93CF93CDB7DEB78091C5
:1007D000640090916500A0916600B0916700019659
:1007E000A11DB11D8093640090936500A0936600E5
:1007F000B09367008091640090916500A0916600BD
:10080000B09167008F329105A105B10571F4109286
:100810006400109265001092660010926700E2E595
:10082000F0E080E280830E944A03CF91DF91FF9144
:10083000EF91BF91AF919F918F917F916F915F9158
:100840004F913F912F910F900FBE0F901F901895D1
:10085000DF93CF93CDB7DEB7E2E5F0E080E28083AF
:10086000A3E5B0E0E3E5F0E080818F7B8C93A3E526
:10087000B0E0E3E5F0E08081877F8C93A3E5B0E012
:10088000E3E5F0E0808181608C93A3E5B0E0E3E5EF
:10089000F0E080818D7F8C93A3E5B0E0E3E5F0E0AC
:1008A00080818B7F8C93A9E5B0E0E9E5F0E0808161
:1008B00081608C93AFE5B0E0EFE5F0E08081806887
:1008C0008C93CF91DF910895DF93CF93CDB7DEB7AF
:1008D00083E067E00E940402CF91DF910895DF93E7
:1008E000CF93CDB7DEB783E066E00E940402CF91DC
:0808F000DF910895F894FFCF99
:00000001FF
