:100000000C942A000C943F000C943F000C943F0089
:100010000C943F000C943F000C943F000C943F0064
:100020000C943F000C943F000C943F000C943F0054
:100030000C943F000C943F000C943F000C943F0044
:100040000C943F000C943F000C943F000C943F0034
:100050000C943F0011241FBECFE5D8E0DEBFCDBF1A
:1000600011E0A0E6B0E0E2E6FAE402C005900D92ED
:10007000A836B107D9F70E947C220C942F250C9446
:100080000000EF92FF920F931F937B018C0120E001
:1000900030E040E05FE40E94261088238CF0C80125
:1000A000B70120E030E040E05FE40E949E0E0E9435
:1000B00086109B01AC01205030404040504806C0A3
:1000C000C801B7010E9486109B01AC01B901CA01A9
:1000D0001F910F91FF90EF900895AEE5B0E0E3E738
:1000E000F0E00C94F824A8E04E010894811C911CC7
:1000F000F4016A2E11926A94E9F729833A834B83BB
:100100005C836D837E838F839887CE010996FC0183
:100110001192AA95E9F7A986BA86CB86DC86ED8688
:10012000FE860F87188B29843A844B845C84ED8487
:10013000FE840F85188969807A808B809C806DA6EB
:100140007EA68FA698AA6D807E808F809884E11409
:10015000F1040105110509F0B3C3621473048404AA
:10016000950408F03DC100E0201600E0300601E0F3
:10017000400600E0500688F41FEF211631044104C8
:10018000510439F030F048E0E42EF12C012D112D0E
:1001900018C0EE24FF24870114C020E0221620E0BE
:1001A000320620E0420621E0520630F038E1E32E2C
:1001B000F12C012D112D05C020E1E22EF12C012D95
:1001C000112DD201C1010E2C04C0B695A7959795AB
:1001D00087950A94D2F788599F4FDC012C9180E2D1
:1001E00090E0A0E0B0E08E199F09A00BB10B7C015C
:1001F0008D01E21AF10801091109E114F104010568
:100200001105A1F10E2C04C0220C331C441C551CFA
:100210000A94D2F7A40193010E2C04C0220F331FBD
:10022000441F551F0A94D2F780E290E08E199F096F
:100230006DA47EA48FA498A804C096948794779404
:1002400067948A95D2F7622A732A842A952AADA4E4
:10025000BEA4CFA4D8A804C0AA0CBB1CCC1CDD1C17
:10026000EA94D2F7ADA6BEA6CFA6D8AA6201EE2424
:10027000FF24CDAADEAAEFAAF8AE92018101207078
:10028000307009AF1AAF2BAF3CAFC401B301A70167
:1002900096010E94D6247B018C01C401B3012DA9D3
:1002A0003EA94FA958AD0E94D624C901DA013C01EC
:1002B0004D01C401B30129AD3AAD4BAD5CAD0E9417
:1002C000B7249B01AC018701FF24EE24ADA4BEA49A
:1002D000CFA4D8A8C601AA27BB2757016801A82A1E
:1002E000B92ACA2ADB2AA216B306C406D506E0F448
:1002F00008946108710881089108A20CB31CC41C01
:10030000D51CA214B304C404D50470F0A216B3061D
:10031000C406D50648F4089461087108810891085C
:10032000A20CB31CC41CD51CA21AB30AC40AD50A59
:10033000C601B5012DA93EA94FA958AD0E94D624EA
:100340007B018C01C601B5012DA93EA94FA958AD6D
:100350000E94D624C901DA015C016D01C601B50114
:1003600029AD3AAD4BAD5CAD0E94B7249B01AC0109
:100370008701FF24EE248DA59EA5AFA5B8A9A07086
:10038000B070E82AF92A0A2B1B2BE216F3060407A1
:100390001507C0F40894A108B108C108D108E20CFF
:1003A000F31C041D151DE214F3040405150550F09B
:1003B000E216F3060407150728F40894A108B1080B
:1003C000C108D108D3019927882786017501E82A39
:1003D000F92A0A2B1B2BE9AAFAAA0BAB1CABCFC438
:1003E000211431044104510471F461E070E080E0B3
:1003F00090E020E030E040E050E00E94D624C901C7
:10040000DA011C012D0100E0201600E0300601E0B9
:10041000400600E0500688F41FEF21163104410425
:10042000510431F028F048E050E060E070E017C07F
:1004300040E050E060E070E012C020E0221620E0D2
:10044000320620E0420621E0520628F048E150E062
:1004500060E070E004C040E150E060E070E0D20194
:10046000C101042E04C0B695A795979587950A9467
:10047000D2F788599F4FDC012C91E0E2EE2EF12C4F
:10048000012D112DD801C701841B950BA60BB70BAD
:10049000821B9109A109B1090097A105B10561F479
:1004A00064015301A218B308C408D50831E0632ED3
:1004B000712C812C912C1EC16F968FAF6F97082ED7
:1004C00004C0220C331C441C551C0A94D2F7EE2D98
:1004D000E81B640153010E2E04C0D694C794B79450
:1004E000A7940A94D2F7A40193016F960FAC6F976B
:1004F00004C0220F331F441F551F0A94D2F76DA466
:100500007EA48FA498A80E2E04C096948794779406
:1005100067940A94D2F784017301E22AF32A042B28
:10052000152BE9A6FAA60BA71CA73201882499244B
:10053000920181012070307021960CAF1DAF2EAF5B
:100540003FAF2197C601B501A40193010E94D624B3
:100550007B018C01C601B501A40193010E94D62440
:10056000C901DA0125968CAF9DAFAEAFBFAF25971D
:10057000BC01CD0121962CAD3DAD4EAD5FAD2197B7
:100580000E94B7249B01AC018701FF24EE24A9A49B
:10059000BAA4CBA4DCA4C601AA27BB275C016D01C9
:1005A000AE28BF28C02AD12AA216B306C406D50693
:1005B00060F525966CAD7DAD8EAD9FAD25976150F4
:1005C00070408040904025966CAF7DAF8EAF9FAF5E
:1005D0002597A20CB31CC41CD51CA214B304C404DC
:1005E000D50498F0A216B306C406D50670F461507F
:1005F00070408040904025966CAF7DAF8EAF9FAF2E
:100600002597A20CB31CC41CD51CA21AB30AC40A99
:10061000D50AC601B501A40193010E94D6247B012D
:100620008C01C601B501A40193010E94D624C90121
:10063000DA013C014D01C401B30121962CAD3DAD61
:100640004EAD5FAD21970E94B7249B01AC0187019D
:10065000FF24EE2489A59AA5ABA5BCA5A070B07017
:1006600057016801A82AB92ACA2ADB2AA216B306AA
:10067000C406D506E0F40894610871088108910861
:10068000A20CB31CC41CD51CA214B304C404D5040E
:1006900070F0A216B306C406D50648F408946108A3
:1006A000710881089108A20CB31CC41CD51C8DA52F
:1006B0009EA5AFA5B8A96F960FAC6F9704C0880F21
:1006C000991FAA1FBB1F0A94D2F78DA79EA7AFA799
:1006D000B8ABA21AB30AC40AD50A2596ECACFDAC95
:1006E0000EAD1FAD2597D70199278827682A792A4B
:1006F0008A2A9B2A82012227332729960CAF1DAF15
:100700002EAF3FAF2997A2019101407050702D96F6
:100710002CAF3DAF4EAF5FAF2D97C601B501299607
:100720002CAD3DAD4EAD5FAD29970E94D6247B0127
:100730008C01C601B50129962CAD3DAD4EAD5FAD26
:1007400029970E94D624C901DA0161968CAF9DAF2A
:10075000AEAFBFAF6197BC01CD012D962CAD3DADC5
:100760004EAD5FAD2D970E94B7249B01AC01870170
:10077000FF24EE24ADA4BEA4CFA4D8A8C601AA2706
:10078000BB2757016801A82AB92ACA2ADB2AA21660
:10079000B306C406D50660F561966CAD7DAD8EAD31
:1007A0009FAD6197615070408040904061966CAF02
:1007B0007DAF8EAF9FAF6197A20CB31CC41CD51C3C
:1007C000A214B304C404D50498F0A216B306C40658
:1007D000D50670F4615070408040904061966CAFD7
:1007E0007DAF8EAF9FAF6197A20CB31CC41CD51C0C
:1007F000A21AB30AC40AD50AC601B50129962CADBE
:100800003DAD4EAD5FAD29970E94D6247B018C0192
:10081000C601B50129962CAD3DAD4EAD5FAD299712
:100820000E94D624C901DA015C016D01C601B5013F
:100830002D962CAD3DAD4EAD5FAD2D970E94B724EA
:100840009B01AC018701FF24EE248DA59EA5AFA5D9
:10085000B8A9A070B070E82AF92A0A2B1B2BE2165F
:10086000F30604071507C0F40894A108B108C108ED
:10087000D108E20CF31C041D151DE214F304040559
:10088000150550F0E216F3060407150728F408943E
:10089000A108B108C108D1086196ECACFDAC0EAD61
:1008A0001FAD6197D7019927882796018501082BED
:1008B000192B2A2B3B2B09AB1AAB2BAB3CAB62C2DF
:1008C0006E147F048006910608F451C220E0E216FF
:1008D00020E0F20621E0020720E0120788F43FEF53
:1008E000E316F1040105110531F028F048E050E06D
:1008F00060E070E017C040E050E060E070E012C0DF
:1009000040E0E41640E0F40640E0040741E014074C
:1009100028F048E150E060E070E004C040E150E0C1
:1009200060E070E0D801C701042E04C0B695A79519
:10093000979587950A94D2F788599F4FDC012C919F
:1009400030E2A32EB12CC12CD12CD601C501841BC1
:10095000950BA60BB70B821B9109A109B109009752
:10096000A105B10589F4E614F7040805190508F492
:10097000F2C16DA47EA48FA498A8621473048404A9
:10098000950408F0E8C1F3C16E968FAF6E97082EFC
:1009900004C0EE0CFF1C001F111F0A94D2F76A2D31
:1009A000681BD201C101062E04C0B695A795979584
:1009B00087950A94D2F75C016D01AE28BF28C02A42
:1009C000D12AADA2BEA2CFA2D8A6720161016E96B5
:1009D0000FAC6E9704C0CC0CDD1CEE1CFF1C0A94FF
:1009E000D2F7C9A2DAA2EBA2FCA264015301062E3F
:1009F00004C0D694C794B794A7940A94D2F7D401AC
:100A0000C3016E960FAC6E9704C0880F991FAA1F82
:100A1000BB1F0A94D2F7EDA4FEA40FA518A904C029
:100A200016950795F794E7946A95D2F73701480130
:100A3000682A792A8A2A9B2A6D8E7E8E8F8E98A2AA
:100A4000EDA0FEA00FA118A53801882499249801D3
:100A500087012070307065960CAF1DAF2EAF3FAF91
:100A60006597C601B501A40193010E94D6247B01BC
:100A70008C01C601B501A40193010E94D624C901CD
:100A8000DA011C012D01C201B10165962CAD3DAD0D
:100A90004EAD5FAD65970E94B7249B01AC01870105
:100AA000FF24EE24AD8CBE8CCF8CD8A0C601AA2723
:100AB000BB2757016801A82AB92ACA2ADB2AA2162D
:100AC000B306C406D50600F508942108310841088C
:100AD0005108EDA0FEA00FA118A5AE0CBF1CC01EB2
:100AE000D11EAE14BF04C006D10670F0A216B30624
:100AF000C406D50648F40894210831084108510875
:100B0000AE0CBF1CC01ED11EA21AB30AC40AD50A5D
:100B1000C601B501A40193010E94D6247B018C017A
:100B2000C601B501A40193010E94D624C901DA01CE
:100B30003C014D01C401B30165962CAD3DAD4EADF8
:100B40005FAD65970E94B7249B01AC018701FF242C
:100B5000EE248D8D9E8DAF8DB8A1A070B070570121
:100B60006801A82AB92ACA2ADB2AA216B306C40633
:100B7000D50600F5089461087108810891086DA1F7
:100B80007EA18FA198A5A60EB71EC81ED91EA616B7
:100B9000B706C806D90670F0A216B306C406D50675
:100BA00048F408946108710881089108A60EB71EE0
:100BB000C81ED91ED601C501821B930BA40BB50B11
:100BC000898F9A8FAB8FBC8FD101992788276401B9
:100BD0005301A82AB92ACA2ADB2AA9AABAAACBAAE7
:100BE000DCAA860175012FEF3FEF40E050E0E222E2
:100BF000F32204231523A601662777276D964CAFB1
:100C00005DAF6EAF7FAF6D97A9A0BAA0CBA0DCA0FF
:100C10006FEF7FEF80E090E0A622B722C822D922B2
:100C200089A19AA1ABA1BCA11D0144245524C801EE
:100C3000B701A60195010E94B72469966CAF7DAFFC
:100C40008EAF9FAF6997C801B701A20191010E94C1
:100C5000B7243B014C016D966CAD7DAD8EAD9FAD63
:100C60006D97A60195010E94B7247B018C016D96BA
:100C70006CAD7DAD8EAD9FAD6D97A20191010E94CF
:100C8000B7245B016C01A8019701260D371D481D93
:100C9000591D69966CAC7DAC8EAC9FAC6997C40154
:100CA000AA27BB27280F391F4A1F5B1F2E153F0598
:100CB0004007510748F4E12CF12C61E0062F112D7B
:100CC000AE0CBF1CC01ED11ECA01AA27BB27BC0187
:100CD000CD016A0D7B1D8C1D9D1D698C7A8C8B8CC2
:100CE0009C8C661677068806990640F1661577058E
:100CF0008805990509F043C0D90199278827699685
:100D00002CAD3DAD4EAD5FAD699740705070820F18
:100D1000931FA41FB51F2DA53EA54FA558A96E96DC
:100D20000FAC6E9704C0220F331F441F551F0A9447
:100D3000D2F7281739074A075B0708F509A91AA946
:100D40002BA93CA9015010402040304009AB1AAB00
:100D50002BAB3CAB14C066247724430121E030E088
:100D600040E050E029AB3AAB4BAB5CAB0BC0662428
:100D70007724430119AA1AAA1BAA1CAA03C0662435
:100D800077244301FE01719688E0DF011D928A9568
:100D9000E9F7A9A8BAA8CBA8DCA8A98ABA8ACB8AFD
:100DA000DC8A6D8A7E8A8F8A988E29A93A894B8936
:100DB0005C89662D7E898F89988DC25ADF4FE2E16A
:100DC0000C941425ABE5B0E0E8EEF6E00C94F824C2
:100DD000A8E04E010894811C911CF4016A2E119226
:100DE0006A94E9F729833A834B835C836D837E831E
:100DF0008F839887CE010996FC011192AA95E9F795
:100E0000A986BA86CB86DC86ED86FE860F87188B90
:100E100029843A844B845C84AD84BE84CF84D88892
:100E200029813A814B815C8169962FAF69976A96D7
:100E30003FAF6A976B964FAF6B976C965FAF6C97AF
:100E40006C966CAC7DAC8EAC9FAC6C9769AA7AAAA0
:100E50008BAA9CAA6D817E818F8198853B014C0174
:100E60006DAA7EAA8FAA98AEA114B104C104D104C0
:100E700009F004C3621473048404950408F000C1EB
:100E800000E0201600E0300601E0400600E05006D9
:100E900088F41FEF211631044104510439F030F079
:100EA00088E0E82EF12C012D112D18C0EE24FF242E
:100EB000870114C040E0241640E0340640E04406B8
:100EC00041E0540630F0B8E1EB2EF12C012D112D4C
:100ED00005C0A0E1EA2EF12C012D112DD201C10196
:100EE0000E2C04C0B695A795979587950A94D2F7CE
:100EF00088599F4FDC012C9180E290E0A0E0B0E0A7
:100F00008E199F09A00BB10B5C016D01A21AB108EB
:100F1000C108D108A9AEBAAECBAEDCAEA114B10403
:100F2000C104D10409F43FC069AD062E04C0220CEF
:100F3000331C441C551C0A94D2F7A4019301062EBD
:100F400004C0220F331F441F551F0A94D2F780E2BA
:100F500090E08A199B096C96CCACDDACEEACFFAC92
:100F60006C9704C0F694E794D794C7948A95D2F707
:100F700087017601E22AF32A042B152BEDAAFEAA9B
:100F80000FAB18AF6C968CAD9DADAEADBFAD6C9791
:100F900004C0880F991FAA1FBB1F6A95D2F789AB9F
:100FA0009AABABABBCAB320188249924B201A1014E
:100FB0006070707021964CAF5DAF6EAF7FAF2197C0
:100FC0006DA97EA98FA998ADA40193010E94D62492
:100FD0007B018C016DA97EA98FA998ADA401930115
:100FE0000E94D624CA01B90121962CAD3DAD4EAD6B
:100FF0005FAD21970E94B7249B01AC018701FF24BC
:10100000EE24A9A8BAA8CBA8DCA8C601AA27BB27AA
:1010100057016801A82AB92ACA2ADB2AA216B306F0
:10102000C406D50690F4A20CB31CC41CD51CA21493
:10103000B304C404D50448F0A216B306C406D5060A
:1010400020F4A20CB31CC41CD51CA21AB30AC40AF7
:10105000D50AC601B501A40193010E94D6247B01E3
:101060008C01C601B501A40193010E94D624CA01D6
:10107000B90121962CAD3DAD4EAD5FAD2197BAC102
:10108000211431044104510471F461E070E080E006
:1010900090E020E030E040E050E00E94D624C9011A
:1010A000DA011C012D0100E0201600E0300601E00D
:1010B000400600E0500688F41FEF21163104410479
:1010C000510439F030F068E0E62EF12C012D112D9D
:1010D00018C0EE24FF24870114C040E0241640E02D
:1010E000340640E0440641E0540630F058E1E52E75
:1010F000F12C012D112D05C040E1E42EF12C012D24
:10110000112DD201C1010E2C04C0B695A79597955B
:1011100087950A94D2F788599F4FDC012C9130E2D1
:10112000A32EB12CC12CD12CD601C5018E199F093B
:10113000A00BB10B7C018D01E21AF1080109110924
:10114000E9AEFAAE0BAF1CAFE114F10401051105D5
:1011500039F464015301A218B308C408D508E2C0E9
:10116000F9AC6896FFAE68970F2C04C0220C331CB4
:10117000441C551C0A94D2F78A2D8F19640153011F
:10118000082E04C0D694C794B794A7940A94D2F7B3
:10119000A401930104C0220F331F441F551FFA946A
:1011A000D2F76C966CAC7DAC8EAC9FAC6C9704C0E7
:1011B00096948794779467948A95D2F78401730103
:1011C000E22AF32A042B152BEDA6FEA60FA718ABD7
:1011D000320188249924B201A101607070702596B3
:1011E0004CAF5DAF6EAF7FAF2597C601B501A401CF
:1011F00093010E94D6247B018C01C601B501A40194
:1012000093010E94D624CA01B90125962CAD3DADAB
:101210004EAD5FAD25970E94B7249B01AC018701BD
:10122000FF24EE24ADA4BEA4CFA4D8A8C601AA274B
:10123000BB275C016D01AE28BF28C02AD12AA216A7
:10124000B306C406D50690F4A20CB31CC41CD51C6E
:10125000A214B304C404D50448F0A216B306C4060D
:10126000D50620F4A20CB31CC41CD51CA21AB30AC8
:10127000C40AD50AC601B501A40193010E94D6246F
:101280007B018C01C601B501A40193010E94D62403
:10129000CA01B90125962CAD3DAD4EAD5FAD259788
:1012A0000E94B7249B01AC018701FF24EE248DA589
:1012B0009EA5AFA5B8A9A070B07057016801A82A73
:1012C000B92ACA2ADB2AA216B306C406D50690F4A8
:1012D000A20CB31CC41CD51CA214B304C404D504B2
:1012E00048F0A216B306C406D50620F4A20CB31C1F
:1012F000C41CD51C6C96ECACFDAC0EAD1FAD6C9750
:1013000068960FAC689704C0EE0CFF1C001F111FFD
:101310000A94D2F7E9AAFAAA0BAB1CABA21AB30A39
:10132000C40AD50A320188249924B201A10160704F
:10133000707029964CAF5DAF6EAF7FAF2997C60135
:10134000B501A40193010E94D6247B018C01C60142
:10135000B501A40193010E94D624CA01B9012996BE
:101360002CAD3DAD4EAD5FAD29970E94B7249B01DA
:10137000AC018701FF24EE24A9A8BAA8CBA8DCA859
:10138000C601AA27BB2757016801A82AB92ACA2A79
:10139000DB2AA216B306C406D50690F4A20CB31C31
:1013A000C41CD51CA214B304C404D50448F0A2166E
:1013B000B306C406D50620F4A20CB31CC41CD51C6D
:1013C000A21AB30AC40AD50AC601B501A401930141
:1013D0000E94D6247B018C01C601B501A4019301B2
:1013E0000E94D624CA01B90129962CAD3DAD4EAD5F
:1013F0005FAD29970E94B7249B01AC018701FF24B0
:10140000EE2489A99AA9ABA9BCA9A070B070E82A5A
:10141000F92A0A2B1B2BE216F3060407150790F492
:10142000E20CF31C041D151DE214F304040515055C
:1014300048F0E216F3060407150720F4E20CF31C4B
:10144000041D151DE21AF30A040B150BD801C70180
:1014500009AC04C0B695A795979587950A94D2F7DD
:10146000898B9A8BAB8BBC8B1D8A1E8A1F8A188E28
:10147000282F3A894B895C896D890CC36A147B04D7
:101480008C049D0408F409C300E0A01600E0B00637
:1014900001E0C00600E0D00688F41FEFA116B104F9
:1014A000C104D10439F030F028E0E22EF12C012DF6
:1014B000112D18C0EE24FF24870114C040E0A416AB
:1014C00040E0B40640E0C40641E0D40630F098E1C4
:1014D000E92EF12C012D112D05C080E1E82EF12C13
:1014E000012D112DD601C5010E2C04C0B695A7956E
:1014F000979587950A94D2F788599F4FDC012C91D4
:1015000080E290E0A0E0B0E08E199F09A00BB10B43
:10151000821B9109A109B1090097A105B10509F044
:101520004FC0A614B704C804D90458F06C96ECACAC
:10153000FDAC0EAD1FAD6C97E214F3040405150568
:1015400068F16C96ECACFDAC0EAD1FAD6C97E2187B
:10155000F30804091509A40193012A193B094C0950
:101560005D09AA24BB2465016C966CAD7DAD8EAD82
:101570009FAD6C976E157F058007910728F4B1E049
:10158000AB2EB12CC12CD12CDA01C9018A199B09CF
:10159000AC09BD098DAB9EABAFABB8AFE98AFA8A97
:1015A0000B8B1C8B6DA87EA88FA898AC6D8A7E8A49
:1015B0008F8A988E2E2D3A894B895C896DA96AC2D3
:1015C00067968FAF6797A6019501082E04C0220F7A
:1015D000331F441F551F0A94D2F7A0E2AA2EA81A5F
:1015E0006696AFAE6697D201C10104C0B695A795C5
:1015F00097958795AA94D2F76C017D01C22AD32AC8
:10160000E42AF52AC9A6DAA6EBA6FCA68201710196
:1016100067960FAC679704C0EE0CFF1C001F111FEC
:101620000A94D2F7EDA2FEA20FA318A764015301FA
:1016300066960FAC669704C0D694C794B794A794E7
:101640000A94D2F7A401930167960FAC679704C080
:10165000220F331F441F551F0A94D2F76C968CAD8E
:101660009DADAEADBFAD6C9766960FAC669704C0EE
:10167000B695A795979587950A94D2F73C014D01A9
:10168000622A732A842A952A69A27AA28BA29CA232
:101690006C96ECACFDAC0EAD1FAD6C9767960FACC5
:1016A000679704C0EE0CFF1C001F111F0A94D2F7AD
:1016B000ED8EFE8E0F8F18A349A55AA56BA57CA5AC
:1016C0003B0188249924607070702D964CAF5DAFFB
:1016D0006EAF7FAF2D97C601B501A40193010E94A3
:1016E000D6247B018C01C601B501A40193010E949F
:1016F000D624C901DA011C012D01C201B1012D96C8
:101700002CAD3DAD4EAD5FAD2D970E94B7249B0132
:10171000AC018701FF24EE24A9A0BAA0CBA0DCA0D5
:10172000C601AA27BB2757016801A82AB92ACA2AD5
:10173000DB2AA216B306C406D50600F508942108D4
:10174000310841085108E9A4FAA40BA51CA5AE0C68
:10175000BF1CC01ED11EAE14BF04C006D10670F05F
:10176000A216B306C406D50648F408942108310829
:1017700041085108AE0CBF1CC01ED11EA21AB30AEC
:10178000C40AD50AC601B501A40193010E94D6245A
:101790007B018C01C601B501A40193010E94D624EE
:1017A000C901DA013C014D01C401B3012D962CADF4
:1017B0003DAD4EAD5FAD2D970E94B7249B01AC01AE
:1017C0008701FF24EE2489A19AA1ABA1BCA1A0703E
:1017D000B07057016801A82AB92ACA2ADB2AA216C2
:1017E000B306C406D50600F508946108710881089F
:1017F000910869A57AA58BA59CA5A60EB71EC81E43
:10180000D91EA616B706C806D90670F0A216B306EA
:10181000C406D50648F40894610871088108910847
:10182000A60EB71EC81ED91ED601C501821B930B7A
:10183000A40BB50B898F9A8FAB8FBC8FD1019927E1
:10184000882784017301E82AF92A0A2B1B2B4FEF02
:10185000A42E4FEFB42EC12CD12CAE20BF20C0221D
:10186000D1227801002711276DA07EA08FA098A417
:101870004FEF5FEF60E070E06422752286229722CE
:101880008DA19EA1AFA1B8A5BD0188279927659616
:101890006CAF7DAF8EAF9FAF6597C601B501A40158
:1018A00093010E94B72461966CAF7DAF8EAF9FAF5E
:1018B0006197C601B50165962CAD3DAD4EAD5FADEE
:1018C00065970E94B7241B012C01C801B701A40130
:1018D00093010E94B7245B016C01C801B7016596B2
:1018E0002CAD3DAD4EAD5FAD65970E94B7247B0139
:1018F0008C01A6019501220D331D441D551D6196D5
:101900006CAC7DAC8EAC9FAC6197C401AA27BB27A1
:10191000280F391F4A1F5B1F2A153B054C055D0523
:1019200048F4812C912CE1E0AE2EB12CE80CF91C8E
:101930000A1D1B1DCA01AA27BB2757016801A80E53
:10194000B91ECA1EDB1EA9013327222761968CAD62
:101950009DADAEADBFAD6197A070B070280F391FBF
:101960004A1F5B1FE98CFA8C0B8D1C8DEA14FB045B
:101970000C051D0570F0AE14BF04C006D10669F554
:101980006D8D7E8D8F8D98A16217730784079507E3
:1019900020F5DA01C9016DA07EA08FA098A4861958
:1019A0009709A809B909E9A4FAA40BA51CA5AE18C2
:1019B000BF08C00AD10AEE24FF248701281739077F
:1019C0004A075B0728F421E0E22EF12C012D112DAE
:1019D000AE18BF08C00AD10A02C0DA01C9016D8C75
:1019E0007E8C8F8C98A0681A790A8A0A9B0A498D86
:1019F0005A8D6B8D7C8D4A195B096C097D095A01E2
:101A00006B012224332421016D8D7E8D8F8D98A151
:101A1000661577058805990528F481E0282E312C74
:101A2000412C512C86017501E218F30804091509AF
:101A3000A801970166960FAC669704C0220F331F6A
:101A4000441F551F0A94D2F7D401C30167960FAC07
:101A5000679704C0B695A795979587950A94D2F78E
:101A6000282B392B4A2B5B2B298B3A8B4B8B5C8B8E
:101A700067960FAC679704C016950795F794E7949F
:101A80000A94D2F7ED8AFE8A0F8B188F3A894B8918
:101A90005C896E2D7E898F89988DC55ADF4FE2E172
:101AA0000C941425A0E0B0E0E8E5FDE00C94F824E7
:101AB000DC012B01FA019C91923008F439C1EB0151
:101AC0008881823008F433C1943069F4843009F09D
:101AD0002FC111969C9111978981981709F428C1FB
:101AE000A0E6B0E025C1843009F421C18230A9F418
:101AF000923009F01DC19A01AD0188E0EA01099018
:101B0000AE01E90109929E018150C1F7E20189818C
:101B100011969C918923818308C1923009F407C1F1
:101B200012962D903C901397EB018A819B8114961D
:101B3000AD90BD90CD90DC901797EC80FD800E812C
:101B40001F819101281B390BB90137FF04C066279B
:101B50007727621B730B603271050CF061C012169F
:101B600013066CF537014801062E04C0969487943D
:101B7000779467940A94D2F721E030E040E050E097
:101B800004C0220F331F441F551F6A95D2F72150FE
:101B90003040404050402E213F2140235123211509
:101BA00031054105510521F021E030E040E050E0F1
:101BB00079018A01E628F728082919293CC0232B36
:101BC000D1F1260E371E35014601062E04C096942B
:101BD0008794779467940A94D2F721E030E040E04C
:101BE00050E004C0220F331F441F551F6A95D2F7DF
:101BF00021503040404050402A213B214C215D2162
:101C0000211531054105510521F021E030E040E08A
:101C100050E059016A01A628B728C828D9280BC066
:101C2000821593052CF01C01AA24BB24650103C076
:101C3000EE24FF24870111969C91D20111968C917C
:101C4000981709F445C0992339F0A80197012A197A
:101C50003B094C095D0906C0A60195012E193F09F3
:101C6000400B510B57FD08C011823382228224831E
:101C70003583468357831DC081E08183338222826E
:101C800088279927DC01821B930BA40BB50B848357
:101C90009583A683B7830DC0220F331F441F551FA2
:101CA000248335834683578382819381019793836D
:101CB00082832481358146815781DA01C9010197E8
:101CC000A109B1098F5F9F4FAF4FBF4328F30BC0EE
:101CD000918333822282EA0CFB1C0C1D1D1DE482C1
:101CE000F5820683178383E08083248135814681D2
:101CF000578157FF1AC0C901AA2797FDA095BA2F8F
:101D000081709070A070B070569547953795279563
:101D1000822B932BA42BB52B84839583A683B78327
:101D200082819381019693838283DF0101C0D20176
:101D3000CD01CDB7DEB7E2E10C941425A0E2B0E00E
:101D4000E4EAFEE00C94042569837A838B839C8308
:101D50002D833E834F835887E9E0EE2EF12CEC0E65
:101D6000FD1ECE010196B7010E94AF118E010F5EDC
:101D70001F4FCE010596B8010E94AF118A8991E0EC
:101D800089278A8BC701B801AE01475E5F4F0E9469
:101D9000520D0E94DA10A096E6E00C942025A0E2F5
:101DA000B0E0E5EDFEE00C94042569837A838B8333
:101DB0009C832D833E834F835887F9E0EF2EF12CCF
:101DC000EC0EFD1ECE010196B7010E94AF118E01EF
:101DD0000F5E1F4FCE010596B8010E94AF11C701DB
:101DE000B801AE01475E5F4F0E94520D0E94DA10AB
:101DF000A096E6E00C942025A0E2B0E0E2E0FFE04F
:101E00000C94F82469837A838B839C832D833E838F
:101E10004F835887CE010196BE01675F7F4F0E94B6
:101E2000AF11CE010596BE016F5E7F4F0E94AF11CC
:101E30009985923088F089898230C8F0943019F4FD
:101E4000823051F404C0843029F4923081F480E669
:101E500090E0C6C0923049F420E09A858A899813B0
:101E600021E02A87CE010996BBC0823049F420E0E8
:101E70009A858A89981321E02A8BCE014196B0C0B9
:101E80002D843E844F8458886D887E888F88988CF6
:101E9000EE24FF248701AA24BB24650140E050E022
:101EA00060E070E0E0E0F0E0C10181709070892BAB
:101EB000E9F0E60CF71C081D191D9A01AB012A0D6B
:101EC0003B1D4C1D5D1D80E090E0A0E0B0E0E614FD
:101ED000F7040805190520F481E090E0A0E0B0E0E7
:101EE000BA01A901480F591F6A1F7B1FAA0CBB1C0E
:101EF000CC1CDD1C97FE08C081E090E0A0E0B0E0C3
:101F0000A82AB92ACA2ADB2A3196E032F10549F01B
:101F1000660C771C881C991C569447943794279418
:101F2000C3CFFA85EA892B893C898B859C85280F4C
:101F3000391F2E5F3F4F17C0CA0181709070892BE7
:101F400061F016950795F794E79480E090E0A0E0A3
:101F5000B0E8E82AF92A0A2B1B2B76956795579546
:101F600047952F5F3F4F77FDE7CF0CC0440F551FBC
:101F7000661F771F17FD4160EE0CFF1C001F111F2D
:101F800021503040403090E0590790E0690790E4DC
:101F9000790760F32B8F3C8FDB01CA018F7790703C
:101FA000A070B07080349105A105B10561F447FDC2
:101FB0000AC0E114F1040105110529F0405C5F4FEE
:101FC0006F4F7F4F40781A8EFE1711F081E08A8F95
:101FD0004D8F5E8F6F8F78A383E0898FCE014996F6
:101FE0000E94DA10A096E2E10C941425A8E1B0E07A
:101FF000ECEFFFE00C94042569837A838B839C8348
:102000002D833E834F83588789E0E82EF12CEC0E18
:10201000FD1ECE010196B7010E94AF118E010F5E29
:102020001F4FCE010596B8010E94AF1189858230FD
:1020300040F08989823028F0C701B8010E94271238
:1020400001C08FEF6896E6E00C942025A8E1B0E08F
:10205000ECE2F0E10C94042569837A838B839C8302
:102060002D833E834F83588789E0E82EF12CEC0EB8
:10207000FD1ECE010196B7010E94AF118E010F5EC9
:102080001F4FCE010596B8010E94AF11898582309D
:1020900040F08989823028F0C701B8010E942712D8
:1020A00001C08FEF6896E6E00C942025A8E1B0E02F
:1020B000ECE5F0E10C94042569837A838B839C839F
:1020C0002D833E834F83588789E0E82EF12CEC0E58
:1020D000FD1ECE010196B7010E94AF118E010F5E69
:1020E0001F4FCE010596B8010E94AF11898582303D
:1020F00040F08989823028F0C701B8010E94271278
:1021000001C081E06896E6E00C942025ACE0B0E0E8
:10211000ECE8F0E10C94082569837A838B839C8337
:10212000CE010196BE016B5F7F4F0E94AF118D8182
:10213000823061F1823050F1843021F48E81882325
:1021400051F12EC02F81388537FD20C06E812F318F
:1021500031051CF06623F9F023C08EE190E0821B6C
:10216000930B29853A854B855C8504C05695479528
:10217000379527958A95D2F76623B1F0509540950B
:10218000309521953F4F4F4F5F4F0EC020E030E01C
:1021900040E050E009C02FEF3FEF4FEF5FE704C092
:1021A00020E030E040E050E8B901CA012C96E2E0BE
:1021B0000C942425DF92EF92FF920F931F93FC0162
:1021C000E480F58006811781D1808081823048F4D7
:1021D00080E090E0A0E1B0E0E82AF92A0A2B1B2B6E
:1021E000A5C0843009F49FC0823021F4EE24FF247E
:1021F000870105C0E114F1040105110519F4E0E0BF
:10220000F0E096C0628173819FEF623879070CF02D
:102210005BC022E83FEF261B370B2A3131052CF03B
:1022200020E030E040E050E02AC0B801A701022ED3
:1022300004C076956795579547950A94D2F781E043
:1022400090E0A0E0B0E004C0880F991FAA1FBB1F58
:102250002A95D2F70197A109B1098E219F21A023C8
:10226000B1230097A105B10521F081E090E0A0E045
:10227000B0E09A01AB01282B392B4A2B5B2BDA01FA
:10228000C9018F779070A070B07080349105A1055E
:10229000B10539F427FF09C0205C3F4F4F4F5F4F16
:1022A00004C0215C3F4F4F4F5F4FE0E0F0E0203033
:1022B000A0E03A07A0E04A07A0E45A0710F0E1E0E6
:1022C000F0E079018A0127C06038710564F5FB01EF
:1022D000E158FF4FD801C7018F779070A070B070A0
:1022E00080349105A105B10539F4E7FE0DC080E405
:1022F00090E0A0E0B0E004C08FE390E0A0E0B0E0A8
:10230000E80EF91E0A1F1B1F17FF05C0169507953B
:10231000F794E794319687E016950795F794E7943C
:102320008A95D1F705C0EE24FF248701EFEFF0E096
:102330006E2F679566276795902F9F77D794DD243A
:10234000D7948E2F8695492F462B582F5D29B7019C
:10235000CA011F910F91FF90EF90DF900895FC014B
:10236000DB01408151812281622F6F7770E0221F53
:102370002227221F9381892F880F822B282F30E05C
:10238000991F9927991F11969C9311972115310533
:10239000A9F5411551056105710511F482E037C0B9
:1023A00082E89FEF13969C938E9312979A01AB014C
:1023B00067E0220F331F441F551F6A95D1F783E052
:1023C0008C930DC0220F331F441F551F12968D9101
:1023D0009C911397019713969C938E93129720309C
:1023E00080E0380780E0480780E4580758F31496E7
:1023F0002D933D934D935C93179708952F3F31058F
:1024000079F4411551056105710519F484E08C9347
:10241000089564FF03C081E08C9312C01C9210C029
:102420002F57304013963C932E93129783E08C9352
:1024300087E0440F551F661F771F8A95D1F7706498
:1024400014964D935D936D937C93179708951F9306
:10245000DC01FB019C91923008F447C080818230FE
:1024600008F443C0943051F411961C91843099F5CE
:102470008181682F70E0611B71093FC0843021F0B9
:10248000923031F48230B9F18181882389F12DC0F5
:1024900011961C9111978230F1F081811817D9F4AF
:1024A00012962D913C911397828193818217930705
:1024B00094F028173907BCF014968D919D910D90DA
:1024C000BC91A02D24813581468157812817390779
:1024D0004A075B0718F4112341F00AC082179307DB
:1024E000A407B50740F4112319F061E070E005C0BE
:1024F0006FEF7FEF02C060E070E0CB011F910895A5
:10250000DF93CF9300D000D00F92CDB7DEB7898391
:102510006A834B838981282F30E03D832C838C8113
:102520009D818130910509F443C02C813D81223089
:1025300031052CF48C819D81009771F0BCC02C81F9
:102540003D812230310509F45FC08C819D8183304B
:10255000910509F485C0AFC08B818823A9F4AAE353
:10256000B0E0EAE3F0E08081482F8A81282F30E054
:1025700081E090E0022E02C0880F991F0A94E2F7D2
:10258000809584238C9397C0AAE3B0E0EAE3F0E05F
:102590008081482F8A81282F30E081E090E0022E50
:1025A00002C0880F991F0A94E2F7842B8C9383C092
:1025B0008B818823A9F4A7E3B0E0E7E3F0E0808112
:1025C000482F8A81282F30E081E090E0022E02C05F
:1025D000880F991F0A94E2F7809584238C936BC02F
:1025E000A7E3B0E0E7E3F0E08081482F8A81282F5D
:1025F00030E081E090E0022E02C0880F991F0A941B
:10260000E2F7842B8C9357C08B818823A9F4A4E331
:10261000B0E0E4E3F0E08081482F8A81282F30E0A9
:1026200081E090E0022E02C0880F991F0A94E2F721
:10263000809584238C933FC0A4E3B0E0E4E3F0E012
:102640008081482F8A81282F30E081E090E0022E9F
:1026500002C0880F991F0A94E2F7842B8C932BC039
:102660008B818823A9F4A1E3B0E0E1E3F0E080816D
:10267000482F8A81282F30E081E090E0022E02C0AE
:10268000880F991F0A94E2F7809584238C9313C0D6
:10269000A1E3B0E0E1E3F0E08081482F8A81282FB8
:1026A00030E081E090E0022E02C0880F991F0A946A
:1026B000E2F7842B8C930F900F900F900F900F9058
:1026C000CF91DF910895DF93CF9300D000D00F9288
:1026D000CDB7DEB789836A834B838981282F30E0A9
:1026E0003D832C838C819D818130910509F443C009
:1026F0002C813D81223031052CF48C819D81009705
:1027000071F0BCC02C813D812230310509F45FC0DD
:102710008C819D818330910509F485C0AFC08B8188
:102720008823A9F4ABE3B0E0EBE3F0E08081482F2D
:102730008A81282F30E081E090E0022E02C0880FCD
:10274000991F0A94E2F7809584238C9397C0ABE39A
:10275000B0E0EBE3F0E08081482F8A81282F30E061
:1027600081E090E0022E02C0880F991F0A94E2F7E0
:10277000842B8C9383C08B818823A9F4A8E3B0E0D9
:10278000E8E3F0E08081482F8A81282F30E081E063
:1027900090E0022E02C0880F991F0A94E2F78095FC
:1027A00084238C936BC0A8E3B0E0E8E3F0E0808181
:1027B000482F8A81282F30E081E090E0022E02C06D
:1027C000880F991F0A94E2F7842B8C9357C08B8152
:1027D0008823A9F4A5E3B0E0E5E3F0E08081482F89
:1027E0008A81282F30E081E090E0022E02C0880F1D
:1027F000991F0A94E2F7809584238C933FC0A5E348
:10280000B0E0E5E3F0E08081482F8A81282F30E0B6
:1028100081E090E0022E02C0880F991F0A94E2F72F
:10282000842B8C932BC08B818823A9F4A2E3B0E086
:10283000E2E3F0E08081482F8A81282F30E081E0B8
:1028400090E0022E02C0880F991F0A94E2F780954B
:1028500084238C9313C0A2E3B0E0E2E3F0E0808134
:10286000482F8A81282F30E081E090E0022E02C0BC
:10287000880F991F0A94E2F7842B8C930F900F9086
:102880000F900F900F90CF91DF910895DF93CF932A
:1028900000D000D0CDB7DEB789836A838981282F25
:1028A00030E03C832B838B819C818130910549F101
:1028B0002B813C81223031052CF48B819C81009747
:1028C00061F05AC02B813C812230310571F18B813E
:1028D0009C8183309105E9F14FC0ABE3B0E0EBE3BD
:1028E000F0E08081482F8A81282F30E081E090E05D
:1028F000022E02C0880F991F0A94E2F784278C9356
:102900003BC0A8E3B0E0E8E3F0E08081482F8A8193
:10291000282F30E081E090E0022E02C0880F991F3E
:102920000A94E2F784278C9327C0A5E3B0E0E5E39F
:10293000F0E08081482F8A81282F30E081E090E00C
:10294000022E02C0880F991F0A94E2F784278C9305
:1029500013C0A2E3B0E0E2E3F0E08081482F8A8177
:10296000282F30E081E090E0022E02C0880F991FEE
:102970000A94E2F784278C930F900F900F900F909A
:10298000CF91DF910895DF93CF9300D000D000D096
:10299000CDB7DEB789836A838981282F30E03D83F4
:1029A0002C834C815D814130510549F18C819D81A1
:1029B0008230910534F42C813D812115310561F07F
:1029C00057C04C815D814230510561F18C819D8100
:1029D00083309105D1F14CC0E9E3F0E08081282FEC
:1029E00030E08A81882F90E0A90102C05595479573
:1029F0008A95E2F7CA01582F51705B833AC0E6E32B
:102A0000F0E08081282F30E08A81882F90E0A901B2
:102A100002C0559547958A95E2F7CA01582F517023
:102A20005B8327C0E3E3F0E08081282F30E08A81D8
:102A3000882F90E0A90102C0559547958A95E2F745
:102A4000CA01582F51705B8314C0E0E3F0E080812D
:102A5000282F30E08A81882F90E0A90102C0559587
:102A600047958A95E2F7CA01582F51705B8301C0E0
:102A700002C08B818E838E8126960FB6F894DEBFBE
:102A80000FBECDBFCF91DF910895DF93CF93CDB728
:102A9000DEB7AA970FB6F894DEBF0FBECDBF82E0B7
:102AA00060E041E00E94801282E061E041E00E942B
:102AB000801282E062E041E00E94801282E063E0E6
:102AC00041E00E94801282E064E041E00E948012B6
:102AD00082E065E041E00E94801282E066E041E031
:102AE0000E94801282E067E041E00E94801281E053
:102AF00060E041E00E94801281E061E041E00E94DC
:102B0000801281E062E041E00E94801288E30E942E
:102B1000D91780E090E0A0EAB0E48FA398A7A9A716
:102B2000BAA76FA178A589A59AA520E030E84BE364
:102B300055E40E94FC0EDC01CB018BA39CA3ADA34A
:102B4000BEA36BA17CA18DA19EA120E030E040E856
:102B50005FE30E94561088232CF481E090E09AA352
:102B600089A33FC06BA17CA18DA19EA120E03FEF76
:102B70004FE757E40E94F60F18164CF56FA178A5A1
:102B800089A59AA520E030E040E251E40E94FC0EC5
:102B9000DC01CB01BC01CD010E944100DC01CB0175
:102BA0009AA389A30FC08CE291E098A38F8F8F8D99
:102BB00098A10197F1F798A38F8F89A19AA1019706
:102BC0009AA389A389A19AA1009769F714C06BA160
:102BD0007CA18DA19EA10E944100DC01CB019AA3A2
:102BE00089A389A19AA19E8F8D8F8D8D9E8D01972E
:102BF000F1F79E8F8D8F8EE00E94D91780E090E0D4
:102C0000A0EAB0E4898F9A8FAB8FBC8F698D7A8DE3
:102C10008B8D9C8D20E030E84BE355E40E94FC0E48
:102C2000DC01CB018D8B9E8BAF8BB88F6D897E893C
:102C30008F89988D20E030E040E85FE30E945610D5
:102C400088232CF481E090E09C8B8B8B3FC06D89B6
:102C50007E898F89988D20E03FEF4FE757E40E94EF
:102C6000F60F18164CF5698D7A8D8B8D9C8D20E0B2
:102C700030E040E251E40E94FC0EDC01CB01BC01DB
:102C8000CD010E944100DC01CB019C8B8B8B0FC0DE
:102C90008CE291E09A8B898B89899A890197F1F767
:102CA0009A8B898B8B899C8901979C8B8B8B8B89C9
:102CB0009C89009769F714C06D897E898F89988DEA
:102CC0000E944100DC01CB019C8B8B8B8B899C8902
:102CD000988B8F878F8598890197F1F7988B8F87CD
:102CE00081E00E94D91780E090E0A0EAB0E48B87F1
:102CF0009C87AD87BE876B857C858D859E8520E012
:102D000030E84BE355E40E94FC0EDC01CB018F83DD
:102D10009887A987BA876F81788589859A8520E009
:102D200030E040E85FE30E94561088232CF481E0F5
:102D300090E09E838D833FC06F81788589859A85D9
:102D400020E03FEF4FE757E40E94F60F18164CF5CE
:102D50006B857C858D859E8520E030E040E251E4E6
:102D60000E94FC0EDC01CB01BC01CD010E944100A0
:102D7000DC01CB019E838D830FC08CE291E09C83AC
:102D80008B838B819C810197F1F79C838B838D8151
:102D90009E8101979E838D838D819E81009769F727
:102DA00014C06F81788589859A850E944100DC0175
:102DB000CB019E838D838D819E819A8389838981B6
:102DC0009A810197F1F79A838983AA960FB6F894AE
:102DD000DEBF0FBECDBFCF91DF910895DF93CF93BC
:102DE000CDB7DEB72F970FB6F894DEBF0FBECDBFBD
:102DF0008F8781E060E041E00E94631381E061E041
:102E000040E00E9463138F85982F917082E060E00C
:102E1000492F0E9463138F858695982F917082E0C9
:102E200061E0492F0E9463138F8586958695982FC0
:102E3000917082E062E0492F0E9463138F8586952E
:102E400086958695982F917082E063E0492F0E94C5
:102E500063138F8582958F70982F917082E064E064
:102E6000492F0E9463138F85829586958770982FCE
:102E7000917082E065E0492F0E9463138F858295EF
:102E8000869586958370982F917082E066E0492F31
:102E90000E9463138F85982F991F9927991F82E0AD
:102EA00067E0492F0E94631381E062E041E00E94E5
:102EB000631380E090E0A0E0B0E48B879C87AD874F
:102EC000BE876B857C858D859E8520E030E84BE351
:102ED00055E40E94FC0EDC01CB018F839887A98703
:102EE000BA876F81788589859A8520E030E040E84F
:102EF0005FE30E94561088232CF481E090E09E83CB
:102F00008D833FC06F81788589859A8520E03FEF6A
:102F10004FE757E40E94F60F18164CF56B857C8539
:102F20008D859E8520E030E040E251E40E94FC0E59
:102F3000DC01CB01BC01CD010E944100DC01CB01D1
:102F40009E838D830FC08CE291E09C838B838B8169
:102F50009C810197F1F79C838B838D819E810197E2
:102F60009E838D838D819E81009769F714C06F8148
:102F7000788589859A850E944100DC01CB019E837A
:102F80008D838D819E819A83898389819A8101971E
:102F9000F1F79A83898381E062E040E00E94631345
:102FA0002F960FB6F894DEBF0FBECDBFCF91DF9145
:102FB0000895DF93CF93CDB7DEB72F970FB6F89470
:102FC000DEBF0FBECDBF8F8781E060E040E00E9492
:102FD000631381E061E040E00E9463138F85982FC6
:102FE000917082E060E0492F0E9463138F8586957F
:102FF000982F917082E061E0492F0E9463138F85C2
:1030000086958695982F917082E062E0492F0E9404
:1030100063138F85869586958695982F917082E0AB
:1030200063E0492F0E9463138F8582958F70982FDC
:10303000917082E064E0492F0E9463138F8582952E
:1030400086958770982F917082E065E0492F0E94E5
:1030500063138F858295869586958370982F9170DE
:1030600082E066E0492F0E9463138F85982F991F95
:103070009927991F82E067E0492F0E94631381E03E
:1030800062E041E00E94631380E090E0A0E0B0E4E1
:103090008B879C87AD87BE876B857C858D859E855C
:1030A00020E030E84BE355E40E94FC0EDC01CB014C
:1030B0008F839887A987BA876F81788589859A8554
:1030C00020E030E040E85FE30E94561088232CF4B3
:1030D00081E090E09E838D833FC06F8178858985F4
:1030E0009A8520E03FEF4FE757E40E94F60F18164D
:1030F0004CF56B857C858D859E8520E030E040E237
:1031000051E40E94FC0EDC01CB01BC01CD010E9408
:103110004100DC01CB019E838D830FC08CE291E0E6
:103120009C838B838B819C810197F1F79C838B839C
:103130008D819E8101979E838D838D819E810097D5
:1031400069F714C06F81788589859A850E9441004E
:10315000DC01CB019E838D838D819E819A8389833F
:1031600089819A810197F1F79A83898381E062E0EE
:1031700040E00E9463132F960FB6F894DEBF0FBE97
:10318000CDBFCF91DF910895DF93CF9300D0CDB71E
:10319000DEB79A8389830AC0E981FA8180810E941F
:1031A000EE1689819A8101969A838983E981FA8151
:1031B0008081882389F70F900F90CF91DF91089538
:1031C000DF93CF9300D0CDB7DEB789836A8389813F
:1031D000882339F48A81882321F480E80E94D91752
:1031E00039C18981882339F48A81813021F481E8C9
:1031F0000E94D9172FC18981882339F48A818230AE
:1032000021F482E80E94D91725C18981882339F4E5
:103210008A81833021F483E80E94D9171BC18981F8
:10322000882339F48A81843021F484E80E94D917F4
:1032300011C18981882339F48A81853021F485E898
:103240000E94D91707C18981882339F48A81863081
:1032500021F486E80E94D917FDC08981882339F4BA
:103260008A81873021F487E80E94D917F3C08981C9
:10327000882339F48A81883021F488E80E94D9179C
:10328000E9C08981882339F48A81893021F489E869
:103290000E94D917DFC08981882339F48A818A3056
:1032A00021F48AE80E94D917D5C08981882339F48E
:1032B0008A818B3021F48BE80E94D917CBC0898199
:1032C000882339F48A818C3021F48CE80E94D91744
:1032D000C1C08981882339F48A818D3021F48DE839
:1032E0000E94D917B7C08981882339F48A818E302A
:1032F00021F48EE80E94D917ADC08981882339F462
:103300008A818F3021F48FE80E94D917A3C0898168
:10331000813039F48A81882321F480EC0E94D91706
:1033200099C08981813039F48A81813021F481EC1E
:103330000E94D9178FC08981813039F48A81823007
:1033400021F482EC0E94D91785C08981813039F43B
:103350008A81833021F483EC0E94D9177BC0898154
:10336000813039F48A81843021F484EC0E94D917A9
:1033700071C08981813039F48A81853021F485ECEE
:103380000E94D91767C08981813039F48A818630DB
:1033900021F486EC0E94D9175DC08981813039F40F
:1033A0008A81873021F487EC0E94D91753C0898124
:1033B000813039F48A81883021F488EC0E94D91751
:1033C00049C08981813039F48A81893021F489ECBE
:1033D0000E94D9173FC08981813039F48A818A30AF
:1033E00021F48AEC0E94D91735C08981813039F4E3
:1033F0008A818B3021F48BEC0E94D9172BC08981F4
:10340000813039F48A818C3021F48CEC0E94D917F8
:1034100021C08981813039F48A818D3021F48DEC8D
:103420000E94D91717C08981813039F48A818E3082
:1034300021F48EEC0E94D9170DC08981813039F4B6
:103440008A818F3021F48FEC0E94D91703C080E865
:103450000E94D9170F900F90CF91DF910895DF93BD
:10346000CF9300D00F92CDB7DEB789838981282F03
:1034700030E03B832A838A819B818730910509F460
:103480007AC02A813B812830310554F58A819B819D
:103490008330910509F45FC02A813B8124303105D6
:1034A00094F48A819B818130910509F44CC02A8172
:1034B0003B81223031050CF04AC08A819B81009704
:1034C00009F43DC077C02A813B812530310509F4DC
:1034D0004AC08A819B81863091050CF048C03FC06C
:1034E0002A813B812B32310509F451C08A819B81AD
:1034F0008C32910594F42A813B812930310509F4FD
:1035000042C08A819B8189309105CCF12A813B811F
:103510002A32310509F443C04DC08A819B818F3224
:10352000910509F440C02A813B812D33310509F40E
:103530003EC08A819B818D32910569F13BC080E359
:103540000E94EE1637C081E30E94EE1633C082E37C
:103550000E94EE162FC083E30E94EE162BC084E378
:103560000E94EE1627C085E30E94EE1623C086E374
:103570000E94EE161FC087E30E94EE161BC088E370
:103580000E94EE1617C089E30E94EE1613C08BE26C
:103590000E94EE160FC08DE20E94EE160BC08AE26A
:1035A0000E94EE1607C08FE20E94EE1603C08DE364
:1035B0000E94EE160F900F900F90CF91DF9108951B
:1035C0008F929F92AF92BF92CF92DF92EF92FF9233
:1035D0000F931F93DF93CF93CDB7DEB7C857D0407B
:1035E0000FB6F894DEBF0FBECDBFFE01EF59FF4FFF
:1035F00020833183428353836483758386839783D7
:10360000FE01E759FF4F0083FE01E659FF4FE082BC
:10361000CE018F599F4FAD969FAF8EAFAD97AD96B0
:10362000EEADFFADAD978781882309F079C0AD96E7
:10363000EEADFFADAD978781882309F060C0AD96F0
:10364000EEADFFADAD978681882309F069C0AD96D8
:10365000EEADFFADAD978681882309F050C0AD96E1
:10366000EEADFFADAD978581882309F059C0AD96C9
:10367000EEADFFADAD978581882309F040C0AD96D2
:10368000EEADFFADAD978481882309F049C0AD96BA
:10369000EEADFFADAD978481882389F5AD96EEAD93
:1036A000FFADAD9783818823D9F5AD96EEADFFAD23
:1036B000AD978381882319F5AD96EEADFFADAD973B
:1036C0008281882369F5AD96EEADFFADAD9782811D
:1036D0008823A9F4AD96EEADFFADAD978181882327
:1036E000F9F4AD96EEADFFADAD978181882339F445
:1036F000AD96EEADFFADAD9780818A3088F4FE01C6
:10370000E759FF4FDE01A659BF4F80816C910E949F
:10371000E018FE01EF59FF4F80810E942F1A62C608
:10372000CE018F599F4FAF969FAF8EAFAF97AF9699
:10373000EEADFFADAF978781882309F06CC0AF96DF
:10374000EEADFFADAF978781882309F081C1AF96B9
:10375000EEADFFADAF978681882309F05CC0AF96D0
:10376000EEADFFADAF978681882309F071C1AF96AA
:10377000EEADFFADAF978581882309F04CC0AF96C1
:10378000EEADFFADAF978581882309F061C1AF969B
:10379000EEADFFADAF9784818823E9F5AF96EEAD2E
:1037A000FFADAF978481882309F052C1AF96EEAD8B
:1037B000FFADAF978381882371F5AF96EEADFFAD76
:1037C000AF978381882309F043C1AF96EEADFFAD7B
:1037D000AF9782818823F9F4AF96EEADFFADAF9736
:1037E0008281882309F034C1AF96EEADFFADAF976B
:1037F0008181882381F4AF96EEADFFADAF978181D3
:10380000882309F025C1AF96EEADFFADAF9780815B
:103810008A3008F41DC1CE018F599F4FE1969FAFAA
:103820008EAFE197E196EEADFFADE19787818823FA
:1038300009F00EC1E196EEADFFADE19787818823D7
:1038400009F064C0E196EEADFFADE1978681882373
:1038500009F0FEC0E196EEADFFADE19786818823C9
:1038600009F054C0E196EEADFFADE1978581882364
:1038700009F0EEC0E196EEADFFADE19785818823BA
:1038800009F044C0E196EEADFFADE1978481882355
:1038900009F0DEC0E196EEADFFADE19784818823AB
:1038A000A9F5E196EEADFFADE1978381882309F09C
:1038B000CFC0E196EEADFFADE1978381882331F56E
:1038C000E196EEADFFADE1978281882309F0C0C09B
:1038D000E196EEADFFADE19782818823B9F4E196E0
:1038E000EEADFFADE1978181882309F0B1C0E1968B
:1038F000EEADFFADE1978181882341F4E196EEAD15
:10390000FFADE1978081843608F0A2C00F2EF9E563
:103910008F2E9924F02D8C0E9D1EFE01EF59FF4F26
:10392000A080B180C280D380E480F58006811781B9
:103930002A2D3B2D4C2D5D2D6E2D7F2D802F912F0F
:103940000F2EFAE0AF2EF02DBB24CC24DD24EE2484
:10395000FF2400E010E00E946D00A22EB32EC42EC2
:10396000D52EE62EF72E082F192FF401A082F40190
:10397000B182F401C282F401D382F401E482F40141
:10398000F582F4010683F4011783FE01E759FF4F26
:10399000DE01A659BF4F80816C910E94E018FE01A4
:1039A000E75AFF4F80810E942F1A0F2EF1E58F2ECC
:1039B0009924F02D8C0E9D1EFE01EF59FF4FA08023
:1039C000B180C280D380E480F580068117812A2DE2
:1039D0003B2D4C2D5D2D6E2D7F2D802F912F0F2E89
:1039E000FAE0AF2EF02DBB24CC24DD24EE24FF24FE
:1039F00000E010E00E94E206A22EB32EC42ED52EC7
:103A0000E62EF72E082F192FF401A082F401B182BF
:103A1000F401C282F401D382F401E482F401F5825C
:103A2000F4010683F4011783FE01E659FF4F8081FC
:103A3000982F9F5FFE01E759FF4F8081692F0E94F9
:103A4000E018FE01EF5AFF4F80810E942F1ACAC46E
:103A5000CE018F599F4FE3969FAF8EAFE397E396CA
:103A6000EEADFFADE3978781882309F06CC0E39644
:103A7000EEADFFADE3978781882309F012C2E3968C
:103A8000EEADFFADE3978681882309F05CC0E39635
:103A9000EEADFFADE3978681882309F002C2E3967D
:103AA000EEADFFADE3978581882309F04CC0E39626
:103AB000EEADFFADE3978581882309F0F2C1E3966F
:103AC000EEADFFADE39784818823E9F5E396EEAD93
:103AD000FFADE3978481882309F0E3C1E396EEAD5F
:103AE000FFADE3978381882371F5E396EEADFFADDB
:103AF000E3978381882309F0D4C1E396EEADFFAD4F
:103B0000E39782818823F9F4E396EEADFFADE39766
:103B10008281882309F0C5C1E396EEADFFADE3973E
:103B20008181882381F4E396EEADFFADE397818137
:103B3000882309F0B6C1E396EEADFFADE39780812F
:103B4000843608F4AEC1CE018F599F4FE5969FAFE2
:103B50008EAFE597E596EEADFFADE59787818823BB
:103B600009F09FC1E596EEADFFADE597878188230B
:103B700009F064C0E596EEADFFADE5978681882338
:103B800009F08FC1E596EEADFFADE59786818823FC
:103B900009F054C0E596EEADFFADE5978581882329
:103BA00009F07FC1E596EEADFFADE59785818823ED
:103BB00009F044C0E596EEADFFADE597848188231A
:103BC00009F06FC1E596EEADFFADE59784818823DE
:103BD000A9F5E596EEADFFADE5978381882309F061
:103BE00060C1E596EEADFFADE5978381882331F5A1
:103BF000E596EEADFFADE5978281882309F051C1CE
:103C0000E596EEADFFADE59782818823B9F4E596A0
:103C1000EEADFFADE5978181843008F042C1E596B5
:103C2000EEADFFADE5978181833041F4E596EEADD1
:103C3000FFADE5978081883E08F033C10F2EF9E58E
:103C40008F2E9924F02D8C0E9D1EFE01EF59FF4FF3
:103C5000A080B180C280D380E480F5800681178186
:103C60002A2D3B2D4C2D5D2D6E2D7F2D802F912FDC
:103C70000F2EF4E6AF2EF02DBB24CC24DD24EE2451
:103C8000FF2400E010E00E946D00A22EB32EC42E8F
:103C9000D52EE62EF72E082F192FF401A082F4015D
:103CA000B182F401C282F401D382F401E482F4010E
:103CB000F582F4010683F4011783FE01E759FF4FF3
:103CC000DE01A659BF4F80816C910E94E018FE0171
:103CD000E75AFF4F80810E942F1A0F2EF1E58F2E99
:103CE0009924F02D8C0E9D1EFE01EF59FF4FA080F0
:103CF000B180C280D380E480F580068117812A2DAF
:103D00003B2D4C2D5D2D6E2D7F2D802F912F0F2E55
:103D1000F4E6AF2EF02DBB24CC24DD24EE24FF24CA
:103D200000E010E00E94E206A22EB32EC42ED52E93
:103D3000E62EF72E082F192FF401A082F401B1828C
:103D4000F401C282F401D382F401E482F401F58229
:103D5000F4010683F40117830F2EF9E48F2E9924C2
:103D6000F02D8C0E9D1EFE01EF5AFF4FA080B180FA
:103D7000C280D380E480F580068117812A2D3B2DF7
:103D80004C2D5D2D6E2D7F2D802F912F0F2EFAE063
:103D9000AF2EF02DBB24CC24DD24EE24FF2400E044
:103DA00010E00E946D00A22EB32EC42ED52EE62E5A
:103DB000F72E082F192FF401A082F401B182F4012B
:103DC000C282F401D382F401E482F401F582F401A9
:103DD0000683F4011783FE01E659FF4F8081982F77
:103DE0009F5FFE01E759FF4F8081692F0E94E01815
:103DF000FE01E75BFF4F80810E942F1A0F2EF1E436
:103E00008F2E9924F02D8C0E9D1EFE01EF5AFF4F30
:103E1000A080B180C280D380E480F58006811781C4
:103E20002A2D3B2D4C2D5D2D6E2D7F2D802F912F1A
:103E30000F2EFAE0AF2EF02DBB24CC24DD24EE248F
:103E4000FF2400E010E00E94E206A22EB32EC42E52
:103E5000D52EE62EF72E082F192FF401A082F4019B
:103E6000B182F401C282F401D382F401E482F4014C
:103E7000F582F4010683F4011783FE01E659FF4F32
:103E80008081982F9E5FFE01E759FF4F8081692F47
:103E90000E94E018FE01EF5BFF4F80810E942F1A05
:103EA000A1C2CE018F599F4FE7969FAF8EAFE79784
:103EB000E796EEADFFADE7978781882309F06CC0E8
:103EC000E796EEADFFADE7978781882309F08AC2B8
:103ED000E796EEADFFADE7978681882309F05CC0D9
:103EE000E796EEADFFADE7978681882309F07AC2A9
:103EF000E796EEADFFADE7978581882309F04CC0CA
:103F0000E796EEADFFADE7978581882309F06AC299
:103F1000E796EEADFFADE79784818823E9F5E79654
:103F2000EEADFFADE7978481882309F05BC2E79689
:103F3000EEADFFADE7978381882371F5E796EEAD8F
:103F4000FFADE7978381882309F04CC2E796EEAD79
:103F5000FFADE79782818823F9F4E796EEADFFADD8
:103F6000E7978281882309F03DC2E796EEADFFAD69
:103F7000E7978181843080F4E796EEADFFADE79757
:103F80008181833009F02EC2E796EEADFFADE79751
:103F90008081883E08F426C2CE018F599F4FE99652
:103FA0009FAF8EAFE997E996EEADFFADE9978781B8
:103FB000882309F017C2E996EEADFFADE997878136
:103FC000882309F064C0E996EEADFFADE9978681DC
:103FD000882309F007C2E996EEADFFADE997868127
:103FE000882309F054C0E996EEADFFADE9978581CD
:103FF000882309F0F7C1E996EEADFFADE997858119
:10400000882309F044C0E996EEADFFADE9978481BD
:10401000882309F0E7C1E996EEADFFADE997848109
:104020008823A9F5E996EEADFFADE9978381882352
:1040300009F0D8C1E996EEADFFADE99783818823F9
:1040400031F5E996EEADFFADE9978281882309F05D
:10405000C9C1E996EEADFFADE99782818823B9F435
:10406000E996EEADFFADE9978181883208F0BAC1DB
:10407000E996EEADFFADE9978181873241F4E9968B
:10408000EEADFFADE9978081803108F0ABC10F2E16
:10409000F9E58F2E9924F02D8C0E9D1EFE01EF590F
:1040A000FF4FA080B180C280D380E480F58006817C
:1040B00017812A2D3B2D4C2D5D2D6E2D7F2D802FB0
:1040C000912F0F2EF8EEAF2EF02D0F2EF3E0BF2E16
:1040D000F02DCC24DD24EE24FF2400E010E00E942B
:1040E0006D00A22EB32EC42ED52EE62EF72E082F4D
:1040F000192FF401A082F401B182F401C282F4010B
:10410000D382F401E482F401F582F4010683F40120
:104110001783FE01E759FF4FDE01A659BF4F80818B
:104120006C910E94E018FE01E75AFF4F80810E94C7
:104130002F1A0F2EF1E58F2E9924F02D8C0E9D1E37
:10414000FE01EF59FF4FA080B180C280D380E48090
:10415000F580068117812A2D3B2D4C2D5D2D6E2D6E
:104160007F2D802F912F0F2EF8EEAF2EF02D0F2EDA
:10417000F3E0BF2EF02DCC24DD24EE24FF2400E05C
:1041800010E00E94E206A22EB32EC42ED52EE62EFB
:10419000F72E082F192FF401A082F401B182F40147
:1041A000C282F401D382F401E482F401F582F401C5
:1041B0000683F40117830F2EF9E48F2E9924F02D36
:1041C0008C0E9D1EFE01EF5AFF4FA080B180C28071
:1041D000D380E480F580068117812A2D3B2D4C2D5C
:1041E0005D2D6E2D7F2D802F912F0F2EF4E6AF2E9B
:1041F000F02DBB24CC24DD24EE24FF2400E010E0CD
:104200000E946D00A22EB32EC42ED52EE62EF72EC0
:10421000082F192FF401A082F401B182F401C282A7
:10422000F401D382F401E482F401F582F4010683FF
:10423000F4011783FE01E659FF4F8081982F9F5F9D
:10424000FE01E759FF4F8081692F0E94E018FE01AF
:10425000E75BFF4F80810E942F1AFE01EF5AFF4F4C
:10426000A080B180C280D380E480F5800681178170
:104270002A2D3B2D4C2D5D2D6E2D7F2D802F912FC6
:104280000F2EF4E6AF2EF02DBB24CC24DD24EE243B
:10429000FF2400E010E00E94E206A22EB32EC42EFE
:1042A000D52EE62EF72E082F192FA9AEBAAECBAE1B
:1042B000DCAEEDAEFEAE0FAFFE01E05CFF4F108353
:1042C0000F2EF1E48F2E9924F02D8C0E9D1EA9AC9B
:1042D000BAACCBACDCACEDACFEAC0FADFE01E05C3F
:1042E000FF4F10812A2D3B2D4C2D5D2D6E2D7F2DE6
:1042F000802F912F0F2EFAE0AF2EF02DBB24CC246F
:10430000DD24EE24FF2400E010E00E946D00A22EC8
:10431000B32EC42ED52EE62EF72E082F192FF4011A
:10432000A082F401B182F401C282F401D382F401CB
:10433000E482F401F582F4010683F4011783FE019F
:10434000E659FF4F8081982F9E5FFE01E759FF4F8E
:104350008081692F0E94E018FE01EF5BFF4F808192
:104360000E942F1AA9ACBAACCBACDCACEDACFEAC65
:104370000FADFE01E05CFF4F10812A2D3B2D4C2D2F
:104380005D2D6E2D7F2D802F912F0F2EFAE0AF2EF9
:10439000F02DBB24CC24DD24EE24FF2400E010E02B
:1043A0000E94E206A22EB32EC42ED52EE62EF72EA4
:1043B000082F192FA9A6BAA6CBA6DCA6EDA6FEA6A5
:1043C0000FA718ABFE01E659FF4F8081982F9D5F24
:1043D000FE01E759FF4F8081692F0E94E01889A5EF
:1043E0000E942F1AC858DF4F0FB6F894DEBF0FBED9
:1043F000CDBFCF91DF911F910F91FF90EF90DF9094
:10440000CF90BF90AF909F908F900895DF93CF9300
:10441000CDB7DEB7AAE2B0E0EAE2F0E080818860E2
:104420008C93AAE2B0E0EAE2F0E0808180618C93B4
:10443000AAE2B0E0EAE2F0E080818B7F8C93A0E416
:10444000B0E0E0E4F0E0808184608C93A0E4B0E030
:10445000E0E4F0E0808182608C93A0E4B0E0E0E4EE
:10446000F0E080818F7B8C93A0E4B0E0E0E4F0E0AA
:1044700080818F7D8C93A0E4B0E0E0E4F0E0808167
:104480008F7E8C93A0E4B0E0E0E4F0E08081877F51
:104490008C93E0E4F0E01082E9E2F0E08DE48083C8
:1044A000CF91DF910895DF93CF930F92CDB7DEB711
:1044B0008983EBE2F0E08081829586958770882F72
:1044C00090E0817090700097A1F3ECE2F0E08981B8
:1044D00080830F90CF91DF910895DF93CF93CDB775
:1044E000DEB7EBE2F0E080818823DCF7ECE2F0E07D
:1044F0008081CF91DF910895DF93CF9300D000D0DA
:1045000000D0CDB7DEB70E9445150E94062281E09B
:104510000E94D9171A8219821C821B828C818E8379
:1045200021C28B818D836AC11A82198206C00E94C2
:104530006D22882F90E09A83898389819A810097E0
:10454000B1F389819A818F37910509F057C08E8127
:10455000882399F48D81882381F481E08E8381E022
:104560008C838FE08D838FE08B838E816D810E94A1
:10457000E01880E20E94EE1645C18E81813089F4F8
:104580008D81882371F41E821C828FE08D838FE0E1
:104590008B838E816D810E94E01880E20E94EE166E
:1045A00031C18E81882391F48D81882379F01C821A
:1045B0008D8181508B838D81982F91508E81692FB1
:1045C0000E94E01880E20E94EE161CC18E818130AC
:1045D00009F018C18D81882309F414C181E08C830E
:1045E0008D8181508B838D81982F91508E81692F81
:1045F0000E94E01880E20E94EE1604C189819A812F
:104600008D309105B1F48E81882341F481E060E022
:104610000E94E01881E08C831B82F4C08E8181307F
:1046200009F0F0C080E060E00E94E0181C821B826C
:10463000E9C089819A818B35910529F089819A8118
:104640008234910559F589819A818234910509F066
:10465000D2C08E81882389F48E81282F2F5F8D818F
:10466000982F9350822F692F0E94E0188E818F5FC0
:104670008C838D8183508B83C5C08E81813009F0FE
:10468000BAC08D81982F93508E81692F0E94E018B7
:104690008E818C838D8183508B83B4C089819A8174
:1046A0008B35910529F089819A818134910559F5DD
:1046B00089819A818134910509F09DC08E8188237A
:1046C00069F48D81982F92508E81692F0E94E01895
:1046D0008E818C838D8182508B8394C08E818130BA
:1046E00009F089C08E81282F21508D81982F9350F9
:1046F000822F692F0E94E0188E8181508C838D81DA
:1047000083508B837FC089819A818B35910529F0F5
:1047100089819A818334910571F589819A818334E5
:10472000910509F068C08E81813051F48D818F3000
:1047300039F480E060E00E94E0181C821B8262C0B5
:104740008E81882359F48D818F3041F481E060E0BF
:104750000E94E01881E08C831B824DC08D81982FD0
:1047600091508E81692F0E94E0188E818C838D81FB
:1047700081508B8347C089819A818B35910529F0BF
:1047800089819A818434910579F589819A8184346B
:10479000910589F58E81813059F48D81882341F40A
:1047A00080E06FE00E94E0181C828FE08B832AC0BB
:1047B0008E81882361F48D81882349F481E06FE044
:1047C0000E94E01881E08C838FE08B8314C08D8180
:1047D000982F93508E81692F0E94E0188E818C83D0
:1047E0008D8183508B830EC08E816D810E94E01875
:1047F00089810E94EE168D818F5F8D838D8180313E
:1048000008F492CE89819A818F37910561F48C8169
:10481000823010F081E08C838B81803108F47ECE71
:104820008FE08B837BCE89819A818D30910561F4F5
:104830008C81823010F081E08C838B81803108F490
:104840006DCE8FE08B836ACE89819A818B31910501
:1048500061F48C81823010F081E08C838B81803117
:1048600008F45CCE8FE08B8359CE89819A818B3599
:10487000910529F089819A818234910591F4898189
:104880009A818234910509F06AC08C81823010F0DF
:1048900081E08C838B81803108F440CE8FE08B8364
:1048A0003DCE89819A818B35910529F089819A8144
:1048B0008134910591F489819A818134910509F0BF
:1048C0004EC08C81823010F081E08C838B818031EE
:1048D00008F424CE8FE08B8321CE89819A818B3599
:1048E000910529F089819A818334910589F4898120
:1048F0009A818334910599F58C81823010F081E0A2
:104900008C838B81803108F409CE8FE08B8306CEB7
:1049100089819A818B35910529F089819A81843426
:10492000910589F489819A8184349105C1F48C813F
:10493000823010F081E08C838B81803108F4EECDE1
:104940008FE08B83EBCD8C81823010F081E08C8303
:104950008B81803110F08FE08B831C821B828E81D3
:104960008F5F8E838E81823008F4DBCDD7CD629F3E
:10497000D001739FF001829FE00DF11D649FE00D57
:10498000F11D929FF00D839FF00D749FF00D659FB8
:10499000F00D9927729FB00DE11DF91F639FB00DB7
:1049A000E11DF91FBD01CF0111240895A1E21A2EC6
:1049B000AA1BBB1BFD010DC0AA1FBB1FEE1FFF1FC3
:1049C000A217B307E407F50720F0A21BB30BE40B13
:1049D000F50B661F771F881F991F1A9469F760955A
:1049E0007095809590959B01AC01BD01CF01089514
:1049F0002F923F924F925F926F927F928F929F92EF
:104A0000AF92BF92CF92DF92EF92FF920F931F93DC
:104A1000CF93DF93CDB7DEB7CA1BDB0B0FB6F8948D
:104A2000DEBF0FBECDBF09942A88398848885F84CD
:104A30006E847D848C849B84AA84B984C884DF803E
:104A4000EE80FD800C811B81AA81B981CE0FD11D22
:104A50000FB6F894DEBF0FBECDBFED010895F894F8
:024A6000FFCF86
:104A62000000000000000000000102020303030333
:104A720004040404040404040505050505050505EC
:104A820005050505050505050606060606060606CC
:104A920006060606060606060606060606060606B4
:104AA200060606060606060607070707070707079C
:104AB2000707070707070707070707070707070784
:104AC2000707070707070707070707070707070774
:104AD2000707070707070707070707070707070764
:104AE200070707070707070708080808080808084C
:104AF2000808080808080808080808080808080834
:104B02000808080808080808080808080808080823
:104B12000808080808080808080808080808080813
:104B22000808080808080808080808080808080803
:104B320008080808080808080808080808080808F3
:104B420008080808080808080808080808080808E3
:104B520008080808080808080808080808080808D3
:084B620008080808080808080B
:00000001FF
