:100000000C942A000C943F000C943F000C943F0089
:100010000C943F000C943F000C943F000C943F0064
:100020000C943F000C943F000C943F000C943F0054
:100030000C943F000C943F000C943F000C943F0044
:100040000C943F000C943F000C943F000C943F0034
:100050000C943F0011241FBECFE5D8E0DEBFCDBF1A
:1000600010E0A0E6B0E0E4E3FFE202C005900D92EC
:10007000AC39B107D9F70E9494130C9498170C94DB
:100080000000EF92FF920F931F937B018C0120E001
:1000900030E040E05FE40E94410388238CF0C80117
:1000A000B70120E030E040E05FE40E94B9010E9427
:1000B000A1039B01AC01205030404040504806C095
:1000C000C801B7010E94A1039B01AC01B901CA019B
:1000D0001F910F91FF90EF900895A0E0B0E0E3E74B
:1000E000F0E00C946117DC012B01FA019C91923035
:1000F00008F439C1EB018881823008F433C19430AF
:1001000069F4843009F02FC111969C91119789816F
:10011000981709F428C1A4E9B0E025C1843009F496
:1001200021C18230A9F4923009F01DC19A01AD01BC
:1001300088E0EA010990AE01E90109929E0181502F
:10014000C1F7E201898111969C918923818308C1BD
:10015000923009F407C112962D903C901397EB0151
:100160008A819B811496AD90BD90CD90DC901797BD
:10017000EC80FD800E811F819101281B390BB90194
:1001800037FF04C066277727621B730B6032710547
:100190000CF061C0121613066CF537014801062EEB
:1001A00004C096948794779467940A94D2F721E0D8
:1001B00030E040E050E004C0220F331F441F551FC1
:1001C0006A95D2F721503040404050402E213F21C7
:1001D00040235123211531054105510521F021E02E
:1001E00030E040E050E079018A01E628F72808294C
:1001F00019293CC0232BD1F1260E371E35014601AB
:10020000062E04C096948794779467940A94D2F744
:1002100021E030E040E050E004C0220F331F441FD3
:10022000551F6A95D2F721503040404050402A2156
:100230003B214C215D21211531054105510521F05E
:1002400021E030E040E050E059016A01A628B728DB
:10025000C828D9280BC0821593052CF01C01AA24AC
:10026000BB24650103C0EE24FF24870111969C91F5
:10027000D20111968C91981709F445C0992339F051
:10028000A80197012A193B094C095D0906C0A6017E
:1002900095012E193F09400B510B57FD08C01182E3
:1002A0003382228224833583468357831DC081E0B5
:1002B00081833382228288279927DC01821B930B5A
:1002C000A40BB50B84839583A683B7830DC0220F3F
:1002D000331F441F551F24833583468357838281F0
:1002E000938101979383828324813581468157814D
:1002F000DA01C9010197A109B1098F5F9F4FAF4F83
:10030000BF4328F30BC0918333822282EA0CFB1C8B
:100310000C1D1D1DE482F5820683178383E0808314
:10032000248135814681578157FF1AC0C901AA2708
:1003300097FDA095BA2F81709070A070B0705695FF
:10034000479537952795822B932BA42BB52B848328
:100350009583A683B7838281938101969383828359
:10036000DF0101C0D201CD01CDB7DEB7E2E10C94CF
:100370007D17A0E2B0E0EFEBF1E00C946D1769831C
:100380007A838B839C832D833E834F835887E9E058
:10039000EE2EF12CEC0EFD1ECE010196B7010E944F
:1003A000CA048E010F5E1F4FCE010596B8010E9450
:1003B000CA048A8991E089278A8BC701B801AE01F6
:1003C000475E5F4F0E946D000E94F503A096E6E035
:1003D0000C948917A0E2B0E0E0EFF1E00C946D1707
:1003E00069837A838B839C832D833E834F835887D5
:1003F000F9E0EF2EF12CEC0EFD1ECE010196B701B7
:100400000E94CA048E010F5E1F4FCE010596B801EF
:100410000E94CA04C701B801AE01475E5F4F0E9447
:100420006D000E94F503A096E6E00C948917A0E207
:10043000B0E0EDE1F2E00C94611769837A838B837D
:100440009C832D833E834F835887CE010196BE0146
:10045000675F7F4F0E94CA04CE010596BE016F5EA2
:100460007F4F0E94CA049985923088F08989823032
:10047000C8F0943019F4823051F404C0843029F467
:10048000923081F484E990E0C6C0923049F420E0D3
:100490009A858A89981321E02A87CE010996BBC0E4
:1004A000823049F420E09A858A89981321E02A8BCA
:1004B000CE014196B0C02D843E844F8458886D880B
:1004C0007E888F88988CEE24FF248701AA24BB2481
:1004D000650140E050E060E070E0E0E0F0E0C10184
:1004E00081709070892BE9F0E60CF71C081D191D2E
:1004F0009A01AB012A0D3B1D4C1D5D1D80E090E073
:10050000A0E0B0E0E614F7040805190520F481E046
:1005100090E0A0E0B0E0BA01A901480F591F6A1F9E
:100520007B1FAA0CBB1CCC1CDD1C97FE08C081E005
:1005300090E0A0E0B0E0A82AB92ACA2ADB2A3196C6
:10054000E032F10549F0660C771C881C991C569422
:10055000479437942794C3CFFA85EA892B893C893D
:100560008B859C85280F391F2E5F3F4F17C0CA010E
:1005700081709070892B61F016950795F794E79438
:1005800080E090E0A0E0B0E8E82AF92A0A2B1B2BD3
:1005900076956795579547952F5F3F4F77FDE7CF46
:1005A0000CC0440F551F661F771F17FD4160EE0CEE
:1005B000FF1C001F111F21503040403090E05907B0
:1005C00090E0690790E4790760F32B8F3C8FDB01A3
:1005D000CA018F779070A070B07080349105A1052A
:1005E000B10561F447FD0AC0E114F10401051105EC
:1005F00029F0405C5F4F6F4F7F4F40781A8EFE1797
:1006000011F081E08A8F4D8F5E8F6F8F78A383E02A
:10061000898FCE0149960E94F503A096E2E10C94E1
:100620007D17A8E1B0E0E7E1F3E00C946D17698372
:100630007A838B839C832D833E834F83588789E005
:10064000E82EF12CEC0EFD1ECE010196B7010E94A2
:10065000CA048E010F5E1F4FCE010596B8010E949D
:10066000CA048985823040F08989823028F0C70128
:10067000B8010E94420501C08FEF6896E6E00C9435
:100680008917A8E1B0E0E7E4F3E00C946D17698303
:100690007A838B839C832D833E834F83588789E0A5
:1006A000E82EF12CEC0EFD1ECE010196B7010E9442
:1006B000CA048E010F5E1F4FCE010596B8010E943D
:1006C000CA048985823040F08989823028F0C701C8
:1006D000B8010E94420501C08FEF6896E6E00C94D5
:1006E0008917A8E1B0E0E7E7F3E00C946D176983A0
:1006F0007A838B839C832D833E834F83588789E045
:10070000E82EF12CEC0EFD1ECE010196B7010E94E1
:10071000CA048E010F5E1F4FCE010596B8010E94DC
:10072000CA048985823040F08989823028F0C70167
:10073000B8010E94420501C081E06896E6E00C9491
:100740008917ACE0B0E0E7EAF3E00C947117698335
:100750007A838B839C83CE010196BE016B5F7F4FB2
:100760000E94CA048D81823061F1823050F1843060
:1007700021F48E81882351F12EC02F81388537FDD9
:1007800020C06E812F3131051CF06623F9F023C0A3
:100790008EE190E0821B930B29853A854B855C8521
:1007A00004C056954795379527958A95D2F76623C5
:1007B000B1F050954095309521953F4F4F4F5F4F89
:1007C0000EC020E030E040E050E009C02FEF3FEFE6
:1007D0004FEF5FE704C020E030E040E050E8B901AF
:1007E000CA012C96E2E00C948D17DF92EF92FF92F3
:1007F0000F931F93FC01E480F58006811781D1805F
:100800008081823048F480E090E0A0E1B0E0E82A06
:10081000F92A0A2B1B2BA5C0843009F49FC0823013
:1008200021F4EE24FF24870105C0E114F104010541
:10083000110519F4E0E0F0E096C0628173819FEF4A
:10084000623879070CF05BC022E83FEF261B370BBC
:100850002A3131052CF020E030E040E050E02AC0A1
:10086000B801A701022E04C0769567955795479564
:100870000A94D2F781E090E0A0E0B0E004C0880FD5
:10088000991FAA1FBB1F2A95D2F70197A109B10989
:100890008E219F21A023B1230097A105B10521F04E
:1008A00081E090E0A0E0B0E09A01AB01282B392B69
:1008B0004A2B5B2BDA01C9018F779070A070B07062
:1008C00080349105A105B10539F427FF09C0205CEA
:1008D0003F4F4F4F5F4F04C0215C3F4F4F4F5F4F23
:1008E000E0E0F0E02030A0E03A07A0E04A07A0E412
:1008F0005A0710F0E1E0F0E079018A0127C0603882
:10090000710564F5FB01E158FF4FD801C7018F77EE
:100910009070A070B07080349105A105B10539F4D4
:10092000E7FE0DC080E490E0A0E0B0E004C08FE3FB
:1009300090E0A0E0B0E0E80EF91E0A1F1B1F17FFB1
:1009400005C016950795F794E794319687E01695BC
:100950000795F794E7948A95D1F705C0EE24FF2414
:100960008701EFEFF0E06E2F679566276795902F70
:100970009F77D794DD24D7948E2F8695492F462BC9
:10098000582F5D29B701CA011F910F91FF90EF9079
:10099000DF900895FC01DB01408151812281622FAB
:1009A0006F7770E0221F2227221F9381892F880FE3
:1009B000822B282F30E0991F9927991F11969C931D
:1009C000119721153105A9F54115510561057105ED
:1009D00011F482E037C082E89FEF13969C938E93C8
:1009E00012979A01AB0167E0220F331F441F551F76
:1009F0006A95D1F783E08C930DC0220F331F441FFB
:100A0000551F12968D919C911397019713969C9365
:100A10008E931297203080E0380780E0480780E40A
:100A2000580758F314962D933D934D935C93179765
:100A300008952F3F310579F4411551056105710580
:100A400019F484E08C93089564FF03C081E08C93D3
:100A500012C01C9210C02F57304013963C932E9317
:100A6000129783E08C9387E0440F551F661F771F12
:100A70008A95D1F7706414964D935D936D937C9332
:100A8000179708951F93DC01FB019C91923008F4A5
:100A900047C08081823008F443C0943051F41196ED
:100AA0001C91843099F58181682F70E0611B710978
:100AB0003FC0843021F0923031F48230B9F181812D
:100AC000882389F12DC011961C9111978230F1F085
:100AD00081811817D9F412962D913C911397828138
:100AE00093818217930794F028173907BCF0149666
:100AF0008D919D910D90BC91A02D248135814681D1
:100B00005781281739074A075B0718F4112341F06A
:100B10000AC082179307A407B50740F4112319F000
:100B200061E070E005C06FEF7FEF02C060E070E051
:100B3000CB011F910895DF93CF9300D000D0CDB7A4
:100B4000DEB79A8389837C836B838B819C8100973A
:100B500009F0A0C189819A81009741F4ABE3B0E02C
:100B6000EBE3F0E080818E7F8C9332C389819A81A0
:100B70008130910541F4ABE3B0E0EBE3F0E080813C
:100B80008D7F8C9325C389819A818230910541F4B0
:100B9000ABE3B0E0EBE3F0E080818B7F8C9318C394
:100BA00089819A818330910541F4ABE3B0E0EBE3B6
:100BB000F0E08081877F8C930BC389819A81843098
:100BC000910541F4ABE3B0E0EBE3F0E080818F7E90
:100BD0008C93FEC289819A818530910541F4ABE303
:100BE000B0E0EBE3F0E080818F7D8C93F1C28981EE
:100BF0009A818630910541F4ABE3B0E0EBE3F0E09D
:100C000080818F7B8C93E4C289819A8187309105A2
:100C100041F4ABE3B0E0EBE3F0E080818F778C93BD
:100C2000D7C289819A818A30910541F4A8E3B0E066
:100C3000E8E3F0E080818E7F8C93CAC289819A813B
:100C40008B30910541F4A8E3B0E0E8E3F0E0808167
:100C50008D7F8C93BDC289819A818C30910541F43E
:100C6000A8E3B0E0E8E3F0E080818B7F8C93B0C232
:100C700089819A818D30910541F4A8E3B0E0E8E3E1
:100C8000F0E08081877F8C93A3C289819A818E3026
:100C9000910541F4A8E3B0E0E8E3F0E080818F7EC5
:100CA0008C9396C289819A818F30910541F4A8E393
:100CB000B0E0E8E3F0E080818F7D8C9389C2898188
:100CC0009A818031910541F4A8E3B0E0E8E3F0E0D7
:100CD00080818F7B8C937CC289819A81813191053F
:100CE00041F4A8E3B0E0E8E3F0E080818F778C93F3
:100CF0006FC289819A818431910541F4A5E3B0E006
:100D0000E5E3F0E080818E7F8C9362C289819A81D5
:100D10008531910541F4A5E3B0E0E5E3F0E08081A1
:100D20008D7F8C9355C289819A818631910541F4DA
:100D3000A5E3B0E0E5E3F0E080818B7F8C9348C2CF
:100D400089819A818731910541F4A5E3B0E0E5E31B
:100D5000F0E08081877F8C933BC289819A818831C2
:100D6000910541F4A5E3B0E0E5E3F0E080818F7EFA
:100D70008C932EC289819A818931910541F4A5E332
:100D8000B0E0E5E3F0E080818F7D8C9321C2898122
:100D90009A818A31910541F4A5E3B0E0E5E3F0E002
:100DA00080818F7B8C9314C289819A818B319105CC
:100DB00041F4A5E3B0E0E5E3F0E080818F778C9328
:100DC00007C289819A818E31910541F4A2E3B0E096
:100DD000E2E3F0E080818E7F8C93FAC189819A8171
:100DE0008F31910541F4A2E3B0E0E2E3F0E08081CD
:100DF0008D7F8C93EDC189819A818032910541F478
:100E0000A2E3B0E0E2E3F0E080818B7F8C93E0C16D
:100E100089819A818132910541F4A2E3B0E0E2E355
:100E2000F0E08081877F8C93D3C189819A8182325F
:100E3000910541F4A2E3B0E0E2E3F0E080818F7E2F
:100E40008C93C6C189819A818332910541F4A2E3D2
:100E5000B0E0E2E3F0E080818F7D8C93B9C18981BD
:100E60009A818432910541F4A2E3B0E0E2E3F0E03C
:100E700080818F7B8C93ACC189819A818532910569
:100E800009F0A6C1A2E3B0E0E2E3F0E080818F7751
:100E90008C939EC189819A81009741F4ABE3B0E0C5
:100EA000EBE3F0E0808181608C9392C189819A812B
:100EB0008130910541F4ABE3B0E0EBE3F0E08081F9
:100EC00082608C9385C189819A818230910541F439
:100ED000ABE3B0E0EBE3F0E0808184608C9378C119
:100EE00089819A818330910541F4ABE3B0E0EBE373
:100EF000F0E0808188608C936BC189819A81843015
:100F0000910541F4ABE3B0E0EBE3F0E08081806178
:100F10008C935EC189819A818530910541F4ABE360
:100F2000B0E0EBE3F0E0808180628C9351C1898175
:100F30009A818630910541F4ABE3B0E0EBE3F0E059
:100F4000808180648C9344C189819A818730910526
:100F500041F4ABE3B0E0EBE3F0E0808180688C9398
:100F600037C189819A818A30910541F4A8E3B0E0C4
:100F7000E8E3F0E0808181608C932AC189819A81C5
:100F80008B30910541F4A8E3B0E0E8E3F0E0808124
:100F900082608C931DC189819A818C30910541F4C6
:100FA000A8E3B0E0E8E3F0E0808184608C9310C1B6
:100FB00089819A818D30910541F4A8E3B0E0E8E39E
:100FC000F0E0808188608C9303C189819A818E30A2
:100FD000910541F4A8E3B0E0E8E3F0E080818061AE
:100FE0008C93F6C089819A818F30910541F4A8E3F2
:100FF000B0E0E8E3F0E0808180628C93E9C0898111
:101000009A818031910541F4A8E3B0E0E8E3F0E093
:10101000808180648C93DCC089819A8181319105C3
:1010200041F4A8E3B0E0E8E3F0E0808180688C93CD
:10103000CFC089819A818431910541F4A5E3B0E064
:10104000E5E3F0E0808181608C93C2C089819A8160
:101050008531910541F4A5E3B0E0E5E3F0E080815E
:1010600082608C93B5C089819A818631910541F463
:10107000A5E3B0E0E5E3F0E0808184608C93A8C054
:1010800089819A818731910541F4A5E3B0E0E5E3D8
:10109000F0E0808188608C939BC089819A8188313F
:1010A000910541F4A5E3B0E0E5E3F0E080818061E3
:1010B0008C938EC089819A818931910541F4A5E391
:1010C000B0E0E5E3F0E0808180628C9381C08981AB
:1010D0009A818A31910541F4A5E3B0E0E5E3F0E0BF
:1010E000808180648C9374C089819A818B31910551
:1010F00041F4A5E3B0E0E5E3F0E0808180688C9303
:1011000067C089819A818E31910541F4A2E3B0E0F4
:10111000E2E3F0E0808181608C935AC089819A81FA
:101120008F31910541F4A2E3B0E0E2E3F0E0808189
:1011300082608C934DC089819A818032910541F4FF
:10114000A2E3B0E0E2E3F0E0808184608C9340C0F1
:1011500089819A818132910541F4A2E3B0E0E2E312
:10116000F0E0808188608C9333C089819A818232DB
:10117000910541F4A2E3B0E0E2E3F0E08081806118
:101180008C9326C089819A818332910541F4A2E330
:10119000B0E0E2E3F0E0808180628C9319C0898145
:1011A0009A818432910541F4A2E3B0E0E2E3F0E0F9
:1011B000808180648C930CC089819A8185329105ED
:1011C00039F4A2E3B0E0E2E3F0E0808180688C9340
:1011D0000F900F900F900F90CF91DF910895DF93B4
:1011E000CF930F92CDB7DEB789838981882F90E0A6
:1011F00081709070882339F08EE190E061E070E0BA
:101200000E949B0506C08EE190E060E070E00E94C5
:101210009B058981882F90E082709070009739F04B
:101220008FE190E061E070E00E949B0506C08FE1D5
:1012300090E060E070E00E949B058981882F90E03B
:1012400084709070009739F080E290E061E070E087
:101250000E949B0506C080E290E060E070E00E9482
:101260009B058981882F90E088709070009739F0F5
:1012700081E290E061E070E00E949B0506C081E29F
:1012800090E060E070E00E949B058981882F90E0EB
:1012900080719070009739F082E290E061E070E038
:1012A0000E949B0506C082E290E060E070E00E9430
:1012B0009B058981882F90E080729070009739F0AB
:1012C00083E290E061E070E00E949B0506C083E24B
:1012D00090E060E070E00E949B058981882F90E09B
:1012E00080749070009739F084E290E061E070E0E3
:1012F0000E949B0506C084E290E060E070E00E94DE
:101300009B05898188233CF485E290E061E070E0F0
:101310000E949B0506C085E290E060E070E00E94BC
:101320009B050F90CF91DF910895DF93CF93CDB7B9
:10133000DEB76D970FB6F894DEBF0FBECDBF8D8FB1
:101340008AE190E060E070E00E949B058D8D0E9434
:10135000EF088BE190E061E070E00E949B0580E087
:1013600090E0A0E8BFE3898F9A8FAB8FBC8F698D27
:101370007A8D8B8D9C8D20E030E84BE355E40E9404
:101380001702DC01CB018D8B9E8BAF8BB88F6D89E3
:101390007E898F89988D20E030E040E85FE30E94ED
:1013A000710388232CF481E090E09C8B8B8B3FC0F1
:1013B0006D897E898F89988D20E03FEF4FE757E454
:1013C0000E94110318164CF5698D7A8D8B8D9C8DBA
:1013D00020E030E040E251E40E941702DC01CB0142
:1013E000BC01CD010E944100DC01CB019C8B8B8BA9
:1013F0000FC08CE291E09A8B898B89899A89019739
:10140000F1F79A8B898B8B899C8901979C8B8B8BAD
:101410008B899C89009769F714C06D897E898F89B3
:10142000988D0E944100DC01CB019C8B8B8B8B89BA
:101430009C89988B8F878F8598890197F1F7988B76
:101440008F878BE190E060E070E00E949B0580E078
:1014500090E0A0E8BFE38B879C87AD87BE876B8554
:101460007C858D859E8520E030E84BE355E40E9425
:101470001702DC01CB018F839887A987BA876F8118
:10148000788589859A8520E030E040E85FE30E9416
:10149000710388232CF481E090E09E838D833FC00C
:1014A0006F81788589859A8520E03FEF4FE757E483
:1014B0000E94110318164CF56B857C858D859E85E1
:1014C00020E030E040E251E40E941702DC01CB0151
:1014D000BC01CD010E944100DC01CB019E838D83C4
:1014E0000FC08CE291E09C838B838B819C81019760
:1014F000F1F79C838B838D819E8101979E838D83E1
:101500008D819E81009769F714C06F8178858985E8
:101510009A850E944100DC01CB019E838D838D81E1
:101520009E819A83898389819A810197F1F79A83B1
:1015300089836D960FB6F894DEBF0FBECDBFCF91F5
:10154000DF910895DF93CF93CDB7DEB781E00E949E
:101550009509CF91DF910895DF93CF9300D0CDB758
:10156000DEB789836A838981813029F48A81805832
:101570000E94950907C08981823021F48A818054B4
:101580000E9495090F900F90CF91DF910895DF93FE
:10159000CF93CDB7DEB7E8970FB6F894DEBF0FBE96
:1015A000CDBF8AE190E060E070E00E949B058BE196
:1015B00090E060E070E00E949B0580E090E0A0EA8F
:1015C000B1E48DAB9EABAFABB8AF6DA97EA98FA9CF
:1015D00098AD20E030E84BE355E40E941702DC01AF
:1015E000CB0189AB9AABABABBCAB69A97AA98BA990
:1015F0009CA920E030E040E85FE30E94710388236B
:101600002CF481E090E098AB8FA73FC069A97AA93C
:101610008BA99CA920E03FEF4FE757E40E941103FC
:1016200018164CF56DA97EA98FA998AD20E030E081
:1016300040E251E40E941702DC01CB01BC01CD0164
:101640000E944100DC01CB0198AB8FA70FC08CE258
:1016500091E09EA78DA78DA59EA50197F1F79EA766
:101660008DA78FA598A9019798AB8FA78FA598A94B
:10167000009769F714C069A97AA98BA99CA90E944F
:101680004100DC01CB0198AB8FA78FA598A99CA73F
:101690008BA78BA59CA50197F1F79CA78BA780E34F
:1016A0000E94950980E090E0A0EAB0E48FA398A79B
:1016B000A9A7BAA76FA178A589A59AA520E030E8C7
:1016C0004BE355E40E941702DC01CB018BA39CA3E2
:1016D000ADA3BEA36BA17CA18DA19EA120E030E0B3
:1016E00040E85FE30E94710388232CF481E090E0DE
:1016F0009AA389A33FC06BA17CA18DA19EA120E0EC
:101700003FEF4FE757E40E94110318164CF56FA105
:1017100078A589A59AA520E030E040E251E40E9436
:101720001702DC01CB01BC01CD010E944100DC01AC
:10173000CB019AA389A30FC08CE291E098A38F8F6D
:101740008F8D98A10197F1F798A38F8F89A19AA106
:1017500001979AA389A389A19AA1009769F714C058
:101760006BA17CA18DA19EA10E944100DC01CB0157
:101770009AA389A389A19AA19E8F8D8F8D8D9E8D0D
:101780000197F1F79E8F8D8F80E30E94950980E08D
:1017900090E0A0E8BFE3898F9A8FAB8FBC8F698DF3
:1017A0007A8D8B8D9C8D20E030E84BE355E40E94D0
:1017B0001702DC01CB018D8B9E8BAF8BB88F6D89AF
:1017C0007E898F89988D20E030E040E85FE30E94B9
:1017D000710388232CF481E090E09C8B8B8B3FC0BD
:1017E0006D897E898F89988D20E03FEF4FE757E420
:1017F0000E94110318164CF5698D7A8D8B8D9C8D86
:1018000020E030E040E251E40E941702DC01CB010D
:10181000BC01CD010E944100DC01CB019C8B8B8B74
:101820000FC08CE291E09A8B898B89899A89019704
:10183000F1F79A8B898B8B899C8901979C8B8B8B79
:101840008B899C89009769F714C06D897E898F897F
:10185000988D0E944100DC01CB019C8B8B8B8B8986
:101860009C89988B8F878F8598890197F1F7988B42
:101870008F8780E30E94950980E090E0A0E2B1E4C8
:101880008B879C87AD87BE876B857C858D859E8584
:1018900020E030E84BE355E40E941702DC01CB0165
:1018A0008F839887A987BA876F81788589859A857C
:1018B00020E030E040E85FE30E94710388232CF4CD
:1018C00081E090E09E838D833FC06F81788589851C
:1018D0009A8520E03FEF4FE757E40E941103181666
:1018E0004CF56B857C858D859E8520E030E040E25F
:1018F00051E40E941702DC01CB01BC01CD010E9422
:101900004100DC01CB019E838D830FC08CE291E00E
:101910009C838B838B819C810197F1F79C838B83C4
:101920008D819E8101979E838D838D819E810097FD
:1019300069F714C06F81788589859A850E94410076
:10194000DC01CB019E838D838D819E819A83898367
:1019500089819A810197F1F79A83898388E30E94AC
:1019600095098CE00E94950981E00E94950986E026
:101970000E949509E8960FB6F894DEBF0FBECDBF62
:10198000CF91DF910895DF93CF93CDB7DEB76D97F9
:101990000FB6F894DEBF0FBECDBF8D8F8AE190E009
:1019A00061E070E00E949B058D8D0E94EF088BE145
:1019B00090E061E070E00E949B0580E090E0A0E88C
:1019C000BFE3898F9A8FAB8FBC8F698D7A8D8B8D9A
:1019D0009C8D20E030E84BE355E40E941702DC01C7
:1019E000CB018D8B9E8BAF8BB88F6D897E898F8954
:1019F000988D20E030E040E85FE30E947103882387
:101A00002CF481E090E09C8B8B8B3FC06D897E89AC
:101A10008F89988D20E03FEF4FE757E40E94110334
:101A200018164CF5698D7A8D8B8D9C8D20E030E0F9
:101A300040E251E40E941702DC01CB01BC01CD0160
:101A40000E944100DC01CB019C8B8B8B0FC08CE290
:101A500091E09A8B898B89899A890197F1F79A8B02
:101A6000898B8B899C8901979C8B8B8B8B899C891B
:101A7000009769F714C06D897E898F89988D0E94BF
:101A80004100DC01CB019C8B8B8B8B899C89988BD3
:101A90008F878F8598890197F1F7988B8F878BE1D6
:101AA00090E060E070E00E949B0580E090E0A0E89C
:101AB000BFE38B879C87AD87BE876B857C858D85D3
:101AC0009E8520E030E84BE355E40E941702DC01DC
:101AD000CB018F839887A987BA876F81788589859D
:101AE0009A8520E030E040E85FE30E94710388239C
:101AF0002CF481E090E09E838D833FC06F817885D8
:101B000089859A8520E03FEF4FE757E40E94110353
:101B100018164CF56B857C858D859E8520E030E020
:101B200040E251E40E941702DC01CB01BC01CD016F
:101B30000E944100DC01CB019E838D830FC08CE2AB
:101B400091E09C838B838B819C810197F1F79C832F
:101B50008B838D819E8101979E838D838D819E8154
:101B6000009769F714C06F81788589859A850E94EE
:101B70004100DC01CB019E838D838D819E819A8300
:101B8000898389819A810197F1F79A8389836D9678
:101B90000FB6F894DEBF0FBECDBFCF91DF91089591
:101BA000DF93CF9300D000D0CDB7DEB79C838B837B
:101BB0001A8219820FC029813A818B819C81FC0194
:101BC000E20FF31F80810E94C30C89819A810196E4
:101BD0009A83898329813A818B819C81FC01E20F60
:101BE000F31F8081882339F70F900F900F900F908B
:101BF000CF91DF910895DF93CF93CDB7DEB78CE11E
:101C00000E949509CF91DF910895DF93CF93CDB7CF
:101C1000DEB788E10E949509CF91DF910895DF93A7
:101C2000CF930F92CDB7DEB789838981882F90E05B
:101C300081709070882339F082E290E061E070E07A
:101C40000E949B0506C082E290E060E070E00E9486
:101C50009B058981882F90E082709070009739F001
:101C600083E290E061E070E00E949B0506C083E2A1
:101C700090E060E070E00E949B058981882F90E0F1
:101C800084709070009739F084E290E061E070E039
:101C90000E949B0506C084E290E060E070E00E9434
:101CA0009B058981882F90E088709070009739F0AB
:101CB00085E290E061E070E00E949B0506C085E24D
:101CC00090E060E070E00E949B050F90CF91DF9163
:101CD0000895DF93CF93CDB7DEB76D970FB6F89425
:101CE000DEBF0FBECDBF8D8F8AE190E060E070E077
:101CF0000E949B058D8D0E940F0E8BE190E061E0AC
:101D000070E00E949B0580E090E0A0E8BFE3898F2F
:101D10009A8FAB8FBC8F698D7A8D8B8D9C8D20E0D7
:101D200030E84BE355E40E941702DC01CB018D8BB8
:101D30009E8BAF8BB88F6D897E898F89988D20E0BF
:101D400030E040E85FE30E94710388232CF481E0D7
:101D500090E09C8B8B8B3FC06D897E898F89988D9D
:101D600020E03FEF4FE757E40E94110318164CF5AF
:101D7000698D7A8D8B8D9C8D20E030E040E251E4BE
:101D80000E941702DC01CB01BC01CD010E94410081
:101D9000DC01CB019C8B8B8B0FC08CE291E09A8B8A
:101DA000898B89899A890197F1F79A8B898B8B891D
:101DB0009C8901979C8B8B8B8B899C89009769F7F9
:101DC00014C06D897E898F89988D0E944100DC0145
:101DD000CB019C8B8B8B8B899C89988B8F878F8574
:101DE00098890197F1F7988B8F878BE190E060E0FD
:101DF00070E00E949B0580E090E0A0E8BFE38B8745
:101E00009C87AD87BE876B857C858D859E8520E010
:101E100030E84BE355E40E941702DC01CB018F83CD
:101E20009887A987BA876F81788589859A8520E008
:101E300030E040E85FE30E94710388232CF481E0E6
:101E400090E09E838D833FC06F81788589859A85D8
:101E500020E03FEF4FE757E40E94110318164CF5BE
:101E60006B857C858D859E8520E030E040E251E4E5
:101E70000E941702DC01CB01BC01CD010E94410090
:101E8000DC01CB019E838D830FC08CE291E09C83AB
:101E90008B838B819C810197F1F79C838B838D8150
:101EA0009E8101979E838D838D819E81009769F726
:101EB00014C06F81788589859A850E944100DC0174
:101EC000CB019E838D838D819E819A8389838981B5
:101ED0009A810197F1F79A8389836D960FB6F894EA
:101EE000DEBF0FBECDBFCF91DF910895DF93CF93BB
:101EF000CDB7DEB780E00E94690E81E00E94690ED6
:101F0000CF91DF910895DF93CF9300D000D00F924F
:101F1000CDB7DEB78C836D838C81813091F48D8158
:101F200080588B838B8182958F708A838D818058B6
:101F30008F7089838A810E94690E89810E94690E4F
:101F400014C08C81823089F48D8180548B838B8185
:101F500082958F708A838D8180548F7089838A8166
:101F60000E94690E89810E94690E0F900F900F9058
:101F70000F900F90CF91DF910895DF93CF93CDB75E
:101F8000DEB7AA970FB6F894DEBF0FBECDBF80E0D4
:101F90000E940F0E80E090E0A0EAB1E48FA398A722
:101FA000A9A7BAA76FA178A589A59AA520E030E8CE
:101FB0004BE355E40E941702DC01CB018BA39CA3E9
:101FC000ADA3BEA36BA17CA18DA19EA120E030E0BA
:101FD00040E85FE30E94710388232CF481E090E0E5
:101FE0009AA389A33FC06BA17CA18DA19EA120E0F3
:101FF0003FEF4FE757E40E94110318164CF56FA10D
:1020000078A589A59AA520E030E040E251E40E943D
:102010001702DC01CB01BC01CD010E944100DC01B3
:10202000CB019AA389A30FC08CE291E098A38F8F74
:102030008F8D98A10197F1F798A38F8F89A19AA10D
:1020400001979AA389A389A19AA1009769F714C05F
:102050006BA17CA18DA19EA10E944100DC01CB015E
:102060009AA389A389A19AA19E8F8D8F8D8D9E8D14
:102070000197F1F79E8F8D8F83E00E94690E80E0BB
:1020800090E0A0EAB0E4898F9A8FAB8FBC8F698D06
:102090007A8D8B8D9C8D20E030E84BE355E40E94D7
:1020A0001702DC01CB018D8B9E8BAF8BB88F6D89B6
:1020B0007E898F89988D20E030E040E85FE30E94C0
:1020C000710388232CF481E090E09C8B8B8B3FC0C4
:1020D0006D897E898F89988D20E03FEF4FE757E427
:1020E0000E94110318164CF5698D7A8D8B8D9C8D8D
:1020F00020E030E040E251E40E941702DC01CB0115
:10210000BC01CD010E944100DC01CB019C8B8B8B7B
:102110000FC08CE291E09A8B898B89899A8901970B
:10212000F1F79A8B898B8B899C8901979C8B8B8B80
:102130008B899C89009769F714C06D897E898F8986
:10214000988D0E944100DC01CB019C8B8B8B8B898D
:102150009C89988B8F878F8598890197F1F7988B49
:102160008F8783E00E94690E80E090E0A0E3B1E4F5
:102170008B879C87AD87BE876B857C858D859E858B
:1021800020E030E84BE355E40E941702DC01CB016C
:102190008F839887A987BA876F81788589859A8583
:1021A00020E030E040E85FE30E94710388232CF4D4
:1021B00081E090E09E838D833FC06F817885898523
:1021C0009A8520E03FEF4FE757E40E94110318166D
:1021D0004CF56B857C858D859E8520E030E040E266
:1021E00051E40E941702DC01CB01BC01CD010E9429
:1021F0004100DC01CB019E838D830FC08CE291E016
:102200009C838B838B819C810197F1F79C838B83CB
:102210008D819E8101979E838D838D819E81009704
:1022200069F714C06F81788589859A850E9441007D
:10223000DC01CB019E838D838D819E819A8389836E
:1022400089819A810197F1F79A83898383E00E94BB
:10225000690E82E00E94690E82E00E94690E88E0A9
:102260000E94690E80E00E94690E8CE00E94690E57
:1022700080E00E94690E86E00E94690EAA960FB661
:10228000F894DEBF0FBECDBFCF91DF910895DF93ED
:10229000CF93CDB7DEB7EB970FB6F894DEBF0FBE86
:1022A000CDBF8BAF8BAD8F708AAF8BAD807F89AF89
:1022B0008AE190E061E070E00E949B0589AD829523
:1022C0008F700E940F0E8BE190E061E070E00E9441
:1022D0009B0580E090E0A0E8BFE38DAB9EABAFAB89
:1022E000B8AF6DA97EA98FA998AD20E030E84BE387
:1022F00055E40E941702DC01CB0189AB9AABABAB72
:10230000BCAB69A97AA98BA99CA920E030E040E880
:102310005FE30E94710388232CF481E090E098AB86
:102320008FA73FC069A97AA98BA99CA920E03FEF9C
:102330004FE757E40E94110318164CF56DA97EA9CA
:102340008FA998AD20E030E040E251E40E941702EE
:10235000DC01CB01BC01CD010E944100DC01CB01BD
:1023600098AB8FA70FC08CE291E09EA78DA78DA59B
:102370009EA50197F1F79EA78DA78FA598A9019714
:1023800098AB8FA78FA598A9009769F714C069A982
:102390007AA98BA99CA90E944100DC01CB0198ABD2
:1023A0008FA78FA598A99CA78BA78BA59CA5019704
:1023B000F1F79CA78BA78BE190E060E070E00E94B2
:1023C0009B0580E090E0A0E8BFE38FA398A7A9A7B2
:1023D000BAA76FA178A589A59AA520E030E84BE3BC
:1023E00055E40E941702DC01CB018BA39CA3ADA393
:1023F000BEA36BA17CA18DA19EA120E030E040E8AE
:102400005FE30E94710388232CF481E090E09AA39B
:1024100089A33FC06BA17CA18DA19EA120E03FEFCD
:102420004FE757E40E94110318164CF56FA178A5E9
:1024300089A59AA520E030E040E251E40E9417020D
:10244000DC01CB01BC01CD010E944100DC01CB01CC
:102450009AA389A30FC08CE291E098A38F8F8F8DF0
:1024600098A10197F1F798A38F8F89A19AA101975D
:102470009AA389A389A19AA1009769F714C06BA1B7
:102480007CA18DA19EA10E944100DC01CB019AA3F9
:1024900089A389A19AA19E8F8D8F8D8D9E8D019785
:1024A000F1F79E8F8D8F8AAD0E940F0E8BE190E029
:1024B00061E070E00E949B0580E090E0A0E8BFE34F
:1024C000898F9A8FAB8FBC8F698D7A8D8B8D9C8D08
:1024D00020E030E84BE355E40E941702DC01CB0119
:1024E0008D8B9E8BAF8BB88F6D897E898F89988DF0
:1024F00020E030E040E85FE30E94710388232CF481
:1025000081E090E09C8B8B8B3FC06D897E898F89A9
:10251000988D20E03FEF4FE757E40E941103181613
:102520004CF5698D7A8D8B8D9C8D20E030E040E2FA
:1025300051E40E941702DC01CB01BC01CD010E94D5
:102540004100DC01CB019C8B8B8B0FC08CE291E0B6
:102550009A8B898B89899A890197F1F79A8B898B54
:102560008B899C8901979C8B8B8B8B899C8900978D
:1025700069F714C06D897E898F89988D0E9441000A
:10258000DC01CB019C8B8B8B8B899C89988B8F87F3
:102590008F8598890197F1F7988B8F878BE190E071
:1025A00060E070E00E949B0580E090E0A0E8BFE35F
:1025B0008B879C87AD87BE876B857C858D859E8547
:1025C00020E030E84BE355E40E941702DC01CB0128
:1025D0008F839887A987BA876F81788589859A853F
:1025E00020E030E040E85FE30E94710388232CF490
:1025F00081E090E09E838D833FC06F8178858985DF
:102600009A8520E03FEF4FE757E40E941103181628
:102610004CF56B857C858D859E8520E030E040E221
:1026200051E40E941702DC01CB01BC01CD010E94E4
:102630004100DC01CB019E838D830FC08CE291E0D1
:102640009C838B838B819C810197F1F79C838B8387
:102650008D819E8101979E838D838D819E810097C0
:1026600069F714C06F81788589859A850E94410039
:10267000DC01CB019E838D838D819E819A8389832A
:1026800089819A810197F1F79A838983EB960FB636
:10269000F894DEBF0FBECDBFCF91DF910895DF93D9
:1026A000CF9300D000D0CDB7DEB79C838B831A8246
:1026B00019820FC029813A818B819C81FC01E20F34
:1026C000F31F80810E94471189819A8101969A8324
:1026D000898329813A818B819C81FC01E20FF31F60
:1026E0008081882339F70F900F900F900F90CF9132
:1026F000DF910895DF93CF93CDB7DEB781E00E94DD
:10270000690E8CE00E94690ECF91DF910895DF93EE
:10271000CF93CDB7DEB781E00E94690E88E00E94BA
:10272000690ECF91DF9108950F931F93DF93CF939D
:10273000CDB7DEB7C655D0400FB6F894DEBF0FBE9A
:10274000CDBFE1E3F0E08FEF8083E4E3F0E08FEFD3
:1027500080830E94C70A81E061E00E94AC0A80E6A3
:1027600090E00E94D00DFE01EB5AFF4F11821082C3
:10277000C1C0FE01EF5AFF4F80E090E0AAEFB3E442
:1027800080839183A283B3838E01035B1F4FFE017D
:10279000EF5AFF4F608171818281938120E030E8A0
:1027A0004BE355E40E941702DC01CB01F801808362
:1027B0009183A283B383FE01E35BFF4F608171814C
:1027C0008281938120E030E040E85FE30E94710362
:1027D000882344F4FE01E55BFF4F81E090E09183A4
:1027E000808364C0FE01E35BFF4F60817181828161
:1027F000938120E03FEF4FE757E40E941103181642
:102800000CF043C0FE01EF5AFF4F6081718182815D
:10281000938120E030E040E251E40E941702DC01A5
:10282000CB018E01055B1F4FBC01CD010E94410011
:10283000DC01CB01F801918380831FC0FE01E75BBF
:10284000FF4F8CE291E091838083FE01E75BFF4FB5
:10285000808191810197F1F7FE01E75BFF4F918342
:102860008083DE01A55BBF4FFE01E55BFF4F8081EA
:102870009181019711969C938E93FE01E55BFF4F2A
:10288000808191810097D1F627C08E01055B1F4F93
:10289000FE01E35BFF4F60817181828193810E9421
:1028A0004100DC01CB01F80191838083DE01A95B4B
:1028B000BF4FFE01E55BFF4F808191818D939C931B
:1028C000FE01E95BFF4F808191810197F1F7FE01E5
:1028D000E95BFF4F918380830E94050EDE01AB5AB6
:1028E000BF4FFE01EB5AFF4F8081918101961196F7
:1028F0009C938E93FE01EB5AFF4F808191818F3024
:1029000091050CF436CFFE01EB5AFF4F1182108275
:1029100093C0FE01ED5BFF4F80E090E0AAEFB3E4CF
:1029200080839183A283B3838E01015C1F4FFE01DC
:10293000ED5BFF4F608171818281938120E030E8FF
:102940004BE355E40E941702DC01CB01F8018083C0
:102950009183A283B383FE01FF966081718182819E
:10296000938120E030E040E85FE30E947103882318
:102970002CF481E090E09EAF8DAF46C0FE01FF9643
:10298000608171818281938120E03FEF4FE757E4BE
:102990000E941103181664F5FE01ED5BFF4F608184
:1029A00071818281938120E030E040E251E40E9415
:1029B0001702DC01CB01BC01CD010E944100DC010A
:1029C000CB019EAF8DAF0FC08CE291E09CAF8BAF7F
:1029D0008BAD9CAD0197F1F79CAF8BAF8DAD9EADEC
:1029E00001979EAF8DAF8DAD9EAD009769F716C074
:1029F000FE01FF9660817181828193810E94410076
:102A0000DC01CB019EAF8DAF8DAD9EAD9AAF89AF8E
:102A100089AD9AAD0197F1F79AAF89AF0E94FB0D8E
:102A2000DE01AB5ABF4FFE01EB5AFF4F808191810F
:102A3000019611969C938E93FE01EB5AFF4F808175
:102A400091818F3091050CF464CF0E94A20A85E435
:102A50000E94C30C8DE40E94C30C82E40E94C30C4C
:102A600085E40E94C30C84E40E94C30C84E40E94A9
:102A7000C30C85E40E94C30C84E40E94C30C8FE560
:102A80000E94C30C83E50E94C30C89E50E94C30C1D
:102A900083E50E94C30C84E50E94C30C85E40E9478
:102AA000C30C8DE40E94C30C80E090E0AAEFB4E474
:102AB0008DAB9EABAFABB8AF6DA97EA98FA998AD1A
:102AC00020E030E84BE355E40E941702DC01CB0123
:102AD00089AB9AABABABBCAB69A97AA98BA99CA912
:102AE00020E030E040E85FE30E94710388232CF48B
:102AF00081E090E098AB8FA73FC069A97AA98BA924
:102B00009CA920E03FEF4FE757E40E9411031816FD
:102B10004CF56DA97EA98FA998AD20E030E040E288
:102B200051E40E941702DC01CB01BC01CD010E94DF
:102B30004100DC01CB0198AB8FA70FC08CE291E084
:102B40009EA78DA78DA59EA50197F1F79EA78DA79E
:102B50008FA598A9019798AB8FA78FA598A90097E3
:102B600069F714C069A97AA98BA99CA90E944100A0
:102B7000DC01CB0198AB8FA78FA598A99CA78BA749
:102B80008BA59CA50197F1F79CA78BA782E061E03C
:102B90000E94AC0A8FE790E00E94D00DFE01EB5A34
:102BA000FF4F1182108280C080E090E0AAEFB3E472
:102BB0008FA398A7A9A7BAA76FA178A589A59AA559
:102BC00020E030E84BE355E40E941702DC01CB0122
:102BD0008BA39CA3ADA3BEA36BA17CA18DA19EA141
:102BE00020E030E040E85FE30E94710388232CF48A
:102BF00081E090E09AA389A33FC06BA17CA18DA145
:102C00009EA120E03FEF4FE757E40E941103181602
:102C10004CF56FA178A589A59AA520E030E040E2A7
:102C200051E40E941702DC01CB01BC01CD010E94DE
:102C30004100DC01CB019AA389A30FC08CE291E093
:102C400098A38F8F8F8D98A10197F1F798A38F8FFD
:102C500089A19AA101979AA389A389A19AA1009712
:102C600069F714C06BA17CA18DA19EA10E944100B7
:102C7000DC01CB019AA389A389A19AA19E8F8D8F94
:102C80008D8D9E8D0197F1F79E8F8D8F0E94050E81
:102C9000DE01AB5ABF4FFE01EB5AFF4F808191819D
:102CA000019611969C938E93FE01EB5AFF4F808103
:102CB00091818F3091050CF477CFFE01EB5AFF4FD5
:102CC0001182108280C080E090E0AAEFB3E4898F87
:102CD0009A8FAB8FBC8F698D7A8D8B8D9C8D20E008
:102CE00030E84BE355E40E941702DC01CB018D8BE9
:102CF0009E8BAF8BB88F6D897E898F89988D20E0F0
:102D000030E040E85FE30E94710388232CF481E007
:102D100090E09C8B8B8B3FC06D897E898F89988DCD
:102D200020E03FEF4FE757E40E94110318164CF5DF
:102D3000698D7A8D8B8D9C8D20E030E040E251E4EE
:102D40000E941702DC01CB01BC01CD010E944100B1
:102D5000DC01CB019C8B8B8B0FC08CE291E09A8BBA
:102D6000898B89899A890197F1F79A8B898B8B894D
:102D70009C8901979C8B8B8B8B899C89009769F729
:102D800014C06D897E898F89988D0E944100DC0175
:102D9000CB019C8B8B8B8B899C89988B8F878F85A4
:102DA00098890197F1F7988B8F870E94FB0DDE01C0
:102DB000AB5ABF4FFE01EB5AFF4F808191810196C4
:102DC00011969C938E93FE01EB5AFF4F8081918167
:102DD0008F3091050CF477CF80E090E0AAEFB4E457
:102DE0008B879C87AD87BE876B857C858D859E850F
:102DF00020E030E84BE355E40E941702DC01CB01F0
:102E00008F839887A987BA876F81788589859A8506
:102E100020E030E040E85FE30E94710388232CF457
:102E200081E090E09E838D833FC06F8178858985A6
:102E30009A8520E03FEF4FE757E40E9411031816F0
:102E40004CF56B857C858D859E8520E030E040E2E9
:102E500051E40E941702DC01CB01BC01CD010E94AC
:102E60004100DC01CB019E838D830FC08CE291E099
:102E70009C838B838B819C810197F1F79C838B834F
:102E80008D819E8101979E838D838D819E81009788
:102E900069F714C06F81788589859A850E94410001
:102EA000DC01CB019E838D838D819E819A838983F2
:102EB00089819A810197F1F79A8389830E94A20AF6
:102EC0004ACC2F923F924F925F926F927F928F9255
:102ED0009F92AF92BF92CF92DF92EF92FF920F93A9
:102EE0001F93CF93DF93CDB7DEB7CA1BDB0B0FB6B3
:102EF000F894DEBF0FBECDBF09942A883988488870
:102F00005F846E847D848C849B84AA84B984C88405
:102F1000DF80EE80FD800C811B81AA81B981CE0FFC
:102F2000D11D0FB6F894DEBF0FBECDBFED010895E1
:042F3000F894FFCF43
:102F3400416264756C6C616820416264656C6861AF
:102F44006B65656D20416D657220494D5420004EBE
:102F540032393036313845422D3E456E672F4F6D3C
:0C2F64006172200000000000000000006E
:00000001FF
