:100000000C94A7000C94C4000C94C4000C94C4007D
:100010000C94C4000C94C4000C94C4000C94C40050
:100020000C94C4000C9472110C94C4000C94C40081
:100030000C94C4000C94C4000C94C4000C94C40030
:100040000C94C4000C94C4000C94C4000C94C40020
:100050000C94C40000407A10F35A00A0724E1809A4
:100060000010A5D4E80000E87648170000E40B541F
:10007000020000CA9A3B000000E1F50500008096EE
:100080009800000040420F000000A0860100000020
:10009000102700000000E8030000000064000000DA
:1000A00000000A00000000000100000000002C76A3
:1000B000D888DC674F0823DFC1DFAE59E1B1B796BE
:1000C000E5E3E453C63AE651997696E8E6C284261B
:1000D000EB898C9B62ED407C6FFCEFBC9C9F40F2F7
:1000E000BAA56FA5F490055A2AF75C936B6CF96773
:1000F0006DC11BFCE0E40D47FEF520E6B500D0ED38
:10010000902E0300943577050080841E080000209F
:100110004E0A000000C80C333333330F986E12833D
:100120001141EF8D2114893BE65516CFFEE6DB1811
:10013000D1844B381BF77C1D901DA4BBE4242032D6
:1001400084725E228100C9F124ECA1E53D271124CF
:100150001FBECFE5D8E0DEBFCDBF11E0A0E6B0E026
:10016000E6E2FDE202C005900D92A238B107D9F790
:1001700011E0A2E8B1E001C01D92A438B107E1F797
:100180000E948F110C9491160C940000EF92FF9234
:100190000F931F937B018C0120E030E040E05FE48F
:1001A0000E94720488238CF0C801B70120E030E07F
:1001B00040E05FE40E943E020E9430059B01AC01DA
:1001C000205030404040504806C0C801B7010E944E
:1001D00030059B01AC01B901CA011F910F91FF903D
:1001E000EF900895A0E0B0E0E8EFF0E00C94ED139C
:1001F000DC012B01FA019C91923008F439C1EB012A
:100200008881823008F433C1943069F4843009F075
:100210002FC111969C9111978981981709F428C1D3
:10022000AAE7B0E025C1843009F421C18230A9F4E5
:10023000923009F01DC19A01AD0188E0EA010990F0
:10024000AE01E90109929E018150C1F7E201898165
:1002500011969C918923818308C1923009F407C1CA
:1002600012962D903C901397EB018A819B811496F6
:10027000AD90BD90CD90DC901797EC80FD800E8105
:100280001F819101281B390BB90137FF04C0662774
:100290007727621B730B603271050CF061C0121678
:1002A00013066CF537014801062E04C09694879416
:1002B000779467940A94D2F721E030E040E050E070
:1002C00004C0220F331F441F551F6A95D2F72150D7
:1002D0003040404050402E213F21402351232115E2
:1002E00031054105510521F021E030E040E050E0CA
:1002F00079018A01E628F728082919293CC0232B0F
:10030000D1F1260E371E35014601062E04C0969403
:100310008794779467940A94D2F721E030E040E024
:1003200050E004C0220F331F441F551F6A95D2F7B7
:1003300021503040404050402A213B214C215D213A
:10034000211531054105510521F021E030E040E063
:1003500050E059016A01A628B728C828D9280BC03F
:10036000821593052CF01C01AA24BB24650103C04F
:10037000EE24FF24870111969C91D20111968C9155
:10038000981709F445C0992339F0A80197012A1953
:100390003B094C095D0906C0A60195012E193F09CC
:1003A000400B510B57FD08C01182338222822483F7
:1003B0003583468357831DC081E081833382228247
:1003C00088279927DC01821B930BA40BB50B848330
:1003D0009583A683B7830DC0220F331F441F551F7B
:1003E0002483358346835783828193810197938346
:1003F00082832481358146815781DA01C9010197C1
:10040000A109B1098F5F9F4FAF4FBF4328F30BC0C6
:10041000918333822282EA0CFB1C0C1D1D1DE48299
:10042000F5820683178383E08083248135814681AA
:10043000578157FF1AC0C901AA2797FDA095BA2F67
:1004400081709070A070B07056954795379527953C
:10045000822B932BA42BB52B84839583A683B78300
:1004600082819381019693838283DF0101C0D2014F
:10047000CD01CDB7DEB7E2E10C940914A0E2B0E003
:10048000E4E4F2E00C94F91369837A838B839C8310
:100490002D833E834F835887E9E0EE2EF12CEC0E3E
:1004A000FD1ECE010196B7010E94A8068E010F5EC7
:1004B0001F4FCE010596B8010E94A8068A8991E0D7
:1004C00089278A8BC701B801AE01475E5F4F0E9442
:1004D000F2000E94D305A096E6E00C941514A0E269
:1004E000B0E0E5E7F2E00C94F91369837A838B833B
:1004F0009C832D833E834F835887F9E0EF2EF12CA8
:10050000EC0EFD1ECE010196B7010E94A8068E01D9
:100510000F5E1F4FCE010596B8010E94A806C701C5
:10052000B801AE01475E5F4F0E94F2000E94D30502
:10053000A096E6E00C941514A0E2B0E0E2EAF2E046
:100540000C94ED1369837A838B839C832D833E8384
:100550004F835887CE010196BE01675F7F4F0E948F
:10056000A806CE010596BE016F5E7F4F0E94A806C9
:100570009985923088F089898230C8F0943019F4D6
:10058000823051F404C0843029F4923081F48AE737
:1005900090E0C6C0923049F420E09A858A89981389
:1005A00021E02A87CE010996BBC0823049F420E0C1
:1005B0009A858A89981321E02A8BCE014196B0C092
:1005C0002D843E844F8458886D887E888F88988CCF
:1005D000EE24FF248701AA24BB24650140E050E0FB
:1005E00060E070E0E0E0F0E0C10181709070892B84
:1005F000E9F0E60CF71C081D191D9A01AB012A0D44
:100600003B1D4C1D5D1D80E090E0A0E0B0E0E614D5
:10061000F7040805190520F481E090E0A0E0B0E0BF
:10062000BA01A901480F591F6A1F7B1FAA0CBB1CE6
:10063000CC1CDD1C97FE08C081E090E0A0E0B0E09B
:10064000A82AB92ACA2ADB2A3196E032F10549F0F4
:10065000660C771C881C991C5694479437942794F1
:10066000C3CFFA85EA892B893C898B859C85280F25
:10067000391F2E5F3F4F17C0CA0181709070892BC0
:1006800061F016950795F794E79480E090E0A0E07C
:10069000B0E8E82AF92A0A2B1B2B7695679557951F
:1006A00047952F5F3F4F77FDE7CF0CC0440F551F95
:1006B000661F771F17FD4160EE0CFF1C001F111F06
:1006C00021503040403090E0590790E0690790E4B5
:1006D000790760F32B8F3C8FDB01CA018F77907015
:1006E000A070B07080349105A105B10561F447FD9B
:1006F0000AC0E114F1040105110529F0405C5F4FC7
:100700006F4F7F4F40781A8EFE1711F081E08A8F6D
:100710004D8F5E8F6F8F78A383E0898FCE014996CE
:100720000E94D305A096E2E10C940914A8E1B0E080
:10073000ECE9F3E00C94F51369837A838B839C8353
:100740002D833E834F835887B9E0EB2EF12CEC0EBE
:10075000FD1ECE010196B7010E94A8068E010F5E14
:100760001F4FCE010596B8010E94A80629852230A8
:1007700008F47EC03989323010F4B8017CC08A8513
:100780009A8989278A87243011F0223031F423177F
:1007900009F06EC06AE770E06EC0343039F41D862F
:1007A0001E861F86188A1C861B8604C0323021F4E0
:1007B00084E08987B7015FC02B853C858B899C8944
:1007C000281B390B3C872B87ED84FE840F85188905
:1007D000AD88BE88CF88D88CEA14FB040C051D05B3
:1007E00040F4EE0CFF1C001F111F215030403C87CD
:1007F0002B8720E030E040E050E080E090E0A0E097
:10080000B0E460E070E0EA14FB040C051D0540F064
:10081000282B392B4A2B5B2BEA18FB080C091D09E6
:10082000B695A79597958795EE0CFF1C001F111F95
:100830006F5F7F4F6F31710531F7DA01C9018F7733
:100840009070A070B07080349105A105B10561F47D
:1008500027FD0AC0E114F1040105110529F0205C0F
:100860003F4F4F4F5F4F20782D873E874F87588BE4
:10087000BE01675F7F4FCB010E94D3056896EAE017
:100880000C941114A8E1B0E0E8E4F4E00C94F9133E
:1008900069837A838B839C832D833E834F83588720
:1008A00089E0E82EF12CEC0EFD1ECE010196B70179
:1008B0000E94A8068E010F5E1F4FCE010596B8015B
:1008C0000E94A8068985823040F08989823028F00C
:1008D000C701B8010E94200701C08FEF6896E6E0CB
:1008E0000C941514A8E1B0E0E8E7F4E00C94F913D7
:1008F00069837A838B839C832D833E834F835887C0
:1009000089E0E82EF12CEC0EFD1ECE010196B70118
:100910000E94A8068E010F5E1F4FCE010596B801FA
:100920000E94A8068985823040F08989823028F0AB
:10093000C701B8010E94200701C08FEF6896E6E06A
:100940000C941514A8E1B0E0E8EAF4E00C94F91373
:1009500069837A838B839C832D833E834F8358875F
:1009600089E0E82EF12CEC0EFD1ECE010196B701B8
:100970000E94A8068E010F5E1F4FCE010596B8019A
:100980000E94A8068985823040F08989823028F04B
:10099000C701B8010E94200701C081E06896E6E027
:1009A0000C941514A8E0B0E0E8EDF4E00C94F61314
:1009B0009B01AC0183E08983DA01C9018827B7FD77
:1009C00083959927AA27BB27B82E21153105410504
:1009D000510519F482E089833AC08823A9F02030B8
:1009E00080E0380780E0480780E8580729F460E095
:1009F00070E080E09FEC30C0EE24FF248701E21A13
:100A0000F30A040B150B02C079018A018EE1C82E8E
:100A1000D12CDC82CB82ED82FE820F831887C80145
:100A2000B7010E94840501971816190684F4082E50
:100A300004C0EE0CFF1C001F111F0A94D2F7ED82B8
:100A4000FE820F831887C81AD90ADC82CB82BA8249
:100A5000CE0101960E94D3052896E9E00C94121469
:100A6000ACE0B0E0E6E3F5E00C94FD1369837A8333
:100A70008B839C83CE010196BE016B5F7F4F0E94EA
:100A8000A8068D81823061F1823050F1843021F4EA
:100A90008E81882351F12EC02F81388537FD20C0EB
:100AA0006E812F3131051CF06623F9F023C08EE1F1
:100AB00090E0821B930B29853A854B855C8504C0A9
:100AC00056954795379527958A95D2F76623B1F0C5
:100AD00050954095309521953F4F4F4F5F4F0EC039
:100AE00020E030E040E050E009C02FEF3FEF4FEF53
:100AF0005FE704C020E030E040E050E8B901CA01FF
:100B00002C96E2E00C941914EF92FF920F931F932E
:100B10007B018C0180E0E81680E0F80681E00807A0
:100B200080E0180788F48FEFE816F104010511053D
:100B300031F028F088E090E0A0E0B0E017C080E05D
:100B400090E0A0E0B0E012C080E0E81680E0F80697
:100B500080E0080781E0180728F088E190E0A0E035
:100B6000B0E004C080E190E0A0E0B0E020E230E03E
:100B700040E050E0281B390B4A0B5B0B04C0169574
:100B80000795F794E7948A95D2F7F701EE57FF4F50
:100B90008081281B310941095109C9011F910F9119
:100BA000FF90EF900895DF92EF92FF920F931F93C3
:100BB000FC01E480F58006811781D180808182303C
:100BC00048F480E090E0A0E1B0E0E82AF92A0A2B9E
:100BD0001B2BA5C0843009F49FC0823021F4EE2481
:100BE000FF24870105C0E114F1040105110519F482
:100BF000E0E0F0E096C0628173819FEF6238790790
:100C00000CF05BC022E83FEF261B370B2A31310581
:100C10002CF020E030E040E050E02AC0B801A7010D
:100C2000022E04C076956795579547950A94D2F79A
:100C300081E090E0A0E0B0E004C0880F991FAA1FF7
:100C4000BB1F2A95D2F70197A109B1098E219F21D7
:100C5000A023B1230097A105B10521F081E090E028
:100C6000A0E0B0E09A01AB01282B392B4A2B5B2B7B
:100C7000DA01C9018F779070A070B070803491054F
:100C8000A105B10539F427FF09C0205C3F4F4F4F44
:100C90005F4F04C0215C3F4F4F4F5F4FE0E0F0E0FB
:100CA0002030A0E03A07A0E04A07A0E45A0710F07D
:100CB000E1E0F0E079018A0127C06038710564F550
:100CC000FB01E158FF4FD801C7018F779070A070EA
:100CD000B07080349105A105B10539F4E7FE0DC06F
:100CE00080E490E0A0E0B0E004C08FE390E0A0E0FA
:100CF000B0E0E80EF91E0A1F1B1F17FF05C016956E
:100D00000795F794E794319687E016950795F79441
:100D1000E7948A95D1F705C0EE24FF248701EFEF11
:100D2000F0E06E2F679566276795902F9F77D79491
:100D3000DD24D7948E2F8695492F462B582F5D2979
:100D4000B701CA011F910F91FF90EF90DF900895B6
:100D5000FC01DB01408151812281622F6F7770E0BD
:100D6000221F2227221F9381892F880F822B282F51
:100D700030E0991F9927991F11969C93119721157F
:100D80003105A9F5411551056105710511F482E0A0
:100D900037C082E89FEF13969C938E9312979A0127
:100DA000AB0167E0220F331F441F551F6A95D1F72F
:100DB00083E08C930DC0220F331F441F551F1296E2
:100DC0008D919C911397019713969C938E931297F4
:100DD000203080E0380780E0480780E4580758F367
:100DE00014962D933D934D935C93179708952F3F41
:100DF000310579F4411551056105710519F484E057
:100E00008C93089564FF03C081E08C9312C01C9200
:100E100010C02F57304013963C932E93129783E0C7
:100E20008C9387E0440F551F661F771F8A95D1F773
:100E3000706414964D935D936D937C93179708950A
:100E40001F93DC01FB019C91923008F447C0808124
:100E5000823008F443C0943051F411961C918430D0
:100E600099F58181682F70E0611B71093FC0843062
:100E700021F0923031F48230B9F18181882389F1F7
:100E80002DC011961C9111978230F1F081811817B5
:100E9000D9F412962D913C911397828193818217F8
:100EA000930794F028173907BCF014968D919D9103
:100EB0000D90BC91A02D2481358146815781281742
:100EC00039074A075B0718F4112341F00AC082175B
:100ED0009307A407B50740F4112319F061E070E00F
:100EE00005C06FEF7FEF02C060E070E0CB011F91A3
:100EF0000895DF93CF9300D000D00F92CDB7DEB727
:100F000089836A834B838981282F30E03D832C833A
:100F10008C819D818130910509F443C02C813D81F4
:100F2000223031052CF48C819D81009771F0BCC07A
:100F30002C813D812230310509F45FC08C819D8177
:100F40008330910509F485C0AFC08B818823A9F453
:100F5000AAE3B0E0EAE3F0E08081482F8A81282FFD
:100F600030E081E090E0022E02C0880F991F0A94C1
:100F7000E2F7809584238C9397C0AAE3B0E0EAE37C
:100F8000F0E08081482F8A81282F30E081E090E0D6
:100F9000022E02C0880F991F0A94E2F7842B8C93CB
:100FA00083C08B818823A9F4A7E3B0E0E7E3F0E0F6
:100FB0008081482F8A81282F30E081E090E0022E46
:100FC00002C0880F991F0A94E2F7809584238C93BE
:100FD0006BC0A7E3B0E0E7E3F0E08081482F8A81AF
:100FE000282F30E081E090E0022E02C0880F991F88
:100FF0000A94E2F7842B8C9357C08B818823A9F441
:10100000A4E3B0E0E4E3F0E08081482F8A81282F58
:1010100030E081E090E0022E02C0880F991F0A9410
:10102000E2F7809584238C933FC0A4E3B0E0E4E32F
:10103000F0E08081482F8A81282F30E081E090E025
:10104000022E02C0880F991F0A94E2F7842B8C931A
:101050002BC08B818823A9F4A1E3B0E0E1E3F0E0A9
:101060008081482F8A81282F30E081E090E0022E95
:1010700002C0880F991F0A94E2F7809584238C930D
:1010800013C0A1E3B0E0E1E3F0E08081482F8A8162
:10109000282F30E081E090E0022E02C0880F991FD7
:1010A0000A94E2F7842B8C930F900F900F900F907F
:1010B0000F90CF91DF910895DF93CF9300D000D0B0
:1010C0000F92CDB7DEB789836A834B838981282F3E
:1010D00030E03D832C838C819D818130910509F422
:1010E00043C02C813D81223031052CF48C819D81BF
:1010F000009771F0BCC02C813D812230310509F48C
:101100005FC08C819D818330910509F485C0AFC09B
:101110008B818823A9F4ABE3B0E0EBE3F0E08081BE
:10112000482F8A81282F30E081E090E0022E02C013
:10113000880F991F0A94E2F7809584238C9397C0B7
:10114000ABE3B0E0EBE3F0E08081482F8A81282F09
:1011500030E081E090E0022E02C0880F991F0A94CF
:10116000E2F7842B8C9383C08B818823A9F4A8E3B6
:10117000B0E0E8E3F0E08081482F8A81282F30E05A
:1011800081E090E0022E02C0880F991F0A94E2F7D6
:10119000809584238C936BC0A8E3B0E0E8E3F0E093
:1011A0008081482F8A81282F30E081E090E0022E54
:1011B00002C0880F991F0A94E2F7842B8C9357C0C2
:1011C0008B818823A9F4A5E3B0E0E5E3F0E080811A
:1011D000482F8A81282F30E081E090E0022E02C063
:1011E000880F991F0A94E2F7809584238C933FC05F
:1011F000A5E3B0E0E5E3F0E08081482F8A81282F65
:1012000030E081E090E0022E02C0880F991F0A941E
:10121000E2F7842B8C932BC08B818823A9F4A2E363
:10122000B0E0E2E3F0E08081482F8A81282F30E0AF
:1012300081E090E0022E02C0880F991F0A94E2F725
:10124000809584238C9313C0A2E3B0E0E2E3F0E046
:101250008081482F8A81282F30E081E090E0022EA3
:1012600002C0880F991F0A94E2F7842B8C930F9089
:101270000F900F900F900F90CF91DF910895DF9313
:10128000CF9300D000D0CDB7DEB789836A83898140
:10129000282F30E03C832B838B819C81813091050A
:1012A00049F12B813C81223031052CF48B819C81CA
:1012B000009761F05AC02B813C812230310571F1D9
:1012C0008B819C8183309105E9F14FC0ABE3B0E0A5
:1012D000EBE3F0E08081482F8A81282F30E081E025
:1012E00090E0022E02C0880F991F0A94E2F784272B
:1012F0008C933BC0A8E3B0E0E8E3F0E08081482FA6
:101300008A81282F30E081E090E0022E02C0880F11
:10131000991F0A94E2F784278C9327C0A5E3B0E0D5
:10132000E5E3F0E08081482F8A81282F30E081E0DA
:1013300090E0022E02C0880F991F0A94E2F78427DA
:101340008C9313C0A2E3B0E0E2E3F0E08081482F89
:101350008A81282F30E081E090E0022E02C0880FC1
:10136000991F0A94E2F784278C930F900F900F90A7
:101370000F90CF91DF910895DF93CF9300D000D0ED
:1013800000D0CDB7DEB789836A838981282F30E00A
:101390003D832C834C815D814130510549F18C8125
:1013A0009D818230910534F42C813D8121153105D8
:1013B00061F057C04C815D814230510561F18C81F3
:1013C0009D8183309105D1F14CC0E9E3F0E080814B
:1013D000282F30E08A81882F90E0A90102C055951E
:1013E00047958A95E2F7CA01582F51705B833AC03E
:1013F000E6E3F0E08081282F30E08A81882F90E0BA
:10140000A90102C0559547958A95E2F7CA01582F60
:1014100051705B8327C0E3E3F0E08081282F30E048
:101420008A81882F90E0A90102C0559547958A9539
:10143000E2F7CA01582F51705B8314C0E0E3F0E07B
:101440008081282F30E08A81882F90E0A90102C096
:10145000559547958A95E2F7CA01582F51705B83DD
:1014600001C002C08B818E838E8126960FB6F894C0
:10147000DEBF0FBECDBFCF91DF910895DF93CF9335
:10148000CDB7DEB7AA970FB6F894DEBF0FBECDBFBB
:1014900080E060E041E00E94790780E061E041E0A7
:1014A0000E94790780E062E041E00E94790780E0D5
:1014B00063E041E00E94790780E064E041E00E943F
:1014C000790780E065E041E00E94790780E066E00E
:1014D00041E00E94790780E067E041E00E947907DF
:1014E00083E063E041E00E94790783E064E041E04B
:1014F0000E94790783E065E041E00E94790788E374
:101500000E94D20C80E090E0A0EAB0E48FA398A7FC
:10151000A9A7BAA76FA178A589A59AA520E030E868
:101520004BE355E40E949C02DC01CB018BA39CA3FE
:10153000ADA3BEA36BA17CA18DA19EA120E030E054
:1015400040E85FE30E94A20488232CF481E090E04D
:101550009AA389A33FC06BA17CA18DA19EA120E08D
:101560003FEF4FE757E40E94420418164CF56FA175
:1015700078A589A59AA520E030E040E251E40E94D8
:101580009C02DC01CB01BC01CD010E94C600DC0144
:10159000CB019AA389A30FC08CE291E098A38F8F0F
:1015A0008F8D98A10197F1F798A38F8F89A19AA1A8
:1015B00001979AA389A389A19AA1009769F714C0FA
:1015C0006BA17CA18DA19EA10E94C600DC01CB0174
:1015D0009AA389A389A19AA19E8F8D8F8D8D9E8DAF
:1015E0000197F1F79E8F8D8F8CE00E94D20C80E0E6
:1015F00090E0A0EAB0E4898F9A8FAB8FBC8F698DA1
:101600007A8D8B8D9C8D20E030E84BE355E40E9471
:101610009C02DC01CB018D8B9E8BAF8BB88F6D89CB
:101620007E898F89988D20E030E040E85FE30E945A
:10163000A20488232CF481E090E09C8B8B8B3FC02C
:101640006D897E898F89988D20E03FEF4FE757E4C1
:101650000E94420418164CF5698D7A8D8B8D9C8DF5
:1016600020E030E040E251E40E949C02DC01CB012A
:10167000BC01CD010E94C600DC01CB019C8B8B8B91
:101680000FC08CE291E09A8B898B89899A890197A6
:10169000F1F79A8B898B8B899C8901979C8B8B8B1B
:1016A0008B899C89009769F714C06D897E898F8921
:1016B000988D0E94C600DC01CB019C8B8B8B8B89A3
:1016C0009C89988B8F878F8598890197F1F7988BE4
:1016D0008F8781E00E94D20C80E090E0A0EAB0E425
:1016E0008B879C87AD87BE876B857C858D859E8526
:1016F00020E030E84BE355E40E949C02DC01CB0182
:101700008F839887A987BA876F81788589859A851D
:1017100020E030E040E85FE30E94A20488232CF43C
:1017200081E090E09E838D833FC06F8178858985BD
:101730009A8520E03FEF4FE757E40E9442041816D5
:101740004CF56B857C858D859E8520E030E040E200
:1017500051E40E949C02DC01CB01BC01CD010E943E
:10176000C600DC01CB019E838D830FC08CE291E02B
:101770009C838B838B819C810197F1F79C838B8366
:101780008D819E8101979E838D838D819E8100979F
:1017900069F714C06F81788589859A850E94C60093
:1017A000DC01CB019E838D838D819E819A83898309
:1017B00089819A810197F1F79A838983AA960FB656
:1017C000F894DEBF0FBECDBFCF91DF910895DF93B8
:1017D000CF93CDB7DEB72F970FB6F894DEBF0FBE0D
:1017E000CDBF8F8783E063E041E00E945C0883E027
:1017F00064E040E00E945C088F85982F917080E043
:1018000060E0492F0E945C088F858695982F917023
:1018100080E061E0492F0E945C088F85869586955F
:10182000982F917080E062E0492F0E945C088F85BC
:10183000869586958695982F917080E063E0492F74
:101840000E945C088F8582958F70982F917080E040
:1018500064E0492F0E945C088F8582958695877089
:10186000982F917080E065E0492F0E945C088F8579
:101870008295869586958370982F917080E066E0BA
:10188000492F0E945C088F85982F991F9927991FCF
:1018900080E067E0492F0E945C0883E065E041E05A
:1018A0000E945C0880E090E0A0E0B0E48B879C8719
:1018B000AD87BE876B857C858D859E8520E030E871
:1018C0004BE355E40E949C02DC01CB018F83988797
:1018D000A987BA876F81788589859A8520E030E06D
:1018E00040E85FE30E94A20488232CF481E090E0AA
:1018F0009E838D833FC06F81788589859A8520E09E
:101900003FEF4FE757E40E94420418164CF56B85F1
:101910007C858D859E8520E030E040E251E40E9488
:101920009C02DC01CB01BC01CD010E94C600DC01A0
:10193000CB019E838D830FC08CE291E09C838B83CF
:101940008B819C810197F1F79C838B838D819E8194
:1019500001979E838D838D819E81009769F714C0C6
:101960006F81788589859A850E94C600DC01CB014C
:101970009E838D838D819E819A83898389819A81BB
:101980000197F1F79A83898383E065E040E00E9444
:101990005C082F960FB6F894DEBF0FBECDBFCF9177
:1019A000DF910895DF93CF93CDB7DEB72F970FB6B2
:1019B000F894DEBF0FBECDBF8F8783E063E040E0C9
:1019C0000E945C0883E064E040E00E945C088F8530
:1019D000982F917080E060E0492F0E945C088F850D
:1019E0008695982F917080E061E0492F0E945C08F5
:1019F0008F8586958695982F917080E062E0492FBB
:101A00000E945C088F85869586958695982F9170A3
:101A100080E063E0492F0E945C088F8582958F707B
:101A2000982F917080E064E0492F0E945C088F85B8
:101A3000829586958770982F917080E065E0492F98
:101A40000E945C088F858295869586958370982F75
:101A5000917080E066E0492F0E945C088F85982F86
:101A6000991F9927991F80E067E0492F0E945C0821
:101A700083E065E041E00E945C0880E090E0A0E047
:101A8000B0E48B879C87AD87BE876B857C858D8511
:101A90009E8520E030E84BE355E40E949C02DC0187
:101AA000CB018F839887A987BA876F8178858985CD
:101AB0009A8520E030E040E85FE30E94A20488239A
:101AC0002CF481E090E09E838D833FC06F81788508
:101AD00089859A8520E03FEF4FE757E40E94420452
:101AE00018164CF56B857C858D859E8520E030E051
:101AF00040E251E40E949C02DC01CB01BC01CD011B
:101B00000E94C600DC01CB019E838D830FC08CE256
:101B100091E09C838B838B819C810197F1F79C835F
:101B20008B838D819E8101979E838D838D819E8184
:101B3000009769F714C06F81788589859A850E941E
:101B4000C600DC01CB019E838D838D819E819A83AB
:101B5000898389819A810197F1F79A83898383E048
:101B600065E040E00E945C082F960FB6F894DEBF57
:101B70000FBECDBFCF91DF910895DF93CF9300D0FB
:101B8000CDB7DEB79A8389830AC0E981FA81808163
:101B90000E94E70B89819A8101969A838983E98162
:101BA000FA818081882389F70F900F90CF91DF9180
:101BB0000895DF93CF9300D0CDB7DEB789836A83D2
:101BC0008981882339F48A81882321F480E80E945E
:101BD000D20C39C18981882339F48A81813021F47A
:101BE00081E80E94D20C2FC18981882339F48A812F
:101BF000823021F482E80E94D20C25C18981882399
:101C000039F48A81833021F483E80E94D20C1BC10D
:101C10008981882339F48A81843021F484E80E9400
:101C2000D20C11C18981882339F48A81853021F44D
:101C300085E80E94D20C07C18981882339F48A8102
:101C4000863021F486E80E94D20CFDC08981882369
:101C500039F48A81873021F487E80E94D20CF3C0DE
:101C60008981882339F48A81883021F488E80E94A8
:101C7000D20CE9C08981882339F48A81893021F422
:101C800089E80E94D20CDFC08981882339F48A81D7
:101C90008A3021F48AE80E94D20CD5C08981882339
:101CA00039F48A818B3021F48BE80E94D20CCBC0AE
:101CB0008981882339F48A818C3021F48CE80E9450
:101CC000D20CC1C08981882339F48A818D3021F4F6
:101CD0008DE80E94D20CB7C08981882339F48A81AB
:101CE0008E3021F48EE80E94D20CADC08981882309
:101CF00039F48A818F3021F48FE80E94D20CA3C07E
:101D00008981813039F48A81882321F480EC0E9412
:101D1000D20C99C08981813039F48A81813021F4D3
:101D200081EC0E94D20C8FC08981813039F48A8184
:101D3000823021F482EC0E94D20C85C089818130EE
:101D400039F48A81833021F483EC0E94D20C7BC069
:101D50008981813039F48A81843021F484EC0E94B5
:101D6000D20C71C08981813039F48A81853021F4A7
:101D700085EC0E94D20C67C08981813039F48A8158
:101D8000863021F486EC0E94D20C5DC089818130BE
:101D900039F48A81873021F487EC0E94D20C53C039
:101DA0008981813039F48A81883021F488EC0E945D
:101DB000D20C49C08981823039F48A81893021F47A
:101DC00089EC0E94D20C3FC08981813039F48A812C
:101DD0008A3021F48AEC0E94D20C35C0898181308E
:101DE00039F48A818B3021F48BEC0E94D20C2BC009
:101DF0008981813039F48A818C3021F48CEC0E9405
:101E0000D20C21C08981813039F48A818D3021F44E
:101E10008DEC0E94D20C17C08981813039F48A81FF
:101E20008E3021F48EEC0E94D20C0DC0898181305D
:101E300039F48A818F3021F48FEC0E94D20C03C0D8
:101E400080E80E94D20C0F900F90CF91DF910895FF
:101E5000DF93CF9300D00F92CDB7DEB7898389810E
:101E6000282F30E03B832A838A819B81873091052C
:101E700009F47AC02A813B812830310554F58A81E2
:101E80009B818330910509F45FC02A813B81243016
:101E9000310594F48A819B818130910509F44CC00D
:101EA0002A813B81223031050CF04AC08A819B8116
:101EB000009709F43DC077C02A813B812530310568
:101EC00009F44AC08A819B81863091050CF048C094
:101ED0003FC02A813B812B32310509F451C08A81F0
:101EE0009B818C32910594F42A813B812930310504
:101EF00009F442C08A819B8189309105CCF12A8105
:101F00003B812A32310509F443C04DC08A819B814F
:101F10008F32910509F440C02A813B812D33310570
:101F200009F43EC08A819B818D32910569F13BC0E5
:101F300080E30E94E70B37C081E30E94E70B33C0C8
:101F400082E30E94E70B2FC083E30E94E70B2BC0C4
:101F500084E30E94E70B27C085E30E94E70B23C0C0
:101F600086E30E94E70B1FC087E30E94E70B1BC0BC
:101F700088E30E94E70B17C089E30E94E70B13C0B8
:101F80008BE20E94E70B0FC08DE20E94E70B0BC0B3
:101F90008AE20E94E70B07C08FE20E94E70B03C0B2
:101FA0008DE30E94E70B0F900F900F90CF91DF9180
:101FB0000895DF93CF93CDB7DEB7E6970FB6F894C9
:101FC000DEBF0FBECDBF69AB7AAB8BAB9CAB4DAB6D
:101FD0002EAB89A99AA9ABA9BCA98A309105A10504
:101FE000B10540F48DA96EA90E94D90D89A90E945E
:101FF000280F6FC189A99AA9ABA9BCA98A309105FC
:10200000A105B10508F43FC089A99AA9ABA9BCA94B
:1020100084369105A105B105B0F589A99AA9ABA9A6
:10202000BCA92AE030E040E050E0BC01CD010E94B4
:10203000CB13DA01C9018DA79EA7AFA7B8AB8DA9B5
:102040006EA90E94D90D8DA50E94280F89A99AA971
:10205000ABA9BCA92AE030E040E050E0BC01CD01D2
:102060000E94CB13DC01CB0189A79AA7ABA7BCA721
:102070008EA9982F9F5F8DA9692F0E94D90D89A5E0
:102080000E94280F26C189A99AA9ABA9BCA98436A8
:102090009105A105B10508F471C089A99AA9ABA958
:1020A000BCA9883E23E0920720E0A20720E0B20707
:1020B00008F064C089A99AA9ABA9BCA924E630E0BC
:1020C00040E050E0BC01CD010E94CB13DA01C90110
:1020D0008DA79EA7AFA7B8AB8DA96EA90E94D90DF9
:1020E0008DA50E94280F89A99AA9ABA9BCA924E6AD
:1020F00030E040E050E0BC01CD010E94CB13DC0198
:10210000CB0189A79AA7ABA7BCA789A59AA5ABA520
:10211000BCA52AE030E040E050E0BC01CD010E94C7
:10212000CB13DA01C9018DA39EA3AFA3B8A78EA9D3
:10213000982F9F5F8DA9692F0E94D90D8DA10E94B4
:10214000280F89A59AA5ABA5BCA52AE030E040E000
:1021500050E0BC01CD010E94CB13DC01CB0189A36F
:102160009AA3ABA3BCA38EA9982F9E5F8DA9692FBC
:102170000E94D90D89A10E94280FABC089A99AA9F4
:10218000ABA9BCA9883E23E0920720E0A20720E08B
:10219000B20708F49EC089A99AA9ABA9BCA980314D
:1021A00027E2920720E0A20720E0B20708F091C0E2
:1021B00089A99AA9ABA9BCA928EE33E040E050E078
:1021C000BC01CD010E94CB13DA01C9018DA79EA7E6
:1021D000AFA7B8AB8DA96EA90E94D90D8DA50E949D
:1021E000280F89A99AA9ABA9BCA928EE33E040E041
:1021F00050E0BC01CD010E94CB13DC01CB0189A7CB
:102200009AA7ABA7BCA789A59AA5ABA5BCA524E6B0
:1022100030E040E050E0BC01CD010E94CB13DA0178
:10222000C9018DA39EA3AFA3B8A78EA9982F9F5FC6
:102230008DA9692F0E94D90D8DA10E94280F89A513
:102240009AA5ABA5BCA524E630E040E050E0BC0177
:10225000CD010E94CB13DC01CB018D8F9E8FAF8F00
:10226000B8A38D8D9E8DAF8DB8A12AE030E040E0FF
:1022700050E0BC01CD010E94CB13DA01C90189A352
:102280009AA3ABA3BCA38EA9982F9E5F8DA9692F9B
:102290000E94D90D89A10E94280F8D8D9E8DAF8D32
:1022A000B8A12AE030E040E050E0BC01CD010E943E
:1022B000CB13DC01CB018D8B9E8BAF8BB88F8EA99E
:1022C000982F9D5F8DA9692F0E94D90D8D890E943D
:1022D000280FE6960FB6F894DEBF0FBECDBFCF91A4
:1022E000DF9108951F920F920FB60F9211248F93D2
:1022F0009F93DF93CF93CDB7DEB78091820190910A
:10230000830101969093830180938201CF91DF91A5
:102310009F918F910F900FBE0F901F901895EF9285
:10232000FF920F931F93DF93CF93CDB7DEB7E8975C
:102330000FB6F894DEBF0FBECDBF81E060E041E094
:102340000E947907E1E3F0E081E08083E2E3F0E0DE
:1023500080E480830E943E0A80E060E00E94D90D04
:1023600080E690E00E94BD0D7894E9E5F0E084E01D
:102370008083EFE4F0E01082A2E3B0E0E2E3F0E07B
:10238000808181608C9380E090E0A0E2B1E48BA337
:102390009CA3ADA3BEA36BA17CA18DA19EA120E0B7
:1023A00030E040E850E40E949C02DC01CB018F8FBA
:1023B00098A3A9A3BAA36F8D78A189A19AA120E0BF
:1023C00030E040E85FE30E94A20488231CF481E02F
:1023D0008E8F91C06F8D78A189A19AA120E030E005
:1023E0004FE753E40E94420418160CF07BC06BA127
:1023F0007CA18DA19EA120E030E04AE754E40E9438
:102400009603DC01CB018A8F9B8FAC8FBD8F6A8DC9
:102410007B8D8C8D9D8D20E030E84BE355E40E9450
:102420009C02DC01CB018E8B9F8BA88FB98F6E89AC
:102430007F89888D998D20E030E040E85FE30E943D
:10244000A20488232CF481E090E09D8B8C8B3FC00C
:102450006E897F89888D998D20E03FEF4FE757E4A3
:102460000E94420418164CF56A8D7B8D8C8D9D8DD3
:1024700020E030E040E251E40E949C02DC01CB010C
:10248000BC01CD010E94C600DC01CB019D8B8C8B71
:102490000FC08CE291E09B8B8A8B8A899B89019784
:1024A000F1F79B8B8A8B8C899D8901979D8B8C8BF7
:1024B0008C899D89009769F724C06E897F89888DF2
:1024C000998D0E94C600DC01CB019D8B8C8B8C8981
:1024D0009D89998B888B888999890197F1F7998BC8
:1024E000888B0FC06F8D78A189A19AA10E94C60028
:1024F000DC01CB018E8F8E8D8F878F858A95F1F7CA
:102500008F87A2E3B0E0E2E3F0E080818E7F8C93DE
:10251000ECE4F0E011821082EEE4F0E081E48083EC
:10252000E8E5F0E080E28083E8E5F0E084E08083A5
:10253000E8E5F0E08081882F90E08072907000974D
:10254000B9F3ECE4F0E011821082EEE4F0E081E017
:102550008083E8E5F0E080E28083E8E5F0E084E075
:1025600080831092830110928201E8E5F0E080817F
:10257000882F90E0807290700097B9F3E6E4F0E065
:10258000808191817C0100E010E080918201909136
:102590008301AA2797FDA095BA2F2FEF3FEF40E0C8
:1025A00050E0BC01CD010E94AC13DC01CB018E0DCB
:1025B0009F1DA01FB11F8BA79CA7ADA7BEA76BA592
:1025C0007CA58DA59EA50E94D204DC01CB01BC0197
:1025D000CD0129E23CE349EE53E40E949603DC017D
:1025E000CB018FA398A7A9A7BAA78FA198A5A9A542
:1025F000BAA5FE01BF96BC01CD0142E022E08F01E9
:102600000E9424148E01015D1F4FCE018F960E94FF
:102610004E14800F911F2BE630E0B90147E050E0E7
:102620000E94451481E060E00E94D90D82E790E0AD
:102630000E94BD0D81E067E00E94D90DCE018F960A
:102640000E94BD0D80E090E0A8E4B3E48B879C87F6
:10265000AD87BE876B857C858D859E8520E030E8C3
:102660004BE355E40E949C02DC01CB018F839887E9
:10267000A987BA876F81788589859A8520E030E0BF
:1026800040E85FE30E94A20488232CF481E090E0FC
:102690009E838D833FC06F81788589859A8520E0F0
:1026A0003FEF4FE757E40E94420418164CF56B8544
:1026B0007C858D859E8520E030E040E251E40E94DB
:1026C0009C02DC01CB01BC01CD010E94C600DC01F3
:1026D000CB019E838D830FC08CE291E09C838B8322
:1026E0008B819C810197F1F79C838B838D819E81E7
:1026F00001979E838D838D819E81009769F714C019
:102700006F81788589859A850E94C600DC01CB019E
:102710009E838D838D819E819A83898389819A810D
:102720000197F1F79A8389836FA178A589A59AA566
:1027300020E030E040EA50E40E944204181634F4ED
:1027400081E060E041E00E945C0816CE81E060E03C
:1027500040E00E945C0810CE629FD001739FF001A0
:10276000829FE00DF11D649FE00DF11D929FF00D21
:10277000839FF00D749FF00D659FF00D9927729F58
:10278000B00DE11DF91F639FB00DE11DF91FBD01E3
:10279000CF0111240895A1E21A2EAA1BBB1BFD0133
:1027A0000DC0AA1FBB1FEE1FFF1FA217B307E40730
:1027B000F50720F0A21BB30BE40BF50B661F771F88
:1027C000881F991F1A9469F7609570958095909568
:1027D0009B01AC01BD01CF0108952F923F924F9212
:1027E0005F926F927F928F929F92AF92BF92CF92A1
:1027F000DF92EF92FF920F931F93CF93DF93CDB7AA
:10280000DEB7CA1BDB0B0FB6F894DEBF0FBECDBF21
:1028100009942A88398848885F846E847D848C84F2
:102820009B84AA84B984C884DF80EE80FD800C81FB
:102830001B81AA81B981CE0FD11D0FB6F894DEBFDE
:102840000FBECDBFED010895EF92FF920F931F933E
:10285000F22FF02E47FD02C0E4E001C0E4E1242F96
:10286000332727FD309537FF03C0309521953F4F23
:102870004F2D512F0F2FEE2E0E9457148F2D912F79
:102880001F910F91FF90EF900895FB01DC0102C0B2
:1028900001900D9241505040D8F70895FC010190ED
:1028A0000020E9F7809590958E0F9F1F0895A9E06D
:1028B000B0E0EDE5F4E10C94F1136A01122FA02EC3
:1028C000BE2C2BE3201718F42CE3922E02C0902E7E
:1028D0009394AE014F5F5F4F27E0092D0E94B91519
:1028E000BC018981E82EFF24C7018970907001978F
:1028F00011F4ADE209C0B1FE02C0ABE205C0B0FC0C
:1029000002C0A0E001C0A0E2E3FE3BC0AA2311F494
:1029100023E001C024E0211710F020E002C0121BC8
:10292000212FEB2CB4FE02C0322F0AC0F601322F49
:1029300080E202C0819331503323E1F7C20ED11CF3
:10294000AA2319F0F601A1936F01F6013196E2FE78
:1029500005C09EE4D6019C9381E404C09EE6D601A6
:102960009C9381E611968C9391833296DF01832F9D
:1029700090E202C09D9381508823E1F7E30FF11D9F
:1029800040C0E2FE42C0AA2311F423E001C024E0CB
:10299000211710F020E002C0121B212FEB2CB4FEF7
:1029A00002C0922F0AC0F601922F80E202C08193EA
:1029B00091509923E1F7C20ED11CAA2319F0F60118
:1029C000A1936F01F6013196E2FE08C089E4D601B9
:1029D0008C938EE411968C9386E407C089E6D60129
:1029E0008C938EE611968C9386E681833296DF0176
:1029F000892F20E202C02D9381508823E1F7E90F4F
:102A0000F11D10822EEF3FEFAFC0161617061CF017
:102A100041E050E003C0AB014F5F5F4FAA2019F4C3
:102A200080E090E003C08A2D90E0019620E030E045
:102A3000AA2311F021E030E0240F351F280F391FA1
:102A4000812F90E02817390714F020E002C0121BF4
:102A5000212F4B2D50E0CA0180719070B4FC0DC045
:102A6000B3FC0BC0F601322F40E202C0419331505B
:102A70003323E1F7C20ED11C01C0322FAA2319F073
:102A8000F601A1936F01892B11F0132F0AC0F601F3
:102A9000132F80E302C0819311501123E1F7C30E7D
:102AA000D11C092D060FBA8090E1892E912C8E2021
:102AB0009F20E4FE04C0F1E3BF1609F40150101694
:102AC00014F001E003C0093008F008E09B0177FF33
:102AD00002C020E030E0CB010196821B930BFE0187
:102AE0003196E80FF91F8EE2F82E3B01601A71084B
:102AF0008A2D90E044275527481B590B8FEF2F3F15
:102B0000380719F4D601FD926D01621773072CF096
:102B10006216730614F4808101C080E321503040B6
:102B200031962417350724F0D6018D936D01E6CF39
:102B30002617370749F4B5E3BB1528F0BB1621F477
:102B40008114910409F481E3F6018193D601812F68
:102B500090E202C09C93815011968823D9F7E10F2F
:102B6000F11D108220E030E0C9012996EEE00C94BE
:102B70000D14283008F027E03327DA01990F311DB2
:102B800087FD916000966105710539F432602E5F12
:102B90003D9330E32A95E1F708959F3F30F0803868
:102BA0007105610509F03C5F3C5F3D93913008F091
:102BB0008068911DDF93CF931F930F93FF92EF9245
:102BC000192F987F9695E92F96959695E90FFF27EF
:102BD000E255FF4F99273327EE24FF24A701E70191
:102BE00005900894079428F4360FE71EF81E491F35
:102BF000511D660F771F881F991F0694A1F7059036
:102C0000079428F4E70EF81E491F561FC11D770FC1
:102C1000881F991F661F0694A1F70590079428F452
:102C2000F80E491F561FC71FD11D880F991F661F19
:102C3000771F0694A1F70590079420F4490F561FBB
:102C4000C71FD81F990F661F771F881F0694A9F703
:102C500084911095177041F0D695C7955795479573
:102C6000F794E7941A95C1F7E4E5F0E068941590BD
:102C7000159135916591959105907FE27395E118D5
:102C8000F10A430B560BC90BD009C0F7E10CF11E3A
:102C9000431F561FC91FD01D7EF4703311F48A954F
:102CA000E6CFE894015030F0080F0AF4002702172D
:102CB00008F4202F2395022F7A3328F079E37D93AF
:102CC0002A95E9F710C07D932A9589F60694979581
:102CD0006795379517951794E118F10A430B560B32
:102CE000C90BD00998F023957E9173957A3308F03B
:102CF00070E37C932013B8F77E9170617D9330F080
:102D0000839571E37D9370E32A95E1F71124EF90A9
:102D1000FF900F911F91CF91DF91992787FD90959B
:062D20000895F894FFCFB6
:102D2600556C747261736F6E69630020636D202049
:102D3600200044697374203D20000000000000005C
:102D46000000000102020303030304040404040454
:102D5600040405050505050505050505050505051F
:102D660005050606060606060606060606060606FF
:102D760006060606060606060606060606060606ED
:102D860006060707070707070707070707070707CF
:102D960007070707070707070707070707070707BD
:102DA60007070707070707070707070707070707AD
:102DB600070707070707070707070707070707079D
:102DC600070708080808080808080808080808087F
:102DD600080808080808080808080808080808086D
:102DE600080808080808080808080808080808085D
:102DF600080808080808080808080808080808084D
:102E0600080808080808080808080808080808083C
:102E1600080808080808080808080808080808082C
:102E2600080808080808080808080808080808081C
:102E3600080808080808080808080808080808080C
:022E460008087A
:00000001FF
