:100000000C942A000C9434000C9434000C943400AA
:100010000C9434000C9434000C9434000C94340090
:100020000C9434000C9434000C9434000C94340080
:100030000C9434000C9434000C9434000C94340070
:100040000C9434000C9434000C9434000C94340060
:100050000C94340011241FBECFE5D8E0DEBFCDBF25
:100060000E9452030C946A030C940000DF93CF9318
:1000700000D000D00F92CDB7DEB789836A834B835F
:100080008981282F30E03D832C838C819D818130B4
:10009000910509F443C02C813D81223031052CF4B7
:1000A0008C819D81009771F0BCC02C813D812230F4
:1000B000310509F45FC08C819D818330910509F47D
:1000C00085C0AFC08B818823A9F4AAE3B0E0EAE33E
:1000D000F0E08081482F8A81282F30E081E090E095
:1000E000022E02C0880F991F0A94E2F7809584239C
:1000F0008C9397C0AAE3B0E0EAE3F0E08081482F58
:100100008A81282F30E081E090E0022E02C0880F23
:10011000991F0A94E2F7842B8C9383C08B818823E8
:10012000A9F4A7E3B0E0E7E3F0E08081482F8A81FB
:10013000282F30E081E090E0022E02C0880F991F46
:100140000A94E2F7809584238C936BC0A7E3B0E018
:10015000E7E3F0E08081482F8A81282F30E081E0BA
:1001600090E0022E02C0880F991F0A94E2F7842BB8
:100170008C9357C08B818823A9F4A4E3B0E0E4E317
:10018000F0E08081482F8A81282F30E081E090E0E4
:10019000022E02C0880F991F0A94E2F780958423EB
:1001A0008C933FC0A4E3B0E0E4E3F0E08081482F0B
:1001B0008A81282F30E081E090E0022E02C0880F73
:1001C000991F0A94E2F7842B8C932BC08B81882390
:1001D000A9F4A1E3B0E0E1E3F0E08081482F8A8157
:1001E000282F30E081E090E0022E02C0880F991F96
:1001F0000A94E2F7809584238C9313C0A1E3B0E0C6
:10020000E1E3F0E08081482F8A81282F30E081E00F
:1002100090E0022E02C0880F991F0A94E2F7842B07
:100220008C930F900F900F900F900F90CF91DF91C4
:100230000895DF93CF9300D000D00F92CDB7DEB7F3
:1002400089836A834B838981282F30E03D832C8307
:100250008C819D818130910509F443C02C813D81C1
:10026000223031052CF48C819D81009771F0BCC047
:100270002C813D812230310509F45FC08C819D8144
:100280008330910509F485C0AFC08B818823A9F420
:10029000ABE3B0E0EBE3F0E08081482F8A81282FC8
:1002A00030E081E090E0022E02C0880F991F0A948E
:1002B000E2F7809584238C9397C0ABE3B0E0EBE347
:1002C000F0E08081482F8A81282F30E081E090E0A3
:1002D000022E02C0880F991F0A94E2F7842B8C9398
:1002E00083C08B818823A9F4A8E3B0E0E8E3F0E0C1
:1002F0008081482F8A81282F30E081E090E0022E13
:1003000002C0880F991F0A94E2F7809584238C938A
:100310006BC0A8E3B0E0E8E3F0E08081482F8A8179
:10032000282F30E081E090E0022E02C0880F991F54
:100330000A94E2F7842B8C9357C08B818823A9F40D
:10034000A5E3B0E0E5E3F0E08081482F8A81282F23
:1003500030E081E090E0022E02C0880F991F0A94DD
:10036000E2F7809584238C933FC0A5E3B0E0E5E3FA
:10037000F0E08081482F8A81282F30E081E090E0F2
:10038000022E02C0880F991F0A94E2F7842B8C93E7
:100390002BC08B818823A9F4A2E3B0E0E2E3F0E074
:1003A0008081482F8A81282F30E081E090E0022E62
:1003B00002C0880F991F0A94E2F7809584238C93DA
:1003C00013C0A2E3B0E0E2E3F0E08081482F8A812D
:1003D000282F30E081E090E0022E02C0880F991FA4
:1003E0000A94E2F7842B8C930F900F900F900F904C
:1003F0000F90CF91DF910895DF93CF9300D000D07D
:10040000CDB7DEB789836A838981282F30E03C83AA
:100410002B838B819C818130910549F12B813C811B
:10042000223031052CF48B819C81009761F05AC0F9
:100430002B813C812230310571F18B819C8183308D
:100440009105E9F14FC0ABE3B0E0EBE3F0E0808170
:10045000482F8A81282F30E081E090E0022E02C0F0
:10046000880F991F0A94E2F784278C933BC0A8E376
:10047000B0E0E8E3F0E08081482F8A81282F30E067
:1004800081E090E0022E02C0880F991F0A94E2F7E3
:1004900084278C9327C0A5E3B0E0E5E3F0E08081FA
:1004A000482F8A81282F30E081E090E0022E02C0A0
:1004B000880F991F0A94E2F784278C9313C0A2E354
:1004C000B0E0E2E3F0E08081482F8A81282F30E01D
:1004D00081E090E0022E02C0880F991F0A94E2F793
:1004E00084278C930F900F900F900F90CF91DF91F6
:1004F0000895DF93CF93CDB7DEB7ADE2B0E0EDE284
:10050000F0E0808180648C93ADE2B0E0EDE2F0E059
:1005100080818F7D8C93ADE2B0E0EDE2F0E08081F0
:1005200080618C93ADE2B0E0EDE2F0E08081877F06
:100530008C93ADE2B0E0EDE2F0E0808184608C93DA
:10054000ADE2B0E0EDE2F0E0808181608C93ADE25D
:10055000B0E0EDE2F0E0808182608C93AEE2B0E04A
:10056000EEE2F0E0808181608C9381E064E041E024
:100570000E94360081E065E041E00E94360081E0A3
:1005800067E041E00E94360081E066E040E00E94C2
:100590003600CF91DF910895DF93CF93CDB7DEB7CB
:1005A000ADE2B0E0EDE2F0E0808180648C93ADE2FA
:1005B000B0E0EDE2F0E080818F7D8C93ADE2B0E0C1
:1005C000EDE2F0E080818F7E8C93ADE2B0E0EDE271
:1005D000F0E08081877F8C93ADE2B0E0EDE2F0E067
:1005E000808184608C93ADE2B0E0EDE2F0E0808148
:1005F00081608C93ADE2B0E0EDE2F0E0808182605A
:100600008C93AEE2B0E0EEE2F0E0808181608C930A
:1006100081E064E040E00E94360081E064E041E077
:100620000E94190181E065E040E00E94360081E00F
:1006300067E040E00E94360081E066E041E00E9411
:100640003600CF91DF910895DF93CF930F92CDB70E
:10065000DEB78983EFE2F0E089818083EEE2F0E0AB
:1006600080818823DCF7EFE2F0E080810F90CF916A
:10067000DF910895DF93CF93CDB7DEB781E064E0DB
:1006800040E00E941901CF91DF910895DF93CF934D
:10069000CDB7DEB781E064E041E00E941901CF915F
:1006A000DF910895DF93CF930F92CDB7DEB780E04F
:1006B00060E041E00E9436000E94CC028FEF0E9471
:1006C0002403898389818136C9F780E060E00E9434
:0806D000FC01F4CFF894FFCF08
:00000001FF
