:100000000C942A000C943F000C943F000C943F0089
:100010000C943F000C943F000C943F000C943F0064
:100020000C943F000C943F000C943F000C943F0054
:100030000C943F000C943F000C943F000C943F0044
:100040000C943F000C943F000C943F000C943F0034
:100050000C943F0011241FBECFE5D8E0DEBFCDBF1A
:1000600010E0A0E6B0E0E8EAF8E002C005900D92EA
:10007000AA36B107D9F70E9408040C9452040C94D4
:100080000000DF93CF9300D000D00F92CDB7DEB742
:1000900089836A834B838981282F30E03D832C83B9
:1000A0008C819D818130910509F443C02C813D8173
:1000B000223031052CF48C819D81009771F0BCC0F9
:1000C0002C813D812230310509F45FC08C819D81F6
:1000D0008330910509F485C0AFC08B818823A9F4D2
:1000E000AAE3B0E0EAE3F0E08081482F8A81282F7C
:1000F00030E081E090E0022E02C0880F991F0A9440
:10010000E2F7809584238C9397C0AAE3B0E0EAE3FA
:10011000F0E08081482F8A81282F30E081E090E054
:10012000022E02C0880F991F0A94E2F7842B8C9349
:1001300083C08B818823A9F4A7E3B0E0E7E3F0E074
:100140008081482F8A81282F30E081E090E0022EC4
:1001500002C0880F991F0A94E2F7809584238C933C
:100160006BC0A7E3B0E0E7E3F0E08081482F8A812D
:10017000282F30E081E090E0022E02C0880F991F06
:100180000A94E2F7842B8C9357C08B818823A9F4BF
:10019000A4E3B0E0E4E3F0E08081482F8A81282FD7
:1001A00030E081E090E0022E02C0880F991F0A948F
:1001B000E2F7809584238C933FC0A4E3B0E0E4E3AE
:1001C000F0E08081482F8A81282F30E081E090E0A4
:1001D000022E02C0880F991F0A94E2F7842B8C9399
:1001E0002BC08B818823A9F4A1E3B0E0E1E3F0E028
:1001F0008081482F8A81282F30E081E090E0022E14
:1002000002C0880F991F0A94E2F7809584238C938B
:1002100013C0A1E3B0E0E1E3F0E08081482F8A81E0
:10022000282F30E081E090E0022E02C0880F991F55
:100230000A94E2F7842B8C930F900F900F900F90FD
:100240000F90CF91DF910895DF93CF9300D000D02E
:100250000F92CDB7DEB789836A834B838981282FBC
:1002600030E03D832C838C819D818130910509F4A0
:1002700043C02C813D81223031052CF48C819D813D
:10028000009771F0BCC02C813D812230310509F40A
:100290005FC08C819D818330910509F485C0AFC01A
:1002A0008B818823A9F4ABE3B0E0EBE3F0E080813D
:1002B000482F8A81282F30E081E090E0022E02C092
:1002C000880F991F0A94E2F7809584238C9397C036
:1002D000ABE3B0E0EBE3F0E08081482F8A81282F88
:1002E00030E081E090E0022E02C0880F991F0A944E
:1002F000E2F7842B8C9383C08B818823A9F4A8E335
:10030000B0E0E8E3F0E08081482F8A81282F30E0D8
:1003100081E090E0022E02C0880F991F0A94E2F754
:10032000809584238C936BC0A8E3B0E0E8E3F0E011
:100330008081482F8A81282F30E081E090E0022ED2
:1003400002C0880F991F0A94E2F7842B8C9357C040
:100350008B818823A9F4A5E3B0E0E5E3F0E0808198
:10036000482F8A81282F30E081E090E0022E02C0E1
:10037000880F991F0A94E2F7809584238C933FC0DD
:10038000A5E3B0E0E5E3F0E08081482F8A81282FE3
:1003900030E081E090E0022E02C0880F991F0A949D
:1003A000E2F7842B8C932BC08B818823A9F4A2E3E2
:1003B000B0E0E2E3F0E08081482F8A81282F30E02E
:1003C00081E090E0022E02C0880F991F0A94E2F7A4
:1003D000809584238C9313C0A2E3B0E0E2E3F0E0C5
:1003E0008081482F8A81282F30E081E090E0022E22
:1003F00002C0880F991F0A94E2F7842B8C930F9008
:100400000F900F900F900F90CF91DF910895DF9391
:10041000CF9300D000D0CDB7DEB789836A838981BE
:10042000282F30E03C832B838B819C818130910588
:1004300049F12B813C81223031052CF48B819C8148
:10044000009761F05AC02B813C812230310571F157
:100450008B819C8183309105E9F14FC0ABE3B0E023
:10046000EBE3F0E08081482F8A81282F30E081E0A3
:1004700090E0022E02C0880F991F0A94E2F78427A9
:100480008C933BC0A8E3B0E0E8E3F0E08081482F24
:100490008A81282F30E081E090E0022E02C0880F90
:1004A000991F0A94E2F784278C9327C0A5E3B0E054
:1004B000E5E3F0E08081482F8A81282F30E081E059
:1004C00090E0022E02C0880F991F0A94E2F7842759
:1004D0008C9313C0A2E3B0E0E2E3F0E08081482F08
:1004E0008A81282F30E081E090E0022E02C0880F40
:1004F000991F0A94E2F784278C930F900F900F9026
:100500000F90CF91DF910895DF93CF9300D000D06B
:1005100000D0CDB7DEB789836A838981282F30E088
:100520003D832C834C815D814130510549F18C81A3
:100530009D818230910534F42C813D812115310556
:1005400061F057C04C815D814230510561F18C8171
:100550009D8183309105D1F14CC0E9E3F0E08081C9
:10056000282F30E08A81882F90E0A90102C055959C
:1005700047958A95E2F7CA01582F51705B833AC0BC
:10058000E6E3F0E08081282F30E08A81882F90E038
:10059000A90102C0559547958A95E2F7CA01582FDF
:1005A00051705B8327C0E3E3F0E08081282F30E0C7
:1005B0008A81882F90E0A90102C0559547958A95B8
:1005C000E2F7CA01582F51705B8314C0E0E3F0E0FA
:1005D0008081282F30E08A81882F90E0A90102C015
:1005E000559547958A95E2F7CA01582F51705B835C
:1005F00001C002C08B818E838E8126960FB6F8943F
:10060000DEBF0FBECDBFCF91DF910895DF93CF93B3
:1006100000D0CDB7DEB71A8250C0EAE3F0E08A819D
:10062000282F30E080E190E002C0880F991F2A95C2
:10063000E2F78083EBE3F0E08A81282F30E080E16D
:1006400090E0022E02C0880F991F0A94E2F780956D
:10065000808319822CC0A9E3B0E0E9E3F0E0808157
:10066000482F8981282F30E081E090E0022E02C0DF
:10067000880F991F0A94E2F7809584238C938C91BC
:10068000882391F08981882F90E0880F991F880F27
:10069000991F982F8A81890F8F5F0E9462030F90A4
:1006A0000F90CF91DF91089589818F5F8983898130
:1006B000843088F28A818F5F8A838A81843008F44B
:1006C000ACCFA9CFDF93CF9300D000D0CDB7DEB7AA
:1006D00089838981282F30E03C832B838B819C8107
:1006E0008830910509F470C02B813C812930310597
:1006F0005CF58B819C818430910509F459C02B8174
:100700003C81253031059CF48B819C8182309105A0
:1007100009F448C02B813C81233031050CF045C0E1
:100720008B819C818130910509F439C067C02B8190
:100730003C812630310509F441C08B819C81873092
:1007400091050CF03EC037C02B813C812C30310527
:1007500009F446C08B819C818D3091055CF42B811E
:100760003C812A303105B1F18B819C818B30910520
:10077000A4F52DC02B813C812E303105B9F18B8140
:100780009C818E3091057CF12B813C812F3031058D
:1007900079F18B819C818031910569F12FC097E0BF
:1007A0009A832EC028E02A832BC039E03A8328C0E0
:1007B00085E28A8325C094E09A8322C025E02A83BB
:1007C0001FC036E03A831CC08AE28A8319C091E0D8
:1007D0009A8316C022E02A8313C033E03A8310C004
:1007E0008DE28A830DC09DE09A830AC01A8208C0F8
:1007F0002DE32A8305C03BE23A8302C089818A83C4
:100800008A810F900F900F900F90CF91DF910895F4
:100810000F931F93DF93CF93CDB7DEB761970FB6DA
:10082000F894DEBF0FBECDBFCE0103969E878D87A5
:10083000E0E6F0E0F88BEF87FAE0F98BEF85F889D6
:1008400000808F8598890196988B8F87ED85FE852E
:1008500000828D859E8501969E878D87998991500E
:10086000998BE989EE2351F7E7E3F0E08FEF80837E
:100870000E9406038A838A818F3F81F019820AC011
:1008800008E310E089810E946203F8018083898176
:100890008F5F898389818A3098F3EACFE8E3F0E0BB
:0808A0001082E6CFF894FFCFAF
:0A08A8005F063B2F666D7D077F6F32
:00000001FF
